{"abi":[{"type":"receive","stateMutability":"payable"},{"type":"function","name":"UPGRADE_INTERFACE_VERSION","inputs":[],"outputs":[{"name":"","type":"string","internalType":"string"}],"stateMutability":"view"},{"type":"function","name":"abondUSDaPool","inputs":[],"outputs":[{"name":"","type":"uint256","internalType":"uint256"}],"stateMutability":"view"},{"type":"function","name":"allowInitializePath","inputs":[{"name":"origin","type":"tuple","internalType":"struct Origin","components":[{"name":"srcEid","type":"uint32","internalType":"uint32"},{"name":"sender","type":"bytes32","internalType":"bytes32"},{"name":"nonce","type":"uint64","internalType":"uint64"}]}],"outputs":[{"name":"","type":"bool","internalType":"bool"}],"stateMutability":"view"},{"type":"function","name":"approveUSDa","inputs":[{"name":"_address","type":"address","internalType":"address"},{"name":"_amount","type":"uint256","internalType":"uint256"}],"outputs":[],"stateMutability":"nonpayable"},{"type":"function","name":"approveUsdt","inputs":[{"name":"_address","type":"address","internalType":"address"},{"name":"_amount","type":"uint256","internalType":"uint256"}],"outputs":[],"stateMutability":"nonpayable"},{"type":"function","name":"borrowing","inputs":[{"name":"depositor","type":"address","internalType":"address"}],"outputs":[{"name":"depositedAmount","type":"uint256","internalType":"uint256"},{"name":"totalBorrowedAmount","type":"uint256","internalType":"uint256"},{"name":"hasBorrowed","type":"bool","internalType":"bool"},{"name":"hasDeposited","type":"bool","internalType":"bool"},{"name":"borrowerIndex","type":"uint64","internalType":"uint64"}],"stateMutability":"view"},{"type":"function","name":"calculateYieldsForExternalProtocol","inputs":[{"name":"user","type":"address","internalType":"address"},{"name":"aBondAmount","type":"uint128","internalType":"uint128"}],"outputs":[{"name":"","type":"uint256","internalType":"uint256"}],"stateMutability":"view"},{"type":"function","name":"deposit","inputs":[{"name":"_depositingAmount","type":"uint256","internalType":"uint256"},{"name":"user","type":"address","internalType":"address"},{"name":"_ethPrice","type":"uint128","internalType":"uint128"},{"name":"_depositTime","type":"uint64","internalType":"uint64"}],"outputs":[{"name":"","type":"tuple","internalType":"struct ITreasury.DepositResult","components":[{"name":"hasDeposited","type":"bool","internalType":"bool"},{"name":"borrowerIndex","type":"uint64","internalType":"uint64"}]}],"stateMutability":"payable"},{"type":"function","name":"endpoint","inputs":[],"outputs":[{"name":"","type":"address","internalType":"contract ILayerZeroEndpointV2"}],"stateMutability":"view"},{"type":"function","name":"getBalanceInTreasury","inputs":[],"outputs":[{"name":"","type":"uint256","internalType":"uint256"}],"stateMutability":"view"},{"type":"function","name":"getBorrowing","inputs":[{"name":"depositor","type":"address","internalType":"address"},{"name":"index","type":"uint64","internalType":"uint64"}],"outputs":[{"name":"","type":"tuple","internalType":"struct ITreasury.GetBorrowingResult","components":[{"name":"totalIndex","type":"uint64","internalType":"uint64"},{"name":"depositDetails","type":"tuple","internalType":"struct ITreasury.DepositDetails","components":[{"name":"depositedTime","type":"uint64","internalType":"uint64"},{"name":"depositedAmount","type":"uint128","internalType":"uint128"},{"name":"depositedAmountUsdValue","type":"uint128","internalType":"uint128"},{"name":"downsidePercentage","type":"uint64","internalType":"uint64"},{"name":"ethPriceAtDeposit","type":"uint128","internalType":"uint128"},{"name":"borrowedAmount","type":"uint128","internalType":"uint128"},{"name":"normalizedAmount","type":"uint128","internalType":"uint128"},{"name":"withdrawed","type":"bool","internalType":"bool"},{"name":"withdrawAmount","type":"uint128","internalType":"uint128"},{"name":"liquidated","type":"bool","internalType":"bool"},{"name":"ethPriceAtWithdraw","type":"uint64","internalType":"uint64"},{"name":"withdrawTime","type":"uint64","internalType":"uint64"},{"name":"aBondTokensAmount","type":"uint128","internalType":"uint128"},{"name":"strikePrice","type":"uint128","internalType":"uint128"},{"name":"optionFees","type":"uint128","internalType":"uint128"}]}]}],"stateMutability":"view"},{"type":"function","name":"getExternalProtocolCumulativeRate","inputs":[{"name":"maximum","type":"bool","internalType":"bool"}],"outputs":[{"name":"","type":"uint128","internalType":"uint128"}],"stateMutability":"view"},{"type":"function","name":"initialize","inputs":[{"name":"_borrowing","type":"address","internalType":"address"},{"name":"_tokenAddress","type":"address","internalType":"address"},{"name":"_abondAddress","type":"address","internalType":"address"},{"name":"_cdsContract","type":"address","internalType":"address"},{"name":"_borrowLiquidation","type":"address","internalType":"address"},{"name":"_usdt","type":"address","internalType":"address"},{"name":"_endpoint","type":"address","internalType":"address"},{"name":"_delegate","type":"address","internalType":"address"}],"outputs":[],"stateMutability":"nonpayable"},{"type":"function","name":"isComposeMsgSender","inputs":[{"name":"","type":"tuple","internalType":"struct Origin","components":[{"name":"srcEid","type":"uint32","internalType":"uint32"},{"name":"sender","type":"bytes32","internalType":"bytes32"},{"name":"nonce","type":"uint64","internalType":"uint64"}]},{"name":"","type":"bytes","internalType":"bytes"},{"name":"_sender","type":"address","internalType":"address"}],"outputs":[{"name":"","type":"bool","internalType":"bool"}],"stateMutability":"view"},{"type":"function","name":"lzReceive","inputs":[{"name":"_origin","type":"tuple","internalType":"struct Origin","components":[{"name":"srcEid","type":"uint32","internalType":"uint32"},{"name":"sender","type":"bytes32","internalType":"bytes32"},{"name":"nonce","type":"uint64","internalType":"uint64"}]},{"name":"_guid","type":"bytes32","internalType":"bytes32"},{"name":"_message","type":"bytes","internalType":"bytes"},{"name":"_executor","type":"address","internalType":"address"},{"name":"_extraData","type":"bytes","internalType":"bytes"}],"outputs":[],"stateMutability":"payable"},{"type":"function","name":"nextNonce","inputs":[{"name":"","type":"uint32","internalType":"uint32"},{"name":"","type":"bytes32","internalType":"bytes32"}],"outputs":[{"name":"nonce","type":"uint64","internalType":"uint64"}],"stateMutability":"view"},{"type":"function","name":"noOfBorrowers","inputs":[],"outputs":[{"name":"","type":"uint128","internalType":"uint128"}],"stateMutability":"view"},{"type":"function","name":"oAppVersion","inputs":[],"outputs":[{"name":"senderVersion","type":"uint64","internalType":"uint64"},{"name":"receiverVersion","type":"uint64","internalType":"uint64"}],"stateMutability":"pure"},{"type":"function","name":"oftOrNativeReceiveFromOtherChains","inputs":[{"name":"_functionToDo","type":"uint8","internalType":"enum ITreasury.FunctionToDo"},{"name":"_oftTransferData","type":"tuple","internalType":"struct ITreasury.USDaOftTransferData","components":[{"name":"recipient","type":"address","internalType":"address"},{"name":"tokensToSend","type":"uint256","internalType":"uint256"}]},{"name":"_nativeTokenTransferData","type":"tuple","internalType":"struct ITreasury.NativeTokenTransferData","components":[{"name":"recipient","type":"address","internalType":"address"},{"name":"nativeTokensToSend","type":"uint256","internalType":"uint256"}]}],"outputs":[{"name":"receipt","type":"tuple","internalType":"struct MessagingReceipt","components":[{"name":"guid","type":"bytes32","internalType":"bytes32"},{"name":"nonce","type":"uint64","internalType":"uint64"},{"name":"fee","type":"tuple","internalType":"struct MessagingFee","components":[{"name":"nativeFee","type":"uint256","internalType":"uint256"},{"name":"lzTokenFee","type":"uint256","internalType":"uint256"}]}]}],"stateMutability":"payable"},{"type":"function","name":"omniChainTreasuryEthProfitsOfLiquidators","inputs":[],"outputs":[{"name":"","type":"uint256","internalType":"uint256"}],"stateMutability":"view"},{"type":"function","name":"omniChainTreasuryNoOfBorrowers","inputs":[],"outputs":[{"name":"","type":"uint128","internalType":"uint128"}],"stateMutability":"view"},{"type":"function","name":"omniChainTreasuryTotalVolumeOfBorrowersAmountinUSD","inputs":[],"outputs":[{"name":"","type":"uint256","internalType":"uint256"}],"stateMutability":"view"},{"type":"function","name":"omniChainTreasuryTotalVolumeOfBorrowersAmountinWei","inputs":[],"outputs":[{"name":"","type":"uint256","internalType":"uint256"}],"stateMutability":"view"},{"type":"function","name":"owner","inputs":[],"outputs":[{"name":"","type":"address","internalType":"address"}],"stateMutability":"view"},{"type":"function","name":"peers","inputs":[{"name":"eid","type":"uint32","internalType":"uint32"}],"outputs":[{"name":"peer","type":"bytes32","internalType":"bytes32"}],"stateMutability":"view"},{"type":"function","name":"proxiableUUID","inputs":[],"outputs":[{"name":"","type":"bytes32","internalType":"bytes32"}],"stateMutability":"view"},{"type":"function","name":"quote","inputs":[{"name":"_dstEid","type":"uint32","internalType":"uint32"},{"name":"_functionToDo","type":"uint8","internalType":"enum ITreasury.FunctionToDo"},{"name":"_oftTransferData","type":"tuple","internalType":"struct ITreasury.USDaOftTransferData","components":[{"name":"recipient","type":"address","internalType":"address"},{"name":"tokensToSend","type":"uint256","internalType":"uint256"}]},{"name":"_nativeTokenTransferData","type":"tuple","internalType":"struct ITreasury.NativeTokenTransferData","components":[{"name":"recipient","type":"address","internalType":"address"},{"name":"nativeTokensToSend","type":"uint256","internalType":"uint256"}]},{"name":"_options","type":"bytes","internalType":"bytes"},{"name":"_payInLzToken","type":"bool","internalType":"bool"}],"outputs":[{"name":"fee","type":"tuple","internalType":"struct MessagingFee","components":[{"name":"nativeFee","type":"uint256","internalType":"uint256"},{"name":"lzTokenFee","type":"uint256","internalType":"uint256"}]}],"stateMutability":"view"},{"type":"function","name":"renounceOwnership","inputs":[],"outputs":[],"stateMutability":"nonpayable"},{"type":"function","name":"setDelegate","inputs":[{"name":"_delegate","type":"address","internalType":"address"}],"outputs":[],"stateMutability":"nonpayable"},{"type":"function","name":"setDstEid","inputs":[{"name":"_eid","type":"uint32","internalType":"uint32"}],"outputs":[],"stateMutability":"nonpayable"},{"type":"function","name":"setDstTreasuryAddress","inputs":[{"name":"_treasuryAddress","type":"address","internalType":"address"}],"outputs":[],"stateMutability":"nonpayable"},{"type":"function","name":"setExternalProtocolAddresses","inputs":[{"name":"_wethGateway","type":"address","internalType":"address"},{"name":"_comet","type":"address","internalType":"address"},{"name":"_aavePoolAddressProvider","type":"address","internalType":"address"},{"name":"_aToken","type":"address","internalType":"address"},{"name":"_weth","type":"address","internalType":"address"}],"outputs":[],"stateMutability":"nonpayable"},{"type":"function","name":"setPeer","inputs":[{"name":"_eid","type":"uint32","internalType":"uint32"},{"name":"_peer","type":"bytes32","internalType":"bytes32"}],"outputs":[],"stateMutability":"nonpayable"},{"type":"function","name":"totalVolumeOfBorrowersAmountinUSD","inputs":[],"outputs":[{"name":"","type":"uint256","internalType":"uint256"}],"stateMutability":"view"},{"type":"function","name":"totalVolumeOfBorrowersAmountinWei","inputs":[],"outputs":[{"name":"","type":"uint256","internalType":"uint256"}],"stateMutability":"view"},{"type":"function","name":"transferEthToCdsLiquidators","inputs":[{"name":"borrower","type":"address","internalType":"address"},{"name":"amount","type":"uint128","internalType":"uint128"}],"outputs":[],"stateMutability":"nonpayable"},{"type":"function","name":"transferOwnership","inputs":[{"name":"newOwner","type":"address","internalType":"address"}],"outputs":[],"stateMutability":"nonpayable"},{"type":"function","name":"updateAbondUSDaPool","inputs":[{"name":"amount","type":"uint256","internalType":"uint256"},{"name":"operation","type":"bool","internalType":"bool"}],"outputs":[],"stateMutability":"nonpayable"},{"type":"function","name":"updateDepositDetails","inputs":[{"name":"depositor","type":"address","internalType":"address"},{"name":"index","type":"uint64","internalType":"uint64"},{"name":"depositDetail","type":"tuple","internalType":"struct ITreasury.DepositDetails","components":[{"name":"depositedTime","type":"uint64","internalType":"uint64"},{"name":"depositedAmount","type":"uint128","internalType":"uint128"},{"name":"depositedAmountUsdValue","type":"uint128","internalType":"uint128"},{"name":"downsidePercentage","type":"uint64","internalType":"uint64"},{"name":"ethPriceAtDeposit","type":"uint128","internalType":"uint128"},{"name":"borrowedAmount","type":"uint128","internalType":"uint128"},{"name":"normalizedAmount","type":"uint128","internalType":"uint128"},{"name":"withdrawed","type":"bool","internalType":"bool"},{"name":"withdrawAmount","type":"uint128","internalType":"uint128"},{"name":"liquidated","type":"bool","internalType":"bool"},{"name":"ethPriceAtWithdraw","type":"uint64","internalType":"uint64"},{"name":"withdrawTime","type":"uint64","internalType":"uint64"},{"name":"aBondTokensAmount","type":"uint128","internalType":"uint128"},{"name":"strikePrice","type":"uint128","internalType":"uint128"},{"name":"optionFees","type":"uint128","internalType":"uint128"}]}],"outputs":[],"stateMutability":"nonpayable"},{"type":"function","name":"updateEthProfitsOfLiquidators","inputs":[{"name":"amount","type":"uint256","internalType":"uint256"},{"name":"operation","type":"bool","internalType":"bool"}],"outputs":[],"stateMutability":"nonpayable"},{"type":"function","name":"updateHasBorrowed","inputs":[{"name":"borrower","type":"address","internalType":"address"},{"name":"_bool","type":"bool","internalType":"bool"}],"outputs":[],"stateMutability":"nonpayable"},{"type":"function","name":"updateInterestFromExternalProtocol","inputs":[{"name":"amount","type":"uint256","internalType":"uint256"}],"outputs":[],"stateMutability":"nonpayable"},{"type":"function","name":"updateTotalBorrowedAmount","inputs":[{"name":"borrower","type":"address","internalType":"address"},{"name":"amount","type":"uint256","internalType":"uint256"}],"outputs":[],"stateMutability":"nonpayable"},{"type":"function","name":"updateTotalDepositedAmount","inputs":[{"name":"borrower","type":"address","internalType":"address"},{"name":"amount","type":"uint128","internalType":"uint128"}],"outputs":[],"stateMutability":"nonpayable"},{"type":"function","name":"updateTotalInterest","inputs":[{"name":"_amount","type":"uint256","internalType":"uint256"}],"outputs":[],"stateMutability":"nonpayable"},{"type":"function","name":"updateTotalInterestFromLiquidation","inputs":[{"name":"_amount","type":"uint256","internalType":"uint256"}],"outputs":[],"stateMutability":"nonpayable"},{"type":"function","name":"updateUSDaGainedFromLiquidation","inputs":[{"name":"amount","type":"uint256","internalType":"uint256"},{"name":"operation","type":"bool","internalType":"bool"}],"outputs":[],"stateMutability":"nonpayable"},{"type":"function","name":"upgradeToAndCall","inputs":[{"name":"newImplementation","type":"address","internalType":"address"},{"name":"data","type":"bytes","internalType":"bytes"}],"outputs":[],"stateMutability":"payable"},{"type":"function","name":"usda","inputs":[],"outputs":[{"name":"","type":"address","internalType":"contract IUSDa"}],"stateMutability":"view"},{"type":"function","name":"usdaGainedFromLiquidation","inputs":[],"outputs":[{"name":"","type":"uint256","internalType":"uint256"}],"stateMutability":"view"},{"type":"function","name":"withdraw","inputs":[{"name":"borrower","type":"address","internalType":"address"},{"name":"toAddress","type":"address","internalType":"address"},{"name":"_amount","type":"uint256","internalType":"uint256"},{"name":"index","type":"uint64","internalType":"uint64"}],"outputs":[{"name":"","type":"bool","internalType":"bool"}],"stateMutability":"payable"},{"type":"function","name":"withdrawExternalProtocolInterest","inputs":[{"name":"toAddress","type":"address","internalType":"address"},{"name":"amount","type":"uint128","internalType":"uint128"}],"outputs":[],"stateMutability":"nonpayable"},{"type":"function","name":"withdrawFromExternalProtocol","inputs":[{"name":"user","type":"address","internalType":"address"},{"name":"aBondAmount","type":"uint128","internalType":"uint128"}],"outputs":[{"name":"","type":"uint256","internalType":"uint256"}],"stateMutability":"nonpayable"},{"type":"function","name":"withdrawInterest","inputs":[{"name":"toAddress","type":"address","internalType":"address"},{"name":"amount","type":"uint256","internalType":"uint256"}],"outputs":[],"stateMutability":"nonpayable"},{"type":"event","name":"Deposit","inputs":[{"name":"user","type":"address","indexed":true,"internalType":"address"},{"name":"amount","type":"uint256","indexed":false,"internalType":"uint256"}],"anonymous":false},{"type":"event","name":"DepositToAave","inputs":[{"name":"count","type":"uint64","indexed":false,"internalType":"uint64"},{"name":"amount","type":"uint256","indexed":false,"internalType":"uint256"}],"anonymous":false},{"type":"event","name":"DepositToCompound","inputs":[{"name":"count","type":"uint64","indexed":false,"internalType":"uint64"},{"name":"amount","type":"uint256","indexed":false,"internalType":"uint256"}],"anonymous":false},{"type":"event","name":"Initialized","inputs":[{"name":"version","type":"uint64","indexed":false,"internalType":"uint64"}],"anonymous":false},{"type":"event","name":"OwnershipTransferred","inputs":[{"name":"previousOwner","type":"address","indexed":true,"internalType":"address"},{"name":"newOwner","type":"address","indexed":true,"internalType":"address"}],"anonymous":false},{"type":"event","name":"PeerSet","inputs":[{"name":"eid","type":"uint32","indexed":false,"internalType":"uint32"},{"name":"peer","type":"bytes32","indexed":false,"internalType":"bytes32"}],"anonymous":false},{"type":"event","name":"Upgraded","inputs":[{"name":"implementation","type":"address","indexed":true,"internalType":"address"}],"anonymous":false},{"type":"event","name":"Withdraw","inputs":[{"name":"user","type":"address","indexed":true,"internalType":"address"},{"name":"amount","type":"uint256","indexed":false,"internalType":"uint256"}],"anonymous":false},{"type":"event","name":"WithdrawFromAave","inputs":[{"name":"count","type":"uint64","indexed":false,"internalType":"uint64"},{"name":"amount","type":"uint256","indexed":false,"internalType":"uint256"}],"anonymous":false},{"type":"event","name":"WithdrawFromCompound","inputs":[{"name":"count","type":"uint64","indexed":false,"internalType":"uint64"},{"name":"amount","type":"uint256","indexed":false,"internalType":"uint256"}],"anonymous":false},{"type":"error","name":"AddressEmptyCode","inputs":[{"name":"target","type":"address","internalType":"address"}]},{"type":"error","name":"AddressInsufficientBalance","inputs":[{"name":"account","type":"address","internalType":"address"}]},{"type":"error","name":"ERC1967InvalidImplementation","inputs":[{"name":"implementation","type":"address","internalType":"address"}]},{"type":"error","name":"ERC1967NonPayable","inputs":[]},{"type":"error","name":"EndPointUnavailable","inputs":[]},{"type":"error","name":"FailedInnerCall","inputs":[]},{"type":"error","name":"InvalidDelegate","inputs":[]},{"type":"error","name":"InvalidEndpointCall","inputs":[]},{"type":"error","name":"InvalidInitialization","inputs":[]},{"type":"error","name":"InvalidOptionType","inputs":[{"name":"optionType","type":"uint16","internalType":"uint16"}]},{"type":"error","name":"LzTokenUnavailable","inputs":[]},{"type":"error","name":"NoPeer","inputs":[{"name":"eid","type":"uint32","internalType":"uint32"}]},{"type":"error","name":"NotEnoughNative","inputs":[{"name":"msgValue","type":"uint256","internalType":"uint256"}]},{"type":"error","name":"NotInitializing","inputs":[]},{"type":"error","name":"OnlyEndpoint","inputs":[{"name":"addr","type":"address","internalType":"address"}]},{"type":"error","name":"OnlyPeer","inputs":[{"name":"eid","type":"uint32","internalType":"uint32"},{"name":"sender","type":"bytes32","internalType":"bytes32"}]},{"type":"error","name":"OwnableInvalidOwner","inputs":[{"name":"owner","type":"address","internalType":"address"}]},{"type":"error","name":"OwnableUnauthorizedAccount","inputs":[{"name":"account","type":"address","internalType":"address"}]},{"type":"error","name":"ReentrancyGuardReentrantCall","inputs":[]},{"type":"error","name":"SafeCastOverflowedUintDowncast","inputs":[{"name":"bits","type":"uint8","internalType":"uint8"},{"name":"value","type":"uint256","internalType":"uint256"}]},{"type":"error","name":"SafeERC20FailedOperation","inputs":[{"name":"token","type":"address","internalType":"address"}]},{"type":"error","name":"Treasury_AaveDepositAndMintFailed","inputs":[]},{"type":"error","name":"Treasury_AavePoolAddressZero","inputs":[]},{"type":"error","name":"Treasury_AaveWithdrawFailed","inputs":[]},{"type":"error","name":"Treasury_CompoundDepositAndMintFailed","inputs":[]},{"type":"error","name":"Treasury_CompoundWithdrawFailed","inputs":[]},{"type":"error","name":"Treasury_EthTransferToCdsLiquidatorFailed","inputs":[]},{"type":"error","name":"Treasury_WithdrawExternalProtocolInterestFailed","inputs":[]},{"type":"error","name":"Treasury_ZeroDeposit","inputs":[]},{"type":"error","name":"Treasury_ZeroWithdraw","inputs":[]},{"type":"error","name":"UUPSUnauthorizedCallContext","inputs":[]},{"type":"error","name":"UUPSUnsupportedProxiableUUID","inputs":[{"name":"slot","type":"bytes32","internalType":"bytes32"}]}],"bytecode":{"object":"0x60a0806040523461002a573060805261557e9081610030823960805181818161119401526112cc0152f35b600080fdfe6080604052600436101561001b575b361561001957600080fd5b005b60003560e01c80630d14c92e1461037b5780630f2744951461037657806313137d65146103715780631611ae881461036c57806317442b70146103675780631cd081b2146103625780631f7330fd1461035d57806323f1059c146103585780632a4e173b146103535780632bdc0e661461034e5780633400288b1461034957806334b5244c1461034457806340d86d7b1461033f57806345aeb0ce1461033a5780634c6b2e64146103355780634d5c56a5146103305780634f1ef2861461032b57806352d1902d146103265780635303dfea14610321578063541b60941461031c5780635822b66d1461031757806358a0e6cc146103125780635b730e691461030d5780635e280f11146103085780635e44fb05146103035780636cd4ddbc146102fe578063715018a6146102f957806373cf144a146102f45780637b85b739146102ef5780637d25a05e146102ea57806382413eac146102e55780638715a4a2146102e05780638a29e2de146102db5780638da5cb5b146102d65780638fabe74f146102d15780639a52aed9146102cc5780639cac6251146102c7578063a9bd8672146102c2578063ad3cb1cc146102bd578063b9127c5c146102b8578063b9a221eb146102b3578063ba291f6f146102ae578063bb0b6a53146102a9578063bbfe8b90146102a4578063ca5eb5e11461029f578063cd0220c91461029a578063dbc3bac014610295578063e2b19ff014610290578063e49ec3b81461028b578063e613610514610286578063f2fde38b14610281578063f5dee4931461027c578063f750e3ab146102775763ff7bd03d0361000e57612eb6565b612e3d565b612bc7565b612b60565b612ac7565b612966565b61293d565b61284c565b6127d1565b612756565b612373565b612338565b612284565b612143565b6120b2565b61206c565b611ffb565b611fdd565b611fbf565b611eae565b611e78565b611ceb565b611c1d565b611bbf565b611b98565b611b38565b611a83565b611a15565b61199c565b61188b565b611862565b611750565b611732565b611614565b6115f6565b6113e2565b6112b9565b611152565b610eba565b610d41565b610d18565b610cfa565b610cdd565b610c56565b610883565b6107de565b610780565b6106f0565b61066e565b61064c565b61058d565b610486565b61041b565b610393565b63ffffffff81160361038e57565b600080fd5b3461038e57602036600319011261038e5763ffffffff6004356103b581610380565b6103bd615282565b1680156103d75763ffffffff196024541617602455600080f35b60405162461bcd60e51b81526020600482015260116024820152704549442063616e2774206265207a65726f60781b6044820152606490fd5b600091031261038e57565b3461038e57600036600319011261038e57602047604051908152f35b606090600319011261038e57600490565b9181601f8401121561038e578235916001600160401b03831161038e576020838186019501011161038e57565b6001600160a01b0381160361038e57565b60e036600319011261038e5761049b36610437565b6001600160401b0360843581811161038e576104bb903690600401610448565b916104c760a435610475565b60c43590811161038e576104df903690600401610448565b50506000546001600160a01b0316330361054d576105046104ff846147b2565b614c7f565b92602081013580940361051b5761001983836149bc565b61052584916147b2565b60405163309afaf360e21b815263ffffffff9190911660048201526024810191909152604490fd5b6040516391ac5e4f60e01b8152336004820152602490fd5b8015150361038e57565b610124359061057d82610565565b565b610164359061057d82610565565b3461038e57604036600319011261038e576004356024356105ad81610565565b6002546105d690336001600160a01b039182161490811561063d575b811561062f575b5061314c565b6105e18215156138da565b1561060d5760155481810180911161060857601555601f5490810180911161060857601f55005b613207565b60155481810390811161060857601555601f5490810390811161060857601f55005b9050600c54163314386105d0565b809150600b54163314906105c9565b3461038e57600036600319011261038e57604080516001815260026020820152f35b3461038e57604036600319011261038e5760043561068b81610475565b6002546001600160a01b0391908216331480156106e3575b80156106d6575b6106b39061314c565b16600052600e602052600260406000200180549060243582018092116106085755005b50600c54821633146106aa565b5081600b541633146106a3565b3461038e57604036600319011261038e5760043560243561071081610565565b60025461073790336001600160a01b039182161490811561063d57811561062f575061314c565b1561075e57601a5481810180911161060857601a5560215490810180911161060857602155005b601a5481810390811161060857601a5560215490810390811161060857602155005b3461038e57602036600319011261038e57600254600435906107bc90336001600160a01b039182161490811561063d57811561062f575061314c565b6014548181018091116106085760145560225490810180911161060857602255005b3461038e57602036600319011261038e576002546004359061081a90336001600160a01b039182161490811561063d57811561062f575061314c565b6017548181018091116106085760175560235490810180911161060857602355005b6001600160401b0381160361038e57565b6044359061057d8261083c565b60a4359061057d8261083c565b610184359061057d8261083c565b6101a4359061057d8261083c565b608036600319011261038e5760043561089b81610475565b602435906108a882610475565b6064356044356108b78261083c565b6002546001600160a01b0390811694903386148015610c49575b8015610c3c575b6108e19061314c565b6108ec83151561339d565b60019161092e610929600361091e88876109058c612e23565b01906001600160401b0316600052602052604060002090565b015460801c60ff1690565b6133e9565b61094e8361094087826109058b612e23565b01546001600160801b031690565b95873b1561038e5760405163330dbe9f60e11b81526001600160801b0397909716600488015260009788908890602490829084905af1908115610c3757610af1610b9097610b80966109056004947f884edad9ce6fa2440d8a54cc123490eb96d2768479d49ff9c7366125a94243649c610b1097610c1e575b506109fc6109f76109ef6109e386610940898261090589612e23565b6001600160801b031690565b60115461341b565b601155565b610a33610a2e610a266109e3610a16888861090588612e23565b5460401c6001600160801b031690565b60105461341b565b601055565b610a5b610a56610a4e6109e386610940898261090589612e23565b601c5461341b565b601c55565b610a82610a7d610a756109e3610a16888861090588612e23565b601b5461341b565b601b55565b610aa06109e36002610a98878761090587612e23565b015460801c90565b610ab76002610aae84612e23565b0191825461341b565b9055610add610aca858561090585612e23565b8054600160401b600160c01b0319169055565b610ae681612e23565b5415610ba357612e23565b018054610b0a906001600160801b03888116911661343e565b90612efc565b610b68610b23610b1e614f4a565b614f64565b60245463ffffffff16610b5982610b3861109d565b8c81528c6020820152610b4961109d565b908d82528d602083015284614609565b90610b6261333e565b906144db565b50169480808085895af1610b7a613457565b50613487565b6040519081529081906020820190565b0390a260405160018152602090f35b0390f35b601254610bde90610bbc906001600160801b0316613428565b601280546001600160801b0319166001600160801b0392909216919091179055565b601d54610c1990610bf7906001600160801b0316613428565b601d80546001600160801b0319166001600160801b0392909216919091179055565b612e23565b80610c2b610c3192610fdb565b80610410565b386109c7565b61340f565b50600c54811633146108d8565b5080600b541633146108d1565b3461038e57604036600319011261038e577f238399d427b947898edb290f5ff0f9109849b1c3ba196a42e35f00c50a54b98b600435610c9481610380565b60243590610ca0615282565b63ffffffff8116600052600160205281604060002055610cd8604051928392836020909392919363ffffffff60408201951681520152565b0390a1005b3461038e57600036600319011261038e5760208054604051908152f35b3461038e57600036600319011261038e576020601b54604051908152f35b3461038e57600036600319011261038e576012546040516001600160801b039091168152602090f35b3461038e57600036600319011261038e576020601a54604051908152f35b61057d909291926101e060206102008301956001600160401b0381511684520151610d966020840182516001600160401b03169052565b60208101516001600160801b0316604084015260408101516001600160801b0316606084015260608101516001600160401b0316608084015260808101516001600160801b031660a084015260a08101516001600160801b031660c084015260c08101516001600160801b031660e084015260e0810151610e1e610100918286019015159052565b8101516001600160801b031661012084810191909152810151610e48610140918286019015159052565b810151610e6361016091828601906001600160401b03169052565b810151610e7e61018091828601906001600160401b03169052565b8101516001600160801b03166101a0848101919091528101516001600160801b03166101c08481019190915201516001600160801b0316910152565b3461038e57604036600319011261038e57610b9f600435610eda81610475565b610fb4610f95602435610eec8161083c565b604051610ef881610ff3565b602060009182815260405192610f0d8461100e565b80845280838501528060408501528060608501528060808501528060a08501528060c08501528060e08501528061010085015280610120850152806101408501528061016085015280610180850152806101a08501526101c084015201526001610905610f8f6003610f7e88612e23565b015460101c6001600160401b031690565b95612e23565b610faf610fa061109d565b6001600160401b039094168452565b613931565b602082015260405191829182610d5f565b634e487b7160e01b600052604160045260246000fd5b6001600160401b038111610fee57604052565b610fc5565b604081019081106001600160401b03821117610fee57604052565b6101e081019081106001600160401b03821117610fee57604052565b606081019081106001600160401b03821117610fee57604052565b61012081019081106001600160401b03821117610fee57604052565b60a081019081106001600160401b03821117610fee57604052565b90601f801991011681019081106001600160401b03821117610fee57604052565b6040519061057d82610ff3565b6040519061057d8261100e565b6040519060e082018281106001600160401b03821117610fee57604052565b6040519061057d82611045565b6040519061057d82611061565b6001600160401b038111610fee57601f01601f191660200190565b81601f8201121561038e57803590611122826110f0565b92611130604051948561107c565b8284526020838301011161038e57816000926020809301838601378301015290565b604036600319011261038e57600480359061116c82610475565b6024356001600160401b03811161038e5761118a903690830161110b565b6001600160a01b037f0000000000000000000000000000000000000000000000000000000000000000811630811490811561129d575b5061128c5790602083926111d2615282565b6040516352d1902d60e01b8152938491829088165afa6000928161125c575b5061121f575050604051634c9c8ce360e01b81526001600160a01b0390921690820190815281906020010390fd5b838360008051602061546983398151915284036112405761001983836152bb565b604051632a87526960e21b815290810184815281906020010390fd5b61127e91935060203d8111611285575b611276818361107c565b8101906134ca565b91386111f1565b503d61126c565b60405163703e46dd60e11b81528390fd5b90508160008051602061546983398151915254161415386111c0565b3461038e57600036600319011261038e577f00000000000000000000000000000000000000000000000000000000000000006001600160a01b031630036113125760206040516000805160206154698339815191528152f35b60405163703e46dd60e11b8152600490fd5b6001600160801b0381160361038e57565b6064359061057d82611324565b6084359061057d82611324565b60c4359061057d82611324565b60e4359061057d82611324565b610104359061057d82611324565b610144359061057d82611324565b6101c4359061057d82611324565b6101e4359061057d82611324565b610204359061057d82611324565b359061057d82611324565b604090600319011261038e576004356113d281610475565b906024356113df81611324565b90565b3461038e5760606114656113f5366113ba565b929061141b60018060a01b038060025416331490811561063d57811561062f575061314c565b600454611438906001600160a01b03165b6001600160a01b031690565b604051630ecc535f60e01b81526001600160a01b0390921660048301529092839190829081906024820190565b03915afa908115610c37576000916115c8575b5060208181015190926114d0916114af9161149d916001600160801b03165b906132d8565b6018546001600160801b03169061351c565b60195492906114c89084906001600160801b03166132c5565b90519061330a565b6008549091906114e8906001600160a01b031661142c565b6040516370a0823160e01b808252306004830152918590829060249082905afa8015610c3757611520916000916115ab575b50613534565b600954909390859061153a906001600160a01b031661142c565b604051938452306004850152839060249082905afa938415610c3757611574610b809561158294610b9f9860009261158e575b50506135c1565b8082101561158757506132c5565b61330a565b90506132c5565b6115a49250803d1061128557611276818361107c565b388061156d565b6115c29150863d881161128557611276818361107c565b3861151a565b6115e9915060603d81116115ef575b6115e1818361107c565b8101906134d9565b38611478565b503d6115d7565b3461038e57600036600319011261038e576020601154604051908152f35b3461038e57611622366113ba565b60025490916001600160a01b0391821633148015611725575b8015611718575b61164b9061314c565b1680151580611706575b61165e90613b47565b6020546001600160801b03909216918083116116b357611681836116869261341b565b602055565b60008080809481945af1611698613457565b50156116a15780f35b604051633243a0f360e21b8152600490fd5b60405162461bcd60e51b815260206004820152602560248201527f547265617375727920646f6e2774206861766520656e6f7567682045544820616044820152641b5bdd5b9d60da1b6064820152608490fd5b506001600160801b0382161515611655565b50600c5482163314611642565b5081600b5416331461163b565b3461038e57600036600319011261038e576020601554604051908152f35b3461038e57604036600319011261038e57611810602060043561177281610475565b6024359061177e615282565b6001600160a01b038116151580611859575b61179990613b47565b6117c46117bf836013546117ba6117b26014548361324d565b831115613bf0565b61341b565b601355565b6003546117d9906001600160a01b031661142c565b60405163a9059cbb60e01b81526001600160a01b039092166004830152602482019290925292839190829060009082906044820190565b03925af18015610c37576100199160009161182b5750613487565b61184c915060203d8111611852575b611844818361107c565b810190613b9e565b38610b7a565b503d61183a565b50811515611790565b3461038e57600036600319011261038e576000546040516001600160a01b039091168152602090f35b3461038e57604036600319011261038e5761193860206004356118ad81610475565b60025460243591906001600160a01b039081163314801561198f575b8015611982575b6118d99061314c565b8116151580611979575b6118ec90613b47565b600354611901906001600160a01b031661142c565b60405163095ea7b360e01b81526001600160a01b039092166004830152602482019290925292839190829060009082906044820190565b03925af1908115610c37576100199160019160009161195b575b50151514613bb3565b611973915060203d811161185257611844818361107c565b38611952565b508115156118e3565b50600c54811633146118d0565b5080600b541633146118c9565b3461038e576119aa366113ba565b60025490916001600160a01b0391821633148015611a08575b80156119fb575b6119d39061314c565b166000908152600e6020526040902080546001600160801b0390921682039182116106085755005b50600c54821633146119ca565b5081600b541633146119c3565b3461038e57600080600319360112611a8057611a2f615282565b60008051602061542983398151915280546001600160a01b0319811690915581906001600160a01b03167f8be0079c531659141344cd1fd0a4f28419497f9722a3daafe3b4186f6b6457e08280a380f35b80fd5b3461038e57602036600319011261038e57600435611aa081610475565b611aa8615282565b6001600160a01b03811615611ae45760248054640100000000600160c01b03191660209290921b640100000000600160c01b0316919091179055005b60405162461bcd60e51b815260206004820152602660248201527f547265617375727920616464726573732063616e2774206265207a65726f206160448201526564647265737360d01b6064820152608490fd5b3461038e57602036600319011261038e576020611b86600435611b5a81610565565b600254611b8190336001600160a01b039182161490811561063d57811561062f575061314c565b613af1565b6040516001600160801b039091168152f35b3461038e57604036600319011261038e57611bb4600435610380565b602060405160008152f35b3461038e5760a036600319011261038e57611bd936610437565b506064356001600160401b03811161038e57611bf9903690600401610448565b50506020608435611c0981610475565b6040516001600160a01b0390911630148152f35b3461038e5760a036600319011261038e57610019600435611c3d81610475565b602435611c4981610475565b611cc960443591611c5983610475565b60643592611c6684610475565b60843594611c7386610475565b611c7b615282565b600580546001600160a01b03199081166001600160a01b039384161790915560098054821694831694909417909355600a805484169682169690961790955560068054909216908516179055565b60088054919092166001600160a01b03166001600160a01b0319909116179055565b3461038e5761010036600319011261038e57600435611d0981610475565b60243590611d1682610475565b604435611d2281610475565b606435611d2e81610475565b608435611d3a81610475565b60a43590611d4782610475565b60c43592611d5484610475565b60e43594611d6186610475565b6000805160206154e983398151915254976001600160401b0360ff8a60401c1615991680159081611e70575b6001149081611e66575b159081611e5d575b50611e4b576000805160206154e9833981519152805467ffffffffffffffff19166001179055611dd39789611e2657612f1b565b611dd957005b6000805160206154e9833981519152805460ff60401b19169055604051600181527fc7f505b2f371ae2175ee4913f4499e1f2633a7b5936321eed1cdaeb6115181d2908060208101610cd8565b6000805160206154e9833981519152805460ff60401b1916600160401b179055612f1b565b60405163f92ee8a960e01b8152600490fd5b90501538611d9f565b303b159150611d97565b8a9150611d8d565b3461038e57600036600319011261038e57600080516020615429833981519152546040516001600160a01b039091168152602090f35b3461038e5761022036600319011261038e57600435611ecc81610475565b60243590611ed98261083c565b6101e036604319011261038e5761001991611ef26110aa565b91611efb61084d565b8352611f05611335565b6020840152611f12611342565b6040840152611f1f61085a565b6060840152611f2c61134f565b6080840152611f3961135c565b60a0840152611f46611369565b60c0840152611f5361056f565b60e0840152611f60611377565b610100840152611f6e61057f565b610120840152611f7c610867565b610140840152611f8a610875565b610160840152611f98611385565b610180840152611fa6611393565b6101a0840152611fb46113a1565b6101c084015261364d565b3461038e57600036600319011261038e576020601054604051908152f35b3461038e57600036600319011261038e576020601c54604051908152f35b3461038e57600036600319011261038e57601d546040516001600160801b039091168152602090f35b60005b8381106120375750506000910152565b8181015183820152602001612027565b9060209161206081518092818552858086019101612024565b601f01601f1916010190565b3461038e57600036600319011261038e57610b9f60405161208c81610ff3565b60058152640352e302e360dc1b6020820152604051918291602083526020830190612047565b3461038e57604036600319011261038e576004356120cf81610475565b602435906120dc82610565565b6002546001600160a01b039190821633148015612136575b8015612129575b6121049061314c565b16600052600e60205260036040600020019060ff801983541691151516179055600080f35b50600c54821633146120fb565b5081600b541633146120f4565b3461038e57602036600319011261038e576002546004359061217f90336001600160a01b039182161490811561063d57811561062f575061314c565b60135481810180911161060857601355601e5490810180911161060857601e55005b60043590600582101561038e57565b3590600582101561038e57565b604090608319011261038e57604051906121d682610ff3565b816084356121e381610475565b8152602060a435910152565b604090602319011261038e576040519061220882610ff3565b8160243561221581610475565b81526020604435910152565b604090606319011261038e576040519061223a82610ff3565b8160643561224781610475565b81526020608435910152565b919082604091031261038e5760405161226b81610ff3565b6020808294803561227b81610475565b84520135910152565b3461038e5761010036600319011261038e576004356122a281610380565b602435600581101561038e57604036604319011261038e57604051916122c783610ff3565b6044356122d381610475565b835260643560208401526122e6366121bd565b9160c435926001600160401b03841161038e5760409461230d61232095369060040161110b565b9260e4359461231b86610565565b614705565b6123368251809260208091805184520151910152565bf35b3461038e57602036600319011261038e5763ffffffff60043561235a81610380565b1660005260016020526020604060002054604051908152f35b608036600319011261038e5760043560243561238e81610475565b6044359161239b83611324565b6064356123a78161083c565b6123af613133565b506002546001600160a01b039190821633148015612749575b801561273c575b6123d89061314c565b6123e38334116131b0565b6124036123ff60036123f487612e23565b015460081c60ff1690565b1590565b156126e45761242f600361241686612e23565b01805469ffffffffffffffff0000191662010000179055565b600194612450600361244087612e23565b01805461ff001916610100179055565b60125461246990610bbc906001600160801b0316613235565b601d5461248290610bf7906001600160801b0316613235565b61248b85612e23565b848154906124989161324d565b90556001600160801b03848116929083886124b289612e23565b600101906124d291906001600160401b0316600052602052604060002090565b906124dc9161325a565b8216856124e981836132c5565b601154906124f69161324d565b601155612502916132c5565b601c549061250f9161324d565b601c5584601054906125209161324d565b60105584601b54906125319161324d565b601b558661253e87612e23565b6001019061255e91906001600160401b0316600052602052604060002090565b9061257e91906001600160401b03166001600160401b0319825416179055565b808661258987612e23565b600101906125a991906001600160401b0316600052602052604060002090565b600201906125b691612efc565b6125bf916132d8565b846125c985612e23565b600101906125e991906001600160401b0316600052602052604060002090565b600101906125f691612efc565b6125ff82613283565b50612608614f4a565b61261190614f64565b60245463ffffffff169061262361109d565b600080825260208201528161263661109d565b6000808252602082015261264a9285614609565b61265261333e565b61265b936144db565b506040519182528216907fe1fffcc4923d04b559f4d29a8bfc6cda04eb5b0d3c460751c2402c5c5cc9109c90602090a261269490612e23565b6003015460081c60ff16906126a761109d565b91151582526001600160401b03166020820152604051610b9f81928291909160206001600160401b03816040840195805115158552015116910152565b60036126ef85612e23565b0161273661271061270b83546001600160401b039060101c1690565b61321d565b825469ffffffffffffffff00001916601082901b69ffffffffffffffff00001617909255565b94612482565b50600c54821633146123cf565b5081600b541633146123c8565b3461038e5760006020366003190112611a805760043561277581610475565b61277d615282565b81546001600160a01b0390811691839190833b156127cd5760249083604051958694859363ca5eb5e160e01b85521660048401525af18015610c37576127c1575080f35b6127ca90610fdb565b80f35b8280fd5b3461038e57604036600319011261038e576004356024356127f181610565565b60025461281890336001600160a01b039182161490811561063d57811561062f575061314c565b6128238215156138da565b1561283a5760205490810180911161060857602055005b60205490810180911161060857602055005b3461038e5761285a366113ba565b90612863615282565b6001600160a01b03168015158061292b575b61287e90613b47565b6017546001600160801b03909216918083116128d3576128a1836128a69261341b565b601755565b60008080809481945af16128b8613457565b50156128c15780f35b6040516357a507f360e11b8152600490fd5b60405162461bcd60e51b815260206004820152602a60248201527f547265617375727920646f6e2774206861766520656e6f75676820696e746572604482015269195cdd08185b5bdd5b9d60b21b6064820152608490fd5b506001600160801b0382161515612875565b3461038e57600036600319011261038e576003546040516001600160a01b039091168152602090f35b3461038e57612974366113ba565b60025490916001600160a01b0391821633148015612aba575b8015612aad575b61299d9061314c565b6008546129b2906001600160a01b031661142c565b6040516370a0823160e01b80825230600483015260209590929091908690829060249082905afa8015610c37576129f191600091612a90575b50613c48565b506009548590612a09906001600160a01b031661142c565b604051938452306004850152839060249082905afa948515610c37576000610b8094612a65829594612a4a610b9f9a859786978792612a73575b5050613d10565b50612a5f612a588285613df2565b91846140ed565b9061324d565b968791165af1610b7a613457565b612a899250803d1061128557611276818361107c565b3880612a43565b612aa79150873d891161128557611276818361107c565b386129eb565b50600c5482163314612994565b5081600b5416331461298d565b3461038e57604036600319011261038e576119386020600435612ae981610475565b60025460243591906001600160a01b0390811633148015612b53575b8015612b46575b612b159061314c565b8116151580612b3d575b612b2890613b47565b600754611901906001600160a01b031661142c565b50811515612b1f565b50600c5481163314612b0c565b5080600b54163314612b05565b3461038e57602036600319011261038e57610019600435612b8081610475565b612b88615282565b61520e565b61057d909291926040806080830195805184526001600160401b036020820151166020850152015191019060208091805184520151910152565b60a036600319011261038e57612bdb6121a1565b612be4366121ef565b90612bee36612221565b91612bf76142fd565b506002546001600160a01b0390811633148015612e16575b8015612e09575b612c1f9061314c565b604092835191612c4683612c38888786602085016143d9565b03601f19810185528461107c565b612c4e613133565b956060612c5a8461332f565b600284148015612df6575b15612dc35750612d199650612c80612c7b614f4a565b614ff4565b90602454958763ffffffff881693612ca461142c61142c855160018060a01b031690565b906020840151612cb26110b7565b63ffffffff88168152926020840152808484015260608301526080820152612cd86143f7565b60a0820152612ce56143f7565b60c0820152600354612cff906001600160a01b031661142c565b825180809d8194633b6f743b60e01b8352600483016144be565b03915afa988915610c3757610b9f99612d8998612d7196612d6993600093612d94575b50612d5e612d50612d4b614f4a565b615029565b93516001600160801b031690565b9160201c169161505e565b9485936146db565b905b3392612d8460245463ffffffff1690565b614d39565b905191829182612b8d565b612db59193508c8d3d10612dbc575b612dad818361107c565b81019061443d565b9138612d3c565b503d612da3565b915050612d899350600382612ddb610b9f989461332f565b03612d735750612df1612dec614f4a565b614fbf565b612d73565b50612e008461332f565b60048414612c65565b50600c5481163314612c16565b5080600b54163314612c0f565b6001600160a01b03166000908152600e6020526040902090565b3461038e57602036600319011261038e57600435612e5a81610475565b60018060a01b0316600052600e60205260a060406000206001600160401b038154916003600282015491015490604051938452602084015260ff81161515604084015260ff8160081c161515606084015260101c166080820152f35b3461038e57606036600319011261038e576020612ed236610437565b63ffffffff8135612ee281610380565b166000526001825260406000205482604051920135148152f35b80546001600160801b0319166001600160801b03909216919091179055565b9690949291959395612f2c3361520e565b60ff6000805160206154e98339815191525460401c1615613121576001600160a01b03948516801561310f57600080546001600160a01b0319166001600160a01b03909216919091179055848216156130fd57600054612f94906001600160a01b031661142c565b803b1561038e5760405163ca5eb5e160e01b81526001600160a01b039390931660048401526000908390602490829084905af1978815610c375785613099976130338261305594613011613077996130bb9f99849a6130ea575b50600b80546001600160a01b0319166001600160a01b0392909216919091179055565b60028054919092166001600160a01b03166001600160a01b0319909116179055565b60038054919092166001600160a01b03166001600160a01b0319909116179055565b60048054919092166001600160a01b03166001600160a01b0319909116179055565b60078054919092166001600160a01b03166001600160a01b0319909116179055565b600c80546001600160a01b0319166001600160a01b0392909216919091179055565b601880546001600160801b031916670de0b6b3a764000017905561057d6b033b2e3c9fd0803ce8000000601955565b80610c2b6130f792610fdb565b38612fee565b604051632d618d8160e21b8152600490fd5b604051638ad182f960e01b8152600490fd5b604051631afcd79f60e31b8152600490fd5b6040519061314082610ff3565b60006020838281520152565b1561315357565b60405162461bcd60e51b815260206004820152602f60248201527f546869732066756e6374696f6e2063616e206f6e6c792063616c6c656420627960448201526e20436f726520636f6e74726163747360881b6064820152608490fd5b156131b757565b60405162461bcd60e51b815260206004820152602260248201527f54726561737572793a20446f6e2774206861766520656e6f756768204c5a2066604482015261656560f01b6064820152608490fd5b634e487b7160e01b600052601160045260246000fd5b6001600160401b038091169081146106085760010190565b6001600160801b039081169081146106085760010190565b9190820180921161060857565b8054600160401b600160c01b03191660409290921b600160401b600160c01b0316919091179055565b9060198202918083046019149015171561060857565b9060328202918083046032149015171561060857565b9060648202918083046064149015171561060857565b8181029291811591840414171561060857565b6001600160801b03918216908216029081169190820361060857565b634e487b7160e01b600052601260045260246000fd5b8115613314570490565b6132f4565b634e487b7160e01b600052602160045260246000fd5b6005111561333957565b613319565b6040519061334b82611045565b601b548252601c546020830152601d546001600160801b0316604083015281601e546060820152601f54608082015260205460a082015260215460c082015260225460e0820152610100602354910152565b156133a457565b60405162461bcd60e51b815260206004820152601a60248201527f43616e6e6f74207769746864726177207a65726f2045746865720000000000006044820152606490fd5b156133f057565b60405162461bcd60e51b81526020600482015260006024820152604490fd5b6040513d6000823e3d90fd5b9190820391821161060857565b6001600160801b03168015610608576000190190565b6001600160801b03918216908216019190821161060857565b3d15613482573d90613468826110f0565b91613476604051938461107c565b82523d6000602084013e565b606090565b1561348e57565b60405162461bcd60e51b81526020600482015260146024820152732330b4b632b2103a379039b2b7321022ba3432b960611b6044820152606490fd5b9081602091031261038e575190565b9081606091031261038e5760408051916134f28361102a565b80518352602081015161350481611324565b6020840152015161351481611324565b604082015290565b6001600160801b039182169190821561331457160490565b60008052600f602052600080516020615449833981519152548061355a57505060195490565b81039081116106085761357060195480926132c5565b60008052600f60205260008051602061544983398151915254908115613314570481018082116106085760008052600f60205261330a9060056000805160206154a98339815191525b0154906132c5565b6001600052600f60205260008051602061548983398151915254806135e857505060195490565b8103908111610608576135fe60195480926132c5565b6001600052600f6020526000805160206154898339815191525490811561331457048101808211610608576001600052600f60205261330a9060056000805160206154c98339815191526135b9565b6101c060066136ad61057d959461377d9460018060a01b03908160025416331480156138cd575b80156138c0575b6136849061314c565b16600052600e6020526001604060002001906001600160401b0316600052602052604060002090565b6136de6136c186516001600160401b031690565b825467ffffffffffffffff19166001600160401b03909116178255565b60208501516136f6906001600160801b03168261325a565b604085015161374e906001830190613718906001600160801b03165b82612efc565b60608701516001600160401b0316815467ffffffffffffffff60801b191660809190911b67ffffffffffffffff60801b16179055565b608085015161379d90600283019061376e906001600160801b0316613712565b60a08701516001600160801b03165b81546001600160801b031660809190911b6001600160801b031916179055565b60c08501516137de9060038301906137bd906001600160801b0316613712565b60e08701511515815460ff60801b191690151560801b60ff60801b16179055565b6101008501516138619060048301906137ff906001600160801b0316613712565b61382a613810610120890151151590565b825460ff60801b191690151560801b60ff60801b16178255565b6101408701516001600160401b0316815467ffffffffffffffff60881b191660889190911b67ffffffffffffffff60881b16179055565b613895600582016138806136c16101608901516001600160401b031690565b6101808701516001600160801b03169061325a565b6101a0850151910193906138b2906001600160801b031685612efc565b01516001600160801b031690565b50600c548216331461367b565b5081600b54163314613674565b156138e157565b60405162461bcd60e51b815260206004820152602260248201527f54726561737572793a416d6f756e742073686f756c64206e6f74206265207a65604482015261726f60f01b6064820152608490fd5b9061057d61393d6110aa565b92805490613a6c60066001600160401b039261396484861689906001600160401b03169052565b6001600160801b03604095861c811660208a01526001820154808216968a0196909652608095861c85166001600160401b031660608a01526002820154808216878b0152861c60a08a01529493613a56908690613a228188613a0b8e60038901548781166001600160801b031660c0830152831c60ff16151560e082015260048901548781166001600160801b03166101008301529283901c60ff16151561012090910152565b60881c166101408d01906001600160401b03169052565b613a4060058501549182166101608d01906001600160401b03169052565b60401c166101808a019060018060801b03169052565b01549283166001600160801b03166101a0870152565b1c6001600160801b03166101c0840152565b600254613aa590336001600160a01b039182161490811561063d57811561062f575061314c565b600f602052600080516020615529833981519152546001600052600080516020615509833981519152546113df916001600160801b03908116911680821015613aec575090565b905090565b600f602052600080516020615529833981519152546001600052600080516020615509833981519152546001600160801b039182169291169015613b3b5780821115613aec575090565b80821015613aec575090565b15613b4e57565b60405162461bcd60e51b815260206004820152602260248201527f496e7075742061646472657373206f7220616d6f756e7420697320696e76616c6044820152611a5960f21b6064820152608490fd5b9081602091031261038e57516113df81610565565b15613bba57565b60405162461bcd60e51b815260206004820152600e60248201526d105c1c1c9bdd994819985a5b195960921b6044820152606490fd5b15613bf757565b60405162461bcd60e51b815260206004820152602360248201527f547265617375727920646f6e2774206861766520656e6f75676820696e746572604482015262195cdd60ea1b6064820152608490fd5b60008052600f60205260008051602061544983398151915254613c8857506019545b60008052600f60205260008051602061552983398151915281905590565b60008052600f60205260008051602061544983398151915254810390811161060857613cb760195480926132c5565b60008052600f6020529060036000805160206154a98339815191520154801561331457613cec61158291613d0b94048361324d565b60008052600f60205260056000805160206154a98339815191526135b9565b613c6a565b6001600052600f60205260008051602061548983398151915254613d5257506019545b6001600052600f60205260008051602061550983398151915281905590565b6001600052600f60205260008051602061548983398151915254810390811161060857613d8260195480926132c5565b6001600052600f6020529060036000805160206154c98339815191520154801561331457613db861158291613dd894048361324d565b6001600052600f60205260056000805160206154c98339815191526135b9565b613d33565b9081602091031261038e57516113df81610475565b906004613e3c6060613e0d61142c845460018060a01b031690565b60408051630ecc535f60e01b81526001600160a01b039097168588019081529096938492918391829160200190565b03915afa8015610c3757613eb2916000916140cf575b50611582613ea2613e7461149d6020976114978987015160018060801b031690565b92613e9c613e95613e90601954809760018060801b03166132c5565b613299565b91516132af565b9061330a565b613ead6109e3613a7e565b6132c5565b928183613ec961142c60065460018060a01b031690565b835163026b1d5f60e01b815294859182905afa928315610c37576000936140a0575b506001600160a01b0383161561409257600854613f649085908790613f18906001600160a01b031661142c565b600554613f2d906001600160a01b031661142c565b865163095ea7b360e01b81526001600160a01b03909116868201908152602081019390935293849283916000918391604090910190565b03925af18015610c3757614075575b50600554613f89906001600160a01b031661142c565b803b1561038e578251630402806960e51b81526001600160a01b0390941682850190815260208101879052306040820152600091859182908490829060600103925af1918215610c3757614014938593614062575b50600854613ff4906001600160a01b031661142c565b90516370a0823160e01b8152309281019283529384928391829160200190565b03915afa918215610c3757600092614045575b505060008052600f6020526000805160206154498339815191525590565b61405b9250803d1061128557611276818361107c565b3880614027565b80610c2b61406f92610fdb565b38613fde565b61408b90853d871161185257611844818361107c565b5038613f73565b9051630a20c02560e21b8152fd5b6140c1919350843d86116140c8575b6140b9818361107c565b810190613ddd565b9138613eeb565b503d6140af565b6140e7915060603d81116115ef576115e1818361107c565b38613e52565b600454614137929160609161410a906001600160a01b031661142c565b604051630ecc535f60e01b81526001600160a01b0390921660048301529093849190829081906024820190565b03915afa908115610c3757614172926000926142cd575b50602082015161158291613ea291613e749161149d916001600160801b0316611497565b600954614187906001600160a01b031661142c565b600a5461419c906001600160a01b031661142c565b90803b1561038e5760405163f3fef3a360e01b81526001600160a01b03929092166004830152602482018390526000908290604490829084905af18015610c37576142ba575b506009546141f8906001600160a01b031661142c565b6040516370a0823160e01b815230600482015290602090829060249082905afa908115610c375760009161429c575b506001600052600f60205260008051602061548983398151915255600a54614257906001600160a01b031661142c565b803b1561038e57604051632e1a7d4d60e01b815260048101839052906000908290602490829084905af18015610c375761428f575090565b80610c2b6113df92610fdb565b6142b4915060203d811161128557611276818361107c565b38614227565b80610c2b6142c792610fdb565b386141e2565b611582919250613e7461149d6142f3613ea29360603d81116115ef576115e1818361107c565b949350505061414e565b6040519061430a8261102a565b8160008152600060208201526040614320613133565b910152565b9060058210156133395752565b9161018061057d9294936143be6101c082019661434f8360019052565b601b546020840152601c546040840152601d546001600160801b03166060840152601e546080840152601f5460a08401526020805460c085015260215460e085015260225461010085015260235461012085015281516001600160a01b03166101408501520151610160830152565b82516001600160a01b03169101908152602091820151910152565b610180906143be61057d949695939661434f836101c0810199614325565b6040519061440482610ff3565b6002825261060f60f31b6020830152565b919082604091031261038e5760405161442d81610ff3565b6020808294805184520151910152565b9060408282031261038e576113df91614415565b6113df9163ffffffff825116815260208201516020820152604082015160408201526060820151606082015260c06144ad61449b608085015160e0608086015260e0850190612047565b60a085015184820360a0860152612047565b9201519060c0818403910152612047565b919060206144d6600092604086526040860190614451565b930152565b9190926113df936144ea6142fd565b5060025461451290336001600160a01b039182161490811561063d57811561062f575061314c565b6145f460405161452181610ff3565b60008152600060208201526145d76040519161453c83610ff3565b6000835260006020840152604051946145586020870160019052565b805160408701526020810151606087015260018060801b036040820151166080870152606081015160a0870152608081015160c087015260a081015160e087015260c081015190610100918288015260e081015161012088015201516101408601526101608501906020809160018060a01b0381511684520151910152565b80516001600160a01b03166101a0840152602001516101c0830152565b6101c081526146028161100e565b3393614d39565b6146ae9261463e94614619613133565b506040958694614630865194859260208401614332565b03601f19810184528361107c565b614646613133565b5060005461465c906001600160a01b031661142c565b9161466684614c7f565b61467d6146716110e3565b63ffffffff9096168652565b60208501528484015260608301526000608083015282518080958194631bb8518b60e31b8352309060048401614cb7565b03915afa918215610c37576000926146c557505090565b6113df9250803d10612dbc57612dad818361107c565b90916146309461463e6146ae95946146f1613133565b5060409788968751958693602085016143d9565b9190614732956146ae956147406147969361471e613133565b506040998a988951978893602085016143d9565b03601f19810186528561107c565b614748613133565b5060005461475e906001600160a01b031661142c565b9361476886614c7f565b61477f6147736110e3565b63ffffffff9098168852565b602087015286860152606085015215156080840152565b82518080958194631bb8518b60e31b8352309060048401614cb7565b356113df81610380565b6040519061012082018281106001600160401b03821117610fee57604052816101006000918281528260208201528260408201528260608201528260808201528260a08201528260c08201528260e08201520152565b808203926101c0841261038e57614828826121b0565b936101208091601f19011261038e576113df906148436110d6565b906020850135825260408501356020830152614861606086016113af565b60408301526080850135606083015260a0850135608083015260c085013560a083015260e085013560c0830152610100908186013560e084015285013590820152936101806148b4826101408701612253565b9401612253565b8051601b55602080820151601c556040820151601d80546001600160801b0319166001600160801b03929092169190911790556060820151601e556080820151601f5560a0820151905560c081015160215560e08101516022556101000151602355565b919060808382031261038e57604061432081519261493c8461102a565b8284968051865260208101516149518161083c565b602087015201614415565b919060c08382031261038e578060806149786113df938661491f565b9401614415565b9193926149ae614999606093608086526080860190614451565b95602085019060208091805184520151910152565b6001600160a01b0316910152565b6149ec916149c86147bc565b506149d1613133565b506149da613133565b506149e3613133565b50810190614812565b90926149f78161332f565b60028103614b4c575050614a0a906148bb565b614a15612c7b614f4a565b60245463ffffffff16906020614a3761142c61142c865160018060a01b031690565b93015192614a52614a466110b7565b63ffffffff9094168452565b6020830152604092808484015260608301526080820152614a716143f7565b60a0820152614a7e6143f7565b60c0820152600354614a98906001600160a01b031661142c565b8251633b6f743b60e01b81529190838380614ab685600483016144be565b0381845afa8015610c3757614af09460c094600092614b2d575b508151905180968195829463c7c7f5b360e01b845230916004850161497f565b03925af18015610c3757614b02575b50565b614b229060c03d8111614b26575b614b1a818361107c565b81019061495c565b5050565b503d614b10565b81614b459293503d8411612dbc57612dad818361107c565b9038614ad0565b614b588194929461332f565b60038103614c3257505090614b6f614aff926148bb565b614baf614b7d612dec614f4a565b602092614ba961142c61142c614b9b8785015160018060801b031690565b93516001600160a01b031690565b9161505e565b614bb761109d565b90614c2a816000948585528581860152614bfa614bd261109d565b958787528783880152614bec604051978892858401614332565b03601f19810187528661107c565b60245463ffffffff1695614c0c61109d565b908082528083830152614c1d61109d565b9281845283015286614609565b913393614d39565b80614c4160049295939561332f565b14614c4b57505050565b614c57614a15926148bb565b614c62612dec614f4a565b90614ba961142c61142c614b9b602085015160018060801b031690565b63ffffffff16806000526001602052604060002054908115614c9f575090565b6024906040519063f6ff4fb760e01b82526004820152fd5b906020909392936040835263ffffffff81511660408401528181015160608401526080614d0b614cf5604084015160a08488015260e0870190612047565b6060840151868203603f190160a0880152612047565b910151151560c08401526001600160a01b03909416910152565b9060808282031261038e576113df9161491f565b608093614dab614dc79694614d4c6142fd565b506020614d598451614e14565b930190815180614e05575b50600054614d7a906001600160a01b031661142c565b95614d8486614c7f565b9251151592614d946147736110e3565b602087015260408601526060850152151586840152565b6040518096819582946302637a4560e41b845260048401614cb7565b03925af1908115610c3757600091614ddd575090565b6113df915060803d8111614dfe575b614df6818361107c565b810190614d25565b503d614dec565b614e0e90614e36565b38614d64565b803410614e1e5790565b6040516304fb820960e51b8152346004820152602490fd5b60005460405163393f876560e21b81526001600160a01b039182169260209290918381600481885afa908115610c3757600091614f2d575b5016928315614f1b5760008091614ec39360405190868201926323b872dd60e01b84523360248401526044830152606482015260648152614eae81611061565b519082875af1614ebc613457565b9084615379565b908151918215159182614eff575b50509050614edc5750565b604051635274afe760e01b81526001600160a01b03919091166004820152602490fd5b6123ff925080614f13948301019101613b9e565b803880614ed1565b6040516329b99a9560e11b8152600490fd5b614f449150843d86116140c8576140b9818361107c565b38614e6e565b604051600360f01b6020820152600281526113df81610ff3565b61ffff600381614f73846153dc565b1603614f9e5750604051610c3560861b6020820152601081526113df91614f9982610ff3565b6151cc565b614fa96024926153dc565b604051633a51740d60e01b815291166004820152fd5b61ffff600381614fce846153dc565b1603614f9e5750604051611fbd60851b6020820152601081526113df91614f9982610ff3565b61ffff600381615003846153dc565b1603614f9e575060405161075360851b6020820152601081526113df91614f9982610ff3565b61ffff600381615038846153dc565b1603614f9e575060405161557360841b6020820152601081526113df91614f9982610ff3565b61ffff9260038461506e846153dc565b16036151165760405160809390931b6001600160801b031916602084015260308084019190915282526150a08261102a565b6003836150ac836153dc565b160361510a5781518381116150eb578316600101928311610608576150dd6113df9260405194859360208501615122565b03601f19810183528261107c565b604490604051906306dfcc6560e41b8252601060048301526024820152fd5b82614fa96024926153dc565b602484614fa9846153dc565b602090615139600495949382815194859201612024565b600160f81b910190815260f09190911b6001600160f01b0319166001820152600160f91b600382015281519161517790839085840190602001612024565b010190565b602090615193600495949382815194859201612024565b600160f81b910181815260f09290921b6001600160f01b0319166001830152600382015281519161517790839085840190602001612024565b9061ffff916003836151dd836153dc565b160361510a5781518381116150eb578316600101928311610608576150dd6113df926040519485936020850161517c565b6001600160a01b039081169081156152695760008051602061542983398151915280546001600160a01b031981168417909155167f8be0079c531659141344cd1fd0a4f28419497f9722a3daafe3b4186f6b6457e0600080a3565b604051631e4fbdf760e01b815260006004820152602490fd5b600080516020615429833981519152546001600160a01b031633036152a357565b60405163118cdaa760e01b8152336004820152602490fd5b90813b1561533e5760008051602061546983398151915280546001600160a01b0319166001600160a01b0384169081179091557fbc7cd75a20ee27fd9adebab32041f755214dbc6bffa90cc0225b39da2e5c2d3b600080a280511561532357614aff9161535f565b50503461532c57565b60405163b398979f60e01b8152600490fd5b604051634c9c8ce360e01b81526001600160a01b0383166004820152602490fd5b6000806113df93602081519101845af4615377613457565b915b906153a0575080511561538e57805190602001fd5b604051630a12f52160e11b8152600490fd5b815115806153d3575b6153b1575090565b604051639996b31560e01b81526001600160a01b039091166004820152602490fd5b50803b156153a9565b60028151106153ec576002015190565b60405162461bcd60e51b8152602060048201526014602482015273746f55696e7431365f6f75744f66426f756e647360601b6044820152606490fdfe9016d09d72d40fdae2fd8ceac6b6234c7706214fd39c1cd1e609a0528c199300f4803e074bd026baaf6ed2e288c9515f68c72fb7216eebdd7cae1718a53ec378360894a13ba1a3210667c828492db98dca3e2076cc3735a920a3ca505d382bbc169f97de0d9a84d840042b17d3c6b9638b3d6fd9024c9eb0c7a306a17b49f892f4803e074bd026baaf6ed2e288c9515f68c72fb7216eebdd7cae1718a53ec375169f97de0d9a84d840042b17d3c6b9638b3d6fd9024c9eb0c7a306a17b49f88ff0c57e16840df040f15088dc2f81fe391c3923bec73e23a9662efc9c229c6a00169f97de0d9a84d840042b17d3c6b9638b3d6fd9024c9eb0c7a306a17b49f894f4803e074bd026baaf6ed2e288c9515f68c72fb7216eebdd7cae1718a53ec37aa264697066735822122069604b7e9fe11bd73132758971d02f2bc967111fc3fa48481e92cafe2418fef464736f6c63430008140033","linkReferences":{}},"methodIdentifiers":{"UPGRADE_INTERFACE_VERSION()":"ad3cb1cc","abondUSDaPool()":"58a0e6cc","allowInitializePath((uint32,bytes32,uint64))":"ff7bd03d","approveUSDa(address,uint256)":"5e44fb05","approveUsdt(address,uint256)":"e6136105","borrowing(address)":"f750e3ab","calculateYieldsForExternalProtocol(address,uint128)":"5303dfea","deposit(uint256,address,uint128,uint64)":"bbfe8b90","endpoint()":"5e280f11","getBalanceInTreasury()":"0f274495","getBorrowing(address,uint64)":"4d5c56a5","getExternalProtocolCumulativeRate(bool)":"7b85b739","initialize(address,address,address,address,address,address,address,address)":"8a29e2de","isComposeMsgSender((uint32,bytes32,uint64),bytes,address)":"82413eac","lzReceive((uint32,bytes32,uint64),bytes32,bytes,address,bytes)":"13137d65","nextNonce(uint32,bytes32)":"7d25a05e","noOfBorrowers()":"45aeb0ce","oAppVersion()":"17442b70","oftOrNativeReceiveFromOtherChains(uint8,(address,uint256),(address,uint256))":"f5dee493","omniChainTreasuryEthProfitsOfLiquidators()":"34b5244c","omniChainTreasuryNoOfBorrowers()":"a9bd8672","omniChainTreasuryTotalVolumeOfBorrowersAmountinUSD()":"9cac6251","omniChainTreasuryTotalVolumeOfBorrowersAmountinWei()":"40d86d7b","owner()":"8da5cb5b","peers(uint32)":"bb0b6a53","proxiableUUID()":"52d1902d","quote(uint32,uint8,(address,uint256),(address,uint256),bytes,bool)":"ba291f6f","renounceOwnership()":"715018a6","setDelegate(address)":"ca5eb5e1","setDstEid(uint32)":"0d14c92e","setDstTreasuryAddress(address)":"73cf144a","setExternalProtocolAddresses(address,address,address,address,address)":"8715a4a2","setPeer(uint32,bytes32)":"3400288b","totalVolumeOfBorrowersAmountinUSD()":"541b6094","totalVolumeOfBorrowersAmountinWei()":"9a52aed9","transferEthToCdsLiquidators(address,uint128)":"5822b66d","transferOwnership(address)":"f2fde38b","updateAbondUSDaPool(uint256,bool)":"1611ae88","updateDepositDetails(address,uint64,(uint64,uint128,uint128,uint64,uint128,uint128,uint128,bool,uint128,bool,uint64,uint64,uint128,uint128,uint128))":"8fabe74f","updateEthProfitsOfLiquidators(uint256,bool)":"cd0220c9","updateHasBorrowed(address,bool)":"b9127c5c","updateInterestFromExternalProtocol(uint256)":"2a4e173b","updateTotalBorrowedAmount(address,uint256)":"1cd081b2","updateTotalDepositedAmount(address,uint128)":"6cd4ddbc","updateTotalInterest(uint256)":"b9a221eb","updateTotalInterestFromLiquidation(uint256)":"23f1059c","updateUSDaGainedFromLiquidation(uint256,bool)":"1f7330fd","upgradeToAndCall(address,bytes)":"4f1ef286","usda()":"e2b19ff0","usdaGainedFromLiquidation()":"4c6b2e64","withdraw(address,address,uint256,uint64)":"2bdc0e66","withdrawExternalProtocolInterest(address,uint128)":"dbc3bac0","withdrawFromExternalProtocol(address,uint128)":"e49ec3b8","withdrawInterest(address,uint256)":"5b730e69"},"id":1}