{"abi":[{"type":"function","name":"UPGRADE_INTERFACE_VERSION","inputs":[],"outputs":[{"name":"","type":"string","internalType":"string"}],"stateMutability":"view"},{"type":"function","name":"admin","inputs":[],"outputs":[{"name":"","type":"address","internalType":"address"}],"stateMutability":"view"},{"type":"function","name":"allowInitializePath","inputs":[{"name":"origin","type":"tuple","internalType":"struct Origin","components":[{"name":"srcEid","type":"uint32","internalType":"uint32"},{"name":"sender","type":"bytes32","internalType":"bytes32"},{"name":"nonce","type":"uint64","internalType":"uint64"}]}],"outputs":[{"name":"","type":"bool","internalType":"bool"}],"stateMutability":"view"},{"type":"function","name":"calculateCumulativeRate","inputs":[],"outputs":[{"name":"","type":"uint256","internalType":"uint256"}],"stateMutability":"nonpayable"},{"type":"function","name":"calculateRatio","inputs":[{"name":"_amount","type":"uint256","internalType":"uint256"},{"name":"currentEthPrice","type":"uint256","internalType":"uint256"}],"outputs":[{"name":"","type":"uint64","internalType":"uint64"}],"stateMutability":"nonpayable"},{"type":"function","name":"depositTokens","inputs":[{"name":"_ethPrice","type":"uint128","internalType":"uint128"},{"name":"_depositTime","type":"uint64","internalType":"uint64"},{"name":"_strikePercent","type":"uint8","internalType":"enum IOptions.StrikePrice"},{"name":"_strikePrice","type":"uint64","internalType":"uint64"},{"name":"_volatility","type":"uint256","internalType":"uint256"},{"name":"_depositingAmount","type":"uint256","internalType":"uint256"}],"outputs":[],"stateMutability":"payable"},{"type":"function","name":"endpoint","inputs":[],"outputs":[{"name":"","type":"address","internalType":"contract ILayerZeroEndpointV2"}],"stateMutability":"view"},{"type":"function","name":"getAbondYields","inputs":[{"name":"user","type":"address","internalType":"address"},{"name":"aBondAmount","type":"uint128","internalType":"uint128"}],"outputs":[{"name":"","type":"uint128","internalType":"uint128"},{"name":"","type":"uint256","internalType":"uint256"},{"name":"","type":"uint256","internalType":"uint256"}],"stateMutability":"view"},{"type":"function","name":"getLTV","inputs":[],"outputs":[{"name":"","type":"uint8","internalType":"uint8"}],"stateMutability":"view"},{"type":"function","name":"getUSDValue","inputs":[],"outputs":[{"name":"","type":"uint256","internalType":"uint256"}],"stateMutability":"view"},{"type":"function","name":"initialize","inputs":[{"name":"_tokenAddress","type":"address","internalType":"address"},{"name":"_cds","type":"address","internalType":"address"},{"name":"_abondToken","type":"address","internalType":"address"},{"name":"_multiSign","type":"address","internalType":"address"},{"name":"_priceFeedAddress","type":"address","internalType":"address"},{"name":"chainId","type":"uint64","internalType":"uint64"},{"name":"_endpoint","type":"address","internalType":"address"},{"name":"_delegate","type":"address","internalType":"address"}],"outputs":[],"stateMutability":"nonpayable"},{"type":"function","name":"isComposeMsgSender","inputs":[{"name":"","type":"tuple","internalType":"struct Origin","components":[{"name":"srcEid","type":"uint32","internalType":"uint32"},{"name":"sender","type":"bytes32","internalType":"bytes32"},{"name":"nonce","type":"uint64","internalType":"uint64"}]},{"name":"","type":"bytes","internalType":"bytes"},{"name":"_sender","type":"address","internalType":"address"}],"outputs":[{"name":"","type":"bool","internalType":"bool"}],"stateMutability":"view"},{"type":"function","name":"isContract","inputs":[{"name":"addr","type":"address","internalType":"address"}],"outputs":[{"name":"","type":"bool","internalType":"bool"}],"stateMutability":"view"},{"type":"function","name":"lastCumulativeRate","inputs":[],"outputs":[{"name":"","type":"uint256","internalType":"uint256"}],"stateMutability":"view"},{"type":"function","name":"liquidate","inputs":[{"name":"user","type":"address","internalType":"address"},{"name":"index","type":"uint64","internalType":"uint64"},{"name":"currentEthPrice","type":"uint64","internalType":"uint64"}],"outputs":[],"stateMutability":"payable"},{"type":"function","name":"lzReceive","inputs":[{"name":"_origin","type":"tuple","internalType":"struct Origin","components":[{"name":"srcEid","type":"uint32","internalType":"uint32"},{"name":"sender","type":"bytes32","internalType":"bytes32"},{"name":"nonce","type":"uint64","internalType":"uint64"}]},{"name":"_guid","type":"bytes32","internalType":"bytes32"},{"name":"_message","type":"bytes","internalType":"bytes"},{"name":"_executor","type":"address","internalType":"address"},{"name":"_extraData","type":"bytes","internalType":"bytes"}],"outputs":[],"stateMutability":"payable"},{"type":"function","name":"nextNonce","inputs":[{"name":"","type":"uint32","internalType":"uint32"},{"name":"","type":"bytes32","internalType":"bytes32"}],"outputs":[{"name":"nonce","type":"uint64","internalType":"uint64"}],"stateMutability":"view"},{"type":"function","name":"oAppVersion","inputs":[],"outputs":[{"name":"senderVersion","type":"uint64","internalType":"uint64"},{"name":"receiverVersion","type":"uint64","internalType":"uint64"}],"stateMutability":"pure"},{"type":"function","name":"omniChainBorrowingCDSPoolValue","inputs":[],"outputs":[{"name":"","type":"uint256","internalType":"uint256"}],"stateMutability":"view"},{"type":"function","name":"omniChainBorrowingNoOfLiquidations","inputs":[],"outputs":[{"name":"","type":"uint128","internalType":"uint128"}],"stateMutability":"view"},{"type":"function","name":"owner","inputs":[],"outputs":[{"name":"","type":"address","internalType":"address"}],"stateMutability":"view"},{"type":"function","name":"peers","inputs":[{"name":"eid","type":"uint32","internalType":"uint32"}],"outputs":[{"name":"peer","type":"bytes32","internalType":"bytes32"}],"stateMutability":"view"},{"type":"function","name":"proxiableUUID","inputs":[],"outputs":[{"name":"","type":"bytes32","internalType":"bytes32"}],"stateMutability":"view"},{"type":"function","name":"quote","inputs":[{"name":"_dstEid","type":"uint32","internalType":"uint32"},{"name":"_message","type":"tuple","internalType":"struct IBorrowing.OmniChainBorrowingData","components":[{"name":"normalizedAmount","type":"uint256","internalType":"uint256"},{"name":"ethVaultValue","type":"uint256","internalType":"uint256"},{"name":"cdsPoolValue","type":"uint256","internalType":"uint256"},{"name":"totalCDSPool","type":"uint256","internalType":"uint256"},{"name":"ethRemainingInWithdraw","type":"uint256","internalType":"uint256"},{"name":"ethValueRemainingInWithdraw","type":"uint256","internalType":"uint256"},{"name":"noOfLiquidations","type":"uint128","internalType":"uint128"},{"name":"nonce","type":"uint64","internalType":"uint64"}]},{"name":"_options","type":"bytes","internalType":"bytes"},{"name":"_payInLzToken","type":"bool","internalType":"bool"}],"outputs":[{"name":"fee","type":"tuple","internalType":"struct MessagingFee","components":[{"name":"nativeFee","type":"uint256","internalType":"uint256"},{"name":"lzTokenFee","type":"uint256","internalType":"uint256"}]}],"stateMutability":"view"},{"type":"function","name":"redeemYields","inputs":[{"name":"user","type":"address","internalType":"address"},{"name":"aBondAmount","type":"uint128","internalType":"uint128"}],"outputs":[{"name":"","type":"uint256","internalType":"uint256"}],"stateMutability":"nonpayable"},{"type":"function","name":"renounceOwnership","inputs":[],"outputs":[],"stateMutability":"nonpayable"},{"type":"function","name":"setAPR","inputs":[{"name":"_ratePerSec","type":"uint128","internalType":"uint128"}],"outputs":[],"stateMutability":"nonpayable"},{"type":"function","name":"setAdmin","inputs":[{"name":"_admin","type":"address","internalType":"address"}],"outputs":[],"stateMutability":"nonpayable"},{"type":"function","name":"setBondRatio","inputs":[{"name":"_bondRatio","type":"uint64","internalType":"uint64"}],"outputs":[],"stateMutability":"nonpayable"},{"type":"function","name":"setBorrowLiquidation","inputs":[{"name":"_borrowLiquidation","type":"address","internalType":"address"}],"outputs":[],"stateMutability":"nonpayable"},{"type":"function","name":"setDelegate","inputs":[{"name":"_delegate","type":"address","internalType":"address"}],"outputs":[],"stateMutability":"nonpayable"},{"type":"function","name":"setDstEid","inputs":[{"name":"_eid","type":"uint32","internalType":"uint32"}],"outputs":[],"stateMutability":"nonpayable"},{"type":"function","name":"setLTV","inputs":[{"name":"_LTV","type":"uint8","internalType":"uint8"}],"outputs":[],"stateMutability":"nonpayable"},{"type":"function","name":"setOptions","inputs":[{"name":"_options","type":"address","internalType":"address"}],"outputs":[],"stateMutability":"nonpayable"},{"type":"function","name":"setPeer","inputs":[{"name":"_eid","type":"uint32","internalType":"uint32"},{"name":"_peer","type":"bytes32","internalType":"bytes32"}],"outputs":[],"stateMutability":"nonpayable"},{"type":"function","name":"setTreasury","inputs":[{"name":"_treasury","type":"address","internalType":"address"}],"outputs":[],"stateMutability":"nonpayable"},{"type":"function","name":"transferOwnership","inputs":[{"name":"newOwner","type":"address","internalType":"address"}],"outputs":[],"stateMutability":"nonpayable"},{"type":"function","name":"updateLastEthVaultValue","inputs":[{"name":"_amount","type":"uint256","internalType":"uint256"}],"outputs":[],"stateMutability":"nonpayable"},{"type":"function","name":"upgradeToAndCall","inputs":[{"name":"newImplementation","type":"address","internalType":"address"},{"name":"data","type":"bytes","internalType":"bytes"}],"outputs":[],"stateMutability":"payable"},{"type":"function","name":"usda","inputs":[],"outputs":[{"name":"","type":"address","internalType":"contract IUSDa"}],"stateMutability":"view"},{"type":"function","name":"withDraw","inputs":[{"name":"_toAddress","type":"address","internalType":"address"},{"name":"_index","type":"uint64","internalType":"uint64"},{"name":"_ethPrice","type":"uint64","internalType":"uint64"},{"name":"_withdrawTime","type":"uint64","internalType":"uint64"}],"outputs":[],"stateMutability":"payable"},{"type":"event","name":"Deposit","inputs":[{"name":"user","type":"address","indexed":false,"internalType":"address"},{"name":"index","type":"uint64","indexed":false,"internalType":"uint64"},{"name":"depositedAmount","type":"uint256","indexed":false,"internalType":"uint256"},{"name":"normalizedAmount","type":"uint256","indexed":false,"internalType":"uint256"},{"name":"depositedTime","type":"uint256","indexed":false,"internalType":"uint256"},{"name":"ethPrice","type":"uint128","indexed":false,"internalType":"uint128"},{"name":"borrowAmount","type":"uint256","indexed":false,"internalType":"uint256"},{"name":"strikePrice","type":"uint64","indexed":false,"internalType":"uint64"},{"name":"optionsFees","type":"uint256","indexed":false,"internalType":"uint256"},{"name":"strikePricePercent","type":"uint8","indexed":false,"internalType":"enum IOptions.StrikePrice"}],"anonymous":false},{"type":"event","name":"Initialized","inputs":[{"name":"version","type":"uint64","indexed":false,"internalType":"uint64"}],"anonymous":false},{"type":"event","name":"Liquidate","inputs":[{"name":"index","type":"uint64","indexed":false,"internalType":"uint64"},{"name":"liquidationAmount","type":"uint128","indexed":false,"internalType":"uint128"},{"name":"profits","type":"uint128","indexed":false,"internalType":"uint128"},{"name":"ethAmount","type":"uint128","indexed":false,"internalType":"uint128"},{"name":"availableLiquidationAmount","type":"uint256","indexed":false,"internalType":"uint256"}],"anonymous":false},{"type":"event","name":"OwnershipTransferred","inputs":[{"name":"previousOwner","type":"address","indexed":true,"internalType":"address"},{"name":"newOwner","type":"address","indexed":true,"internalType":"address"}],"anonymous":false},{"type":"event","name":"PeerSet","inputs":[{"name":"eid","type":"uint32","indexed":false,"internalType":"uint32"},{"name":"peer","type":"bytes32","indexed":false,"internalType":"bytes32"}],"anonymous":false},{"type":"event","name":"Upgraded","inputs":[{"name":"implementation","type":"address","indexed":true,"internalType":"address"}],"anonymous":false},{"type":"event","name":"Withdraw","inputs":[{"name":"user","type":"address","indexed":false,"internalType":"address"},{"name":"index","type":"uint64","indexed":false,"internalType":"uint64"},{"name":"withdrawTime","type":"uint256","indexed":false,"internalType":"uint256"},{"name":"withdrawAmount","type":"uint128","indexed":false,"internalType":"uint128"},{"name":"noOfAbond","type":"uint128","indexed":false,"internalType":"uint128"},{"name":"borrowDebt","type":"uint256","indexed":false,"internalType":"uint256"}],"anonymous":false},{"type":"error","name":"AddressEmptyCode","inputs":[{"name":"target","type":"address","internalType":"address"}]},{"type":"error","name":"AddressInsufficientBalance","inputs":[{"name":"account","type":"address","internalType":"address"}]},{"type":"error","name":"Borrowing_DepositFailed","inputs":[]},{"type":"error","name":"Borrowing_GettingETHPriceFailed","inputs":[]},{"type":"error","name":"Borrowing_LiquidateBurnFailed","inputs":[]},{"type":"error","name":"Borrowing_LiquidateEthTransferToCdsFailed","inputs":[]},{"type":"error","name":"Borrowing_WithdrawBurnFailed","inputs":[]},{"type":"error","name":"Borrowing_WithdrawEthTransferFailed","inputs":[]},{"type":"error","name":"Borrowing_WithdrawUSDaTransferFailed","inputs":[]},{"type":"error","name":"Borrowing_abondMintFailed","inputs":[]},{"type":"error","name":"Borrowing_usdaMintFailed","inputs":[]},{"type":"error","name":"ERC1967InvalidImplementation","inputs":[{"name":"implementation","type":"address","internalType":"address"}]},{"type":"error","name":"ERC1967NonPayable","inputs":[]},{"type":"error","name":"EndPointUnavailable","inputs":[]},{"type":"error","name":"FailedInnerCall","inputs":[]},{"type":"error","name":"InvalidDelegate","inputs":[]},{"type":"error","name":"InvalidEndpointCall","inputs":[]},{"type":"error","name":"InvalidInitialization","inputs":[]},{"type":"error","name":"InvalidOptionType","inputs":[{"name":"optionType","type":"uint16","internalType":"uint16"}]},{"type":"error","name":"LzTokenUnavailable","inputs":[]},{"type":"error","name":"NoPeer","inputs":[{"name":"eid","type":"uint32","internalType":"uint32"}]},{"type":"error","name":"NotEnoughNative","inputs":[{"name":"msgValue","type":"uint256","internalType":"uint256"}]},{"type":"error","name":"NotInitializing","inputs":[]},{"type":"error","name":"OnlyEndpoint","inputs":[{"name":"addr","type":"address","internalType":"address"}]},{"type":"error","name":"OnlyPeer","inputs":[{"name":"eid","type":"uint32","internalType":"uint32"},{"name":"sender","type":"bytes32","internalType":"bytes32"}]},{"type":"error","name":"OwnableInvalidOwner","inputs":[{"name":"owner","type":"address","internalType":"address"}]},{"type":"error","name":"OwnableUnauthorizedAccount","inputs":[{"name":"account","type":"address","internalType":"address"}]},{"type":"error","name":"ReentrancyGuardReentrantCall","inputs":[]},{"type":"error","name":"SafeCastOverflowedUintDowncast","inputs":[{"name":"bits","type":"uint8","internalType":"uint8"},{"name":"value","type":"uint256","internalType":"uint256"}]},{"type":"error","name":"SafeERC20FailedOperation","inputs":[{"name":"token","type":"address","internalType":"address"}]},{"type":"error","name":"UUPSUnauthorizedCallContext","inputs":[]},{"type":"error","name":"UUPSUnsupportedProxiableUUID","inputs":[{"name":"slot","type":"bytes32","internalType":"bytes32"}]}],"bytecode":{"object":"0x60a0806040523461002a573060805261538390816100308239608051818181610a3e0152610b910152f35b600080fdfe6080604052600436101561001257600080fd5b60003560e01c8062cecd77146102a65780630d14c92e146102a157806313137d651461029c578063162790551461029757806317442b7014610292578063181ab6db1461028d578063276eb3ac146102885780633400288b146102835780634d818c9c1461027e5780634ed2b8ac146102795780634f1ef2861461027457806350593af71461026f57806352d1902d1461026a5780635e280f1114610265578063661b7d3e14610260578063704b6c021461025b578063715018a6146102565780637d25a05e146102515780637d6dff7d1461024c57806380ddebcb1461024757806382413eac146102425780638da5cb5b1461023d5780638e4db39a14610238578063a4cdc59714610233578063a7d46ab21461022e578063aad2476d14610229578063ab2f40ee14610224578063ad3cb1cc1461021f578063ada0b0ed1461021a578063bb0b6a5314610215578063c1bab32d14610210578063c2a3bde21461020b578063c810146114610206578063ca5eb5e114610201578063d5c28dba146101fc578063e2b19ff0146101f7578063e54a6bc3146101f2578063f0f44260146101ed578063f2fde38b146101e8578063f851a440146101e35763ff7bd03d146101de57600080fd5b611ab7565b611a8e565b611a61565b61196f565b6118cf565b6118a6565b611822565b6117a7565b6116e6565b6116c8565b611639565b6115fe565b6115cc565b611586565b611460565b611372565b6111e5565b6110f9565b6110db565b6110a5565b611047565b610f5c565b610e59565b610e32565b610dc4565b610cfe565b610c12565b610be9565b610b7e565b610b63565b6109fc565b6109d8565b6109af565b610928565b6107e8565b6107c5565b6107a3565b61076e565b61068d565b6105b4565b6104e8565b63ffffffff8116036102b957565b600080fd5b634e487b7160e01b600052604160045260246000fd5b61010081019081106001600160401b038211176102f057604052565b6102be565b6001600160401b0381116102f057604052565b604081019081106001600160401b038211176102f057604052565b606081019081106001600160401b038211176102f057604052565b90601f801991011681019081106001600160401b038211176102f057604052565b604051906101e082018281106001600160401b038211176102f057604052565b60405190608082018281106001600160401b038211176102f057604052565b6040519060a082018281106001600160401b038211176102f057604052565b6001600160801b038116036102b957565b60e435906103db826103bd565b565b6001600160401b038116036102b957565b61010435906103db826103dd565b35906103db826103dd565b9190826101009103126102b957604051610420816102d4565b60e0610477818395803585526020810135602086015260408101356040860152606081013560608601526080810135608086015260a081013560a086015260c081013561046c816103bd565b60c0860152016103fc565b910152565b6001600160401b0381116102f057601f01601f191660200190565b81601f820112156102b9578035906104ae8261047c565b926104bc604051948561033e565b828452602083830101116102b957816000926020809301838601378301015290565b801515036102b957565b346102b9576101603660031901126102b957600435610506816102ab565b6101003660231901126102b95760405190610520826102d4565b602435825260443560208301526064356040830152608435606083015260a435608083015260c43560a08301526105556103ce565b60c08301526105626103ee565b60e083015261012435906001600160401b0382116102b95760409261058e6105a2933690600401610497565b90610144359261059d846104de565b614aab565b60208251918051835201516020820152f35b346102b95760203660031901126102b95763ffffffff6004356105d6816102ab565b6105eb60018060a01b03600b54163314611d2f565b1680156106055763ffffffff196018541617601855600080f35b60405162461bcd60e51b81526020600482015260116024820152704549442063616e2774206265207a65726f60781b6044820152606490fd5b60609060031901126102b957600490565b9181601f840112156102b9578235916001600160401b0383116102b957602083818601950101116102b957565b6001600160a01b038116036102b957565b60e03660031901126102b9576106a23661063e565b6001600160401b036084358181116102b9576106c290369060040161064f565b916106ce60a43561067c565b60c4359081116102b9576106e690369060040161064f565b50506000546001600160a01b031633036107565761070b61070684614c04565b614d04565b926020810135809403610724576107228383614c0e565b005b61072e8491614c04565b60405163309afaf360e21b815263ffffffff9190911660048201526024810191909152604490fd5b6040516391ac5e4f60e01b8152336004820152602490fd5b346102b95760203660031901126102b957602060043561078d8161067c565b3b1515604051908152f35b60009103126102b957565b346102b95760003660031901126102b957604080516001815260026020820152f35b346102b95760003660031901126102b95760206107e0614737565b604051908152f35b346102b95760203660031901126102b957600435610805816103dd565b61081a60018060a01b03600b54163314611d2f565b6001600160401b038116156108e857600754610846906001600160a01b03165b6001600160a01b031690565b604051631f71924f60e31b8152600760048201529190602090839060249082906000905af19182156108e35761072292610888916000916108b5575b50611e0e565b6014805467ffffffffffffffff60801b191660809290921b67ffffffffffffffff60801b16919091179055565b6108d6915060203d81116108dc575b6108ce818361033e565b810190611ded565b38610882565b503d6108c4565b611e02565b60405162461bcd60e51b8152602060048201526018602482015277426f6e6420526174696f2063616e2774206265207a65726f60401b6044820152606490fd5b346102b95760403660031901126102b9577f238399d427b947898edb290f5ff0f9109849b1c3ba196a42e35f00c50a54b98b600435610966816102ab565b602435906109726150d5565b63ffffffff81166000526001602052816040600020556109aa604051928392836020909392919363ffffffff60408201951681520152565b0390a1005b346102b95760003660031901126102b957601f546040516001600160801b039091168152602090f35b346102b95760003660031901126102b957602060ff600b5460a01c16604051908152f35b60403660031901126102b9576004803590610a168261067c565b6024356001600160401b0381116102b957610a349036908301610497565b6001600160a01b037f00000000000000000000000000000000000000000000000000000000000000008116308114908115610b47575b50610b36579060208392610a7c6150d5565b6040516352d1902d60e01b8152938491829088165afa60009281610b06575b50610ac9575050604051634c9c8ce360e01b81526001600160a01b0390921690820190815281906020010390fd5b838360008051602061530e8339815191528403610aea576107228383615150565b604051632a87526960e21b815290810184815281906020010390fd5b610b2891935060203d8111610b2f575b610b20818361033e565b8101906120e2565b9138610a9b565b503d610b16565b60405163703e46dd60e11b81528390fd5b90508160008051602061530e8339815191525416141538610a6a565b346102b95760003660031901126102b95760206107e0614155565b346102b95760003660031901126102b9577f00000000000000000000000000000000000000000000000000000000000000006001600160a01b03163003610bd757602060405160008051602061530e8339815191528152f35b60405163703e46dd60e11b8152600490fd5b346102b95760003660031901126102b9576000546040516001600160a01b039091168152602090f35b346102b95760203660031901126102b957600a54600435906001600160a01b03163303610ca6578015610c5657601a54908103908111610c5157601a55005b61206b565b60405162461bcd60e51b815260206004820152602260248201527f4c61737420455448207661756c742076616c75652063616e2774206265207a65604482015261726f60f01b6064820152608490fd5b60405162461bcd60e51b815260206004820152602a60248201527f46756e6374696f6e2073686f756c64206f6e6c792062652063616c6c656420626044820152697920747265617375727960b01b6064820152608490fd5b346102b95760203660031901126102b957600435610d1b8161067c565b610d236150d5565b6001600160a01b038116151580610db6575b610d3e90611e15565b600754610d53906001600160a01b031661083a565b604051631f71924f60e31b8152600360048201529190602090839060249082906000905af19182156108e35761072292610d94916000916108b55750611e0e565b600b80546001600160a01b0319166001600160a01b0392909216919091179055565b50803b151560011415610d35565b346102b957600080600319360112610e2f57610dde6150d5565b6000805160206152ee83398151915280546001600160a01b0319811690915581906001600160a01b03167f8be0079c531659141344cd1fd0a4f28419497f9722a3daafe3b4186f6b6457e08280a380f35b80fd5b346102b95760403660031901126102b957610e4e6004356102ab565b602060405160008152f35b346102b95760203660031901126102b957600435610e768161067c565b600b546001600160a01b0390610e8f9082163314611d2f565b8116908115159081610f29575b5015610ec357600680546001600160a01b0319166001600160a01b03909216919091179055005b60405162461bcd60e51b815260206004820152603860248201527f4f7074696f6e73206d75737420626520636f6e7472616374206164647265737360448201527720262063616e2774206265207a65726f206164647265737360401b6064820152608490fd5b90503b151538610e9c565b60409060031901126102b957600435610f4c8161067c565b90602435610f59816103bd565b90565b346102b9576020610f6c36610f34565b6002546004546001600160a01b03918216949391610fe99116600554610f9a906001600160a01b031661083a565b60405163d4222e2b60e01b81526001600160a01b0394851660048201526001600160801b03909516602486015295831660448501528216606484015293166084820152918290819060a4820190565b038173__$87511a64ad1cd7dc6108642f468c9b94de$__5af480156108e35761102591600091611029575b506040519081529081906020820190565b0390f35b611041915060203d8111610b2f57610b20818361033e565b38611014565b346102b95760a03660031901126102b9576110613661063e565b506064356001600160401b0381116102b95761108190369060040161064f565b505060206084356110918161067c565b6040516001600160a01b0390911630148152f35b346102b95760003660031901126102b9576000805160206152ee833981519152546040516001600160a01b039091168152602090f35b346102b95760003660031901126102b9576020601254604051908152f35b346102b95760203660031901126102b9576004356111168161067c565b600b546001600160a01b039061112f9082163314611d2f565b81169081151590816111da575b501561116357600880546001600160a01b0319166001600160a01b03909216919091179055005b60405162461bcd60e51b815260206004820152604360248201527f426f72726f77204c69717569646174696f6e206d75737420626520636f6e747260448201527f616374206164647265737320262063616e2774206265207a65726f206164647260648201526265737360e81b608482015260a490fd5b90503b15153861113c565b346102b9576101003660031901126102b9576004356112038161067c565b602435906112108261067c565b60443561121c8161067c565b6064356112288161067c565b6084356112348161067c565b60a43590611241826103dd565b60c4359261124e8461067c565b60e4359461125b8661067c565b60008051602061532e83398151915254976001600160401b0360ff8a60401c161599168015908161136a575b6001149081611360575b159081611357575b506113455760008051602061532e833981519152805467ffffffffffffffff191660011790556112cd978961132057611b44565b6112d357005b60008051602061532e833981519152805460ff60401b19169055604051600181527fc7f505b2f371ae2175ee4913f4499e1f2633a7b5936321eed1cdaeb6115181d29080602081016109aa565b60008051602061532e833981519152805460ff60401b1916600160401b179055611b44565b60405163f92ee8a960e01b8152600490fd5b90501538611299565b303b159150611291565b8a9150611287565b346102b95760203660031901126102b95760043560ff81168082036102b9576113a660018060a01b03600b54163314611d2f565b15611427576007546113c0906001600160a01b031661083a565b9060206040518093631f71924f60e31b8252816000816113e860048201906000602083019252565b03925af19182156108e35761072292611408916000916108b55750611e0e565b600b805460ff60a01b191660a09290921b60ff60a01b16919091179055565b60405162461bcd60e51b81526020600482015260116024820152704c54562063616e2774206265207a65726f60781b6044820152606490fd5b346102b95761146e36610f34565b60048054600554604051630d22c2ff60e31b81526001600160a01b03958616938101939093526001600160801b039093166024830152831660448201529116606482015260608160848173__$87511a64ad1cd7dc6108642f468c9b94de$__5af480156108e35760009081928291611508575b50604080516001600160801b03939093168352602083019390935291810191909152606090f35b90506110259250611530915060603d8111611537575b611528818361033e565b810190613e97565b90926114e1565b503d61151e565b60005b8381106115515750506000910152565b8181015183820152602001611541565b9060209161157a8151809281855285808601910161153e565b601f01601f1916010190565b346102b95760003660031901126102b9576110256040516115a681610308565b60058152640352e302e360dc1b6020820152604051918291602083526020830190611561565b346102b95760403660031901126102b95760206115ed602435600435614567565b6001600160401b0360405191168152f35b346102b95760203660031901126102b95763ffffffff600435611620816102ab565b1660005260016020526020604060002054604051908152f35b346102b95760203660031901126102b957600435611656816103bd565b6007546040516326d2a55160e21b8152600360048201529190602090839060249082906000906001600160a01b03165af19182156108e357610722926116a5916000916116aa575b5015611e78565b61465c565b6116c2915060203d81116108dc576108ce818361033e565b3861169e565b346102b95760003660031901126102b9576020601b54604051908152f35b60803660031901126102b9576004356116fe8161067c565b60243561170a816103dd565b604435611716816103dd565b60643591611723836103dd565b61172b61510e565b6007546040516326d2a55160e21b8152600160048201529490602090869060249082906000906001600160a01b03165af19485156108e35761177e95611779916000916116aa575015611e78565b613173565b61072260017f9b779b17422d0df92223018b32b4d1fa46e071723d6817e2486d003becc55f0055565b346102b95760006020366003190112610e2f576004356117c68161067c565b6117ce6150d5565b81546001600160a01b0390811691839190833b1561181e5760249083604051958694859363ca5eb5e160e01b85521660048401525af180156108e357611812575080f35b61181b906102f5565b80f35b8280fd5b60603660031901126102b95760043561183a8161067c565b602435611846816103dd565b60443590611853826103dd565b6007546040516326d2a55160e21b8152600260048201529390602090859060249082906000906001600160a01b03165af19384156108e357610722946118a1916000916116aa575015611e78565b613ebb565b346102b95760003660031901126102b9576002546040516001600160a01b039091168152602090f35b60c03660031901126102b9576004356118e7816103bd565b6024356118f3816103dd565b6044359160058310156102b95760643561190c816103dd565b61191461510e565b6007546040516326d2a55160e21b8152600060048201819052909591602091879160249183916001600160a01b03165af19485156108e35761177e95611962916000916116aa575015611e78565b60a43593608435936124da565b346102b95760203660031901126102b95760043561198c8161067c565b600b546001600160a01b03906119a59082163314611d2f565b81169081151580611a57575b6119ba90611d74565b6007546119cf906001600160a01b031661083a565b604051631f71924f60e31b8152600560048201529290602090849060249082906000905af19081156108e357611a13611a3592610722956000916108b55750611e0e565b600580546001600160a01b0319166001600160a01b0392909216919091179055565b600a80546001600160a01b0319166001600160a01b0392909216919091179055565b50803b15156119b1565b346102b95760203660031901126102b957610722600435611a818161067c565b611a896150d5565b615061565b346102b95760003660031901126102b957600b546040516001600160a01b039091168152602090f35b346102b95760603660031901126102b9576020611ad33661063e565b63ffffffff8135611ae3816102ab565b166000526001825260406000205482604051920135148152f35b60405190611b0a82610308565b600e82526d105d5d1bdb9bdb5a5b9d081554d160921b6020830152565b60405190611b3482610308565b60018252603160f81b6020830152565b96929091949596611b5433615061565b60ff60008051602061532e8339815191525460401c1615611d1d57611bb1611c3996611bd3611bf593611b8d611c1798611cc49d614b47565b600280546001600160a01b0319166001600160a01b03928316179055958693849190565b60038054919092166001600160a01b03166001600160a01b0319909116179055565b60048054919092166001600160a01b03166001600160a01b0319909116179055565b60078054919092166001600160a01b03166001600160a01b0319909116179055565b600d80546001600160a01b0319166001600160a01b0392909216919091179055565b611c41611afd565b60208151910120611cbc611c53611b27565b8051602091820120604080517f2010028ec63295361a00945794d4fce5b1046c419f60af448db7aaeb91e918f89381019384529081019490945260608401526001600160401b0390931660808301523060a08301528160c081015b03601f19810183528261033e565b519020601555565b611d00611cde611cd2614155565b6001600160801b031690565b600e80546001600160801b0319166001600160801b0392909216919091179055565b601380546001600160801b031916426001600160801b0316179055565b604051631afcd79f60e31b8152600490fd5b15611d3657565b60405162461bcd60e51b815260206004820152601660248201527521b0b63632b91034b9903737ba1030b71030b236b4b760511b6044820152606490fd5b15611d7b57565b60405162461bcd60e51b815260206004820152603960248201527f5472656173757279206d75737420626520636f6e7472616374206164647265736044820152787320262063616e2774206265207a65726f206164647265737360381b6064820152608490fd5b51906103db826104de565b908160209103126102b95751610f59816104de565b6040513d6000823e3d90fd5b156102b957565b15611e1c57565b60405162461bcd60e51b815260206004820152602e60248201527f41646d696e2063616e277420626520636f6e747261637420616464726573732060448201526d26207a65726f206164647265737360901b6064820152608490fd5b15611e7f57565b60405162461bcd60e51b815260206004820152600660248201526514185d5cd95960d21b6044820152606490fd5b15611eb457565b60405162461bcd60e51b815260206004820152601a60248201527f43616e6e6f74206465706f736974207a65726f20746f6b656e730000000000006044820152606490fd5b15611f0057565b60405162461bcd60e51b815260206004820152602360248201527f426f72726f77696e673a20446f6e2774206861766520656e6f756768204c5a2060448201526266656560e81b6064820152608490fd5b60405190611f5e826102d4565b6019548252601a546020830152601b546040830152601c546060830152601d54608080840191909152601e5460a0840152601f546001600160801b03811660c0850152901c6001600160401b031660e0830152565b91908260409103126102b957604051611fcb81610308565b6020808294805184520151910152565b906040828203126102b957610f5991611fb3565b939261206690606060009463ffffffff6101609516885260016020890152856040890152858289015285608089015260018060801b038082511660a08a01528060208301511660c08a015260408201511660e089015201516101008701528361012087015261018080610140880152860190611561565b930152565b634e487b7160e01b600052601160045260246000fd5b6001600160801b039182169082160290811691908203610c5157565b156120a457565b60405162461bcd60e51b81526020600482015260166024820152754e6f7420656e6f7567682066756e6420696e2043445360501b6044820152606490fd5b908160209103126102b9575190565b9060058210156120fe5752565b634e487b7160e01b600052602160045260246000fd5b6103db93606092969593608083019760018060801b031683526020830152604082015201906120f1565b91908203918211610c5157565b51906103db826103dd565b908160409103126102b95760206040519161217083610308565b805161217b816104de565b83520151612188816103dd565b602082015290565b51906103db826103bd565b908160209103126102b95751610f59816103bd565b80910361020081126102b957604051916121c983610308565b80516121d4816103dd565b83526101e08092601f1901126102b9576122f06121ef61035f565b926121fc6020840161214b565b845261220a60408401612190565b602085015261221b60608401612190565b604085015261222c6080840161214b565b606085015261223d60a08401612190565b608085015261224e60c08401612190565b60a085015261225f60e08401612190565b60c085015261010092612273848201611de2565b60e086015261012093612287858301612190565b908601526101409361229a858301611de2565b90860152610160936122ad85830161214b565b90860152610180936122c085830161214b565b908601526101a0936122d3858301612190565b908601526101c0936122e6858301612190565b9086015201612190565b90820152602082015290565b6001600160a01b0390911681526001600160401b03918216602082015282519091166040820152610220810192916103db91906102009060208101516001600160801b0316606084015260408101516001600160801b0316608084015260608101516001600160401b031660a084015260808101516001600160801b031660c084015260a08101516001600160801b031660e084015260c08101516001600160801b0316610100848101919091529061245460e0820151926123c5610120948588019015159052565b8201516001600160801b03166101408681019190915292820151926123f1610160948588019015159052565b8201519261240d61018094858801906001600160401b03169052565b820151926124296101a094858801906001600160401b03169052565b8201516001600160801b03166101c086810191909152928201516001600160801b03166101e0860152565b01516001600160801b0316910152565b91908201809211610c5157565b95909a99979293916103db9995610120989361014089019d60018060a01b031689526001600160401b03968780941660208b015260408a0152606089015216608087015260018060801b031660a086015260c08501521660e083015261010082015201906120f1565b949390929161257e926124ee861515611ead565b6124f9863411611ef9565b612509612504614f36565b614f50565b60185463ffffffff169760408261252881612522611f51565b8d6149d8565b600354909b90612540906001600160a01b031661083a565b9061254961037f565b9060008252600060208301526000858301526000606083015284519a8b9485938493632b4a4c0d60e21b855260048501611fef565b03915afa9485156108e3578896600096612cc5575b50846020916125c6614e206001600160401b036125be6125ff9a9b9c60018060801b03891690614567565b16101561209d565b6006548b906000906125e0906001600160a01b031661083a565b92604051998a9586948593636916a18160e11b85528a60048601612114565b03925af19384156108e357600094612ca4575b50600b54604051636812dc0360e01b8152600481018a90526001600160801b038316602482015260a09190911c60ff1660448201529660208860648173__$87511a64ad1cd7dc6108642f468c9b94de$__5af49283156108e3576126f398600094612c83575b506040828c858d6126aa8d6126a261269a61083a60055460018060a01b031690565b95513461213e565b90519061213e565b8551630bbfe8b960e41b815260048101929092523360248301526001600160801b0390921660448201526001600160401b039093166064840152919b8c92839182906084820190565b03925af19889156108e357600099612c52575b5061272c61272861272160208c01516001600160401b031690565b9a51151590565b1590565b612c4057600454612745906001600160a01b031661083a565b604051632af2698d60e11b8152600481018c905260208160248173__$87511a64ad1cd7dc6108642f468c9b94de$__5af49081156108e357600091612c21575b5060055461279b906001600160a01b031661083a565b604051637b85b73960e01b81526001600482015290602090829060249082905afa9081156108e357600091612bf2575b50823b156102b957604051639992f4b760e01b81523360048201526001600160401b038d1660248201526001600160801b03928316604482015291166064820152906000908290608490829084905af180156108e357612bdf575b5061283386848c33612dcf565b600354612848906001600160a01b031661083a565b975197803b156102b95760405163b87c3dc360e01b81526001600160801b03881660048201819052999091600091839160249183915af180156108e357612bcc575b506005546128a0906001600160a01b031661083a565b604051634d5c56a560e01b81523360048201526001600160401b038b1660248201526102008082604481865afa80156108e35761290792602092600092612b9f575b505001516001600160801b03871660a0820152996001600160801b03166101c08b0152565b803b156102b957604051632e449f1760e21b815233600482015260016024820152906000908290604490829084905af180156108e357612b8c575b50600554612958906001600160a01b031661083a565b90813b156102b957604051630e6840d960e11b815233600482015260248101869052916000908390604490829084905af19182156108e3576129ec92612b79575b506129a2614737565b50601380546001600160801b031916426001600160801b0316179055601254604051633460dd8b60e11b815260048101879052602481019190915291602090839081906044820190565b038173__$87511a64ad1cd7dc6108642f468c9b94de$__5af49182156108e357600092612b58575b506001600160801b03821660c08a0152612a54612a436001600160801b038d166001600160401b038916612081565b6001600160801b03166101a08b0152565b600554612a69906001600160a01b031661083a565b803b156102b957612a96996000918c83604051809e81958294638fabe74f60e01b845233600485016122fc565b03925af19081156108e3577f9669857a255f156ba0982057c1be0e843f0f4ae5e263b847ced8ea7a7d718cf39c612b3a9a612b2c93612b3f575b50612ae5612ae085600c54612464565b600c55565b600e80546001600160801b0319166001600160801b038816179055612b14612b0f85601954612464565b601955565b60185463ffffffff165b612b26611f51565b906148c2565b50604051998a99338b612471565b0390a1565b80612b4c612b52926102f5565b80610798565b38612ad0565b612b7291925060203d602011610b2f57610b20818361033e565b9038612a14565b80612b4c612b86926102f5565b38612999565b80612b4c612b99926102f5565b38612942565b612bbe9250803d10612bc5575b612bb6818361033e565b8101906121b0565b38806128e2565b503d612bac565b80612b4c612bd9926102f5565b3861288a565b80612b4c612bec926102f5565b38612826565b612c14915060203d602011612c1a575b612c0c818361033e565b81019061219b565b386127cb565b503d612c02565b612c3a915060203d602011612c1a57612c0c818361033e565b38612785565b604051634fad3b0960e01b8152600490fd5b612c7591995060403d604011612c7c575b612c6d818361033e565b810190612156565b9738612706565b503d612c63565b612c9d91945060203d602011610b2f57610b20818361033e565b9238612678565b612cbe91945060203d602011610b2f57610b20818361033e565b9238612612565b859650946020916125c6614e206001600160401b036125be612d016125ff9b60403d604011612d0f575b612cf9818361033e565b810190611fdb565b9b9a50505050509150612593565b503d612cef565b15612d1d57565b60405162461bcd60e51b815260206004820152601f60248201527f426f72726f7765722063616e6e6f74206265207a65726f2061646472657373006044820152606490fd5b15612d6957565b60405162461bcd60e51b815260206004820152603860248201527f4c5456206d7573742062652073657420746f206e6f6e2d7a65726f2076616c7560448201527765206265666f72652070726f766964696e67206c6f616e7360401b6064820152608490fd5b91929190612e4290612deb6001600160a01b0384161515612d16565b600b5460a01c60ff16612e0260ff82161515612d62565b604051636812dc0360e01b815260048101929092526001600160801b03909516602482015260ff9094166044850152602093908490829081906064820190565b038173__$87511a64ad1cd7dc6108642f468c9b94de$__5af480156108e357612ec785916000938491612f96575b50600254612e92908790612e8c906001600160a01b031661083a565b9261213e565b6040516340c10f1960e01b8082526001600160a01b039097166004820152602481019190915293849283919082906044820190565b03925af19081156108e357600091612f79575b5015612f4a57600254612f2e9284929091612efd906001600160a01b031661083a565b600a546040519283526001600160a01b03166004830152602482019290925292839190829060009082906044820190565b03925af19182156108e357600092612f5c575b505015612f4a57565b60405163035f563160e31b8152600490fd5b612f729250803d106108dc576108ce818361033e565b3880612f41565b612f909150843d86116108dc576108ce818361033e565b38612eda565b612fad9150833d8511610b2f57610b20818361033e565b38612e70565b15612fba57565b60405162461bcd60e51b815260206004820152603060248201527f546f20616464726573732063616e6e6f742062652061207a65726f20616e642060448201526f636f6e7472616374206164647265737360801b6064820152608490fd5b1561301f57565b60405162461bcd60e51b815260206004820152601f60248201527f5573657220616d6f756e7420686173206265656e206c697175696461746564006044820152606490fd5b1561306b57565b60405162461bcd60e51b8152602060048201526016602482015275426f72726f77696e674865616c7468206973204c6f7760501b6044820152606490fd5b156130b057565b60405162461bcd60e51b815260206004820152602260248201527f557365722062616c616e6365206973206c657373207468616e20726571756972604482015261195960f21b6064820152608490fd5b6001600160801b039182169190821561311857160490565b634e487b7160e01b600052601260045260246000fd5b6001600160801b039182169082160191908211610c5157565b6001600160801b039182169082160391908211610c5157565b81810292918115918404141715610c5157565b6001600160a01b038116151580613cf0575b61318e90612fb3565b6001600160401b03926131a2848216614391565b50600e80546001600160801b0319166001600160801b03838716161790556005546131d5906001600160a01b031661083a565b604051634d5c56a560e01b81523360048201526001600160401b0385166024820152610200918290829060449082905afa9182156108e357600092613cd3575b5050602081015190516001600160401b031684861690861610613c7f5761324b613246612728610120840151151590565b613018565b60e0810151613c2e576080810151604051636614cc0560e01b81526001600160801b0390911660048201526001600160401b03831660248201529560208760448173__$87511a64ad1cd7dc6108642f468c9b94de$__5af49687156108e357600097613c05575b506133089291906132cf611f406001600160801b038a1611613064565b60c08201516012546040516350ad67e160e11b81526001600160801b039092166004830152602482015293602090859081906044820190565b038173__$87511a64ad1cd7dc6108642f468c9b94de$__5af49384156108e357600094613be4575b50613339614737565b50601380546001600160801b031916426001600160801b031617905560025461336a906001600160a01b031661083a565b6040516370a0823160e01b81523360048201529190602090839060249082905afa80156108e357856133aa916133d294600091613bc5575b5010156130a9565b6001600160401b038416610140840152600160e08401526001600160401b0316610160830152565b60208181015160405163684d536d60e11b81526001600160801b0390911660048201526001600160401b0384166024820152908160448173__$87511a64ad1cd7dc6108642f468c9b94de$__5af49081156108e357600091613ba6575b50600554613445906001600160a01b031661083a565b803b156102b9576040516302c235d160e31b81526004810183905260016024820152906000908290604490829084905af180156108e357613b93575b5060a08201516134a490829061349f906001600160801b0316611cd2565b61213e565b6002546134b9906001600160a01b031661083a565b6040516363a9f09360e11b81523360048201526024810183905290602090829060449082906000905af19081156108e357600091613b74575b5015613b625760025461356691602091613514906001600160a01b031661083a565b600a5461352b906001600160a01b0316928961213e565b6040516323b872dd60e01b81523360048201526001600160a01b03909316602484015260448301529092839190829060009082906064820190565b03925af19081156108e357600091613b43575b5015613b315760c08201516135a690612ae09061359e906001600160801b0316611cd2565b600c5461213e565b60c08201516135cd90612b0f906135c5906001600160801b0316611cd2565b60195461213e565b6005546135e2906001600160a01b031661083a565b60a083015190919061360690613600906001600160801b0316611cd2565b8661213e565b91803b156102b95760405163b9a221eb60e01b815260048101939093526000908390602490829084905af19182156108e35761364992613b1e575b508633613d41565b6001600160801b0316610180820190815296600554613670906001600160a01b031661083a565b803b156102b957604051638fabe74f60e01b815290600090829081838161369c898e33600485016122fc565b03925af180156108e357613b0b575b5060208201516136df906001600160801b03166080840151858a16916136da916001600160801b031690612081565b613100565b906127106001600160801b038216811015613a9b57505060065461376491906020908590613715906001600160a01b031661083a565b828601516101a0870151604051630e1fab4360e01b81526001600160801b039283166004820152911660248201526001600160401b039290921660448301529093849190829081906064820190565b03915afa9081156108e35761387e98602095613793613850946138489461385597600092613a7c575b5061312e565b8787015190969087906001600160801b03166001600160801b038181169083161115613a4d5750613811611cd261380b8b856137fd6137f86137f0611cd2613819996137ea8761381e9d015160018060801b031690565b90613147565b601654612464565b601655565b01516001600160801b031690565b8a613147565b601d54612464565b601d55565b61383f61383a613832848416601654613160565b601754612464565b601755565b16601654613160565b601e54612464565b601e55565b604051632af2698d60e11b81526001600160801b03909116600482015294859081906024820190565b038173__$87511a64ad1cd7dc6108642f468c9b94de$__5af49384156108e357600094613a2c575b506138b2612504614f36565b6139516020856138d9846138cb60185463ffffffff1690565b6138d3611f51565b906149d8565b60055490969089906138f3906001600160a01b031661083a565b916138ff89513461213e565b6040516315ee073360e11b81523360048201526001600160a01b0390921660248301526001600160801b0390921660448201526001600160401b03909316606484015291938492839182906084820190565b03925af19081156108e357600091613a0d575b50156139fb577f59c54db06277209213236b5f864552e9ee789e1ca98ed9988d78cdea7bd4d9d4956139a66139b492612b3a95612b1e60185463ffffffff1690565b50516001600160801b031690565b604080513381526001600160401b03909516602086015242908501526001600160801b03948516606085015293909316608083015260a082019290925290819060c0820190565b604051635e5e86d560e01b8152600490fd5b613a26915060203d6020116108dc576108ce818361033e565b38613964565b613a4691945060203d602011612c1a57612c0c818361033e565b92386138a6565b611cd282613a728c613a77966137fd6137f86137f0611cd26138199a6138119a613147565b613147565b61381e565b613a949192508a3d8c11612c1a57612c0c818361033e565b903861378d565b9197509192506001600160801b0382168103613abf57505050602061387e94613855565b9195506001600160801b038116611f4010919082613af8575b50501561306b5760209384015161387e94906001600160801b0316613855565b6001600160801b03161090503880613ad8565b80612b4c613b18926102f5565b386136ab565b80612b4c613b2b926102f5565b38613641565b60405163a07c821960e01b8152600490fd5b613b5c915060203d6020116108dc576108ce818361033e565b38613579565b6040516303f7009160e51b8152600490fd5b613b8d915060203d6020116108dc576108ce818361033e565b386134f2565b80612b4c613ba0926102f5565b38613481565b613bbf915060203d602011610b2f57610b20818361033e565b3861342f565b613bde915060203d602011610b2f57610b20818361033e565b386133a2565b613bfe91945060203d602011610b2f57610b20818361033e565b9238613330565b6133089392919750613c259060203d602011612c1a57612c0c818361033e565b969091926132b2565b60405162461bcd60e51b815260206004820152602360248201527f5573657220616c726561647920776974686472617720656e7469726520616d6f6044820152621d5b9d60ea1b6064820152608490fd5b60405162461bcd60e51b815260206004820152602660248201527f5573657220646f656e73277420686176652074686520706572746963756c6172604482015265040d2dcc8caf60d31b6064820152608490fd5b613ce99250803d10612bc557612bb6818361033e565b3880613215565b50803b151560011415613185565b15613d0557565b60405162461bcd60e51b8152602060048201526014602482015273416d6f756e742063616e2774206265207a65726f60601b6044820152606490fd5b613d556001600160a01b0382161515612d16565b613d60831515613cfe565b601454604051631f79572960e11b8152600481019490945260801c6001600160401b03166024840152602091828460448173__$87511a64ad1cd7dc6108642f468c9b94de$__5af49384156108e357600094613e70575b50600454613e249284928692600090613dd8906001600160a01b031661083a565b604051631ff9eb7f60e21b81526001600160a01b0390941660048501526001600160401b0390921660248401526001600160801b03909316604483015290938492839182906064820190565b03925af19182156108e357600092613e53575b505015613e415790565b6040516328eca99f60e21b8152600490fd5b613e699250803d106108dc576108ce818361033e565b3880613e37565b613e2492945090613e8e8492833d8511612c1a57612c0c818361033e565b94925090613db7565b908160609103126102b9578051613ead816103bd565b916040602083015192015190565b9091613eeb60018060a01b03613ed681600b54163314611d2f565b8316613ee3811515614074565b3314156140cc565b613ef3614737565b50613eff612504614f36565b91613f13836138cb60185463ffffffff1690565b91613f50613f2b613f2660135460801c90565b614126565b601380546001600160801b031660809290921b6001600160801b031916919091179055565b601f54613f8b90613f69906001600160801b0316614126565b601f80546001600160801b0319166001600160801b0392909216919091179055565b600854613fa0906001600160a01b031661083a565b613fab84513461213e565b601f549096906001600160801b03169660125494613fce60185463ffffffff1690565b95843b156102b9576040516391ba123160e01b81526001600160a01b0390921660048301526001600160401b0393841660248301529290941660448501526001600160801b039097166064840152608483015263ffffffff90921660a482015293600091859182908160c4810103925af19283156108e35761405e93614061575b5060185463ffffffff16612b1e565b50565b80612b4c61406e926102f5565b3861404f565b1561407b57565b60405162461bcd60e51b815260206004820152602360248201527f546f20616464726573732063616e6e6f742062652061207a65726f206164647260448201526265737360e81b6064820152608490fd5b156140d357565b60405162461bcd60e51b815260206004820152602560248201527f596f752063616e6e6f74206c697175696461746520796f7572206f776e206173604482015264736574732160d81b6064820152608490fd5b6001600160801b03908116908114610c515760010190565b519069ffffffffffffffffffff821682036102b957565b600d54604051633fabe5a360e21b81529060a090829060049082906001600160a01b03165afa80156108e357600090614193575b620f424091500490565b60a0823d82116141da575b816141ab60a0938361033e565b81010312610e2f5750806141c2620f42409261413e565b506141d460806020830151920161413e565b50614189565b3d915061419e565b809291039161012083126102b95780516141fb816103dd565b926101008091601f1901126102b95761426b906040519261421b846102d4565b6020810151845260408101516020850152606081015160408501526080810151606085015260a0810151608085015260c081015160a085015261426060e08201612190565b60c08501520161214b565b60e082015290565b6000815260208101919091526001600160801b0391821660408201529181166060830152608082019290925260195460a0820152601a5460c0820152601b5460e0820152601c54610100820152601d54610120820152601e54610140820152601f549182166101608201526101a0810192916103db916001600160401b0390610180905b019160801c166001600160401b03169052565b90815260208101919091526001600160801b0391821660408201529181166060830152608082019290925260195460a0820152601a5460c0820152601b5460e0820152601c54610100820152601d54610120820152601e54610140820152601f549182166101608201526101a0810192916103db916001600160401b0390610180906142f7565b801561455557600e546001600160801b03166005549091906143bb906001600160a01b031661083a565b9060405180926354dec33960e11b825281600460209586935afa80156108e357600491600091614538575b5060035484906143fe906001600160a01b031661083a565b604051636a7889f360e11b815293849182905afa9182156108e35761444894600093614519575b50506040519384928392637a0a270360e01b845261012097889660048601614273565b038173__$87511a64ad1cd7dc6108642f468c9b94de$__5af49081156108e35760009283926144e6575b505080516019556020810151601a556040810151601b556060810151601c55608080820151601d5560a0820151601e5560c0820151601f805460e0909401516001600160c01b03199094166001600160801b03909216919091179290911b67ffffffffffffffff60801b1691909117905590565b610f59935061450a9250803d10614512575b614502818361033e565b8101906141e2565b909138614472565b503d6144f8565b614530929350803d10610b2f57610b20818361033e565b903880614425565b61454f9150843d8611612c1a57612c0c818361033e565b386143e6565b6040516315e73e9f60e01b8152600490fd5b811561455557600e546001600160801b0316600554909190614591906001600160a01b031661083a565b6040519283916354dec33960e11b835282600460209687935afa9182156108e35760009261463d575b5060035460049085906145d5906001600160a01b031661083a565b604051636a7889f360e11b815292839182905afa9485156108e35760009561461e575b50506144486040519485938493637a0a270360e01b85526101209889976004870161430a565b614635929550803d10610b2f57610b20818361033e565b9238806145f8565b614655919250843d8611612c1a57612c0c818361033e565b90386145ba565b61467160018060a01b03600b54163314611d2f565b6001600160801b038116156146f857600754614695906001600160a01b031661083a565b604051631f71924f60e31b8152600160048201529190602090839060249082906000905af19182156108e3576103db926146d6916000916108b55750611e0e565b601480546001600160801b0319166001600160801b0392909216919091179055565b60405162461bcd60e51b8152602060048201526017602482015276526174652073686f756c64206e6f74206265207a65726f60481b6044820152606490fd5b60055461474c906001600160a01b031661083a565b60405180916322d7586760e11b825281600460209485935afa9081156108e357600091614805575b50601454601354601254604051635529dfd560e01b81526001600160801b0394851660048201529284166024840152921660448201526064810191909152818160848173__$87511a64ad1cd7dc6108642f468c9b94de$__5af49182156108e3576000926147e8575b5050610f5981601255565b6147fe9250803d10610b2f57610b20818361033e565b38806147dd565b61481c9150823d8411612c1a57612c0c818361033e565b38614774565b6040519061482f82610308565b60006020838281520152565b6040519061484882610323565b8160008152600060208201526040610477614822565b91909160e06001600160401b0381610100840195805185526020810151602086015260408101516040860152606081015160608601526080810151608086015260a081015160a086015260018060801b0360c08201511660c0860152015116910152565b6148ec9061496d608094956148fa61498b956148dc61483b565b506040519586916020830161485e565b03601f19810186528561033e565b61490261483b565b50602061490f8851614dec565b9701908151806149c9575b50600054614930906001600160a01b031661083a565b9461493a85614d04565b925115159261495661494a61039e565b63ffffffff9097168752565b602086015260408501526060840152151585830152565b6040519485809481936302637a4560e41b8352339060048401614d3c565b03925af19081156108e3576000916149a1575090565b610f59915060803d81116149c2575b6149ba818361033e565b810190614daa565b503d6149b0565b6149d290614e0e565b3861491a565b90614a7e91614a00614a0e946149ec614822565b50604095869485519384916020830161485e565b03601f19810184528361033e565b614a16614822565b50600054614a2c906001600160a01b031661083a565b91614a3684614d04565b614a4d614a4161039e565b63ffffffff9096168652565b60208501528484015260608301526000608083015282518080958194631bb8518b60e31b8352309060048401614d3c565b03915afa9182156108e357600092614a9557505090565b610f599250803d10612d0f57612cf9818361033e565b6148ec614b2b614ad595614a7e95614ac1614822565b50604097889687519586916020830161485e565b614add614822565b50600054614af3906001600160a01b031661083a565b93614afd86614d04565b614b14614b0861039e565b63ffffffff9098168852565b602087015286860152606085015215156080840152565b82518080958194631bb8518b60e31b8352309060048401614d3c565b6001600160a01b039081168015614bf257600080546001600160a01b0319166001600160a01b03909216919091179055811615614be057600054614b93906001600160a01b031661083a565b803b156102b95760405163ca5eb5e160e01b81526001600160a01b039290921660048301526000908290602490829084905af180156108e357614bd35750565b80612b4c6103db926102f5565b604051632d618d8160e21b8152600490fd5b604051638ad182f960e01b8152600490fd5b35610f59816102ab565b60e091604051614c1d816102d4565b60009381858093528260208201528260408201528260608201528260808201528260a08201528260c0820152015281019161010082840312610e2f575060e0614c6c6103db93614cd793610407565b8051601955614c7e6020820151601a55565b614c8b6040820151601b55565b614c986060820151601c55565b614ca56080820151601d55565b614cb260a0820151601e55565b60c0810151614cc9906001600160801b0316613f69565b01516001600160401b031690565b601f805467ffffffffffffffff60801b191660809290921b67ffffffffffffffff60801b16919091179055565b63ffffffff16806000526001602052604060002054908115614d24575090565b6024906040519063f6ff4fb760e01b82526004820152fd5b906020909392936040835263ffffffff81511660408401528181015160608401526080614d90614d7a604084015160a08488015260e0870190611561565b6060840151868203603f190160a0880152611561565b910151151560c08401526001600160a01b03909416910152565b906080828203126102b957614de4906040805193614dc785610323565b805185526020810151614dd9816103dd565b602086015201611fb3565b604082015290565b803410614df65790565b6040516304fb820960e51b8152346004820152602490fd5b6000805460405163393f876560e21b81526020926001600160a01b039283169290918481600481875afa9081156108e3578391614f00575b5016938415614eee576040516323b872dd60e01b8582019081523360248301526001600160a01b0390941660448201526064810191909152614ea6928291614e918160848101611cae565b519082875af1614e9f6151f4565b908461523e565b8051918215159283614ed5575b505050614ebd5750565b60249060405190635274afe760e01b82526004820152fd5b614ee59350820181019101611ded565b15388080614eb3565b6040516329b99a9560e11b8152600490fd5b90508481813d8311614f2f575b614f17818361033e565b8101031261181e5751614f298161067c565b38614e46565b503d614f0d565b604051600360f01b602082015260028152610f5981610308565b61ffff90600382614f60836152a1565b160361500057604051610c3560861b60208201526010815290614f8282610308565b600383614f8e836152a1565b1603614fde578151838111614fbf578316600101928311610c5157611cae610f59926040519485936020850161500c565b604490604051906306dfcc6560e41b8252601060048301526024820152fd5b82614fea6024926152a1565b604051633a51740d60e01b815291166004820152fd5b90614fea6024926152a1565b60209061502360049594938281519485920161153e565b600160f81b910181815260f09290921b6001600160f01b0319166001830152600382015281519161505c9083908584019060200161153e565b010190565b6001600160a01b039081169081156150bc576000805160206152ee83398151915280546001600160a01b031981168417909155167f8be0079c531659141344cd1fd0a4f28419497f9722a3daafe3b4186f6b6457e0600080a3565b604051631e4fbdf760e01b815260006004820152602490fd5b6000805160206152ee833981519152546001600160a01b031633036150f657565b60405163118cdaa760e01b8152336004820152602490fd5b7f9b779b17422d0df92223018b32b4d1fa46e071723d6817e2486d003becc55f00600281541461513e5760029055565b604051633ee5aeb560e01b8152600490fd5b90813b156151d35760008051602061530e83398151915280546001600160a01b0319166001600160a01b0384169081179091557fbc7cd75a20ee27fd9adebab32041f755214dbc6bffa90cc0225b39da2e5c2d3b600080a28051156151b85761405e91615224565b5050346151c157565b60405163b398979f60e01b8152600490fd5b604051634c9c8ce360e01b81526001600160a01b0383166004820152602490fd5b3d1561521f573d906152058261047c565b91615213604051938461033e565b82523d6000602084013e565b606090565b600080610f5993602081519101845af461523c6151f4565b915b90615265575080511561525357805190602001fd5b604051630a12f52160e11b8152600490fd5b81511580615298575b615276575090565b604051639996b31560e01b81526001600160a01b039091166004820152602490fd5b50803b1561526e565b60028151106152b1576002015190565b60405162461bcd60e51b8152602060048201526014602482015273746f55696e7431365f6f75744f66426f756e647360601b6044820152606490fdfe9016d09d72d40fdae2fd8ceac6b6234c7706214fd39c1cd1e609a0528c199300360894a13ba1a3210667c828492db98dca3e2076cc3735a920a3ca505d382bbcf0c57e16840df040f15088dc2f81fe391c3923bec73e23a9662efc9c229c6a00a2646970667358221220e396d073679e35630b20f44e0522e6b205c6e757f71e8c180eda82d48426a8eb64736f6c63430008140033","linkReferences":{"contracts/lib/BorrowLib.sol":{"BorrowLib":[{"start":4125,"length":20},{"start":5354,"length":20},{"start":9856,"length":20},{"start":10129,"length":20},{"start":10784,"length":20},{"start":11894,"length":20},{"start":12990,"length":20},{"start":13116,"length":20},{"start":13371,"length":20},{"start":14514,"length":20},{"start":15811,"length":20},{"start":17532,"length":20},{"start":18409,"length":20}]}}},"methodIdentifiers":{"UPGRADE_INTERFACE_VERSION()":"ad3cb1cc","admin()":"f851a440","allowInitializePath((uint32,bytes32,uint64))":"ff7bd03d","calculateCumulativeRate()":"181ab6db","calculateRatio(uint256,uint256)":"ada0b0ed","depositTokens(uint128,uint64,uint8,uint64,uint256,uint256)":"e54a6bc3","endpoint()":"5e280f11","getAbondYields(address,uint128)":"ab2f40ee","getLTV()":"4ed2b8ac","getUSDValue()":"50593af7","initialize(address,address,address,address,address,uint64,address,address)":"a7d46ab2","isComposeMsgSender((uint32,bytes32,uint64),bytes,address)":"82413eac","isContract(address)":"16279055","lastCumulativeRate()":"8e4db39a","liquidate(address,uint64,uint64)":"d5c28dba","lzReceive((uint32,bytes32,uint64),bytes32,bytes,address,bytes)":"13137d65","nextNonce(uint32,bytes32)":"7d25a05e","oAppVersion()":"17442b70","omniChainBorrowingCDSPoolValue()":"c2a3bde2","omniChainBorrowingNoOfLiquidations()":"4d818c9c","owner()":"8da5cb5b","peers(uint32)":"bb0b6a53","proxiableUUID()":"52d1902d","quote(uint32,(uint256,uint256,uint256,uint256,uint256,uint256,uint128,uint64),bytes,bool)":"00cecd77","redeemYields(address,uint128)":"80ddebcb","renounceOwnership()":"715018a6","setAPR(uint128)":"c1bab32d","setAdmin(address)":"704b6c02","setBondRatio(uint64)":"276eb3ac","setBorrowLiquidation(address)":"a4cdc597","setDelegate(address)":"ca5eb5e1","setDstEid(uint32)":"0d14c92e","setLTV(uint8)":"aad2476d","setOptions(address)":"7d6dff7d","setPeer(uint32,bytes32)":"3400288b","setTreasury(address)":"f0f44260","transferOwnership(address)":"f2fde38b","updateLastEthVaultValue(uint256)":"661b7d3e","upgradeToAndCall(address,bytes)":"4f1ef286","usda()":"e2b19ff0","withDraw(address,uint64,uint64,uint64)":"c8101461"},"id":4}