{"abi":[{"type":"function","name":"SEND","inputs":[],"outputs":[{"name":"","type":"uint16","internalType":"uint16"}],"stateMutability":"view"},{"type":"function","name":"SEND_AND_CALL","inputs":[],"outputs":[{"name":"","type":"uint16","internalType":"uint16"}],"stateMutability":"view"},{"type":"function","name":"UPGRADE_INTERFACE_VERSION","inputs":[],"outputs":[{"name":"","type":"string","internalType":"string"}],"stateMutability":"view"},{"type":"function","name":"allowInitializePath","inputs":[{"name":"origin","type":"tuple","internalType":"struct Origin","components":[{"name":"srcEid","type":"uint32","internalType":"uint32"},{"name":"sender","type":"bytes32","internalType":"bytes32"},{"name":"nonce","type":"uint64","internalType":"uint64"}]}],"outputs":[{"name":"","type":"bool","internalType":"bool"}],"stateMutability":"view"},{"type":"function","name":"allowance","inputs":[{"name":"owner","type":"address","internalType":"address"},{"name":"spender","type":"address","internalType":"address"}],"outputs":[{"name":"","type":"uint256","internalType":"uint256"}],"stateMutability":"view"},{"type":"function","name":"approvalRequired","inputs":[],"outputs":[{"name":"","type":"bool","internalType":"bool"}],"stateMutability":"pure"},{"type":"function","name":"approve","inputs":[{"name":"spender","type":"address","internalType":"address"},{"name":"value","type":"uint256","internalType":"uint256"}],"outputs":[{"name":"","type":"bool","internalType":"bool"}],"stateMutability":"nonpayable"},{"type":"function","name":"balanceOf","inputs":[{"name":"account","type":"address","internalType":"address"}],"outputs":[{"name":"","type":"uint256","internalType":"uint256"}],"stateMutability":"view"},{"type":"function","name":"burn","inputs":[{"name":"value","type":"uint256","internalType":"uint256"}],"outputs":[],"stateMutability":"nonpayable"},{"type":"function","name":"burnFrom","inputs":[{"name":"account","type":"address","internalType":"address"},{"name":"value","type":"uint256","internalType":"uint256"}],"outputs":[],"stateMutability":"nonpayable"},{"type":"function","name":"burnFromUser","inputs":[{"name":"to","type":"address","internalType":"address"},{"name":"amount","type":"uint256","internalType":"uint256"}],"outputs":[{"name":"","type":"bool","internalType":"bool"}],"stateMutability":"nonpayable"},{"type":"function","name":"combineOptions","inputs":[{"name":"_eid","type":"uint32","internalType":"uint32"},{"name":"_msgType","type":"uint16","internalType":"uint16"},{"name":"_extraOptions","type":"bytes","internalType":"bytes"}],"outputs":[{"name":"","type":"bytes","internalType":"bytes"}],"stateMutability":"view"},{"type":"function","name":"decimalConversionRate","inputs":[],"outputs":[{"name":"","type":"uint256","internalType":"uint256"}],"stateMutability":"view"},{"type":"function","name":"decimals","inputs":[],"outputs":[{"name":"","type":"uint8","internalType":"uint8"}],"stateMutability":"pure"},{"type":"function","name":"endpoint","inputs":[],"outputs":[{"name":"","type":"address","internalType":"contract ILayerZeroEndpointV2"}],"stateMutability":"view"},{"type":"function","name":"enforcedOptions","inputs":[{"name":"eid","type":"uint32","internalType":"uint32"},{"name":"msgType","type":"uint16","internalType":"uint16"}],"outputs":[{"name":"enforcedOption","type":"bytes","internalType":"bytes"}],"stateMutability":"view"},{"type":"function","name":"initialize","inputs":[{"name":"_lzEndpoint","type":"address","internalType":"address"},{"name":"_delegate","type":"address","internalType":"address"}],"outputs":[],"stateMutability":"nonpayable"},{"type":"function","name":"isComposeMsgSender","inputs":[{"name":"","type":"tuple","internalType":"struct Origin","components":[{"name":"srcEid","type":"uint32","internalType":"uint32"},{"name":"sender","type":"bytes32","internalType":"bytes32"},{"name":"nonce","type":"uint64","internalType":"uint64"}]},{"name":"","type":"bytes","internalType":"bytes"},{"name":"_sender","type":"address","internalType":"address"}],"outputs":[{"name":"","type":"bool","internalType":"bool"}],"stateMutability":"view"},{"type":"function","name":"isPeer","inputs":[{"name":"_eid","type":"uint32","internalType":"uint32"},{"name":"_peer","type":"bytes32","internalType":"bytes32"}],"outputs":[{"name":"","type":"bool","internalType":"bool"}],"stateMutability":"view"},{"type":"function","name":"lzReceive","inputs":[{"name":"_origin","type":"tuple","internalType":"struct Origin","components":[{"name":"srcEid","type":"uint32","internalType":"uint32"},{"name":"sender","type":"bytes32","internalType":"bytes32"},{"name":"nonce","type":"uint64","internalType":"uint64"}]},{"name":"_guid","type":"bytes32","internalType":"bytes32"},{"name":"_message","type":"bytes","internalType":"bytes"},{"name":"_executor","type":"address","internalType":"address"},{"name":"_extraData","type":"bytes","internalType":"bytes"}],"outputs":[],"stateMutability":"payable"},{"type":"function","name":"lzReceiveAndRevert","inputs":[{"name":"_packets","type":"tuple[]","internalType":"struct InboundPacket[]","components":[{"name":"origin","type":"tuple","internalType":"struct Origin","components":[{"name":"srcEid","type":"uint32","internalType":"uint32"},{"name":"sender","type":"bytes32","internalType":"bytes32"},{"name":"nonce","type":"uint64","internalType":"uint64"}]},{"name":"dstEid","type":"uint32","internalType":"uint32"},{"name":"receiver","type":"address","internalType":"address"},{"name":"guid","type":"bytes32","internalType":"bytes32"},{"name":"value","type":"uint256","internalType":"uint256"},{"name":"executor","type":"address","internalType":"address"},{"name":"message","type":"bytes","internalType":"bytes"},{"name":"extraData","type":"bytes","internalType":"bytes"}]}],"outputs":[],"stateMutability":"payable"},{"type":"function","name":"lzReceiveSimulate","inputs":[{"name":"_origin","type":"tuple","internalType":"struct Origin","components":[{"name":"srcEid","type":"uint32","internalType":"uint32"},{"name":"sender","type":"bytes32","internalType":"bytes32"},{"name":"nonce","type":"uint64","internalType":"uint64"}]},{"name":"_guid","type":"bytes32","internalType":"bytes32"},{"name":"_message","type":"bytes","internalType":"bytes"},{"name":"_executor","type":"address","internalType":"address"},{"name":"_extraData","type":"bytes","internalType":"bytes"}],"outputs":[],"stateMutability":"payable"},{"type":"function","name":"mint","inputs":[{"name":"to","type":"address","internalType":"address"},{"name":"amount","type":"uint256","internalType":"uint256"}],"outputs":[{"name":"","type":"bool","internalType":"bool"}],"stateMutability":"nonpayable"},{"type":"function","name":"msgInspector","inputs":[],"outputs":[{"name":"","type":"address","internalType":"address"}],"stateMutability":"view"},{"type":"function","name":"name","inputs":[],"outputs":[{"name":"","type":"string","internalType":"string"}],"stateMutability":"view"},{"type":"function","name":"nextNonce","inputs":[{"name":"","type":"uint32","internalType":"uint32"},{"name":"","type":"bytes32","internalType":"bytes32"}],"outputs":[{"name":"nonce","type":"uint64","internalType":"uint64"}],"stateMutability":"view"},{"type":"function","name":"oApp","inputs":[],"outputs":[{"name":"","type":"address","internalType":"address"}],"stateMutability":"view"},{"type":"function","name":"oAppVersion","inputs":[],"outputs":[{"name":"senderVersion","type":"uint64","internalType":"uint64"},{"name":"receiverVersion","type":"uint64","internalType":"uint64"}],"stateMutability":"pure"},{"type":"function","name":"oftVersion","inputs":[],"outputs":[{"name":"interfaceId","type":"bytes4","internalType":"bytes4"},{"name":"version","type":"uint64","internalType":"uint64"}],"stateMutability":"pure"},{"type":"function","name":"owner","inputs":[],"outputs":[{"name":"","type":"address","internalType":"address"}],"stateMutability":"view"},{"type":"function","name":"pause","inputs":[],"outputs":[],"stateMutability":"nonpayable"},{"type":"function","name":"paused","inputs":[],"outputs":[{"name":"","type":"bool","internalType":"bool"}],"stateMutability":"view"},{"type":"function","name":"peers","inputs":[{"name":"eid","type":"uint32","internalType":"uint32"}],"outputs":[{"name":"peer","type":"bytes32","internalType":"bytes32"}],"stateMutability":"view"},{"type":"function","name":"preCrime","inputs":[],"outputs":[{"name":"","type":"address","internalType":"address"}],"stateMutability":"view"},{"type":"function","name":"proxiableUUID","inputs":[],"outputs":[{"name":"","type":"bytes32","internalType":"bytes32"}],"stateMutability":"view"},{"type":"function","name":"quoteOFT","inputs":[{"name":"_sendParam","type":"tuple","internalType":"struct SendParam","components":[{"name":"dstEid","type":"uint32","internalType":"uint32"},{"name":"to","type":"bytes32","internalType":"bytes32"},{"name":"amountLD","type":"uint256","internalType":"uint256"},{"name":"minAmountLD","type":"uint256","internalType":"uint256"},{"name":"extraOptions","type":"bytes","internalType":"bytes"},{"name":"composeMsg","type":"bytes","internalType":"bytes"},{"name":"oftCmd","type":"bytes","internalType":"bytes"}]}],"outputs":[{"name":"oftLimit","type":"tuple","internalType":"struct OFTLimit","components":[{"name":"minAmountLD","type":"uint256","internalType":"uint256"},{"name":"maxAmountLD","type":"uint256","internalType":"uint256"}]},{"name":"oftFeeDetails","type":"tuple[]","internalType":"struct OFTFeeDetail[]","components":[{"name":"feeAmountLD","type":"int256","internalType":"int256"},{"name":"description","type":"string","internalType":"string"}]},{"name":"oftReceipt","type":"tuple","internalType":"struct OFTReceipt","components":[{"name":"amountSentLD","type":"uint256","internalType":"uint256"},{"name":"amountReceivedLD","type":"uint256","internalType":"uint256"}]}],"stateMutability":"view"},{"type":"function","name":"quoteSend","inputs":[{"name":"_sendParam","type":"tuple","internalType":"struct SendParam","components":[{"name":"dstEid","type":"uint32","internalType":"uint32"},{"name":"to","type":"bytes32","internalType":"bytes32"},{"name":"amountLD","type":"uint256","internalType":"uint256"},{"name":"minAmountLD","type":"uint256","internalType":"uint256"},{"name":"extraOptions","type":"bytes","internalType":"bytes"},{"name":"composeMsg","type":"bytes","internalType":"bytes"},{"name":"oftCmd","type":"bytes","internalType":"bytes"}]},{"name":"_payInLzToken","type":"bool","internalType":"bool"}],"outputs":[{"name":"msgFee","type":"tuple","internalType":"struct MessagingFee","components":[{"name":"nativeFee","type":"uint256","internalType":"uint256"},{"name":"lzTokenFee","type":"uint256","internalType":"uint256"}]}],"stateMutability":"view"},{"type":"function","name":"renounceOwnership","inputs":[],"outputs":[],"stateMutability":"nonpayable"},{"type":"function","name":"send","inputs":[{"name":"_sendParam","type":"tuple","internalType":"struct SendParam","components":[{"name":"dstEid","type":"uint32","internalType":"uint32"},{"name":"to","type":"bytes32","internalType":"bytes32"},{"name":"amountLD","type":"uint256","internalType":"uint256"},{"name":"minAmountLD","type":"uint256","internalType":"uint256"},{"name":"extraOptions","type":"bytes","internalType":"bytes"},{"name":"composeMsg","type":"bytes","internalType":"bytes"},{"name":"oftCmd","type":"bytes","internalType":"bytes"}]},{"name":"_fee","type":"tuple","internalType":"struct MessagingFee","components":[{"name":"nativeFee","type":"uint256","internalType":"uint256"},{"name":"lzTokenFee","type":"uint256","internalType":"uint256"}]},{"name":"_refundAddress","type":"address","internalType":"address"}],"outputs":[{"name":"msgReceipt","type":"tuple","internalType":"struct MessagingReceipt","components":[{"name":"guid","type":"bytes32","internalType":"bytes32"},{"name":"nonce","type":"uint64","internalType":"uint64"},{"name":"fee","type":"tuple","internalType":"struct MessagingFee","components":[{"name":"nativeFee","type":"uint256","internalType":"uint256"},{"name":"lzTokenFee","type":"uint256","internalType":"uint256"}]}]},{"name":"oftReceipt","type":"tuple","internalType":"struct OFTReceipt","components":[{"name":"amountSentLD","type":"uint256","internalType":"uint256"},{"name":"amountReceivedLD","type":"uint256","internalType":"uint256"}]}],"stateMutability":"payable"},{"type":"function","name":"setDelegate","inputs":[{"name":"_delegate","type":"address","internalType":"address"}],"outputs":[],"stateMutability":"nonpayable"},{"type":"function","name":"setDstEid","inputs":[{"name":"_eid","type":"uint32","internalType":"uint32"}],"outputs":[],"stateMutability":"nonpayable"},{"type":"function","name":"setEnforcedOptions","inputs":[{"name":"_enforcedOptions","type":"tuple[]","internalType":"struct EnforcedOptionParam[]","components":[{"name":"eid","type":"uint32","internalType":"uint32"},{"name":"msgType","type":"uint16","internalType":"uint16"},{"name":"options","type":"bytes","internalType":"bytes"}]}],"outputs":[],"stateMutability":"nonpayable"},{"type":"function","name":"setMsgInspector","inputs":[{"name":"_msgInspector","type":"address","internalType":"address"}],"outputs":[],"stateMutability":"nonpayable"},{"type":"function","name":"setPeer","inputs":[{"name":"_eid","type":"uint32","internalType":"uint32"},{"name":"_peer","type":"bytes32","internalType":"bytes32"}],"outputs":[],"stateMutability":"nonpayable"},{"type":"function","name":"setPreCrime","inputs":[{"name":"_preCrime","type":"address","internalType":"address"}],"outputs":[],"stateMutability":"nonpayable"},{"type":"function","name":"sharedDecimals","inputs":[],"outputs":[{"name":"","type":"uint8","internalType":"uint8"}],"stateMutability":"view"},{"type":"function","name":"symbol","inputs":[],"outputs":[{"name":"","type":"string","internalType":"string"}],"stateMutability":"view"},{"type":"function","name":"token","inputs":[],"outputs":[{"name":"","type":"address","internalType":"address"}],"stateMutability":"view"},{"type":"function","name":"totalSupply","inputs":[],"outputs":[{"name":"","type":"uint256","internalType":"uint256"}],"stateMutability":"view"},{"type":"function","name":"transfer","inputs":[{"name":"to","type":"address","internalType":"address"},{"name":"value","type":"uint256","internalType":"uint256"}],"outputs":[{"name":"","type":"bool","internalType":"bool"}],"stateMutability":"nonpayable"},{"type":"function","name":"transferFrom","inputs":[{"name":"from","type":"address","internalType":"address"},{"name":"to","type":"address","internalType":"address"},{"name":"value","type":"uint256","internalType":"uint256"}],"outputs":[{"name":"","type":"bool","internalType":"bool"}],"stateMutability":"nonpayable"},{"type":"function","name":"transferOwnership","inputs":[{"name":"newOwner","type":"address","internalType":"address"}],"outputs":[],"stateMutability":"nonpayable"},{"type":"function","name":"unpause","inputs":[],"outputs":[],"stateMutability":"nonpayable"},{"type":"function","name":"upgradeToAndCall","inputs":[{"name":"newImplementation","type":"address","internalType":"address"},{"name":"data","type":"bytes","internalType":"bytes"}],"outputs":[],"stateMutability":"payable"},{"type":"event","name":"Approval","inputs":[{"name":"owner","type":"address","indexed":true,"internalType":"address"},{"name":"spender","type":"address","indexed":true,"internalType":"address"},{"name":"value","type":"uint256","indexed":false,"internalType":"uint256"}],"anonymous":false},{"type":"event","name":"EnforcedOptionSet","inputs":[{"name":"_enforcedOptions","type":"tuple[]","indexed":false,"internalType":"struct EnforcedOptionParam[]","components":[{"name":"eid","type":"uint32","internalType":"uint32"},{"name":"msgType","type":"uint16","internalType":"uint16"},{"name":"options","type":"bytes","internalType":"bytes"}]}],"anonymous":false},{"type":"event","name":"Initialized","inputs":[{"name":"version","type":"uint64","indexed":false,"internalType":"uint64"}],"anonymous":false},{"type":"event","name":"MsgInspectorSet","inputs":[{"name":"inspector","type":"address","indexed":false,"internalType":"address"}],"anonymous":false},{"type":"event","name":"OFTReceived","inputs":[{"name":"guid","type":"bytes32","indexed":true,"internalType":"bytes32"},{"name":"srcEid","type":"uint32","indexed":false,"internalType":"uint32"},{"name":"toAddress","type":"address","indexed":true,"internalType":"address"},{"name":"amountReceivedLD","type":"uint256","indexed":false,"internalType":"uint256"}],"anonymous":false},{"type":"event","name":"OFTSent","inputs":[{"name":"guid","type":"bytes32","indexed":true,"internalType":"bytes32"},{"name":"dstEid","type":"uint32","indexed":false,"internalType":"uint32"},{"name":"fromAddress","type":"address","indexed":true,"internalType":"address"},{"name":"amountSentLD","type":"uint256","indexed":false,"internalType":"uint256"},{"name":"amountReceivedLD","type":"uint256","indexed":false,"internalType":"uint256"}],"anonymous":false},{"type":"event","name":"OwnershipTransferred","inputs":[{"name":"previousOwner","type":"address","indexed":true,"internalType":"address"},{"name":"newOwner","type":"address","indexed":true,"internalType":"address"}],"anonymous":false},{"type":"event","name":"Paused","inputs":[{"name":"account","type":"address","indexed":false,"internalType":"address"}],"anonymous":false},{"type":"event","name":"PeerSet","inputs":[{"name":"eid","type":"uint32","indexed":false,"internalType":"uint32"},{"name":"peer","type":"bytes32","indexed":false,"internalType":"bytes32"}],"anonymous":false},{"type":"event","name":"PreCrimeSet","inputs":[{"name":"preCrimeAddress","type":"address","indexed":false,"internalType":"address"}],"anonymous":false},{"type":"event","name":"Transfer","inputs":[{"name":"from","type":"address","indexed":true,"internalType":"address"},{"name":"to","type":"address","indexed":true,"internalType":"address"},{"name":"value","type":"uint256","indexed":false,"internalType":"uint256"}],"anonymous":false},{"type":"event","name":"Unpaused","inputs":[{"name":"account","type":"address","indexed":false,"internalType":"address"}],"anonymous":false},{"type":"event","name":"Upgraded","inputs":[{"name":"implementation","type":"address","indexed":true,"internalType":"address"}],"anonymous":false},{"type":"error","name":"AddressEmptyCode","inputs":[{"name":"target","type":"address","internalType":"address"}]},{"type":"error","name":"AddressInsufficientBalance","inputs":[{"name":"account","type":"address","internalType":"address"}]},{"type":"error","name":"ERC1967InvalidImplementation","inputs":[{"name":"implementation","type":"address","internalType":"address"}]},{"type":"error","name":"ERC1967NonPayable","inputs":[]},{"type":"error","name":"ERC20InsufficientAllowance","inputs":[{"name":"spender","type":"address","internalType":"address"},{"name":"allowance","type":"uint256","internalType":"uint256"},{"name":"needed","type":"uint256","internalType":"uint256"}]},{"type":"error","name":"ERC20InsufficientBalance","inputs":[{"name":"sender","type":"address","internalType":"address"},{"name":"balance","type":"uint256","internalType":"uint256"},{"name":"needed","type":"uint256","internalType":"uint256"}]},{"type":"error","name":"ERC20InvalidApprover","inputs":[{"name":"approver","type":"address","internalType":"address"}]},{"type":"error","name":"ERC20InvalidReceiver","inputs":[{"name":"receiver","type":"address","internalType":"address"}]},{"type":"error","name":"ERC20InvalidSender","inputs":[{"name":"sender","type":"address","internalType":"address"}]},{"type":"error","name":"ERC20InvalidSpender","inputs":[{"name":"spender","type":"address","internalType":"address"}]},{"type":"error","name":"EndPointUnavailable","inputs":[]},{"type":"error","name":"EnforcedPause","inputs":[]},{"type":"error","name":"ExpectedPause","inputs":[]},{"type":"error","name":"FailedInnerCall","inputs":[]},{"type":"error","name":"InvalidDelegate","inputs":[]},{"type":"error","name":"InvalidEndpointCall","inputs":[]},{"type":"error","name":"InvalidInitialization","inputs":[]},{"type":"error","name":"InvalidLocalDecimals","inputs":[]},{"type":"error","name":"InvalidOptions","inputs":[{"name":"options","type":"bytes","internalType":"bytes"}]},{"type":"error","name":"LzTokenUnavailable","inputs":[]},{"type":"error","name":"NoPeer","inputs":[{"name":"eid","type":"uint32","internalType":"uint32"}]},{"type":"error","name":"NotEnoughNative","inputs":[{"name":"msgValue","type":"uint256","internalType":"uint256"}]},{"type":"error","name":"NotInitializing","inputs":[]},{"type":"error","name":"OnlyEndpoint","inputs":[{"name":"addr","type":"address","internalType":"address"}]},{"type":"error","name":"OnlyPeer","inputs":[{"name":"eid","type":"uint32","internalType":"uint32"},{"name":"sender","type":"bytes32","internalType":"bytes32"}]},{"type":"error","name":"OnlySelf","inputs":[]},{"type":"error","name":"OwnableInvalidOwner","inputs":[{"name":"owner","type":"address","internalType":"address"}]},{"type":"error","name":"OwnableUnauthorizedAccount","inputs":[{"name":"account","type":"address","internalType":"address"}]},{"type":"error","name":"SafeERC20FailedOperation","inputs":[{"name":"token","type":"address","internalType":"address"}]},{"type":"error","name":"SimulationResult","inputs":[{"name":"result","type":"bytes","internalType":"bytes"}]},{"type":"error","name":"SlippageExceeded","inputs":[{"name":"amountLD","type":"uint256","internalType":"uint256"},{"name":"minAmountLD","type":"uint256","internalType":"uint256"}]},{"type":"error","name":"UUPSUnauthorizedCallContext","inputs":[]},{"type":"error","name":"UUPSUnsupportedProxiableUUID","inputs":[{"name":"slot","type":"bytes32","internalType":"bytes32"}]}],"bytecode":{"object":"0x60a0806040523461002a573060805261370e908161003082396080518181816110e201526112350152f35b600080fdfe6080604052600436101561001257600080fd5b60003560e01c806306fdde031461036d578063095ea7b3146103685780630d14c92e146103635780630d35b4151461035e578063111ecdad1461035957806313137d6514610354578063134d4f251461034f578063156a0d0f1461034a57806317442b701461034557806318160ddd146103405780631f5e13341461033b57806323b872dd14610336578063313ce567146102d25780633400288b146103315780633b6f743b1461032c5780633f4ba83a1461032757806340c10f191461032257806342966c681461031d578063485cc955146103185780634f1ef2861461031357806352ae28791461027357806352d1902d1461030e5780635535d461146103095780635a0dfe4d146103045780635c975abb146102ff5780635e280f11146102fa5780636fc1b31e146102f557806370a08231146102f0578063715018a6146102eb57806379cc6790146102e65780637d25a05e146102e157806382413eac146102dc5780638456cb59146102d7578063857749b0146102d25780638da5cb5b146102cd57806395d89b41146102c8578063963efcaa146102c35780639f68b964146102be578063a9059cbb146102b9578063ad3cb1cc146102b4578063b731ea0a146102af578063b98bd070146102aa578063bb0b6a53146102a5578063bc70b354146102a0578063bd815db01461029b578063c753e12614610296578063c7c7f5b314610291578063ca5eb5e11461028c578063d045a0dc14610287578063d424388514610282578063dd62ed3e1461027d578063f2fde38b14610278578063fc0c546a146102735763ff7bd03d1461026e57600080fd5b611fc7565b611207565b611f9a565b611f74565b611f04565b611dbf565b611d48565b611bfc565b611b8b565b611a35565b6119e1565b6119a6565b6118dd565b611868565b611822565b6117f8565b6117dc565b6117be565b61172a565b6116f4565b610b1d565b61168d565b61162f565b611608565b6115d4565b611569565b61150d565b61149d565b611474565b611444565b6113fc565b61137d565b611222565b6110a0565b610e38565b610df4565b610dcb565b610d54565b610bca565b610b39565b610ad2565b610ab6565b610a8b565b610a69565b610a42565b610a26565b61083b565b610770565b6106ca565b610596565b6104c2565b6103de565b600091031261037d57565b600080fd5b60005b8381106103955750506000910152565b8181015183820152602001610385565b906020916103be81518092818552858086019101610382565b601f01601f1916010190565b9060206103db9281815201906103a5565b90565b3461037d576000806003193601126104ae57604051816000805160206135b9833981519152805461040e816112ad565b808552916001918083169081156104835750600114610448575b6104448561043881890382610ff8565b604051918291826103ca565b0390f35b835260208084209095505b828410610470575050508161044493610438928201019338610428565b8054858501870152928501928101610453565b905061044496506104389450602092508593915060ff191682840152151560051b8201019338610428565b80fd5b6001600160a01b0381160361037d57565b3461037d57604036600319011261037d576004356104df816104b1565b602435331561056f576001600160a01b0382169182156105565761051e82916105073361313b565b9060018060a01b0316600052602052604060002090565b556040519081527f8c5be1e5ebec7d5bd14f71427d1e84f3dd0314c0f7b2291e5b200ac8c7c3b92560203392a3602060405160018152f35b604051634a1406b160e11b815260006004820152602490fd5b60405163e602df0560e01b815260006004820152602490fd5b63ffffffff81160361037d57565b3461037d57602036600319011261037d5763ffffffff6004356105b881610588565b6105c0612fe9565b1680156105da5763ffffffff196007541617600755600080f35b60405162461bcd60e51b81526020600482015260116024820152704549442063616e2774206265207a65726f60781b6044820152606490fd5b908160e091031261037d5790565b93929161063c8560a081019360208091805184520151910152565b60409160a083870152815180915260c086019160c08260051b880101936020809201936000915b84831061068b575050505050509060606106899294019060208091805184520151910152565b565b90919293949584806106ba6001938d60bf1990820301875285838c5180518452015191818582015201906103a5565b9801930193019194939290610663565b3461037d57602036600319011261037d576001600160401b0360043581811161037d576106fb903690600401610613565b906107046127ad565b5061070d6127ad565b506040519061071b82610f74565b6000825260208201526104446107546040519361073785610fc2565b60008552610744816121ad565b5060406060820135910135612d12565b61075c611019565b918252602082015260405193849384610621565b3461037d57600036600319011261037d576005546040516001600160a01b039091168152602090f35b606090600319011261037d57600490565b9181601f8401121561037d578235916001600160401b03831161037d576020838186019501011161037d57565b600319810160e0811261037d5760601361037d57600491606435916001600160401b039060843582811161037d57816108119187016107aa565b9390939260a435610821816104b1565b9260c43591821161037d576108379188016107aa565b9091565b610844366107d7565b5050600080549095939493926001600160a01b0392509082163303610a0e57823561086e81610588565b610877816121b7565b9060208501358092036109d9575050856108a06108948388612e36565b6001600160a01b031690565b916108b36108ae8289612e42565b612cdd565b80976108be876121ad565b506108c98286613289565b60288311610919575b505050506109136108f1600080516020613639833981519152946121ad565b956040519384931696836020909392919363ffffffff60408201951681520152565b0390a380f35b90610944929161093e61092e60408a01612c95565b936109388a6121ad565b92612e54565b92612d4e565b8154610958906001600160a01b0316610894565b90813b156109d557829161098491604051948580948193633e5ac80960e11b83528c8a60048501612c9f565b03925af180156109d05760008051602061363983398151915294610913926108f1926109b7575b889196508993506108d2565b806109c46109ca92610faf565b80610372565b386109ab565b6121a1565b8280fd5b6109e281610588565b60405163309afaf360e21b815263ffffffff9190911660048201526024810191909152604490fd5b0390fd5b6040516391ac5e4f60e01b8152336004820152602490fd5b3461037d57600036600319011261037d57602060405160028152f35b3461037d57600036600319011261037d576040805162b9270b60e21b815260016020820152f35b3461037d57600036600319011261037d57604080516001815260026020820152f35b3461037d57600036600319011261037d57602060008051602061361983398151915254604051908152f35b3461037d57600036600319011261037d57602060405160018152f35b3461037d57606036600319011261037d57610b12600435610af2816104b1565b602435610afe816104b1565b60443591610b0d83338361338e565b6131ad565b602060405160018152f35b3461037d57600036600319011261037d57602060405160068152f35b3461037d57604036600319011261037d577f238399d427b947898edb290f5ff0f9109849b1c3ba196a42e35f00c50a54b98b600435610b7781610588565b60243590610b83612fe9565b63ffffffff8116600052600160205281604060002055610bbb604051928392836020909392919363ffffffff60408201951681520152565b0390a1005b8015150361037d57565b3461037d5760408060031936011261037d576004356001600160401b03811161037d57610bfb903690600401610613565b90602435610c0881610bc0565b610c106127ad565b506060830135833593610c2285610588565b610c3a600454610c358187850135612cf2565b612cca565b91808310610d37575091610cb8610c56610cd496938695612ba7565b610c6285949294610588565b610c6a6127ad565b50600054610c80906001600160a01b0316610894565b93610c8a866121b7565b610ca1610c95611026565b63ffffffff9098168852565b602087015286860152606085015215156080840152565b82518080968194631bb8518b60e31b8352309060048401612802565b03915afa9081156109d05761044492600092610d08575b505191829182815181526020918201519181019190915260400190565b81610d299293503d8411610d30575b610d218183610ff8565b8101906127ee565b9038610ceb565b503d610d17565b826044918651916371c4efed60e01b835260048301526024820152fd5b3461037d57600036600319011261037d57610d6d612fe9565b600080516020613699833981519152805460ff811615610db95760ff191690557f5db9ee0a495bf2e6ff9c91a7834c1ba4fdd244a5e8aa4e537bd38aeae4b073aa6020604051338152a1005b604051638dfc202b60e01b8152600490fd5b3461037d57604036600319011261037d57610b12600435610deb816104b1565b60243590613289565b3461037d57602036600319011261037d57610e11600435336132ee565b005b604090600319011261037d57600435610e2b816104b1565b906024356103db816104b1565b3461037d57610e4636610e13565b906000805160206136b983398151915254916001600160401b0360ff8460401c1615931680159081610f56575b6001149081610f4c575b159081610f43575b50610f31576000805160206136b9833981519152805467ffffffffffffffff19166001179055610eb99183610f0c5761200d565b610ebf57005b6000805160206136b9833981519152805460ff60401b19169055604051600181527fc7f505b2f371ae2175ee4913f4499e1f2633a7b5936321eed1cdaeb6115181d2908060208101610bbb565b6000805160206136b9833981519152805460ff60401b1916600160401b17905561200d565b60405163f92ee8a960e01b8152600490fd5b90501538610e85565b303b159150610e7d565b849150610e73565b634e487b7160e01b600052604160045260246000fd5b604081019081106001600160401b03821117610f8f57604052565b610f5e565b606081019081106001600160401b03821117610f8f57604052565b6001600160401b038111610f8f57604052565b602081019081106001600160401b03821117610f8f57604052565b60a081019081106001600160401b03821117610f8f57604052565b90601f801991011681019081106001600160401b03821117610f8f57604052565b6040519061068982610f74565b6040519061068982610fdd565b6001600160401b038111610f8f57601f01601f191660200190565b92919261105a82611033565b916110686040519384610ff8565b82948184528183011161037d578281602093846000960137010152565b9080601f8301121561037d578160206103db9335910161104e565b604036600319011261037d5760048035906110ba826104b1565b6024356001600160401b03811161037d576110d89036908301611085565b6001600160a01b037f000000000000000000000000000000000000000000000000000000000000000081163081149081156111eb575b506111da579060208392611120612fe9565b6040516352d1902d60e01b8152938491829088165afa600092816111aa575b5061116d575050604051634c9c8ce360e01b81526001600160a01b0390921690820190815281906020010390fd5b8383600080516020613659833981519152840361118e57610e118383613467565b604051632a87526960e21b815290810184815281906020010390fd5b6111cc91935060203d81116111d3575b6111c48183610ff8565b810190613051565b913861113f565b503d6111ba565b60405163703e46dd60e11b81528390fd5b905081600080516020613659833981519152541614153861110e565b3461037d57600036600319011261037d576020604051308152f35b3461037d57600036600319011261037d577f00000000000000000000000000000000000000000000000000000000000000006001600160a01b0316300361127b5760206040516000805160206136598339815191528152f35b60405163703e46dd60e11b8152600490fd5b6024359061ffff8216820361037d57565b359061ffff8216820361037d57565b90600182811c921680156112dd575b60208310146112c757565b634e487b7160e01b600052602260045260246000fd5b91607f16916112bc565b90600092918054916112f8836112ad565b91828252600193848116908160001461135a575060011461131a575b50505050565b90919394506000526020928360002092846000945b838610611346575050505001019038808080611314565b80548587018301529401938590820161132f565b9294505050602093945060ff191683830152151560051b01019038808080611314565b3461037d57604036600319011261037d576104446113e16113e86113d56004356113a681610588565b63ffffffff6113b361128d565b9116600052600360205260406000209061ffff16600052602052604060002090565b604051928380926112e7565b0382610ff8565b6040519182916020835260208301906103a5565b3461037d57604036600319011261037d57602061143a60043561141e81610588565b6024359063ffffffff1660005260016020526040600020541490565b6040519015158152f35b3461037d57600036600319011261037d57602060ff60008051602061369983398151915254166040519015158152f35b3461037d57600036600319011261037d576000546040516001600160a01b039091168152602090f35b3461037d57602036600319011261037d577ff0be4f1e87349231d80c36b33f9e8639658eeaf474014dee15a3e6a4d441419760206004356114dd816104b1565b6114e5612fe9565b600580546001600160a01b0319166001600160a01b03929092169182179055604051908152a1005b3461037d57602036600319011261037d5760043561152a816104b1565b60018060a01b03166000527f52c63247e1f47db19d5ce0460030c497f067ca4cebf71ba98eeadabe20bace006020526020604060002054604051908152f35b3461037d576000806003193601126104ae57611583612fe9565b6000805160206135f983398151915280546001600160a01b0319811690915581906001600160a01b03167f8be0079c531659141344cd1fd0a4f28419497f9722a3daafe3b4186f6b6457e08280a380f35b3461037d57604036600319011261037d57610e116004356115f4816104b1565b6024359061160382338361338e565b6132ee565b3461037d57604036600319011261037d57611624600435610588565b602060405160008152f35b3461037d5760a036600319011261037d5761164936610799565b506064356001600160401b03811161037d576116699036906004016107aa565b50506020608435611679816104b1565b6040516001600160a01b0390911630148152f35b3461037d57600036600319011261037d576116a6612fe9565b6116ae61343c565b600080516020613699833981519152600160ff198254161790557f62e78cea01bee320cd4e420270b5ea74000d11b0c9f74754ebdbfc544b05a2586020604051338152a1005b3461037d57600036600319011261037d576000805160206135f9833981519152546040516001600160a01b039091168152602090f35b3461037d576000806003193601126104ae57604051816000805160206135d9833981519152805461175a816112ad565b808552916001918083169081156104835750600114611783576104448561043881890382610ff8565b835260208084209095505b8284106117ab575050508161044493610438928201019338610428565b805485850187015292850192810161178e565b3461037d57600036600319011261037d576020600454604051908152f35b3461037d57600036600319011261037d57602060405160008152f35b3461037d57604036600319011261037d57610b12600435611818816104b1565b60243590336131ad565b3461037d57600036600319011261037d5761044460405161184281610f74565b60058152640352e302e360dc1b60208201526040519182916020835260208301906103a5565b3461037d57600036600319011261037d576002546040516001600160a01b039091168152602090f35b90602060031983011261037d576004356001600160401b039283821161037d578060238301121561037d57816004013593841161037d5760248460051b8301011161037d576024019190565b3461037d576118eb36611891565b906118f4612fe9565b6118fd826121ef565b90604061190c81519384610ff8565b8383526020938484019060051b83019236841161037d5780915b84831061193657610e11866124a0565b6001600160401b0390833582811161037d5783019060608236031261037d57855161196081610f94565b823561196b81610588565b81526119788a840161129e565b8a8201528683013593841161037d576119978a94938594369101611085565b87820152815201920191611926565b3461037d57602036600319011261037d5763ffffffff6004356119c881610588565b1660005260016020526020604060002054604051908152f35b3461037d57606036600319011261037d576004356119fe81610588565b611a0661128d565b604435906001600160401b03821161037d5761044492611a2d6113e89336906004016107aa565b9290916125f5565b611a3e36611891565b60005b818110611aab57604051638e9e709960e01b8152600081600481335afa80156109d057610a0a91600091611a8a575b50604051638351eea760e01b8152918291600483016103ca565b611aa5913d8091833e611a9d8183610ff8565b810190612f17565b82611a70565b611ab6818385612e70565b90611ae8611ae4611ac6846121ad565b60208501359063ffffffff1660005260016020526040600020541490565b1590565b611b8157611afa610100830183612b3b565b92611b0760e08201612e93565b90611b16610120820182612b3b565b959095303b1561037d57600094611b4c60c092604051998a9788968795633411683760e21b875260a08a01358a60048901612e9d565b03920135305af19182156109d057611b6992611b6e575b5061221c565b611a41565b806109c4611b7b92610faf565b38611b63565b611b69915061221c565b3461037d57604036600319011261037d57610b126004356115f4816104b1565b916080610689929493611beb604060c0830197805184526001600160401b0360208201511660208501520151604083019060208091805184520151910152565b019060208091805184520151910152565b608036600319011261037d576004356001600160401b03811161037d57611c27903690600401610613565b604036602319011261037d57606435611c3f816104b1565b611c47612870565b50611c506127ad565b50606082013590611c618335610588565b611c75600454610c35816040870135612cf2565b91808310611d2a5750611caf90611c8c83336132ee565b611c968385612ba7565b611c9f866121ad565b91611ca936612898565b92612913565b90611cb8611019565b928184528160208501527f85496b760a4b7f8d66384b9df21b381f5d1b1e79f229a47aaf4c232edc2fe59a611d18611cf18551936121ad565b936040519181839233978460409194939263ffffffff606083019616825260208201520152565b0390a361044460405192839283611bab565b82604491604051916371c4efed60e01b835260048301526024820152fd5b3461037d57600060203660031901126104ae57600435611d67816104b1565b611d6f612fe9565b81546001600160a01b0390811691839190833b156109d55760249083604051958694859363ca5eb5e160e01b85521660048401525af180156109d057611db3575080f35b611dbc90610faf565b80f35b611dc8366107d7565b5050509290303303611ef257611de16108948583612e36565b93611def6108ae8284612e42565b91611df9846121ad565b50611e048387613289565b60288211611e4e575b5050611e27600080516020613639833981519152926121ad565b6040805163ffffffff92909216825260208201929092526001600160a01b039490941693a3005b9082611e6d9261093e611e6360408801612c95565b93610938886121ad565b600054909290611e85906001600160a01b0316610894565b803b1561037d57604051633e5ac80960e11b8152936000918591829084908290611eb4908b8d60048501612c9f565b03925af19081156109d05760008051602061363983398151915293611e2792611edf575b5092611e0d565b806109c4611eec92610faf565b38611ed8565b60405163029a949d60e31b8152600490fd5b3461037d57602036600319011261037d577fd48d879cef83a1c0bdda516f27b13ddb1b3f8bbac1c9e1511bb2a659c24277606020600435611f44816104b1565b611f4c612fe9565b600280546001600160a01b0319166001600160a01b03929092169182179055604051908152a1005b3461037d576020611f91610507611f8a36610e13565b919061313b565b54604051908152f35b3461037d57602036600319011261037d57610e11600435611fba816104b1565b611fc2612fe9565b612f75565b3461037d57606036600319011261037d576020611fe336610799565b63ffffffff8135611ff381610588565b166000526001825260406000205482604051920135148152f35b91906040519261201c84610f74565b600b84526020936a2a32b9ba102a32ba3432b960a91b858201526040519461204386610f74565b6005865264151554d11560da1b8187015261205c613022565b612064613022565b8151906001600160401b038211610f8f576000805160206135b9833981519152926120988361209386546112ad565b612276565b81601f8411600114612104575091806120d394926120d89899946000926120f9575b50508160011b916000199060031b1c1916179055613060565b6126d3565b6120e0613022565b6120e8613413565b6120f0613022565b61068933612f75565b0151905038806120ba565b6000805160206135b98339815191526000529190601f1984167f2ae08a8e29253f69ac5d979a101956ab8f8d9d7ded63fa7a83b16fc47648eab0936000905b8282106121895750509260019285926120d89a9b966120d3989610612170575b505050811b019055613060565b015160001960f88460031b161c19169055388080612163565b80600186978294978701518155019601940190612143565b6040513d6000823e3d90fd5b356103db81610588565b63ffffffff168060005260016020526040600020549081156121d7575090565b6024906040519063f6ff4fb760e01b82526004820152fd5b6001600160401b038111610f8f5760051b60200190565b634e487b7160e01b600052601160045260246000fd5b600019811461222b5760010190565b612206565b634e487b7160e01b600052603260045260246000fd5b805182101561225a5760209160051b010190565b612230565b81811061226a575050565b6000815560010161225f565b90601f8211612283575050565b610689916000805160206135b98339815191526000526020600020906020601f840160051c830193106122be575b601f0160051c019061225f565b90915081906122b1565b90601f82116122d5575050565b610689916000805160206135d98339815191526000526020600020906020601f840160051c830193106122be57601f0160051c019061225f565b9190601f811161231e57505050565b610689926000526020600020906020601f840160051c830193106122be57601f0160051c019061225f565b91909182516001600160401b038111610f8f576123708161236a84546112ad565b8461230f565b602080601f83116001146123ac5750819293946000926123a1575b50508160011b916000199060031b1c1916179055565b01519050388061238b565b90601f198316956123c285600052602060002090565b926000905b8882106123ff575050836001959697106123e6575b505050811b019055565b015160001960f88460031b161c191690553880806123dc565b806001859682949686015181550195019301906123c7565b602080820190808352835180925260409283810182858560051b8401019601946000925b85841061244c575050505050505090565b90919293949596858061248f600193603f19868203018852868c5163ffffffff815116835261ffff858201511685840152015190606090818982015201906103a5565b99019401940192959493919061243b565b90600091825b81518110156125305761252b9061252660406124ce816124c68588612246565b51015161269b565b612521816124dc8588612246565b5101519163ffffffff6124ef8689612246565b515116895261ffff602091600383528a209161250b878a612246565b5101511661ffff16600052602052604060002090565b612349565b61221c565b6124a6565b507fbe4864a8e820971c0247f5992e2da559595f7bf076a21cb5928d443d2a13b6749192506125659060405191829182612417565b0390a1565b909291928360021161037d57831161037d57600201916001190190565b602090836106899395949560405196836125aa8995518092888089019101610382565b8401918583013701600083820152038085520183610ff8565b908060209392818452848401376000828201840152601f01601f1916010190565b9160206103db9381815201916125c3565b6113d56113e19263ffffffff61262a939795969716600052600360205260406000209061ffff16600052602052604060002090565b80511561268d57831561268757600284101561265e575050610a0a604051928392639a6d49cd60e01b8452600484016125e4565b909280612681916103db9461267c61267736848461104e565b61269b565b61256a565b91612587565b92509050565b5091906103db91369161104e565b600361ffff600283015116036126ae5750565b604051639a6d49cd60e01b815260206004820152908190610a0a9060248301906103a5565b6001600160a01b03908116801561279b57600080546001600160a01b0319166001600160a01b039092169190911790558116156127895760005461271f906001600160a01b0316610894565b90813b1561037d5760405163ca5eb5e160e01b81526001600160a01b0382166004820152916000908390602490829084905af19182156109d05761276c92612776575b50611fc281612f75565b6106896001600455565b806109c461278392610faf565b38612762565b604051632d618d8160e21b8152600490fd5b604051638ad182f960e01b8152600490fd5b604051906127ba82610f74565b60006020838281520152565b919082604091031261037d576040516127de81610f74565b6020808294805184520151910152565b9060408282031261037d576103db916127c6565b906020909392936040835263ffffffff81511660408401528181015160608401526080612856612840604084015160a08488015260e08701906103a5565b6060840151868203603f190160a08801526103a5565b910151151560c08401526001600160a01b03909416910152565b6040519061287d82610f94565b81600081526000602082015260406128936127ad565b910152565b604090602319011261037d57604051906128b182610f74565b60243582526044356020830152565b6001600160401b0381160361037d57565b9060808282031261037d5761290b9060408051936128ee85610f94565b805185526020810151612900816128c0565b6020860152016127c6565b604082015290565b6080936129856129a19694612926612870565b50602061293384516129ee565b9301908151806129df575b50600054612954906001600160a01b0316610894565b9561295e866121b7565b925115159261296e610c95611026565b602087015260408601526060850152151586840152565b6040518096819582946302637a4560e41b845260048401612802565b03925af19081156109d0576000916129b7575090565b6103db915060803d81116129d8575b6129d08183610ff8565b8101906128d1565b503d6129c6565b6129e890612a10565b3861293e565b8034106129f85790565b6040516304fb820960e51b8152346004820152602490fd5b6000805460405163393f876560e21b81526020926001600160a01b039283169290918481600481875afa9081156109d0578391612b05575b5016938415612af357612a9b92829160405190868201926323b872dd60e01b84523360248401526044830152606482015260648152612a8681610fdd565b519082875af1612a9461350b565b9084613555565b908151918215159182612ad7575b50509050612ab45750565b604051635274afe760e01b81526001600160a01b03919091166004820152602490fd5b611ae4925080612aeb948301019101612b6d565b803880612aa9565b6040516329b99a9560e11b8152600490fd5b90508481813d8311612b34575b612b1c8183610ff8565b810103126109d55751612b2e816104b1565b38612a48565b503d612b12565b903590601e198136030182121561037d57018035906001600160401b03821161037d5760200191813603831361037d57565b9081602091031261037d57516103db81610bc0565b9091612b996103db936040845260408401906103a5565b9160208184039101526103a5565b9091612bed612bcb612bbf612c149560045490612cf2565b6001600160401b031690565b612be2612bdb60a0860186612b3b565b369161104e565b906020850135612dab565b9390928394600014612c8d576002905b611a2d612c09826121ad565b916080810190612b3b565b60055490926001600160a01b03909116908382612c3057505050565b60405163043a78eb60e01b815292602092849283918291612c549160048401612b82565b03915afa80156109d057612c66575b50565b612c639060203d8111612c86575b612c7e8183610ff8565b810190612b6d565b503d612c74565b600190612bfd565b356103db816128c0565b6103db939260809260018060a01b0316825260208201526000604082015281606082015201906103a5565b8181029291811591840414171561222b57565b6004546103db916001600160401b0316612cca565b8115612cfc570490565b634e487b7160e01b600052601260045260246000fd5b612d2390610c356004548092612cf2565b918291808410612d305750565b83604491604051916371c4efed60e01b835260048301526024820152fd5b604c91936103db936040519586936001600160401b0360c01b9060c01b16602085015263ffffffff60e01b9060e01b166028840152602c830152612d9b8151809260208686019101610382565b810103602c810184520182610ff8565b82511580159390612e0957612e069160689160405194859260208401526001600160401b0360c01b9060c01b166040830152336048830152612df68151809260208686019101610382565b8101036048810184520182610ff8565b91565b50906040519160208301526001600160401b0360c01b9060c01b16604082015260288152612e0681610f94565b9060201161037d573590565b9060281161037d576020013560c01c90565b908060281161037d576103db913691602719019060280161104e565b919081101561225a5760051b8101359061013e198136030182121561037d570190565b356103db816104b1565b929093612ef9926001600160401b0360406103db9a98999763ffffffff8135612ec581610588565b168852602081013560208901520135612edd816128c0565b166040860152606085015260e0608085015260e08401916125c3565b6001600160a01b0390941660a082015280840360c0909101526125c3565b60208183031261037d578051906001600160401b03821161037d570181601f8201121561037d578051612f4981611033565b92612f576040519485610ff8565b8184526020828401011161037d576103db9160208085019101610382565b6001600160a01b03908116908115612fd0576000805160206135f983398151915280546001600160a01b031981168417909155167f8be0079c531659141344cd1fd0a4f28419497f9722a3daafe3b4186f6b6457e0600080a3565b604051631e4fbdf760e01b815260006004820152602490fd5b6000805160206135f9833981519152546001600160a01b0316330361300a57565b60405163118cdaa760e01b8152336004820152602490fd5b60ff6000805160206136b98339815191525460401c161561303f57565b604051631afcd79f60e31b8152600490fd5b9081602091031261037d575190565b9081516001600160401b038111610f8f576000805160206135d9833981519152906130948161308f84546112ad565b6122c8565b602080601f83116001146130c45750819293946000926123a15750508160011b916000199060031b1c1916179055565b6000805160206135d9833981519152600052601f198316959091907f46a2803e59a4de4e7a4c574b1243f25977ac4c77d5a1a4a609b5394cebb4a2aa926000905b888210613123575050836001959697106123e657505050811b019055565b80600185968294968601518155019501930190613105565b6001600160a01b031660009081527f52c63247e1f47db19d5ce0460030c497f067ca4cebf71ba98eeadabe20bace016020526040902090565b6001600160a01b031660009081527f52c63247e1f47db19d5ce0460030c497f067ca4cebf71ba98eeadabe20bace006020526040902090565b916001600160a01b0380841692908315613270578116938415613257576131d261343c565b6131db81613174565b54838110613228576132239284926132076000805160206136798339815191529661320d940391613174565b55613174565b8054820190556040519081529081906020820190565b0390a3565b60405163391434e360e21b81526001600160a01b03929092166004830152602482015260448101839052606490fd5b60405163ec442f0560e01b815260006004820152602490fd5b604051634b637e8f60e11b815260006004820152602490fd5b6001600160a01b03811691908215613257576132a361343c565b6000805160206136198339815191529182549080820180921161222b576132df6000805160206136798339815191529360209360009655613174565b818154019055604051908152a3565b91906001600160a01b0383169081156132705761330961343c565b61331284613174565b549381851061335c578160209161333d60008051602061367983398151915294600097980391613174565b55600080516020613619833981519152818154039055604051908152a3565b60405163391434e360e21b81526001600160a01b03919091166004820152602481018590526044810191909152606490fd5b919061339d816105078561313b565b54600181016133ac5750505050565b8281106133e3576001600160a01b038481161561056f57821615610556576133d99261050791039361313b565b5538808080611314565b604051637dc7a0d960e11b81526001600160a01b0392909216600483015260248201526044810191909152606490fd5b61341b613022565b613423613022565b600080516020613699833981519152805460ff19169055565b60ff600080516020613699833981519152541661345557565b60405163d93c066560e01b8152600490fd5b90813b156134ea5760008051602061365983398151915280546001600160a01b0319166001600160a01b0384169081179091557fbc7cd75a20ee27fd9adebab32041f755214dbc6bffa90cc0225b39da2e5c2d3b600080a28051156134cf57612c639161353b565b5050346134d857565b60405163b398979f60e01b8152600490fd5b604051634c9c8ce360e01b81526001600160a01b0383166004820152602490fd5b3d15613536573d9061351c82611033565b9161352a6040519384610ff8565b82523d6000602084013e565b606090565b6000806103db93602081519101845af461355361350b565b915b9061357c575080511561356a57805190602001fd5b604051630a12f52160e11b8152600490fd5b815115806135af575b61358d575090565b604051639996b31560e01b81526001600160a01b039091166004820152602490fd5b50803b1561358556fe52c63247e1f47db19d5ce0460030c497f067ca4cebf71ba98eeadabe20bace0352c63247e1f47db19d5ce0460030c497f067ca4cebf71ba98eeadabe20bace049016d09d72d40fdae2fd8ceac6b6234c7706214fd39c1cd1e609a0528c19930052c63247e1f47db19d5ce0460030c497f067ca4cebf71ba98eeadabe20bace02efed6d3500546b29533b128a29e3a94d70788727f0507505ac12eaf2e578fd9c360894a13ba1a3210667c828492db98dca3e2076cc3735a920a3ca505d382bbcddf252ad1be2c89b69c2b068fc378daa952ba7f163c4a11628f55a4df523b3efcd5ed15c6e187e77e9aee88184c21f4f2182ab5827cb3b7e07fbedcd63f03300f0c57e16840df040f15088dc2f81fe391c3923bec73e23a9662efc9c229c6a00a26469706673582212200c05d70c77b04fe92963c0f191f4e52ff7b1e4e63ab9571ff4ebc439fc2414d564736f6c63430008140033","linkReferences":{}},"methodIdentifiers":{"SEND()":"1f5e1334","SEND_AND_CALL()":"134d4f25","UPGRADE_INTERFACE_VERSION()":"ad3cb1cc","allowInitializePath((uint32,bytes32,uint64))":"ff7bd03d","allowance(address,address)":"dd62ed3e","approvalRequired()":"9f68b964","approve(address,uint256)":"095ea7b3","balanceOf(address)":"70a08231","burn(uint256)":"42966c68","burnFrom(address,uint256)":"79cc6790","burnFromUser(address,uint256)":"c753e126","combineOptions(uint32,uint16,bytes)":"bc70b354","decimalConversionRate()":"963efcaa","decimals()":"313ce567","endpoint()":"5e280f11","enforcedOptions(uint32,uint16)":"5535d461","initialize(address,address)":"485cc955","isComposeMsgSender((uint32,bytes32,uint64),bytes,address)":"82413eac","isPeer(uint32,bytes32)":"5a0dfe4d","lzReceive((uint32,bytes32,uint64),bytes32,bytes,address,bytes)":"13137d65","lzReceiveAndRevert(((uint32,bytes32,uint64),uint32,address,bytes32,uint256,address,bytes,bytes)[])":"bd815db0","lzReceiveSimulate((uint32,bytes32,uint64),bytes32,bytes,address,bytes)":"d045a0dc","mint(address,uint256)":"40c10f19","msgInspector()":"111ecdad","name()":"06fdde03","nextNonce(uint32,bytes32)":"7d25a05e","oApp()":"52ae2879","oAppVersion()":"17442b70","oftVersion()":"156a0d0f","owner()":"8da5cb5b","pause()":"8456cb59","paused()":"5c975abb","peers(uint32)":"bb0b6a53","preCrime()":"b731ea0a","proxiableUUID()":"52d1902d","quoteOFT((uint32,bytes32,uint256,uint256,bytes,bytes,bytes))":"0d35b415","quoteSend((uint32,bytes32,uint256,uint256,bytes,bytes,bytes),bool)":"3b6f743b","renounceOwnership()":"715018a6","send((uint32,bytes32,uint256,uint256,bytes,bytes,bytes),(uint256,uint256),address)":"c7c7f5b3","setDelegate(address)":"ca5eb5e1","setDstEid(uint32)":"0d14c92e","setEnforcedOptions((uint32,uint16,bytes)[])":"b98bd070","setMsgInspector(address)":"6fc1b31e","setPeer(uint32,bytes32)":"3400288b","setPreCrime(address)":"d4243885","sharedDecimals()":"857749b0","symbol()":"95d89b41","token()":"fc0c546a","totalSupply()":"18160ddd","transfer(address,uint256)":"a9059cbb","transferFrom(address,address,uint256)":"23b872dd","transferOwnership(address)":"f2fde38b","unpause()":"3f4ba83a","upgradeToAndCall(address,bytes)":"4f1ef286"},"id":7}