{"abi":[{"type":"function","name":"UPGRADE_INTERFACE_VERSION","inputs":[],"outputs":[{"name":"","type":"string","internalType":"string"}],"stateMutability":"view"},{"type":"function","name":"allowance","inputs":[{"name":"owner","type":"address","internalType":"address"},{"name":"spender","type":"address","internalType":"address"}],"outputs":[{"name":"","type":"uint256","internalType":"uint256"}],"stateMutability":"view"},{"type":"function","name":"approve","inputs":[{"name":"spender","type":"address","internalType":"address"},{"name":"value","type":"uint256","internalType":"uint256"}],"outputs":[{"name":"","type":"bool","internalType":"bool"}],"stateMutability":"nonpayable"},{"type":"function","name":"balanceOf","inputs":[{"name":"account","type":"address","internalType":"address"}],"outputs":[{"name":"","type":"uint256","internalType":"uint256"}],"stateMutability":"view"},{"type":"function","name":"burn","inputs":[{"name":"value","type":"uint256","internalType":"uint256"}],"outputs":[],"stateMutability":"nonpayable"},{"type":"function","name":"burnFrom","inputs":[{"name":"account","type":"address","internalType":"address"},{"name":"value","type":"uint256","internalType":"uint256"}],"outputs":[],"stateMutability":"nonpayable"},{"type":"function","name":"burnFromUser","inputs":[{"name":"to","type":"address","internalType":"address"},{"name":"amount","type":"uint256","internalType":"uint256"}],"outputs":[{"name":"","type":"bool","internalType":"bool"}],"stateMutability":"nonpayable"},{"type":"function","name":"decimals","inputs":[],"outputs":[{"name":"","type":"uint8","internalType":"uint8"}],"stateMutability":"view"},{"type":"function","name":"initialize","inputs":[],"outputs":[],"stateMutability":"nonpayable"},{"type":"function","name":"mint","inputs":[{"name":"to","type":"address","internalType":"address"},{"name":"index","type":"uint64","internalType":"uint64"},{"name":"amount","type":"uint256","internalType":"uint256"}],"outputs":[{"name":"","type":"bool","internalType":"bool"}],"stateMutability":"nonpayable"},{"type":"function","name":"name","inputs":[],"outputs":[{"name":"","type":"string","internalType":"string"}],"stateMutability":"view"},{"type":"function","name":"owner","inputs":[],"outputs":[{"name":"","type":"address","internalType":"address"}],"stateMutability":"view"},{"type":"function","name":"pause","inputs":[],"outputs":[],"stateMutability":"nonpayable"},{"type":"function","name":"paused","inputs":[],"outputs":[{"name":"","type":"bool","internalType":"bool"}],"stateMutability":"view"},{"type":"function","name":"proxiableUUID","inputs":[],"outputs":[{"name":"","type":"bytes32","internalType":"bytes32"}],"stateMutability":"view"},{"type":"function","name":"renounceOwnership","inputs":[],"outputs":[],"stateMutability":"nonpayable"},{"type":"function","name":"setAbondData","inputs":[{"name":"user","type":"address","internalType":"address"},{"name":"index","type":"uint64","internalType":"uint64"},{"name":"ethBacked","type":"uint128","internalType":"uint128"},{"name":"cumulativeRate","type":"uint128","internalType":"uint128"}],"outputs":[],"stateMutability":"nonpayable"},{"type":"function","name":"setBorrowingContract","inputs":[{"name":"_address","type":"address","internalType":"address"}],"outputs":[],"stateMutability":"nonpayable"},{"type":"function","name":"symbol","inputs":[],"outputs":[{"name":"","type":"string","internalType":"string"}],"stateMutability":"view"},{"type":"function","name":"totalSupply","inputs":[],"outputs":[{"name":"","type":"uint256","internalType":"uint256"}],"stateMutability":"view"},{"type":"function","name":"transfer","inputs":[{"name":"to","type":"address","internalType":"address"},{"name":"value","type":"uint256","internalType":"uint256"}],"outputs":[{"name":"","type":"bool","internalType":"bool"}],"stateMutability":"nonpayable"},{"type":"function","name":"transferFrom","inputs":[{"name":"from","type":"address","internalType":"address"},{"name":"to","type":"address","internalType":"address"},{"name":"value","type":"uint256","internalType":"uint256"}],"outputs":[{"name":"","type":"bool","internalType":"bool"}],"stateMutability":"nonpayable"},{"type":"function","name":"transferOwnership","inputs":[{"name":"newOwner","type":"address","internalType":"address"}],"outputs":[],"stateMutability":"nonpayable"},{"type":"function","name":"unpause","inputs":[],"outputs":[],"stateMutability":"nonpayable"},{"type":"function","name":"upgradeToAndCall","inputs":[{"name":"newImplementation","type":"address","internalType":"address"},{"name":"data","type":"bytes","internalType":"bytes"}],"outputs":[],"stateMutability":"payable"},{"type":"function","name":"userStates","inputs":[{"name":"user","type":"address","internalType":"address"}],"outputs":[{"name":"cumulativeRate","type":"uint256","internalType":"uint256"},{"name":"ethBacked","type":"uint128","internalType":"uint128"},{"name":"aBondBalance","type":"uint128","internalType":"uint128"}],"stateMutability":"view"},{"type":"function","name":"userStatesAtDeposits","inputs":[{"name":"user","type":"address","internalType":"address"},{"name":"index","type":"uint64","internalType":"uint64"}],"outputs":[{"name":"cumulativeRate","type":"uint256","internalType":"uint256"},{"name":"ethBacked","type":"uint128","internalType":"uint128"},{"name":"aBondBalance","type":"uint128","internalType":"uint128"}],"stateMutability":"view"},{"type":"event","name":"Approval","inputs":[{"name":"owner","type":"address","indexed":true,"internalType":"address"},{"name":"spender","type":"address","indexed":true,"internalType":"address"},{"name":"value","type":"uint256","indexed":false,"internalType":"uint256"}],"anonymous":false},{"type":"event","name":"Initialized","inputs":[{"name":"version","type":"uint64","indexed":false,"internalType":"uint64"}],"anonymous":false},{"type":"event","name":"OwnershipTransferred","inputs":[{"name":"previousOwner","type":"address","indexed":true,"internalType":"address"},{"name":"newOwner","type":"address","indexed":true,"internalType":"address"}],"anonymous":false},{"type":"event","name":"Paused","inputs":[{"name":"account","type":"address","indexed":false,"internalType":"address"}],"anonymous":false},{"type":"event","name":"Transfer","inputs":[{"name":"from","type":"address","indexed":true,"internalType":"address"},{"name":"to","type":"address","indexed":true,"internalType":"address"},{"name":"value","type":"uint256","indexed":false,"internalType":"uint256"}],"anonymous":false},{"type":"event","name":"Unpaused","inputs":[{"name":"account","type":"address","indexed":false,"internalType":"address"}],"anonymous":false},{"type":"event","name":"Upgraded","inputs":[{"name":"implementation","type":"address","indexed":true,"internalType":"address"}],"anonymous":false},{"type":"error","name":"AddressEmptyCode","inputs":[{"name":"target","type":"address","internalType":"address"}]},{"type":"error","name":"ERC1967InvalidImplementation","inputs":[{"name":"implementation","type":"address","internalType":"address"}]},{"type":"error","name":"ERC1967NonPayable","inputs":[]},{"type":"error","name":"ERC20InsufficientAllowance","inputs":[{"name":"spender","type":"address","internalType":"address"},{"name":"allowance","type":"uint256","internalType":"uint256"},{"name":"needed","type":"uint256","internalType":"uint256"}]},{"type":"error","name":"ERC20InsufficientBalance","inputs":[{"name":"sender","type":"address","internalType":"address"},{"name":"balance","type":"uint256","internalType":"uint256"},{"name":"needed","type":"uint256","internalType":"uint256"}]},{"type":"error","name":"ERC20InvalidApprover","inputs":[{"name":"approver","type":"address","internalType":"address"}]},{"type":"error","name":"ERC20InvalidReceiver","inputs":[{"name":"receiver","type":"address","internalType":"address"}]},{"type":"error","name":"ERC20InvalidSender","inputs":[{"name":"sender","type":"address","internalType":"address"}]},{"type":"error","name":"ERC20InvalidSpender","inputs":[{"name":"spender","type":"address","internalType":"address"}]},{"type":"error","name":"EnforcedPause","inputs":[]},{"type":"error","name":"ExpectedPause","inputs":[]},{"type":"error","name":"FailedInnerCall","inputs":[]},{"type":"error","name":"InsufficientBalance","inputs":[]},{"type":"error","name":"InvalidInitialization","inputs":[]},{"type":"error","name":"NotInitializing","inputs":[]},{"type":"error","name":"OwnableInvalidOwner","inputs":[{"name":"owner","type":"address","internalType":"address"}]},{"type":"error","name":"OwnableUnauthorizedAccount","inputs":[{"name":"account","type":"address","internalType":"address"}]},{"type":"error","name":"UUPSUnauthorizedCallContext","inputs":[]},{"type":"error","name":"UUPSUnsupportedProxiableUUID","inputs":[{"name":"slot","type":"bytes32","internalType":"bytes32"}]}],"bytecode":{"object":"0x60a0806040523461002a5730608052611e7190816100308239608051818181610ece0152610f9a0152f35b600080fdfe60806040908082526004918236101561001757600080fd5b600092833560e01c92836306fdde031461148757508263095ea7b3146113dd5782630ecc535f1461137e57826318160ddd1461135257826323b872dd14611228578263313ce5671461120c5782633f4ba83a1461119357826342966c68146111615782634f1ef28614610f2057826352d1902d14610eb95782635c975abb14610e8857826370a0823114610e43578263715018a614610dd957826378fdaf3f14610d3f57826379cc679014610d0a5782637fe7adfc14610b4d5782638129fc1c1461071a5782638456cb59146106b25782638da5cb5b1461067c57826391e74c361461060457826395d89b41146105275782639992f4b714610449578263a9059cbb146102da578263ad3cb1cc14610299578263c753e126146101ca57508163dd62ed3e1461017f575063f2fde38b1461015057600080fd5b3461017c57602036600319011261017c5761017961016c6115a0565b6101746119cc565b611958565b80f35b80fd5b9050346101c657806003193601126101c6578060209261019d6115a0565b6101ae6101a86115bb565b916115d1565b6001600160a01b039091168252845220549051908152f35b5080fd5b9091503461029557816003193601126102955761028e9060209361027e6101ef6115a0565b916024359360018060a01b039161020a8383541633146116a8565b6001838616808352828b5289808420936102508483519661022a8861160a565b80548852015495858060801b0396878116602083015260801c84820152868c16906118b3565b928152808d522092815184558b82015116908a838060801b031991015160801b1617910155541633146116a8565b610289823383611b64565b611c3a565b5160018152f35b8280fd5b8382346101c657816003193601126101c65780516102d6916102ba8261163b565b60058252640352e302e360dc1b60208301525191829182611557565b0390f35b9150346102955780600319360112610295576102f46115a0565b6024359033151580610437575b61030a90611710565b33855260209385855283862060018551916103248361160a565b8054835201549060018060801b0392838316888301528682019260801c835260018060a01b03851690818a528989528685898c209560018b51976103678961160a565b8054895201548281168d89015260801c8b8801525116106103f457509580806103d16001958b9c95839c8861028e9d6103a48c8f168096866117e3565b908a528983528b878b2093825185558201511690828060801b0319998a91015160801b16179101556118b3565b93338152808c522094835186558a8401511692015160801b161791015533611a80565b875162461bcd60e51b8152908101899052601a60248201527f496e73756666696369656e742061426f6e642062616c616e63650000000000006044820152606490fd5b506001600160a01b0381161515610301565b90915034610295576080366003190112610295576104656115a0565b9061046e611692565b926001600160801b0360443581811693919290849003610523576064359183831680930361051f57546001956001600160a01b03916104b090831633146116a8565b1695868852856020526001600160401b0382892091169081895260205281882096868351986104de8a61160a565b0154956020890194848a019760801c885289528452885285602052818820908852602052862094518555511690828060801b0319905160801b161791015580f35b8780fd5b8680fd5b8382346101c657816003193601126101c657805190827f52c63247e1f47db19d5ce0460030c497f067ca4cebf71ba98eeadabe20bace04805461056981611a46565b808652916001918083169081156105d9575060011461059e575b6102d68686610594828b0383611656565b5191829182611557565b835260208084209096505b8284106105c657505050826102d694610594928201019486610583565b80548685018801529286019281016105a9565b90506102d697506105949450602092508693915060ff191682840152151560051b8201019486610583565b8382346101c657806003193601126101c65780916106206115a0565b610628611692565b6001600160a01b03919091168252600160208181528484206001600160401b03909316845291825292909120805492015492519182526001600160801b0383169082015260809190911c6040820152606090f35b8382346101c657816003193601126101c657600080516020611d9c8339815191525490516001600160a01b039091168152602090f35b8382346101c657816003193601126101c65760207f62e78cea01bee320cd4e420270b5ea74000d11b0c9f74754ebdbfc544b05a258916106f06119cc565b6106f8611ced565b600080516020611e1c833981519152805460ff1916600117905551338152a180f35b909150346102955782600319360112610295577ff0c57e16840df040f15088dc2f81fe391c3923bec73e23a9662efc9c229c6a009182549060ff82821c16156001600160401b0380841693841580610b46575b60018096149081610b3c575b159081610b33575b50610b235767ffffffffffffffff1981168517875582610b04575b508251906107a98261163b565b601082526020956f2a32b9ba1020a127a722102a37b5b2b760811b878401528451926107d48461163b565b600684526515105093d39160d21b888501526107ee611a05565b6107f6611a05565b8051838111610af157807f52c63247e1f47db19d5ce0460030c497f067ca4cebf71ba98eeadabe20bace039261082c8454611a46565b601f8111610a9e575b508a908d601f8411600114610a3d5792610a32575b5050600019600383901b1c191690881b1790555b8251918211610a1f5750807f52c63247e1f47db19d5ce0460030c497f067ca4cebf71ba98eeadabe20bace04926108958454611a46565b601f81116109cf575b508790601f8311600114610970578a92610965575b5050600019600383901b1c191690851b1790555b6108cf611a05565b6108d7611a05565b6108df611a05565b600080516020611e1c833981519152805460ff191690556108ff33611958565b610907611a05565b600280546001600160801b031916670de0b6b3a7640000179055610929578480f35b835460ff60401b191690935591519182527fc7f505b2f371ae2175ee4913f4499e1f2633a7b5936321eed1cdaeb6115181d291a1388080808480f35b0151905038806108b3565b848b52888b208894509190601f1984168c5b8b8282106109b957505084116109a0575b505050811b0190556108c7565b015160001960f88460031b161c19169055388080610993565b8385015186558b97909501949384019301610982565b909150838a52878a20601f840160051c810191898510610a15575b84939291601f8a920160051c01915b828110610a0757505061089e565b8c81558594508991016109f9565b90915081906109ea565b634e487b7160e01b895260419052602488fd5b01519050388061084a565b8581528c81208c9550929190601f198516908e5b828210610a875750508411610a6e575b505050811b01905561085e565b015160001960f88460031b161c19169055388080610a61565b8385015186558e979095019493840193018e610a51565b909150838d528a8d20601f840160051c8101918c8510610ae7575b8e85949392601f8e930160051c0192905b838210610ad957505050610835565b81558594508c91018f610aca565b9091508190610ab9565b634e487b7160e01b8b526041835260248bfd5b68ffffffffffffffffff1916680100000000000000011786553861079c565b835163f92ee8a960e01b81528690fd5b90501538610781565b303b159150610779565b508261076d565b91503461029557606036600319011261029557610b686115a0565b610b70611692565b936044359160018060a01b0390610b8b8287541633146116a8565b1691821594610b9a8615611710565b838352600195610c4a878660209a828c526001600160401b038a89209116908189528c528b83888c8b8181209484835196610bd48861160a565b805488520154968187019360018060801b039b8c96878b168752828a019a60801c8b528b865285855282862089845191610c0d8361160a565b8054835201548981168783015260801c8482015288610c4181610c38818c511682600254169061174b565b9416809461177d565b1688528a6117e3565b99845286835283209252528d8c2093518455511660018060801b031980945160801b1617910155888852878c528980892094835186558d8401511692015160801b1617910155610cf3575085600080516020611dfc83398151915291610cae611ced565b600080516020611dbc833981519152610cc882825461194b565b9055848452600080516020611d7c83398151915282528584208181540190558551908152a351908152f35b845163ec442f0560e01b8152908101839052602490fd5b915034610295573660031901126101c65761017990610d276115a0565b61027e6024359260018060a01b0390541633146116a8565b91503461029557602036600319011261029557610d5a6115a0565b90610d636119cc565b6001600160a01b038216918215159081610dce575b5015610d91575081546001600160a01b03191617905580f35b5162461bcd60e51b81526020818401526018602482015277125b9c1d5d081859191c995cdcc81a5cc81a5b9d985b1a5960421b6044820152606490fd5b90503b151538610d78565b833461017c578060031936011261017c57610df26119cc565b600080516020611d9c83398151915280546001600160a01b0319811690915581906001600160a01b03167f8be0079c531659141344cd1fd0a4f28419497f9722a3daafe3b4186f6b6457e08280a380f35b8382346101c65760203660031901126101c65760209181906001600160a01b03610e6b6115a0565b168152600080516020611d7c833981519152845220549051908152f35b8382346101c657816003193601126101c65760209060ff600080516020611e1c833981519152541690519015158152f35b90833461017c578060031936011261017c57507f00000000000000000000000000000000000000000000000000000000000000006001600160a01b03163003610f135760209051600080516020611ddc8339815191528152f35b5163703e46dd60e11b8152fd5b91508060031936011261029557610f356115a0565b9060249384356001600160401b0381116101c657366023820112156101c65780850135610f6181611677565b94610f6e85519687611656565b81865260209182870193368a838301011161115d578186928b8693018737880101526001600160a01b037f00000000000000000000000000000000000000000000000000000000000000008116308114908115611141575b5061113157610fd36119cc565b81169585516352d1902d60e01b815283818a818b5afa869181611102575b5061100d575050505050505191634c9c8ce360e01b8352820152fd5b9088888894938c600080516020611ddc833981519152918281036110ed5750853b156110d9575080546001600160a01b031916821790558451889392917fbc7cd75a20ee27fd9adebab32041f755214dbc6bffa90cc0225b39da2e5c2d3b8580a28251156110bb5750506110ad9582915190845af4913d156110b1573d61109f61109682611677565b92519283611656565b81528581943d92013e611d18565b5080f35b5060609250611d18565b9550955050505050346110cd57505080f35b63b398979f60e01b8152fd5b8651634c9c8ce360e01b8152808501849052fd5b8751632a87526960e21b815280860191909152fd5b9091508481813d831161112a575b61111a8183611656565b8101031261052357519038610ff1565b503d611110565b855163703e46dd60e11b81528890fd5b905081600080516020611ddc8339815191525416141538610fc6565b8580fd5b8390346101c65760203660031901126101c6576101799061118c60018060a01b0382541633146116a8565b3533611c3a565b909150346102955782600319360112610295576111ae6119cc565b600080516020611e1c8339815191529081549060ff8216156111fe575060ff19169055513381527f5db9ee0a495bf2e6ff9c91a7834c1ba4fdd244a5e8aa4e537bd38aeae4b073aa90602090a180f35b8351638dfc202b60e01b8152fd5b8382346101c657816003193601126101c6576020905160128152f35b8382346101c65760603660031901126101c65761028e81926112486115a0565b6112506115bb565b90600180604435948785838060a01b039283871680151580611347575b61127690611710565b815260209b818d92835280828120936113218d85519b8c976112978961160a565b805489520154998a9887858a01998e8060801b03809c168b52019b60801c8c52168085528484526112f18d8a898820948f8b51966112d48861160a565b8054885201548281168988015260801c8b870152169384916117e3565b9085528484528b87862091805183558a868201511690828060801b03199c8d91015160801b16179101558b6118b3565b503382525220955186555116915160801b1617910155611342833383611b64565b611a80565b50828516151561126d565b8382346101c657816003193601126101c657602090600080516020611dbc833981519152549051908152f35b8382346101c65760203660031901126101c6579081906001600160a01b036113a46115a0565b1681526020818152919020805460019091015492519081526001600160801b0383169181019190915260809190911c6040820152606090f35b909150346102955781600319360112610295576113f86115a0565b602435903315611470576001600160a01b031691821561145957508083602095611421336115d1565b8582528752205582519081527f8c5be1e5ebec7d5bd14f71427d1e84f3dd0314c0f7b2291e5b200ac8c7c3b925843392a35160018152f35b8351634a1406b160e11b8152908101859052602490fd5b835163e602df0560e01b8152808401869052602490fd5b92505034610295578260031936011261029557827f52c63247e1f47db19d5ce0460030c497f067ca4cebf71ba98eeadabe20bace0380546114c781611a46565b8086529160019180831690811561152c57506001146114f1576102d68686610594828b0383611656565b835260208084209096505b82841061151957505050826102d694610594928201019438610583565b80548685018801529286019281016114fc565b90506102d697506105949450602092508693915060ff191682840152151560051b8201019438610583565b6020808252825181830181905290939260005b82811061158c57505060409293506000838284010152601f8019910116010190565b81810186015184820160400152850161156a565b600435906001600160a01b03821682036115b657565b600080fd5b602435906001600160a01b03821682036115b657565b6001600160a01b031660009081527f52c63247e1f47db19d5ce0460030c497f067ca4cebf71ba98eeadabe20bace016020526040902090565b606081019081106001600160401b0382111761162557604052565b634e487b7160e01b600052604160045260246000fd5b604081019081106001600160401b0382111761162557604052565b90601f801991011681019081106001600160401b0382111761162557604052565b6001600160401b03811161162557601f01601f191660200190565b602435906001600160401b03821682036115b657565b156116af57565b60405162461bcd60e51b815260206004820152603360248201527f546869732066756e6374696f6e2063616e206f6e6c792063616c6c656420627960448201527208189bdc9c9bddda5b99c818dbdb9d1c9858dd606a1b6064820152608490fd5b1561171757565b60405162461bcd60e51b815260206004820152600c60248201526b24b73b30b634b2102ab9b2b960a11b6044820152606490fd5b6001600160801b03918216908216029081169190820361176757565b634e487b7160e01b600052601160045260246000fd5b6001600160801b039182169190821561179557160490565b634e487b7160e01b600052601260045260246000fd5b604051906117b88261160a565b60006040838281528260208201520152565b6001600160801b03918216908216019190821161176757565b90916117ed6117ab565b506040830180518351855192946001600160801b039492851693909183861680156118a157869261182e61182761183b9461183494611938565b9188611938565b9061194b565b94846117ca565b1680156117955761189b930486528361188f81602081895116940151169261188961188260208b019561187c61187587895116928a61174b565b918561174b565b906117ca565b91866117ca565b9061177d565b169052828451166117ca565b16905290565b604051631e9acf1760e31b8152600490fd5b906118bc6117ab565b5060408201805190916001600160801b03919082169082168181106118fd57038181116117675716809152156118ef5790565b600081526000602082015290565b60405162461bcd60e51b8152602060048201526013602482015272496e73756666696369656e7442616c616e636560681b6044820152606490fd5b8181029291811591840414171561176757565b9190820180921161176757565b6001600160a01b039081169081156119b357600080516020611d9c83398151915280546001600160a01b031981168417909155167f8be0079c531659141344cd1fd0a4f28419497f9722a3daafe3b4186f6b6457e0600080a3565b604051631e4fbdf760e01b815260006004820152602490fd5b600080516020611d9c833981519152546001600160a01b031633036119ed57565b60405163118cdaa760e01b8152336004820152602490fd5b60ff7ff0c57e16840df040f15088dc2f81fe391c3923bec73e23a9662efc9c229c6a005460401c1615611a3457565b604051631afcd79f60e31b8152600490fd5b90600182811c92168015611a76575b6020831014611a6057565b634e487b7160e01b600052602260045260246000fd5b91607f1691611a55565b916001600160a01b03808416928315611b4b5716928315611b3257611aa3611ced565b600090838252600080516020611d7c83398151915280602052604083205491848310611aff57508284600080516020611dfc833981519152959360409388602097528652038282205586815220818154019055604051908152a3565b60405163391434e360e21b81526001600160a01b0391909116600482015260248101929092525060448101839052606490fd5b60405163ec442f0560e01b815260006004820152602490fd5b604051634b637e8f60e11b815260006004820152602490fd5b9190611b6f836115d1565b9260018060a01b0390818316916000958387526020526040862054936000198503611b9e575b50505050505050565b858510611c095750811615611bf0578115611bd75790611bc160409493926115d1565b9085526020520391205538808080808080611b95565b604051634a1406b160e11b815260048101869052602490fd5b60405163e602df0560e01b815260048101869052602490fd5b604051637dc7a0d960e11b81526001600160a01b039190911660048201526024810185905260448101869052606490fd5b91906001600160a01b038316908115611b4b57611c55611ced565b81600052600080516020611d7c8339815191528060205260406000205494828610611cbc575081600080516020611dfc83398151915292600095966020938688528452036040862055600080516020611dbc833981519152818154039055604051908152a3565b60405163391434e360e21b81526001600160a01b039190911660048201526024810186905260448101839052606490fd5b60ff600080516020611e1c8339815191525416611d0657565b60405163d93c066560e01b8152600490fd5b90611d3f5750805115611d2d57805190602001fd5b604051630a12f52160e11b8152600490fd5b81511580611d72575b611d50575090565b604051639996b31560e01b81526001600160a01b039091166004820152602490fd5b50803b15611d4856fe52c63247e1f47db19d5ce0460030c497f067ca4cebf71ba98eeadabe20bace009016d09d72d40fdae2fd8ceac6b6234c7706214fd39c1cd1e609a0528c19930052c63247e1f47db19d5ce0460030c497f067ca4cebf71ba98eeadabe20bace02360894a13ba1a3210667c828492db98dca3e2076cc3735a920a3ca505d382bbcddf252ad1be2c89b69c2b068fc378daa952ba7f163c4a11628f55a4df523b3efcd5ed15c6e187e77e9aee88184c21f4f2182ab5827cb3b7e07fbedcd63f03300a26469706673582212201d8925f94c40ad0e4120f39278c3f7c2c8dbb1fad7881540d176240ea8d7ddf364736f6c63430008140033","linkReferences":{}},"methodIdentifiers":{"UPGRADE_INTERFACE_VERSION()":"ad3cb1cc","allowance(address,address)":"dd62ed3e","approve(address,uint256)":"095ea7b3","balanceOf(address)":"70a08231","burn(uint256)":"42966c68","burnFrom(address,uint256)":"79cc6790","burnFromUser(address,uint256)":"c753e126","decimals()":"313ce567","initialize()":"8129fc1c","mint(address,uint64,uint256)":"7fe7adfc","name()":"06fdde03","owner()":"8da5cb5b","pause()":"8456cb59","paused()":"5c975abb","proxiableUUID()":"52d1902d","renounceOwnership()":"715018a6","setAbondData(address,uint64,uint128,uint128)":"9992f4b7","setBorrowingContract(address)":"78fdaf3f","symbol()":"95d89b41","totalSupply()":"18160ddd","transfer(address,uint256)":"a9059cbb","transferFrom(address,address,uint256)":"23b872dd","transferOwnership(address)":"f2fde38b","unpause()":"3f4ba83a","upgradeToAndCall(address,bytes)":"4f1ef286","userStates(address)":"0ecc535f","userStatesAtDeposits(address,uint64)":"91e74c36"},"id":8}