{"abi":[{"type":"function","name":"UPGRADE_INTERFACE_VERSION","inputs":[],"outputs":[{"name":"","type":"string","internalType":"string"}],"stateMutability":"view"},{"type":"function","name":"admin","inputs":[],"outputs":[{"name":"","type":"address","internalType":"address"}],"stateMutability":"view"},{"type":"function","name":"allowInitializePath","inputs":[{"name":"origin","type":"tuple","internalType":"struct Origin","components":[{"name":"srcEid","type":"uint32","internalType":"uint32"},{"name":"sender","type":"bytes32","internalType":"bytes32"},{"name":"nonce","type":"uint64","internalType":"uint64"}]}],"outputs":[{"name":"","type":"bool","internalType":"bool"}],"stateMutability":"view"},{"type":"function","name":"calculateCumulativeRate","inputs":[{"name":"fees","type":"uint128","internalType":"uint128"}],"outputs":[],"stateMutability":"payable"},{"type":"function","name":"callLzSendFromExternal","inputs":[{"name":"_dstEid","type":"uint32","internalType":"uint32"},{"name":"functionToDo","type":"uint8","internalType":"enum CDSInterface.FunctionToDo"},{"name":"optionsFeesToGetFromOtherChain","type":"uint256","internalType":"uint256"},{"name":"cdsAmountToGetFromOtherChain","type":"uint256","internalType":"uint256"},{"name":"liqAmountToGetFromOtherChain","type":"uint256","internalType":"uint256"},{"name":"liquidationInfo","type":"tuple","internalType":"struct CDSInterface.LiquidationInfo","components":[{"name":"liquidationAmount","type":"uint128","internalType":"uint128"},{"name":"profits","type":"uint128","internalType":"uint128"},{"name":"ethAmount","type":"uint128","internalType":"uint128"},{"name":"availableLiquidationAmount","type":"uint256","internalType":"uint256"}]},{"name":"liqIndex","type":"uint128","internalType":"uint128"},{"name":"fee","type":"tuple","internalType":"struct MessagingFee","components":[{"name":"nativeFee","type":"uint256","internalType":"uint256"},{"name":"lzTokenFee","type":"uint256","internalType":"uint256"}]},{"name":"_options","type":"bytes","internalType":"bytes"}],"outputs":[{"name":"receipt","type":"tuple","internalType":"struct MessagingReceipt","components":[{"name":"guid","type":"bytes32","internalType":"bytes32"},{"name":"nonce","type":"uint64","internalType":"uint64"},{"name":"fee","type":"tuple","internalType":"struct MessagingFee","components":[{"name":"nativeFee","type":"uint256","internalType":"uint256"},{"name":"lzTokenFee","type":"uint256","internalType":"uint256"}]}]}],"stateMutability":"payable"},{"type":"function","name":"cdsCount","inputs":[],"outputs":[{"name":"","type":"uint64","internalType":"uint64"}],"stateMutability":"view"},{"type":"function","name":"cdsDetails","inputs":[{"name":"","type":"address","internalType":"address"}],"outputs":[{"name":"index","type":"uint64","internalType":"uint64"},{"name":"hasDeposited","type":"bool","internalType":"bool"}],"stateMutability":"view"},{"type":"function","name":"deposit","inputs":[{"name":"usdtAmount","type":"uint128","internalType":"uint128"},{"name":"usdaAmount","type":"uint128","internalType":"uint128"},{"name":"_liquidate","type":"bool","internalType":"bool"},{"name":"_liquidationAmount","type":"uint128","internalType":"uint128"},{"name":"ethPrice","type":"uint128","internalType":"uint128"}],"outputs":[],"stateMutability":"payable"},{"type":"function","name":"endpoint","inputs":[],"outputs":[{"name":"","type":"address","internalType":"contract ILayerZeroEndpointV2"}],"stateMutability":"view"},{"type":"function","name":"getCDSDepositDetails","inputs":[{"name":"depositor","type":"address","internalType":"address"},{"name":"index","type":"uint64","internalType":"uint64"}],"outputs":[{"name":"","type":"tuple","internalType":"struct CDSInterface.CdsAccountDetails","components":[{"name":"depositedTime","type":"uint64","internalType":"uint64"},{"name":"depositedAmount","type":"uint256","internalType":"uint256"},{"name":"withdrawedTime","type":"uint64","internalType":"uint64"},{"name":"withdrawedAmount","type":"uint256","internalType":"uint256"},{"name":"withdrawed","type":"bool","internalType":"bool"},{"name":"depositPrice","type":"uint128","internalType":"uint128"},{"name":"depositValue","type":"uint128","internalType":"uint128"},{"name":"depositValueSign","type":"bool","internalType":"bool"},{"name":"optedLiquidation","type":"bool","internalType":"bool"},{"name":"InitialLiquidationAmount","type":"uint128","internalType":"uint128"},{"name":"liquidationAmount","type":"uint128","internalType":"uint128"},{"name":"liquidationindex","type":"uint128","internalType":"uint128"},{"name":"normalizedAmount","type":"uint256","internalType":"uint256"}]},{"name":"","type":"uint64","internalType":"uint64"}],"stateMutability":"view"},{"type":"function","name":"initialize","inputs":[{"name":"_usda","type":"address","internalType":"address"},{"name":"priceFeed","type":"address","internalType":"address"},{"name":"_usdt","type":"address","internalType":"address"},{"name":"_multiSign","type":"address","internalType":"address"},{"name":"_endpoint","type":"address","internalType":"address"},{"name":"_delegate","type":"address","internalType":"address"}],"outputs":[],"stateMutability":"nonpayable"},{"type":"function","name":"isComposeMsgSender","inputs":[{"name":"","type":"tuple","internalType":"struct Origin","components":[{"name":"srcEid","type":"uint32","internalType":"uint32"},{"name":"sender","type":"bytes32","internalType":"bytes32"},{"name":"nonce","type":"uint64","internalType":"uint64"}]},{"name":"","type":"bytes","internalType":"bytes"},{"name":"_sender","type":"address","internalType":"address"}],"outputs":[{"name":"","type":"bool","internalType":"bool"}],"stateMutability":"view"},{"type":"function","name":"lastEthPrice","inputs":[],"outputs":[{"name":"","type":"uint128","internalType":"uint128"}],"stateMutability":"view"},{"type":"function","name":"lzReceive","inputs":[{"name":"_origin","type":"tuple","internalType":"struct Origin","components":[{"name":"srcEid","type":"uint32","internalType":"uint32"},{"name":"sender","type":"bytes32","internalType":"bytes32"},{"name":"nonce","type":"uint64","internalType":"uint64"}]},{"name":"_guid","type":"bytes32","internalType":"bytes32"},{"name":"_message","type":"bytes","internalType":"bytes"},{"name":"_executor","type":"address","internalType":"address"},{"name":"_extraData","type":"bytes","internalType":"bytes"}],"outputs":[],"stateMutability":"payable"},{"type":"function","name":"nextNonce","inputs":[{"name":"","type":"uint32","internalType":"uint32"},{"name":"","type":"bytes32","internalType":"bytes32"}],"outputs":[{"name":"nonce","type":"uint64","internalType":"uint64"}],"stateMutability":"view"},{"type":"function","name":"oAppVersion","inputs":[],"outputs":[{"name":"senderVersion","type":"uint64","internalType":"uint64"},{"name":"receiverVersion","type":"uint64","internalType":"uint64"}],"stateMutability":"pure"},{"type":"function","name":"omniChainCDSTotalAvailableLiquidationAmount","inputs":[],"outputs":[{"name":"","type":"uint256","internalType":"uint256"}],"stateMutability":"view"},{"type":"function","name":"omniChainCDSTotalCdsDepositedAmount","inputs":[],"outputs":[{"name":"","type":"uint256","internalType":"uint256"}],"stateMutability":"view"},{"type":"function","name":"owner","inputs":[],"outputs":[{"name":"","type":"address","internalType":"address"}],"stateMutability":"view"},{"type":"function","name":"peers","inputs":[{"name":"eid","type":"uint32","internalType":"uint32"}],"outputs":[{"name":"peer","type":"bytes32","internalType":"bytes32"}],"stateMutability":"view"},{"type":"function","name":"proxiableUUID","inputs":[],"outputs":[{"name":"","type":"bytes32","internalType":"bytes32"}],"stateMutability":"view"},{"type":"function","name":"quote","inputs":[{"name":"_dstEid","type":"uint32","internalType":"uint32"},{"name":"_functionToDo","type":"uint8","internalType":"enum CDSInterface.FunctionToDo"},{"name":"optionsFeesToGetFromOtherChain","type":"uint256","internalType":"uint256"},{"name":"cdsAmountToGetFromOtherChain","type":"uint256","internalType":"uint256"},{"name":"liqAmountToGetFromOtherChain","type":"uint256","internalType":"uint256"},{"name":"liquidationInfo","type":"tuple","internalType":"struct CDSInterface.LiquidationInfo","components":[{"name":"liquidationAmount","type":"uint128","internalType":"uint128"},{"name":"profits","type":"uint128","internalType":"uint128"},{"name":"ethAmount","type":"uint128","internalType":"uint128"},{"name":"availableLiquidationAmount","type":"uint256","internalType":"uint256"}]},{"name":"liqIndex","type":"uint128","internalType":"uint128"},{"name":"_options","type":"bytes","internalType":"bytes"},{"name":"_payInLzToken","type":"bool","internalType":"bool"}],"outputs":[{"name":"fee","type":"tuple","internalType":"struct MessagingFee","components":[{"name":"nativeFee","type":"uint256","internalType":"uint256"},{"name":"lzTokenFee","type":"uint256","internalType":"uint256"}]}],"stateMutability":"view"},{"type":"function","name":"redeemUSDT","inputs":[{"name":"_usdaAmount","type":"uint128","internalType":"uint128"},{"name":"usdaPrice","type":"uint64","internalType":"uint64"},{"name":"usdtPrice","type":"uint64","internalType":"uint64"}],"outputs":[],"stateMutability":"payable"},{"type":"function","name":"renounceOwnership","inputs":[],"outputs":[],"stateMutability":"nonpayable"},{"type":"function","name":"setAdmin","inputs":[{"name":"_admin","type":"address","internalType":"address"}],"outputs":[],"stateMutability":"nonpayable"},{"type":"function","name":"setBorrowLiquidation","inputs":[{"name":"_address","type":"address","internalType":"address"}],"outputs":[],"stateMutability":"nonpayable"},{"type":"function","name":"setBorrowingContract","inputs":[{"name":"_address","type":"address","internalType":"address"}],"outputs":[],"stateMutability":"nonpayable"},{"type":"function","name":"setDelegate","inputs":[{"name":"_delegate","type":"address","internalType":"address"}],"outputs":[],"stateMutability":"nonpayable"},{"type":"function","name":"setDstEid","inputs":[{"name":"_eid","type":"uint32","internalType":"uint32"}],"outputs":[],"stateMutability":"nonpayable"},{"type":"function","name":"setPeer","inputs":[{"name":"_eid","type":"uint32","internalType":"uint32"},{"name":"_peer","type":"bytes32","internalType":"bytes32"}],"outputs":[],"stateMutability":"nonpayable"},{"type":"function","name":"setTreasury","inputs":[{"name":"_treasury","type":"address","internalType":"address"}],"outputs":[],"stateMutability":"nonpayable"},{"type":"function","name":"setUSDaLimit","inputs":[{"name":"percent","type":"uint8","internalType":"uint8"}],"outputs":[],"stateMutability":"nonpayable"},{"type":"function","name":"setUsdtLimit","inputs":[{"name":"amount","type":"uint64","internalType":"uint64"}],"outputs":[],"stateMutability":"nonpayable"},{"type":"function","name":"setWithdrawTimeLimit","inputs":[{"name":"_timeLimit","type":"uint64","internalType":"uint64"}],"outputs":[],"stateMutability":"nonpayable"},{"type":"function","name":"totalAvailableLiquidationAmount","inputs":[],"outputs":[{"name":"","type":"uint256","internalType":"uint256"}],"stateMutability":"view"},{"type":"function","name":"totalCdsDepositedAmount","inputs":[],"outputs":[{"name":"","type":"uint256","internalType":"uint256"}],"stateMutability":"view"},{"type":"function","name":"transferOwnership","inputs":[{"name":"newOwner","type":"address","internalType":"address"}],"outputs":[],"stateMutability":"nonpayable"},{"type":"function","name":"updateLiquidationInfo","inputs":[{"name":"index","type":"uint128","internalType":"uint128"},{"name":"liquidationData","type":"tuple","internalType":"struct CDSInterface.LiquidationInfo","components":[{"name":"liquidationAmount","type":"uint128","internalType":"uint128"},{"name":"profits","type":"uint128","internalType":"uint128"},{"name":"ethAmount","type":"uint128","internalType":"uint128"},{"name":"availableLiquidationAmount","type":"uint256","internalType":"uint256"}]}],"outputs":[],"stateMutability":"nonpayable"},{"type":"function","name":"updateTotalAvailableLiquidationAmount","inputs":[{"name":"amount","type":"uint256","internalType":"uint256"}],"outputs":[],"stateMutability":"nonpayable"},{"type":"function","name":"updateTotalCdsDepositedAmount","inputs":[{"name":"_amount","type":"uint128","internalType":"uint128"}],"outputs":[],"stateMutability":"nonpayable"},{"type":"function","name":"updateTotalCdsDepositedAmountWithOptionFees","inputs":[{"name":"_amount","type":"uint128","internalType":"uint128"}],"outputs":[],"stateMutability":"nonpayable"},{"type":"function","name":"upgradeToAndCall","inputs":[{"name":"newImplementation","type":"address","internalType":"address"},{"name":"data","type":"bytes","internalType":"bytes"}],"outputs":[],"stateMutability":"payable"},{"type":"function","name":"usda","inputs":[],"outputs":[{"name":"","type":"address","internalType":"contract IUSDa"}],"stateMutability":"view"},{"type":"function","name":"usdaLimit","inputs":[],"outputs":[{"name":"","type":"uint8","internalType":"uint8"}],"stateMutability":"view"},{"type":"function","name":"usdtAmountDepositedTillNow","inputs":[],"outputs":[{"name":"","type":"uint256","internalType":"uint256"}],"stateMutability":"view"},{"type":"function","name":"usdtLimit","inputs":[],"outputs":[{"name":"","type":"uint64","internalType":"uint64"}],"stateMutability":"view"},{"type":"function","name":"withdraw","inputs":[{"name":"_index","type":"uint64","internalType":"uint64"},{"name":"ethPrice","type":"uint128","internalType":"uint128"}],"outputs":[],"stateMutability":"payable"},{"type":"event","name":"Deposit","inputs":[{"name":"user","type":"address","indexed":false,"internalType":"address"},{"name":"index","type":"uint64","indexed":false,"internalType":"uint64"},{"name":"depositedUSDa","type":"uint128","indexed":false,"internalType":"uint128"},{"name":"depositedUSDT","type":"uint128","indexed":false,"internalType":"uint128"},{"name":"depositedTime","type":"uint256","indexed":false,"internalType":"uint256"},{"name":"ethPriceAtDeposit","type":"uint128","indexed":false,"internalType":"uint128"},{"name":"lockingPeriod","type":"uint128","indexed":false,"internalType":"uint128"},{"name":"liquidationAmount","type":"uint128","indexed":false,"internalType":"uint128"},{"name":"optedForLiquidation","type":"bool","indexed":false,"internalType":"bool"}],"anonymous":false},{"type":"event","name":"Initialized","inputs":[{"name":"version","type":"uint64","indexed":false,"internalType":"uint64"}],"anonymous":false},{"type":"event","name":"OwnershipTransferred","inputs":[{"name":"previousOwner","type":"address","indexed":true,"internalType":"address"},{"name":"newOwner","type":"address","indexed":true,"internalType":"address"}],"anonymous":false},{"type":"event","name":"PeerSet","inputs":[{"name":"eid","type":"uint32","indexed":false,"internalType":"uint32"},{"name":"peer","type":"bytes32","indexed":false,"internalType":"bytes32"}],"anonymous":false},{"type":"event","name":"Upgraded","inputs":[{"name":"implementation","type":"address","indexed":true,"internalType":"address"}],"anonymous":false},{"type":"event","name":"Withdraw","inputs":[{"name":"user","type":"address","indexed":false,"internalType":"address"},{"name":"index","type":"uint64","indexed":false,"internalType":"uint64"},{"name":"withdrawUSDa","type":"uint256","indexed":false,"internalType":"uint256"},{"name":"withdrawTime","type":"uint256","indexed":false,"internalType":"uint256"},{"name":"withdrawETH","type":"uint128","indexed":false,"internalType":"uint128"},{"name":"ethPriceAtWithdraw","type":"uint128","indexed":false,"internalType":"uint128"},{"name":"optionsFees","type":"uint256","indexed":false,"internalType":"uint256"},{"name":"optionsFeesWithdrawn","type":"uint256","indexed":false,"internalType":"uint256"}],"anonymous":false},{"type":"error","name":"AddressEmptyCode","inputs":[{"name":"target","type":"address","internalType":"address"}]},{"type":"error","name":"AddressInsufficientBalance","inputs":[{"name":"account","type":"address","internalType":"address"}]},{"type":"error","name":"ERC1967InvalidImplementation","inputs":[{"name":"implementation","type":"address","internalType":"address"}]},{"type":"error","name":"ERC1967NonPayable","inputs":[]},{"type":"error","name":"EndPointUnavailable","inputs":[]},{"type":"error","name":"FailedInnerCall","inputs":[]},{"type":"error","name":"InvalidDelegate","inputs":[]},{"type":"error","name":"InvalidEndpointCall","inputs":[]},{"type":"error","name":"InvalidInitialization","inputs":[]},{"type":"error","name":"InvalidOptionType","inputs":[{"name":"optionType","type":"uint16","internalType":"uint16"}]},{"type":"error","name":"LzTokenUnavailable","inputs":[]},{"type":"error","name":"NoPeer","inputs":[{"name":"eid","type":"uint32","internalType":"uint32"}]},{"type":"error","name":"NotEnoughNative","inputs":[{"name":"msgValue","type":"uint256","internalType":"uint256"}]},{"type":"error","name":"NotInitializing","inputs":[]},{"type":"error","name":"OnlyEndpoint","inputs":[{"name":"addr","type":"address","internalType":"address"}]},{"type":"error","name":"OnlyPeer","inputs":[{"name":"eid","type":"uint32","internalType":"uint32"},{"name":"sender","type":"bytes32","internalType":"bytes32"}]},{"type":"error","name":"OwnableInvalidOwner","inputs":[{"name":"owner","type":"address","internalType":"address"}]},{"type":"error","name":"OwnableUnauthorizedAccount","inputs":[{"name":"account","type":"address","internalType":"address"}]},{"type":"error","name":"ReentrancyGuardReentrantCall","inputs":[]},{"type":"error","name":"SafeCastOverflowedUintDowncast","inputs":[{"name":"bits","type":"uint8","internalType":"uint8"},{"name":"value","type":"uint256","internalType":"uint256"}]},{"type":"error","name":"SafeERC20FailedOperation","inputs":[{"name":"token","type":"address","internalType":"address"}]},{"type":"error","name":"UUPSUnauthorizedCallContext","inputs":[]},{"type":"error","name":"UUPSUnsupportedProxiableUUID","inputs":[{"name":"slot","type":"bytes32","internalType":"bytes32"}]}],"bytecode":{"object":"0x60a0806040523461002b5730608052615b549081620000318239608051818181610ce30152610e1b0152f35b600080fdfe6080604052600436101561001257600080fd5b60003560e01c80630d14c92e1461030757806313137d651461030257806317442b70146102fd578063254bba5c146102f85780632bb2ea62146102f35780633400288b146102ee57806341eddbbd146102e957806346696df3146102e45780634721bae8146102df5780634baf580d146102da5780634cae95d3146102d55780634f1ef286146102d057806352d1902d146102cb5780635e280f11146102c65780636f71ccb1146102c15780637038fc4e146102bc578063704b6c02146102b7578063715018a6146102b257806376a3fb3e146102ad57806378fdaf3f146102a85780637bf5e245146102a35780637d25a05e1461029e57806382413eac14610299578063868c10d214610294578063880e8e3b1461028f5780638da5cb5b1461028a578063a4cdc59714610285578063a736596c14610280578063ad2930341461027b578063ad3cb1cc14610276578063b3013d4d14610271578063b87c3dc31461026c578063bb0b6a5314610267578063ca5eb5e114610262578063cc2a9a5b1461025d578063d4f113e614610258578063dabd360a14610253578063dc55b1931461024e578063dc91e75214610249578063df6f05e714610244578063e2b19ff01461023f578063ef543d5c1461023a578063f0f4426014610235578063f2fde38b14610230578063f57ff39c1461022b578063f851a440146102265763ff7bd03d1461022157600080fd5b612048565b61201f565b611ff5565b611fc8565b611ed7565b611e27565b611dc4565b611d9d565b611d7f565b611d17565b611c73565b611c55565b611ae2565b611a67565b611a2c565b61181d565b611784565b61173e565b611571565b61142d565b6113e1565b6113ab565b61135a565b61122d565b6111cf565b6111a8565b6110a4565b61103a565b61101c565b610fae565b610ee9565b610ec0565b610e9c565b610e73565b610e08565b610ca1565b610aae565b610a32565b610950565b6107c8565b6106b6565b61062f565b610611565b610535565b6104e4565b6103f8565b61031f565b63ffffffff81160361031a57565b600080fd5b3461031a57602036600319011261031a5763ffffffff6004356103418161030c565b61035660018060a01b0360085416331461248d565b1680156103705763ffffffff19601d541617601d55600080f35b60405162461bcd60e51b81526020600482015260116024820152704549442063616e2774206265207a65726f60781b6044820152606490fd5b606090600319011261031a57600490565b9181601f8401121561031a578235916001600160401b03831161031a576020838186019501011161031a57565b6001600160a01b0381160361031a57565b60e036600319011261031a5761040d366103a9565b6001600160401b0360843581811161031a5761042d9036906004016103ba565b9161043960a4356103e7565b60c43590811161031a576104519036906004016103ba565b50506000546001600160a01b031633036104c1576104766104718461525d565b615460565b92602081013580940361048f5761048d838361537d565b005b610499849161525d565b60405163309afaf360e21b815263ffffffff9190911660048201526024810191909152604490fd5b6040516391ac5e4f60e01b8152336004820152602490fd5b600091031261031a57565b3461031a57600036600319011261031a57604080516001815260026020820152f35b6001600160401b0381160361031a57565b6001600160801b0381160361031a57565b359061053382610517565b565b604036600319011261031a5760043561054d81610506565b60243561055981610517565b6105616158ef565b6006546040516326d2a55160e21b8152600560048201529290602090849060249082906000906001600160a01b03165af192831561060c576105b5936105b0916000916105de575b50156124d2565b613826565b61048d60017f9b779b17422d0df92223018b32b4d1fa46e071723d6817e2486d003becc55f0055565b6105ff915060203d8111610605575b6105f78183610bd8565b81019061246e565b386105a9565b503d6105ed565b61231a565b3461031a57600036600319011261031a576020600d54604051908152f35b3461031a57604036600319011261031a577f238399d427b947898edb290f5ff0f9109849b1c3ba196a42e35f00c50a54b98b60043561066d8161030c565b602435906106796158b6565b63ffffffff81166000526001602052816040600020556106b1604051928392836020909392919363ffffffff60408201951681520152565b0390a1005b3461031a57602036600319011261031a5760043560ff811680820361031a576106ea60018060a01b0360085416331461248d565b156107885760065461070c906001600160a01b03165b6001600160a01b031690565b604051631f71924f60e31b8152600860048201529190602090839060249082906000905af191821561060c5761048d9261074e9160009161076a575b50612486565b60105460ff60801b191660809190911b60ff60801b1617601055565b610782915060203d8111610605576105f78183610bd8565b38610748565b60405162461bcd60e51b815260206004820152601860248201527755534461206c696d69742063616e2774206265207a65726f60401b6044820152606490fd5b606036600319011261031a576004356107e081610517565b6024356107ec81610506565b604435906107f982610506565b6108016158ef565b600680546040516326d2a55160e21b81526004810192909252909390602090859060249082906000906001600160a01b03165af193841561060c576105b594610852916000916105de5750156124d2565b61467b565b916101a06105339294936101c081019561087a8282516001600160401b03169052565b6020810151602083015261089e604082015160408401906001600160401b03169052565b606081015160608301526108bb6080820151608084019015159052565b60a0818101516001600160801b03169083015260c0818101516001600160801b03169083015260e08181015115159083015261010081810151151590830152610120818101516001600160801b031690830152610140818101516001600160801b031690830152610160818101516001600160801b031690830152610180809101519082015201906001600160401b03169052565b3461031a57604036600319011261031a5760043561096d816103e7565b610a1f610a19610a0c610a0660243561098581610506565b60405161099181610b1c565b6101806000918281528260208201528260408201528260608201528260808201528260a08201528260c08201528260e082015282610100820152826101208201528261014082015282610160820152015260016109ed87611340565b01906001600160401b0316600052602052604060002090565b93611340565b546001600160401b031690565b91615156565b610a2e60405192839283610857565b0390f35b3461031a57602036600319011261031a57600435610a4f81610517565b600354610a7190336001600160a01b0391821614908115610aa0575b50614a5a565b60018060801b0316600e54818103908111610a9b57600e55601854908103908111610a9b57601855005b61233c565b9050600a5416331438610a6b565b3461031a57602036600319011261031a5760035460043590610ae490336001600160a01b0391821614908115610aa05750614a5a565b600f54818103908111610a9b57600f55601954908103908111610a9b57601955005b634e487b7160e01b600052604160045260246000fd5b6101a081019081106001600160401b03821117610b3857604052565b610b06565b608081019081106001600160401b03821117610b3857604052565b6001600160401b038111610b3857604052565b604081019081106001600160401b03821117610b3857604052565b60e081019081106001600160401b03821117610b3857604052565b606081019081106001600160401b03821117610b3857604052565b61022081019081106001600160401b03821117610b3857604052565b90601f801991011681019081106001600160401b03821117610b3857604052565b6040519061053382610b3d565b6040519061053382610b6b565b6040519060a082018281106001600160401b03821117610b3857604052565b6040519061053382610b1c565b6001600160401b038111610b3857601f01601f191660200190565b81601f8201121561031a57803590610c7182610c3f565b92610c7f6040519485610bd8565b8284526020838301011161031a57816000926020809301838601378301015290565b604036600319011261031a576004803590610cbb826103e7565b6024356001600160401b03811161031a57610cd99036908301610c5a565b6001600160a01b037f00000000000000000000000000000000000000000000000000000000000000008116308114908115610dec575b50610ddb579060208392610d216158b6565b6040516352d1902d60e01b8152938491829088165afa60009281610dab575b50610d6e575050604051634c9c8ce360e01b81526001600160a01b0390921690820190815281906020010390fd5b8383600080516020615adf8339815191528403610d8f5761048d8383615931565b604051632a87526960e21b815290810184815281906020010390fd5b610dcd91935060203d8111610dd4575b610dc58183610bd8565b810190612672565b9138610d40565b503d610dbb565b60405163703e46dd60e11b81528390fd5b905081600080516020615adf8339815191525416141538610d0f565b3461031a57600036600319011261031a577f00000000000000000000000000000000000000000000000000000000000000006001600160a01b03163003610e61576020604051600080516020615adf8339815191528152f35b60405163703e46dd60e11b8152600490fd5b3461031a57600036600319011261031a576000546040516001600160a01b039091168152602090f35b3461031a57600036600319011261031a57602060ff60105460801c16604051908152f35b3461031a57600036600319011261031a57600b546040516001600160801b039091168152602090f35b3461031a57602036600319011261031a57600435610f06816103e7565b610f0e6158b6565b6001600160a01b038116151580610fa0575b610f29906123f5565b600654610f3e906001600160a01b0316610700565b604051631f71924f60e31b81526004808201529190602090839060249082906000905af191821561060c5761048d92610f7e9160009161076a5750612486565b600880546001600160a01b0319166001600160a01b0392909216919091179055565b50803b151560011415610f20565b3461031a5760008060031936011261101957610fc86158b6565b600080516020615a9f83398151915280546001600160a01b0319811690915581906001600160a01b03167f8be0079c531659141344cd1fd0a4f28419497f9722a3daafe3b4186f6b6457e08280a380f35b80fd5b3461031a57600036600319011261031a576020601154604051908152f35b3461031a57602036600319011261031a57600435611057816103e7565b61108360018060a01b036110708160085416331461248d565b8216918215159081611099575b506148bd565b600380546001600160a01b031916919091179055005b90503b15153861107d565b3461031a57602036600319011261031a576004356110c181610506565b6110d660018060a01b0360085416331461248d565b6001600160401b03811615611168576006546110fa906001600160a01b0316610700565b604051631f71924f60e31b8152600960048201529190602090839060249082906000905af191821561060c5761048d9261113b9160009161076a5750612486565b6010805467ffffffffffffffff60881b191660889290921b67ffffffffffffffff60881b16919091179055565b60405162461bcd60e51b815260206004820152601860248201527755534454206c696d69742063616e2774206265207a65726f60401b6044820152606490fd5b3461031a57604036600319011261031a576111c460043561030c565b602060405160008152f35b3461031a5760a036600319011261031a576111e9366103a9565b506064356001600160401b03811161031a576112099036906004016103ba565b50506020608435611219816103e7565b6040516001600160a01b0390911630148152f35b3461031a57602036600319011261031a5760043561124a81610506565b61125f60018060a01b0360085416331461248d565b6001600160401b038116156112f157600654611283906001600160a01b0316610700565b604051631f71924f60e31b8152600260048201529190602090839060249082906000905af191821561060c5761048d926112c49160009161076a5750612486565b600c805467ffffffffffffffff60401b191660409290921b67ffffffffffffffff60401b16919091179055565b60405162461bcd60e51b815260206004820152602160248201527f57697468647261772074696d65206c696d69742063616e2774206265207a65726044820152606f60f81b6064820152608490fd5b6001600160a01b0316600090815260146020526040902090565b3461031a57602036600319011261031a57600435611377816103e7565b60018060a01b031660005260146020526040806000205460ff8251916001600160401b0381168352831c1615156020820152f35b3461031a57600036600319011261031a57600080516020615a9f833981519152546040516001600160a01b039091168152602090f35b3461031a57602036600319011261031a576004356113fe816103e7565b61141760018060a01b036110708160085416331461248d565b600a80546001600160a01b031916919091179055005b3461031a57600036600319011261031a576020601954604051908152f35b60243590600382101561031a57565b3590600382101561031a57565b60809060a319011261031a576040519061148082610b3d565b8160a43561148d81610517565b815260c43561149b81610517565b602082015260e4356114ac81610517565b6040820152606061010435910152565b608090602319011261031a57604051906114d582610b3d565b816024356114e281610517565b81526044356114f081610517565b602082015260643561150181610517565b60408201526060608435910152565b919082608091031261031a5760405161152881610b3d565b6060808294803561153881610517565b8452602081013561154881610517565b6020850152604081013561155b81610517565b60408501520135910152565b8015150361031a57565b3461031a5761018036600319011261031a5760043561158f8161030c565b61159761144b565b6115a036611467565b9161012435906115af82610517565b61014435936001600160401b03851161031a57611677611613946115da611693973690600401610c5a565b61162161016435926115eb84611567565b6115f3614904565b506040988998895197889360843590606435906044359060208801614e26565b03601f198101865285610bd8565b611629614904565b5060005461163f906001600160a01b0316610700565b9361164986615460565b611660611654610c13565b63ffffffff9098168852565b602087015286860152606085015215156080840152565b82518080968194631bb8518b60e31b83523090600484016154ac565b03915afa90811561060c57610a2e926000926116c7575b505191829182815181526020918201519181019190915260400190565b816116e89293503d84116116ef575b6116e08183610bd8565b810190615498565b90386116aa565b503d6116d6565b60005b8381106117095750506000910152565b81810151838201526020016116f9565b90602091611732815180928185528580860191016116f6565b601f01601f1916010190565b3461031a57600036600319011261031a57610a2e60405161175e81610b6b565b60058152640352e302e360dc1b6020820152604051918291602083526020830190611719565b3461031a5760a036600319011261031a576004356117a181610517565b600260606117ae366114bc565b6003546117cf90336001600160a01b0391821614908115610aa05750614a5a565b60018060801b0380941660005260156020526118166040600020946117f7818451168761208e565b61180781602085015116876120ad565b6040830151166001860161208e565b0151910155005b602036600319011261031a5760043561183581610517565b60035461185690336001600160a01b0391821614908115610aa05750614a5a565b600d54600e54601854601c5491939092916004906001600160801b0316815460209061188a906001600160a01b0316610700565b6040516354dec33960e11b815293849182905afa90811561060c57606095611905936000936119fc575b5060405163bbfefd7360e01b81526001600160801b0395861660048201526024810196909652604486019790975260648501969096529482166084840152931660a4820152918290819060c4820190565b038173__$f36c2562f94d083e3ab2b3584d2e5eda55$__5af490811561060c5761196a91600090819082906119c0575b601c80546001600160801b0319166001600160801b0390921691909117905590915061196590601855565b601855565b600e55565b61048d61197d611978615717565b615731565b601d5463ffffffff166119b182611992610bf9565b6000815260006020820152600060408201526000606082015283615038565b906119ba61296b565b90614ee2565b5050506119656119e96119609260603d81116119f5575b6119e18183610bd8565b810190614ad7565b91935083925090611935565b503d6119d7565b611a1e91935060203d8111611a25575b611a168183610bd8565b81019061278c565b91386118b4565b503d611a0c565b3461031a57602036600319011261031a5763ffffffff600435611a4e8161030c565b1660005260016020526020604060002054604051908152f35b3461031a576000602036600319011261101957600435611a86816103e7565b611a8e6158b6565b81546001600160a01b0390811691839190833b15611ade5760249083604051958694859363ca5eb5e160e01b85521660048401525af1801561060c57611ad2575080f35b611adb90610b58565b80f35b8280fd5b3461031a5760c036600319011261031a57600435611aff816103e7565b60243590611b0c826103e7565b604435611b18816103e7565b606435611b24816103e7565b60843590611b31826103e7565b60a43592611b3e846103e7565b600080516020615aff83398151915254956001600160401b0360ff8860401c1615971680159081611c4d575b6001149081611c43575b159081611c3a575b50611c2857600080516020615aff833981519152805467ffffffffffffffff19166001179055611bb09587611c03576120ec565b611bb657005b600080516020615aff833981519152805460ff60401b19169055604051600181527fc7f505b2f371ae2175ee4913f4499e1f2633a7b5936321eed1cdaeb6115181d29080602081016106b1565b600080516020615aff833981519152805460ff60401b1916600160401b1790556120ec565b60405163f92ee8a960e01b8152600490fd5b90501538611b7c565b303b159150611b74565b889150611b6a565b3461031a57600036600319011261031a576020601754604051908152f35b60a036600319011261031a57600435611c8b81610517565b602435611c9781610517565b604435611ca381611567565b60643590611cb082610517565b60843592611cbd84610517565b611cc56158ef565b6006546040516326d2a55160e21b81526004808201529590602090879060249082906000906001600160a01b03165af195861561060c576105b596611d12916000916105de5750156124d2565b6129c1565b3461031a57602036600319011261031a57600435611d3481610517565b600354611d5590336001600160a01b0391821614908115610aa05750614a5a565b60018060801b0316600d54818103908111610a9b57600d55601754908103908111610a9b57601755005b3461031a57600036600319011261031a576020600f54604051908152f35b3461031a57600036600319011261031a5760206001600160401b03600c5416604051908152f35b3461031a57600036600319011261031a576002546040516001600160a01b039091168152602090f35b610533909291926040806080830195805184526001600160401b036020820151166020850152015191019060208091805184520151910152565b6101a036600319011261031a57600435611e408161030c565b611e4861144b565b611e5136611467565b9061012435611e5f81610517565b60403661014319011261031a5760405190611e7982610b6b565b61014435825261016435602083015261018435936001600160401b03851161031a57610a2e95611eb0611ecb963690600401610c5a565b94611eb9614c66565b50608435916064359160443591614c8e565b60405191829182611ded565b3461031a57602036600319011261031a57600435611ef4816103e7565b6008546001600160a01b0390611f0d908216331461248d565b811680151580611fbe575b611f21906148bd565b600654611f36906001600160a01b0316610700565b604051631f71924f60e31b8152600660048201529290602090849060249082906000905af190811561060c57611f7a611f9c9261048d9560009161076a5750612486565b600980546001600160a01b0319166001600160a01b0392909216919091179055565b600480546001600160a01b0319166001600160a01b0392909216919091179055565b50813b1515611f18565b3461031a57602036600319011261031a5761048d600435611fe8816103e7565b611ff06158b6565b615842565b3461031a57600036600319011261031a5760206001600160401b0360105460881c16604051908152f35b3461031a57600036600319011261031a576008546040516001600160a01b039091168152602090f35b3461031a57606036600319011261031a576020612064366103a9565b63ffffffff81356120748161030c565b166000526001825260406000205482604051920135148152f35b80546001600160801b0319166001600160801b03909216919091179055565b80546001600160801b031660809290921b6001600160801b031916919091179055565b60135460ff60801b191690151560801b60ff60801b1617601355565b9490926120f833615842565b60ff600080516020615aff8339815191525460401c16156122f1576001600160a01b0394851680156122df57600080546001600160a01b0319166001600160a01b03909216919091179055848216156122cd57600054612160906001600160a01b0316610700565b803b1561031a5760405163ca5eb5e160e01b81526001600160a01b039390931660048401526000908390602490829084905af1801561060c5785612218946121d48261223a9a81976121f6966122b4575b5060028054919092166001600160a01b03166001600160a01b0319909116179055565b60078054919092166001600160a01b03166001600160a01b0319909116179055565b60068054919092166001600160a01b03166001600160a01b0319909116179055565b60058054919092166001600160a01b03166001600160a01b0319909116179055565b612267612245612361565b600b80546001600160801b0319166001600160801b0392909216919091179055565b600b80546001600160801b0319608082901b166001600160801b03909116179055601c80546001600160801b03191664e8d4a510001790556013805460ff60801b1916600160801b179055565b806122c16122c792610b58565b806104d9565b386121b1565b604051632d618d8160e21b8152600490fd5b604051638ad182f960e01b8152600490fd5b604051631afcd79f60e31b8152600490fd5b519069ffffffffffffffffffff8216820361031a57565b6040513d6000823e3d90fd5b634e487b7160e01b600052601260045260246000fd5b634e487b7160e01b600052601160045260246000fd5b811561235c570490565b612326565b600554604051633fabe5a360e21b81529060a090829060049082906001600160a01b03165afa90811561060c576000916123a9575b50620f424090046001600160801b031690565b9060a0823d82116123ed575b816123c260a09383610bd8565b8101031261101957506123d481612303565b506123e6608060208301519201612303565b5038612396565b3d91506123b5565b156123fc57565b60405162461bcd60e51b815260206004820152602e60248201527f41646d696e2063616e277420626520636f6e747261637420616464726573732060448201526d26207a65726f206164647265737360901b6064820152608490fd5b634e487b7160e01b600052602160045260246000fd5b9081602091031261031a575161248381611567565b90565b1561031a57565b1561249457565b60405162461bcd60e51b815260206004820152601660248201527521b0b63632b91034b9903737ba1030b71030b236b4b760511b6044820152606490fd5b156124d957565b60405162461bcd60e51b815260206004820152600660248201526514185d5cd95960d21b6044820152606490fd5b6001600160801b0390811660010191908211610a9b57565b6001600160801b039182169082160191908211610a9b57565b1561253f57565b60405162461bcd60e51b815260206004820152602160248201527f4465706f73697420616d6f756e742073686f756c64206e6f74206265207a65726044820152606f60f81b6064820152608490fd5b1561259557565b60405162461bcd60e51b815260206004820152603660248201527f4c69717569646174696f6e20616d6f756e742063616e27742067726561746572604482015275081d1a185b8819195c1bdcda5d195908185b5bdd5b9d60521b6064820152608490fd5b9064e8d4a5100091828102928184041490151715610a9b57565b81810292918115918404141715610a9b57565b1561262d57565b60405162461bcd60e51b815260206004820152601c60248201527f5265717569726564205553446120616d6f756e74206e6f74206d6574000000006044820152606490fd5b9081602091031261031a575190565b1561268857565b60405162461bcd60e51b815260206004820152602960248201527f496e73756666696369656e7420555344612062616c616e63652077697468206d60448201526839b39739b2b73232b960b91b6064820152608490fd5b91908201809211610a9b57565b156126f357565b60405162461bcd60e51b815260206004820152601b60248201527f31303025206f6620616d6f756e74206d757374206265205553445400000000006044820152606490fd5b1561273f57565b60405162461bcd60e51b815260206004820152600d60248201526c13dc9858db194811985a5b1959609a1b6044820152606490fd5b6001600160401b03809116908114610a9b5760010190565b9081602091031261031a575161248381610517565b156127a857565b60405162461bcd60e51b815260206004820152602960248201527f496e73756666696369656e7420555344542062616c616e63652077697468206d60448201526839b39739b2b73232b960b91b6064820152608490fd5b6001600160a01b039182168152911660208201526001600160801b03909116604082015260600190565b1561283057565b60405162461bcd60e51b815260206004820152602360248201527f55534454205472616e73666572206661696c656420696e20434453206465706f6044820152621cda5d60ea1b6064820152608490fd5b1561288857565b60405162461bcd60e51b815260206004820152602360248201527f55534461205472616e73666572206661696c656420696e20434453206465706f6044820152621cda5d60ea1b6064820152608490fd5b6001600160a01b0390911681526001600160801b03909116602082015260400190565b1561290357565b60405162461bcd60e51b815260206004820152602b60248201527f55534461206d696e7420746f207472656173757279206661696c656420696e2060448201526a10d114c819195c1bdcda5d60aa1b6064820152608490fd5b6003111561296657565b612458565b6040519061297882610b86565b6016546001600160401b03168252601754602083015260185460408301526019546060830152601a546080830152601b5460a0830152601c546001600160801b031660c0830152565b929091936129de6129d2848661251f565b6001600160801b031690565b6129e9811515612538565b6001600160801b0390612a0084831682101561258e565b601154601054906001600160401b039183838260881c1691828410600014613295575050612a31858a1680936126df565b1161325a5782612a4191146126ec565b612a4e8385161515612738565b612a6b612a67612a5d33611340565b5460401c60ff1690565b1590565b1561321757612a8f612a7c33611340565b805460ff60401b1916600160401b179055565b612aaf612a9b33611340565b805467ffffffffffffffff19166001179055565b600192612aeb612acf612aca600c546001600160401b031690565b612774565b6001600160401b03166001600160401b0319600c541617600c55565b612b1f612b03612aca6016546001600160401b031690565b6001600160401b03166001600160401b03196016541617601655565b6001918383612b3287826109ed33611340565b0155612b6e866004612b4888876109ed33611340565b018054610100600160881b03191660089290921b610100600160881b0316919091179055565b612cbf612ca4612b7d88614957565b8051909690612b9d906001600160801b0316602098890151151590614b1d565b601354612bc3906001600160801b03166005612bbd8b8a6109ed33611340565b0161208e565b601354612bff9060801c60ff166005612be08b8a6109ed33611340565b018054909160ff60801b1990911690151560801b60ff60801b16179055565b612c13612c0e82600d546126df565b600d55565b612c2261196582600e546126df565b612c36612c31826017546126df565b601755565b612c45611960826018546126df565b612c9f858d1694612c60612c5b876011546126df565b601155565b612c74612c6f87601a546126df565b601a55565b4216612c848a896109ed33611340565b906001600160401b03166001600160401b0319825416179055565b6125f9565b601c54612cb9906001600160801b03166129d2565b90612352565b6008612ccf87866109ed33611340565b015589612d04816005612ce689886109ed33611340565b01805460ff60881b191691151560881b60ff60881b16919091179055565b61314a575b600b54612d1e906001600160801b03166129d2565b8287160361313c575b8015801580938194613130575b50156130315750600754612d50906001600160a01b0316610700565b6040516370a0823160e01b815233600482015290918582602481865afa801561060c57612d8792600091613014575b5010156127a1565b6009546000908590612dbd906001600160a01b0316938c6040519485809481936323b872dd60e01b998a845233600485016127ff565b03925af190811561060c57612e2392612de58688948d94600091612ff7575b50151514612829565b600254612dfa906001600160a01b0316610700565b6009549091906000906001600160a01b03169160405196879586948593845233600485016127ff565b03925af190811561060c57612e45918491600091612fda575b50151514612881565b612f20575b5091612f1b9391612ebc7f135b90494e4bfddd44112e8e67fd1a5958d33a1944a77f8a4b1ac6e945e684da9894612e82611978615717565b906119b182612e96601d5463ffffffff1690565b926000612ea1610bf9565b91818352820152600060408201526000606082015283615038565b50604080513381526001600160401b0390921660208301526001600160801b03968716908201529585166060870152426080870152841660a0860152603c60c08601529290921660e08401529015156101008301528190610120820190565b0390a1565b939181612f6898949288612f3e61070060025460018060a01b031690565b6009546001600160a01b03166000604051809e819582946340c10f1960e01b8452600484016128d9565b03925af190811561060c57612fb1612f1b97612ebc937f135b90494e4bfddd44112e8e67fd1a5958d33a1944a77f8a4b1ac6e945e684da9c600091612fbd575b501515146128fc565b92949850509193612e4a565b612fd49150843d8611610605576105f78183610bd8565b38612fa8565b612ff19150863d8811610605576105f78183610bd8565b38612e3c565b61300e9150863d8811610605576105f78183610bd8565b38612ddc565b61302b9150873d8911610dd457610dc58183610bd8565b38612d7f565b156130a5575060025461307f9084908990613054906001600160a01b0316610700565b6009546001600160a01b031660006040518096819582946323b872dd60e01b845233600485016127ff565b03925af190811561060c576130a0918491600091612fda5750151514612881565b612e45565b6007546130ba906001600160a01b0316610700565b6040516370a0823160e01b815233600482015291908583602481845afa90811561060c5761305487938d936130f896600091613119575010156127a1565b03925af190811561060c576130a0918491600091612ff75750151514612829565b61302b9150863d8811610dd457610dc58183610bd8565b90508916151538612d34565b61314586613333565b612d27565b6003546004908590613164906001600160a01b0316610700565b604051631360632760e21b815292839182905afa801561060c5761319b916000916131fa575b506007612bbd88876109ed33611340565b6131b58760066131af88876109ed33611340565b016120ad565b6131c9876006612bbd88876109ed33611340565b6131df6131da838916600f546126df565b600f55565b6131f56131f08389166019546126df565b601955565b612d09565b6132119150863d8811611a2557611a168183610bd8565b3861318a565b61322033611340565b613254613237612aca83546001600160401b031690565b825467ffffffffffffffff19166001600160401b03821617909255565b92612b1f565b60405162461bcd60e51b815260206004820152601360248201527214dd5c9c1b1d5cc81554d11508185b5bdd5b9d606a1b6044820152606490fd5b6132b193506132aa925060801c60ff16612613565b6064900490565b6132c084881691821015612626565b6002546132d5906001600160a01b0316610700565b6040516370a0823160e01b81523360048201529190602090839060249082905afa801561060c5761331092600091613315575b501015612681565b612a41565b61332d915060203d8111610dd457610dc58183610bd8565b38613308565b600b805460801b6001600160801b0319166001600160801b0392909216919091179055565b1561335f57565b60405162461bcd60e51b815260206004820152602560248201527f7573657220646f65736e277420686176652074686520737065636966696564206044820152640d2dcc8caf60db1b6064820152608490fd5b156133b957565b60405162461bcd60e51b815260206004820152601160248201527020b63932b0b23c903bb4ba34323930bbb760791b6044820152606490fd5b9190916001600160401b0380809416911601918211610a9b57565b1561341457565b60405162461bcd60e51b815260206004820152602e60248201527f63616e6e6f74207769746864726177206265666f72652074686520776974686460448201526d1c985dc81d1a5b59481b1a5b5a5d60921b6064820152608490fd5b6001600160401b03168015610a9b576000190190565b91908203918211610a9b57565b919082604091031261031a576040516134ab81610b6b565b6020808294805184520151910152565b9060808282031261031a576134f59060408051936134d885610ba1565b8051855260208101516134ea81610506565b602086015201613493565b604082015290565b6002815281516001600160a01b031660208083019190915290910151604082015260a081019291610533916060905b82516001600160a01b03169101908152602091820151910152565b9392909160a085019460058410156129665792835280516001600160a01b0316602080850191909152015160408301526105339160609061352c565b6001600160a01b03918216815291166020820152604081019190915260600190565b156135ac57565b60405162461bcd60e51b815260206004820152601f60248201527f5472616e73666572206661696c656420696e20636473207769746864726177006044820152606490fd5b6001600160801b03908116908114610a9b5760010190565b9060405161361681610b3d565b82546001600160801b03808216835260809190911c602083015260018401541660408201526002909201546060830152565b6001600160801b039081166402540be4000290811691908203610a9b57565b6001600160801b039182169082160290811691908203610a9b57565b6001600160801b039182169190821561235c57160490565b6001600160801b039182169082160391908211610a9b57565b156136bb57565b60405162461bcd60e51b815260206004820152601e60248201527f5472616e7373756363657373656420696e2063647320776974686472617700006044820152606490fd5b94926001600160401b0360e097939a999895929a61010088019b60018060a01b031688521660208701526040860152606085015260018060801b0380921660808501521660a083015260c08201520152565b9081602091031261031a575161248381610506565b1561376e57565b60405162461bcd60e51b815260206004820152601b60248201527f4344533a204e6f7420656e6f7567682066756e6420696e2043445300000000006044820152606490fd5b3d156137de573d906137c482610c3f565b916137d26040519384610bd8565b82523d6000602084013e565b606090565b156137ea57565b60405162461bcd60e51b81526020600482015260146024820152732330b4b632b2103a379039b2b7321022ba3432b960611b6044820152606490fd5b6001600160401b0361384b61383d610a0c33611340565b828416928391161015613358565b61387061386a60046138628560016109ed33611340565b015460ff1690565b156133b2565b6001600160401b034216906138b9826001600160401b036138b161389c610a0c8860016109ed33611340565b600c5460401c6001600160401b0316906133f2565b16111561340d565b6138db60046138cd8560016109ed33611340565b01805460ff19166001179055565b60016001600160401b036138f1610a0c33611340565b16149081614542575b50614520575b6139146001600160801b0384161515612738565b61396e61395661394b600861392e8660016109ed33611340565b0154601c54613945906001600160801b03166129d2565b90612613565b64e8d4a51000900490565b600161396685826109ed33611340565b015490613486565b61398981600161398286826109ed33611340565b01546126df565b936139d861399683614bea565b938660036139a98860016109ed33611340565b015560026139bc8760016109ed33611340565b01906001600160401b03166001600160401b0319825416179055565b6139e3611978615717565b94613a1f866139f7601d5463ffffffff1690565b86613a00610bf9565b916000835260006020840152600060408401526000606084015261510b565b95600091613a426005613a378960016109ed33611340565b015460881c60ff1690565b1561433857613a7090613a6a6129d26006613a628b60016109ed33611340565b015460801c90565b90613486565b9460046020613a8961070060035460018060a01b031690565b604051631360632760e21b815292839182905afa90811561060c57600091614319575b50613acf6007613ac18a60016109ed33611340565b01546001600160801b031690565b6001600160801b038181169083161015613cd0575b50505b60048054602090613b00906001600160a01b0316610700565b604051639cac625160e01b815292839182905afa90811561060c57600091613cb1575b50613be5575b91613b8d859492600080516020615abf83398151915299612f1b9795613b596129d2600b5460018060801b031690565b6001600160801b03871603613bd7575b801580613bc6575b613b9d575b601d5463ffffffff16613b8761296b565b90614f94565b5060405196879642913389613700565b613bc16000808080613bb0875134613486565b335af1613bbb6137b3565b506137e3565b613b76565b506001600160801b03851615613b71565b613be086613333565b613b69565b600354909493919290613c00906001600160a01b0316610700565b60405163ada0b0ed60e01b81526000600482018190526001600160801b0385166024830152909491602091869160449183915af190811561060c57600080516020615abf83398151915299612f1b97613c73614e206001600160401b03613b8d968b9a600091613c82575b501611613767565b93955099509294955050613b29565b613ca4915060203d602011613caa575b613c9c8183610bd8565b810190613752565b38613c6b565b503d613c92565b613cca915060203d602011610dd457610dc58183610bd8565b38613b23565b613cd990612507565b6001600160801b03828116908216111561420d575050613d0f613d096129d26006613a628b60016109ed33611340565b876126df565b6001600160801b03841661414957613d3d612c0e6001613d338b826109ed33611340565b0154600d54613486565b613d5d612c316001613d538b826109ed33611340565b0154601754613486565b613d90611965613d886001613d768c826109ed33611340565b0154613d82868b613486565b906126df565b600e54613486565b613db2611960613daa8860016139828d826109ed33611340565b601854613486565b811580159060008280614138575b156140e957506002915b906140d7575b614004575b50806003613de88a60016109ed33611340565b0155600454613dff906001600160a01b0316610700565b803b1561031a57604051635e44fb0560e01b815230600482015260248101839052906000908290604490829084905af1801561060c57613ff1575b50600254613e85906020908390613e59906001600160a01b0316610700565b6009546001600160a01b031660006040518096819582946323b872dd60e01b8452339060048501613583565b03925af190811561060c57613ea891600191600091613fd2575b501515146136b4565b876001600160801b038516613ee8575b600080516020615abf83398151915291613ede8880898960405196879642913389613700565b0390a13880613ae4565b50600454613efe906001600160a01b0316610700565b803b1561031a5760405163cd0220c960e01b81526001600160801b038616600482015260006024820181905290918290604490829084905af1801561060c57613fbf575b50600454613f58906001600160a01b0316610700565b90813b1561031a5760006040518093635822b66d60e01b8252818381613f828b33600484016128d9565b03925af190811561060c57600080516020615abf833981519152928a92613fac575b509150613eb8565b806122c1613fb992610b58565b38613fa4565b806122c1613fcc92610b58565b38613f42565b613feb915060203d602011610605576105f78183610bd8565b38613e9f565b806122c1613ffe92610b58565b38613e3a565b60045461409a91608091614020906001600160a01b0316610700565b61402b8d5134613486565b6009546001600160a01b03169290614041610c06565b6001600160a01b03851681529188602084015261406e61405f610c06565b6001600160a01b039096168652565b6000196001871b018b16602086015260405163f5dee49360e01b81529687958694859360048501613547565b03925af1801561060c5715613dd5576140c99060803d81116140d0575b6140c18183610bd8565b8101906134bb565b5038613dd5565b503d6140b7565b506001600160801b0385161515613dd0565b8180614126575b156140fe5750600391613dca565b918080614114575b15613dca5760049250613dca565b506001600160801b0387161515614106565b506001600160801b03871615156140f0565b506001600160801b03871615613dc0565b614184612c0e61417c8a613a6a6129d26006613a62600161416e86826109ed33611340565b01549460016109ed33611340565b600d54613486565b6141b1612c316141a98a613a6a6129d26006613a62600161416e86826109ed33611340565b601754613486565b6141df611965613d88846141da8c613a6a6129d26006613a62600161416e86826109ed33611340565b6126df565b614208611960613daa886141da8c613a6a6129d26006613a62600161416e86826109ed33611340565b613db2565b886142226006613a628360016109ed33611340565b6001600160801b038116614241575b505061423c906135f1565b613cd9565b956143096142c261430f936142bd6040879b6142fb61429d61428961428361427e61423c9d60018060801b03166000526015602052604060002090565b613609565b93613648565b60608401516001600160801b031690613683565b946142f560066142e36142d76142c28a6142bd895160018060801b031690565b613667565b6402540be4006001600160801b039091160490565b9360016109ed33611340565b01916142f0835460801c90565b61369b565b906120ad565b01516001600160801b031690565b9061251f565b9490508838614231565b614332915060203d602011611a2557611a168183610bd8565b38613aac565b9480614467575b614355612c0e6001613d338a826109ed33611340565b614365611965613d888389613486565b61437b612c316001613d538a826109ed33611340565b61438a61196087601854613486565b85600361439c8960016109ed33611340565b01556004546143b3906001600160a01b0316610700565b803b1561031a57604051635e44fb0560e01b815230600482015260248101889052906000908290604490829084905af1801561060c57614454575b5060025461440d906020908890613e59906001600160a01b0316610700565b03925af190811561060c5761443091600191600091614435575b501515146135a5565b613ae7565b61444e915060203d602011610605576105f78183610bd8565b38614427565b806122c161446192610b58565b386143ee565b6004546144ed90608090614483906001600160a01b0316610700565b61448e8b5134613486565b6009549091906001600160a01b03166144b76144a8610c06565b6001600160a01b039092168252565b8560208201526144c5610c06565b92600084526000602085015260405180968195829463f5dee49360e01b8452600484016134fd565b03925af1801561060c57614502575b5061433f565b6145199060803d81116140d0576140c18183610bd8565b50386144fc565b61453d612acf614538600c546001600160401b031690565b613470565b613900565b6001915014386138fa565b1561455457565b60405162461bcd60e51b8152602060048201526019602482015278416d6f756e742073686f756c64206e6f74206265207a65726f60381b6044820152606490fd5b1561459c57565b60405162461bcd60e51b8152602060048201526014602482015273496e73756666696369656e742062616c616e636560601b6044820152606490fd5b156145df57565b60405162461bcd60e51b815260206004820152601e60248201527f55534461204275726e206661696c656420696e2072656465656d5553445400006044820152606490fd5b1561462b57565b60405162461bcd60e51b815260206004820152602260248201527f55534454205472616e73666572206661696c656420696e2072656465656d5553604482015261111560f21b6064820152608490fd5b6001600160801b03811692909161469384151561454d565b6002546146a8906001600160a01b0316610700565b6040516370a0823160e01b8152336004820152602095918690829060249082905afa91821561060c576146ed8161470e94614709946000916148a0575b501015614595565b6147016146fc826012546126df565b601255565b601b546126df565b601b55565b600254614723906001600160a01b0316610700565b8460405180926363a9f09360e11b8252816000816147458a33600484016128d9565b03925af193841561060c5761476e60016147869661477e94600091614883575b501515146145d8565b6001600160401b03809316613667565b911690613683565b60045490919061479e906001600160a01b0316610700565b91823b1561031a576000604051809463e613610560e01b82528183816147c88730600484016128d9565b03925af190811561060c57614820938392614870575b506007546147f4906001600160a01b0316610700565b6009546001600160a01b031660006040518097819582946323b872dd60e01b84523390600485016127ff565b03925af1801561060c5760016148459161485094600091614853575b50151514614624565b612e82611978615717565b50565b61486a9150843d8611610605576105f78183610bd8565b3861483c565b806122c161487d92610b58565b386147de565b61489a9150893d8b11610605576105f78183610bd8565b38614765565b6148b791508a3d8c11610dd457610dc58183610bd8565b386146e5565b156148c457565b60405162461bcd60e51b8152602060048201526018602482015277125b9c1d5d081859191c995cdcc81a5cc81a5b9d985b1a5960421b6044820152606490fd5b6040519061491182610b6b565b60006020838281520152565b9081604091031261031a5760206040519161493783610b6b565b805161494281610517565b8352015161494f81611567565b602082015290565b600490614962614904565b50815460209061497a906001600160a01b0316610700565b6040516340d86d7b60e01b815293849182905afa91821561060c57600092614a37575b50600d54600b546040805163083fa09560e11b81526001600160801b0394851660048201526024810193909352928116604483015260801c606482015260848101929092528160a48173__$f36c2562f94d083e3ab2b3584d2e5eda55$__5af490811561060c57600091614a0f575090565b612483915060403d8111614a30575b614a288183610bd8565b81019061491d565b503d614a1e565b6040919250614a539060203d8111610dd457610dc58183610bd8565b919061499d565b15614a6157565b60405162461bcd60e51b815260206004820152604260248201527f546869732066756e6374696f6e2063616e206f6e6c792063616c6c656420627960448201527f20626f72726f77696e67206f72204c69717569646174696f6e20636f6e74726160648201526118dd60f21b608482015260a490fd5b9081606091031261031a578051916040602083015192015161248381610517565b919082604091031261031a5760208251614b1181611567565b92015161248381610517565b60135460408051632142426760e01b81526001600160801b0393841660048201529315156024850152608082901c60ff1615156044850152911660648301528160848173__$f36c2562f94d083e3ab2b3584d2e5eda55$__5af490811561060c57610533916000918291614bb6575b50601380546001600160801b0319166001600160801b039092169190911790556120d0565b6120d0565b614bb19250614bdc915060403d8111614be3575b614bd48183610bd8565b810190614af8565b9091614b8c565b503d614bca565b600d54601754600e54906018549260405194630a1f144d60e01b86526004860152602485015260448401526064830152608482015260208160a48173__$f36c2562f94d083e3ab2b3584d2e5eda55$__5af490811561060c57600091614c4e575090565b612483915060203d8111610dd457610dc58183610bd8565b60405190614c7382610ba1565b8160008152600060208201526040614c89614904565b910152565b96956124839895614ccc929395614cda95614cbd60018060a01b0380600354163314908115610aa05750614a5a565b60405197889660208801614e26565b03601f198101835282610bd8565b339361551a565b9060038210156129665752565b6060809160018060801b0380825116855280602083015116602086015260408201511660408501520151910152565b60018152610200810192916000916101e091614d9d906016546001600160401b03166020840152601754604084015260185460608401526019546080840152601a5460a0840152601b5460c0840152601c546001600160801b031660e0840152846101008401528461012084015284610140840152610160830190614cee565b0152565b6101e090614d9d6000939594610200830196614dbd8460029052565b6016546001600160401b03166020850152601754604085015260185460608501526019546080850152601a5460a0850152601b5460c0850152601c546001600160801b031660e08501526101008401528461012084015284610140840152610160830190614cee565b9194614ead919796946101e09461053397614e468661020081019c614ce1565b6016546001600160401b03166020870152601754604087015260185460608701526019546080870152601a5460a0870152601b5460c0870152601c546001600160801b031660e0870152610100860152610120850152610140840152610160830190614cee565b6001600160801b03909216910152565b60405190614eca82610b3d565b60006060838281528260208201528260408201520152565b91909261248393614ef1614c66565b50614f80614efd614ebd565b60405160016020820152926001600160401b0381511660408501526020810151606085015260408101516080850152606081015160a0850152608081015160c085015260a081015160e085015260c060018060801b0391015116610100840152600061012084015260006101408401526000610160840152610180830190614cee565b6102006000818301528152614cda81610bbc565b929190614f806124839592614fa7614c66565b50614fb0614ebd565b9060405193614fc26020860160029052565b6001600160401b0381511660408601526020810151606086015260408101516080860152606081015160a0860152608081015160c086015260a081015160e086015260c060018060801b039101511661010085015261012084015260006101408401526000610160840152610180830190614cee565b906150de9161506061506e9461504c614904565b506040958694855193849160208301614d1d565b03601f198101845283610bd8565b615076614904565b5060005461508c906001600160a01b0316610700565b9161509684615460565b6150ad6150a1610c13565b63ffffffff9096168652565b60208501528484015260608301526000608083015282518080958194631bb8518b60e31b83523090600484016154ac565b03915afa91821561060c576000926150f557505090565b6124839250803d106116ef576116e08183610bd8565b6150de9261506e9461511b614904565b506040958694615060865194859260208401614da1565b90606060029161514f60018060801b036117f7818451168761208e565b0151910155565b906008615161610c32565b9261518361517682546001600160401b031690565b6001600160401b03168552565b600181015460208501526151b46151a460028301546001600160401b031690565b6001600160401b03166040860152565b60038101546060850152600481015460ff81161515608086015261523f90831c6001600160801b0390811660a087015260058301546001600160801b038282161660c088015261521d9060ff90608081901c8216151560e08a015260881c161515610100880152565b60068301549081166001600160801b031661012087015260801c610140860152565b60078101546001600160801b03166101608501520154610180830152565b356124838161030c565b80820392610200841261031a5760e061527f8361145a565b94601f19011261031a5760405161529581610b86565b60208301356152a381610506565b815260408301356020820152606083013560408201526080830135606082015260a0830135608082015260c083013560a082015260e08301356152e581610517565b60c08201529261010083013592610120810135926124836101e0615313610140850135956101608601611510565b9301610528565b6001600160401b038151166001600160401b031960165416176016556020810151601755604081015160185560608101516019556080810151601a5560a0810151601b5560c060018060801b039101511660018060801b0319601c541617601c55565b6153c69160405161538d81610b86565b60c06000918281528260208201528260408201528260608201528260808201528260a082015201526153bd614ebd565b50810190615267565b9092956153d28161295c565b600181036153e9575050505050610533915061531a565b806153f560029261295c565b14615403575b505050505050565b6154316131da61544b93615429612c0e6154559a61417c6119656154509b600e54613486565b600f54613486565b6001600160801b0316600090815260156020526040902090565b615132565b61531a565b3880808080806153fb565b63ffffffff16806000526001602052604060002054908115615480575090565b6024906040519063f6ff4fb760e01b82526004820152fd5b9060408282031261031a5761248391613493565b906020909392936040835263ffffffff815116604084015281810151606084015260806155006154ea604084015160a08488015260e0870190611719565b6060840151868203603f190160a0880152611719565b910151151560c08401526001600160a01b03909416910152565b60809361558c6155a8969461552d614c66565b50602061553a84516155e5565b9301908151806155d6575b5060005461555b906001600160a01b0316610700565b9561556586615460565b9251151592615575611654610c13565b602087015260408601526060850152151586840152565b6040518096819582946302637a4560e41b8452600484016154ac565b03925af190811561060c576000916155be575090565b612483915060803d81116140d0576140c18183610bd8565b6155df90615607565b38615545565b8034106155ef5790565b6040516304fb820960e51b8152346004820152602490fd5b6000805460405163393f876560e21b81526020926001600160a01b039283169290918481600481875afa90811561060c5783916156e1575b50169384156156cf5761568792614ccc6156728493604051928391898301956323b872dd60e01b87523360248501613583565b519082875af16156806137b3565b90846159ef565b80519182151592836156b6575b50505061569e5750565b60249060405190635274afe760e01b82526004820152fd5b6156c6935082018101910161246e565b15388080615694565b6040516329b99a9560e11b8152600490fd5b90508481813d8311615710575b6156f88183610bd8565b81010312611ade575161570a816103e7565b3861563f565b503d6156ee565b604051600360f01b60208201526002815261248381610b6b565b61ffff9060038261574183615a52565b16036157e157604051610c3560861b6020820152601081529061576382610b6b565b60038361576f83615a52565b16036157bf5781518381116157a0578316600101928311610a9b57614ccc61248392604051948593602085016157ed565b604490604051906306dfcc6560e41b8252601060048301526024820152fd5b826157cb602492615a52565b604051633a51740d60e01b815291166004820152fd5b906157cb602492615a52565b6020906158046004959493828151948592016116f6565b600160f81b910181815260f09290921b6001600160f01b0319166001830152600382015281519161583d908390858401906020016116f6565b010190565b6001600160a01b0390811690811561589d57600080516020615a9f83398151915280546001600160a01b031981168417909155167f8be0079c531659141344cd1fd0a4f28419497f9722a3daafe3b4186f6b6457e0600080a3565b604051631e4fbdf760e01b815260006004820152602490fd5b600080516020615a9f833981519152546001600160a01b031633036158d757565b60405163118cdaa760e01b8152336004820152602490fd5b7f9b779b17422d0df92223018b32b4d1fa46e071723d6817e2486d003becc55f00600281541461591f5760029055565b604051633ee5aeb560e01b8152600490fd5b90813b156159b457600080516020615adf83398151915280546001600160a01b0319166001600160a01b0384169081179091557fbc7cd75a20ee27fd9adebab32041f755214dbc6bffa90cc0225b39da2e5c2d3b600080a280511561599957614850916159d5565b5050346159a257565b60405163b398979f60e01b8152600490fd5b604051634c9c8ce360e01b81526001600160a01b0383166004820152602490fd5b60008061248393602081519101845af46159ed6137b3565b915b90615a165750805115615a0457805190602001fd5b604051630a12f52160e11b8152600490fd5b81511580615a49575b615a27575090565b604051639996b31560e01b81526001600160a01b039091166004820152602490fd5b50803b15615a1f565b6002815110615a62576002015190565b60405162461bcd60e51b8152602060048201526014602482015273746f55696e7431365f6f75744f66426f756e647360601b6044820152606490fdfe9016d09d72d40fdae2fd8ceac6b6234c7706214fd39c1cd1e609a0528c199300fec39177008e086efb56cf5eab6824a48fecc42b4cb5acfede2d604e90ddaa94360894a13ba1a3210667c828492db98dca3e2076cc3735a920a3ca505d382bbcf0c57e16840df040f15088dc2f81fe391c3923bec73e23a9662efc9c229c6a00a2646970667358221220bd7421112af2d6e6edd07af9f82cd7cf02674e31469c0f12c2b707f049498ddc64736f6c63430008140033","linkReferences":{"contracts/lib/CDSLib.sol":{"CDSLib":[{"start":6458,"length":20},{"start":18969,"length":20},{"start":19347,"length":20},{"start":19544,"length":20}]}}},"methodIdentifiers":{"UPGRADE_INTERFACE_VERSION()":"ad3cb1cc","admin()":"f851a440","allowInitializePath((uint32,bytes32,uint64))":"ff7bd03d","calculateCumulativeRate(uint128)":"b87c3dc3","callLzSendFromExternal(uint32,uint8,uint256,uint256,uint256,(uint128,uint128,uint128,uint256),uint128,(uint256,uint256),bytes)":"ef543d5c","cdsCount()":"df6f05e7","cdsDetails(address)":"880e8e3b","deposit(uint128,uint128,bool,uint128,uint128)":"dabd360a","endpoint()":"5e280f11","getCDSDepositDetails(address,uint64)":"4721bae8","initialize(address,address,address,address,address,address)":"cc2a9a5b","isComposeMsgSender((uint32,bytes32,uint64),bytes,address)":"82413eac","lastEthPrice()":"7038fc4e","lzReceive((uint32,bytes32,uint64),bytes32,bytes,address,bytes)":"13137d65","nextNonce(uint32,bytes32)":"7d25a05e","oAppVersion()":"17442b70","omniChainCDSTotalAvailableLiquidationAmount()":"a736596c","omniChainCDSTotalCdsDepositedAmount()":"d4f113e6","owner()":"8da5cb5b","peers(uint32)":"bb0b6a53","proxiableUUID()":"52d1902d","quote(uint32,uint8,uint256,uint256,uint256,(uint128,uint128,uint128,uint256),uint128,bytes,bool)":"ad293034","redeemUSDT(uint128,uint64,uint64)":"46696df3","renounceOwnership()":"715018a6","setAdmin(address)":"704b6c02","setBorrowLiquidation(address)":"a4cdc597","setBorrowingContract(address)":"78fdaf3f","setDelegate(address)":"ca5eb5e1","setDstEid(uint32)":"0d14c92e","setPeer(uint32,bytes32)":"3400288b","setTreasury(address)":"f0f44260","setUSDaLimit(uint8)":"41eddbbd","setUsdtLimit(uint64)":"7bf5e245","setWithdrawTimeLimit(uint64)":"868c10d2","totalAvailableLiquidationAmount()":"dc91e752","totalCdsDepositedAmount()":"2bb2ea62","transferOwnership(address)":"f2fde38b","updateLiquidationInfo(uint128,(uint128,uint128,uint128,uint256))":"b3013d4d","updateTotalAvailableLiquidationAmount(uint256)":"4cae95d3","updateTotalCdsDepositedAmount(uint128)":"dc55b193","updateTotalCdsDepositedAmountWithOptionFees(uint128)":"4baf580d","upgradeToAndCall(address,bytes)":"4f1ef286","usda()":"e2b19ff0","usdaLimit()":"6f71ccb1","usdtAmountDepositedTillNow()":"76a3fb3e","usdtLimit()":"f57ff39c","withdraw(uint64,uint128)":"254bba5c"},"id":5}