{"abi":[{"type":"constructor","inputs":[{"name":"_eid","type":"uint32","internalType":"uint32"}],"stateMutability":"nonpayable"},{"type":"function","name":"EMPTY_PAYLOAD_HASH","inputs":[],"outputs":[{"name":"","type":"bytes32","internalType":"bytes32"}],"stateMutability":"view"},{"type":"function","name":"_executeNativeAirDropAndReturnLzGas","inputs":[{"name":"_options","type":"bytes","internalType":"bytes"}],"outputs":[{"name":"totalGas","type":"uint256","internalType":"uint256"},{"name":"dstAmount","type":"uint256","internalType":"uint256"}],"stateMutability":"nonpayable"},{"type":"function","name":"burn","inputs":[{"name":"_oapp","type":"address","internalType":"address"},{"name":"_srcEid","type":"uint32","internalType":"uint32"},{"name":"_sender","type":"bytes32","internalType":"bytes32"},{"name":"_nonce","type":"uint64","internalType":"uint64"},{"name":"_payloadHash","type":"bytes32","internalType":"bytes32"}],"outputs":[],"stateMutability":"nonpayable"},{"type":"function","name":"clear","inputs":[{"name":"_oapp","type":"address","internalType":"address"},{"name":"_origin","type":"tuple","internalType":"struct Origin","components":[{"name":"srcEid","type":"uint32","internalType":"uint32"},{"name":"sender","type":"bytes32","internalType":"bytes32"},{"name":"nonce","type":"uint64","internalType":"uint64"}]},{"name":"_guid","type":"bytes32","internalType":"bytes32"},{"name":"_message","type":"bytes","internalType":"bytes"}],"outputs":[],"stateMutability":"nonpayable"},{"type":"function","name":"composeQueue","inputs":[{"name":"from","type":"address","internalType":"address"},{"name":"to","type":"address","internalType":"address"},{"name":"guid","type":"bytes32","internalType":"bytes32"},{"name":"index","type":"uint16","internalType":"uint16"}],"outputs":[{"name":"messageHash","type":"bytes32","internalType":"bytes32"}],"stateMutability":"view"},{"type":"function","name":"defaultReceiveLibrary","inputs":[{"name":"","type":"uint32","internalType":"uint32"}],"outputs":[{"name":"","type":"address","internalType":"address"}],"stateMutability":"pure"},{"type":"function","name":"defaultReceiveLibraryTimeout","inputs":[{"name":"","type":"uint32","internalType":"uint32"}],"outputs":[{"name":"lib","type":"address","internalType":"address"},{"name":"expiry","type":"uint256","internalType":"uint256"}],"stateMutability":"pure"},{"type":"function","name":"defaultSendLibrary","inputs":[{"name":"","type":"uint32","internalType":"uint32"}],"outputs":[{"name":"","type":"address","internalType":"address"}],"stateMutability":"pure"},{"type":"function","name":"eid","inputs":[],"outputs":[{"name":"","type":"uint32","internalType":"uint32"}],"stateMutability":"view"},{"type":"function","name":"executable","inputs":[{"name":"","type":"tuple","internalType":"struct Origin","components":[{"name":"srcEid","type":"uint32","internalType":"uint32"},{"name":"sender","type":"bytes32","internalType":"bytes32"},{"name":"nonce","type":"uint64","internalType":"uint64"}]},{"name":"","type":"address","internalType":"address"}],"outputs":[{"name":"","type":"uint8","internalType":"enum ExecutionState"}],"stateMutability":"pure"},{"type":"function","name":"executeNativeAirDropAndReturnLzGas","inputs":[{"name":"_options","type":"bytes","internalType":"bytes"}],"outputs":[{"name":"totalGas","type":"uint256","internalType":"uint256"},{"name":"dstAmount","type":"uint256","internalType":"uint256"}],"stateMutability":"nonpayable"},{"type":"function","name":"getConfig","inputs":[{"name":"","type":"address","internalType":"address"},{"name":"","type":"address","internalType":"address"},{"name":"","type":"uint32","internalType":"uint32"},{"name":"","type":"uint32","internalType":"uint32"}],"outputs":[{"name":"config","type":"bytes","internalType":"bytes"}],"stateMutability":"pure"},{"type":"function","name":"getExecutorFee","inputs":[{"name":"_payloadSize","type":"uint256","internalType":"uint256"},{"name":"_options","type":"bytes","internalType":"bytes"}],"outputs":[{"name":"","type":"uint256","internalType":"uint256"}],"stateMutability":"view"},{"type":"function","name":"getReceiveLibrary","inputs":[{"name":"","type":"address","internalType":"address"},{"name":"","type":"uint32","internalType":"uint32"}],"outputs":[{"name":"lib","type":"address","internalType":"address"},{"name":"isDefault","type":"bool","internalType":"bool"}],"stateMutability":"pure"},{"type":"function","name":"getRegisteredLibraries","inputs":[],"outputs":[{"name":"","type":"address[]","internalType":"address[]"}],"stateMutability":"pure"},{"type":"function","name":"getSendContext","inputs":[],"outputs":[{"name":"","type":"uint32","internalType":"uint32"},{"name":"","type":"address","internalType":"address"}],"stateMutability":"view"},{"type":"function","name":"getSendLibrary","inputs":[{"name":"","type":"address","internalType":"address"},{"name":"","type":"uint32","internalType":"uint32"}],"outputs":[{"name":"lib","type":"address","internalType":"address"}],"stateMutability":"pure"},{"type":"function","name":"inboundNonce","inputs":[{"name":"_receiver","type":"address","internalType":"address"},{"name":"_srcEid","type":"uint32","internalType":"uint32"},{"name":"_sender","type":"bytes32","internalType":"bytes32"}],"outputs":[{"name":"","type":"uint64","internalType":"uint64"}],"stateMutability":"view"},{"type":"function","name":"inboundPayloadHash","inputs":[{"name":"receiver","type":"address","internalType":"address"},{"name":"srcEid","type":"uint32","internalType":"uint32"},{"name":"sender","type":"bytes32","internalType":"bytes32"},{"name":"inboundNonce","type":"uint64","internalType":"uint64"}],"outputs":[{"name":"payloadHash","type":"bytes32","internalType":"bytes32"}],"stateMutability":"view"},{"type":"function","name":"initializable","inputs":[{"name":"_origin","type":"tuple","internalType":"struct Origin","components":[{"name":"srcEid","type":"uint32","internalType":"uint32"},{"name":"sender","type":"bytes32","internalType":"bytes32"},{"name":"nonce","type":"uint64","internalType":"uint64"}]},{"name":"_receiver","type":"address","internalType":"address"}],"outputs":[{"name":"","type":"bool","internalType":"bool"}],"stateMutability":"view"},{"type":"function","name":"isDefaultSendLibrary","inputs":[{"name":"","type":"address","internalType":"address"},{"name":"","type":"uint32","internalType":"uint32"}],"outputs":[{"name":"","type":"bool","internalType":"bool"}],"stateMutability":"pure"},{"type":"function","name":"isRegisteredLibrary","inputs":[{"name":"","type":"address","internalType":"address"}],"outputs":[{"name":"","type":"bool","internalType":"bool"}],"stateMutability":"pure"},{"type":"function","name":"isSendingMessage","inputs":[],"outputs":[{"name":"","type":"bool","internalType":"bool"}],"stateMutability":"view"},{"type":"function","name":"isSupportedEid","inputs":[{"name":"","type":"uint32","internalType":"uint32"}],"outputs":[{"name":"","type":"bool","internalType":"bool"}],"stateMutability":"pure"},{"type":"function","name":"isValidReceiveLibrary","inputs":[{"name":"_receiver","type":"address","internalType":"address"},{"name":"_srcEid","type":"uint32","internalType":"uint32"},{"name":"_actualReceiveLib","type":"address","internalType":"address"}],"outputs":[{"name":"","type":"bool","internalType":"bool"}],"stateMutability":"view"},{"type":"function","name":"lazyInboundNonce","inputs":[{"name":"receiver","type":"address","internalType":"address"},{"name":"srcEid","type":"uint32","internalType":"uint32"},{"name":"sender","type":"bytes32","internalType":"bytes32"}],"outputs":[{"name":"nonce","type":"uint64","internalType":"uint64"}],"stateMutability":"view"},{"type":"function","name":"lzCompose","inputs":[{"name":"","type":"address","internalType":"address"},{"name":"","type":"address","internalType":"address"},{"name":"","type":"bytes32","internalType":"bytes32"},{"name":"","type":"uint16","internalType":"uint16"},{"name":"","type":"bytes","internalType":"bytes"},{"name":"","type":"bytes","internalType":"bytes"}],"outputs":[],"stateMutability":"payable"},{"type":"function","name":"lzEndpointLookup","inputs":[{"name":"","type":"address","internalType":"address"}],"outputs":[{"name":"","type":"address","internalType":"address"}],"stateMutability":"view"},{"type":"function","name":"lzReceive","inputs":[{"name":"","type":"tuple","internalType":"struct Origin","components":[{"name":"srcEid","type":"uint32","internalType":"uint32"},{"name":"sender","type":"bytes32","internalType":"bytes32"},{"name":"nonce","type":"uint64","internalType":"uint64"}]},{"name":"","type":"address","internalType":"address"},{"name":"","type":"bytes32","internalType":"bytes32"},{"name":"","type":"bytes","internalType":"bytes"},{"name":"","type":"bytes","internalType":"bytes"}],"outputs":[],"stateMutability":"payable"},{"type":"function","name":"lzToken","inputs":[],"outputs":[{"name":"","type":"address","internalType":"address"}],"stateMutability":"pure"},{"type":"function","name":"nativeToken","inputs":[],"outputs":[{"name":"","type":"address","internalType":"address"}],"stateMutability":"pure"},{"type":"function","name":"nextGuid","inputs":[{"name":"","type":"address","internalType":"address"},{"name":"","type":"uint32","internalType":"uint32"},{"name":"","type":"bytes32","internalType":"bytes32"}],"outputs":[{"name":"","type":"bytes32","internalType":"bytes32"}],"stateMutability":"pure"},{"type":"function","name":"nilify","inputs":[{"name":"","type":"address","internalType":"address"},{"name":"","type":"uint32","internalType":"uint32"},{"name":"","type":"bytes32","internalType":"bytes32"},{"name":"","type":"uint64","internalType":"uint64"},{"name":"","type":"bytes32","internalType":"bytes32"}],"outputs":[],"stateMutability":"nonpayable"},{"type":"function","name":"outboundNonce","inputs":[{"name":"sender","type":"address","internalType":"address"},{"name":"dstEid","type":"uint32","internalType":"uint32"},{"name":"receiver","type":"bytes32","internalType":"bytes32"}],"outputs":[{"name":"nonce","type":"uint64","internalType":"uint64"}],"stateMutability":"view"},{"type":"function","name":"quote","inputs":[{"name":"_params","type":"tuple","internalType":"struct MessagingParams","components":[{"name":"dstEid","type":"uint32","internalType":"uint32"},{"name":"receiver","type":"bytes32","internalType":"bytes32"},{"name":"message","type":"bytes","internalType":"bytes"},{"name":"options","type":"bytes","internalType":"bytes"},{"name":"payInLzToken","type":"bool","internalType":"bool"}]},{"name":"_sender","type":"address","internalType":"address"}],"outputs":[{"name":"","type":"tuple","internalType":"struct MessagingFee","components":[{"name":"nativeFee","type":"uint256","internalType":"uint256"},{"name":"lzTokenFee","type":"uint256","internalType":"uint256"}]}],"stateMutability":"view"},{"type":"function","name":"receiveLibraryTimeout","inputs":[{"name":"receiver","type":"address","internalType":"address"},{"name":"srcEid","type":"uint32","internalType":"uint32"}],"outputs":[{"name":"lib","type":"address","internalType":"address"},{"name":"expiry","type":"uint256","internalType":"uint256"}],"stateMutability":"view"},{"type":"function","name":"receivePayload","inputs":[{"name":"_origin","type":"tuple","internalType":"struct Origin","components":[{"name":"srcEid","type":"uint32","internalType":"uint32"},{"name":"sender","type":"bytes32","internalType":"bytes32"},{"name":"nonce","type":"uint64","internalType":"uint64"}]},{"name":"_receiver","type":"address","internalType":"address"},{"name":"_payloadHash","type":"bytes32","internalType":"bytes32"},{"name":"_message","type":"bytes","internalType":"bytes"},{"name":"_gas","type":"uint256","internalType":"uint256"},{"name":"_msgValue","type":"uint256","internalType":"uint256"},{"name":"_guid","type":"bytes32","internalType":"bytes32"}],"outputs":[],"stateMutability":"payable"},{"type":"function","name":"registerLibrary","inputs":[{"name":"","type":"address","internalType":"address"}],"outputs":[],"stateMutability":"nonpayable"},{"type":"function","name":"relayerFeeConfig","inputs":[],"outputs":[{"name":"dstPriceRatio","type":"uint128","internalType":"uint128"},{"name":"dstGasPriceInWei","type":"uint128","internalType":"uint128"},{"name":"dstNativeAmtCap","type":"uint128","internalType":"uint128"},{"name":"baseGas","type":"uint64","internalType":"uint64"},{"name":"gasPerByte","type":"uint64","internalType":"uint64"}],"stateMutability":"view"},{"type":"function","name":"send","inputs":[{"name":"_params","type":"tuple","internalType":"struct MessagingParams","components":[{"name":"dstEid","type":"uint32","internalType":"uint32"},{"name":"receiver","type":"bytes32","internalType":"bytes32"},{"name":"message","type":"bytes","internalType":"bytes"},{"name":"options","type":"bytes","internalType":"bytes"},{"name":"payInLzToken","type":"bool","internalType":"bool"}]},{"name":"_refundAddress","type":"address","internalType":"address"}],"outputs":[{"name":"receipt","type":"tuple","internalType":"struct MessagingReceipt","components":[{"name":"guid","type":"bytes32","internalType":"bytes32"},{"name":"nonce","type":"uint64","internalType":"uint64"},{"name":"fee","type":"tuple","internalType":"struct MessagingFee","components":[{"name":"nativeFee","type":"uint256","internalType":"uint256"},{"name":"lzTokenFee","type":"uint256","internalType":"uint256"}]}]}],"stateMutability":"payable"},{"type":"function","name":"sendCompose","inputs":[{"name":"","type":"address","internalType":"address"},{"name":"","type":"bytes32","internalType":"bytes32"},{"name":"","type":"uint16","internalType":"uint16"},{"name":"","type":"bytes","internalType":"bytes"}],"outputs":[],"stateMutability":"nonpayable"},{"type":"function","name":"setConfig","inputs":[{"name":"","type":"address","internalType":"address"},{"name":"","type":"address","internalType":"address"},{"name":"","type":"tuple[]","internalType":"struct SetConfigParam[]","components":[{"name":"eid","type":"uint32","internalType":"uint32"},{"name":"configType","type":"uint32","internalType":"uint32"},{"name":"config","type":"bytes","internalType":"bytes"}]}],"outputs":[],"stateMutability":"nonpayable"},{"type":"function","name":"setDefaultReceiveLibrary","inputs":[{"name":"","type":"uint32","internalType":"uint32"},{"name":"","type":"address","internalType":"address"},{"name":"","type":"uint256","internalType":"uint256"}],"outputs":[],"stateMutability":"nonpayable"},{"type":"function","name":"setDefaultReceiveLibraryTimeout","inputs":[{"name":"","type":"uint32","internalType":"uint32"},{"name":"","type":"address","internalType":"address"},{"name":"","type":"uint256","internalType":"uint256"}],"outputs":[],"stateMutability":"nonpayable"},{"type":"function","name":"setDefaultSendLibrary","inputs":[{"name":"","type":"uint32","internalType":"uint32"},{"name":"","type":"address","internalType":"address"}],"outputs":[],"stateMutability":"nonpayable"},{"type":"function","name":"setDelegate","inputs":[{"name":"","type":"address","internalType":"address"}],"outputs":[],"stateMutability":"nonpayable"},{"type":"function","name":"setDestLzEndpoint","inputs":[{"name":"destAddr","type":"address","internalType":"address"},{"name":"lzEndpointAddr","type":"address","internalType":"address"}],"outputs":[],"stateMutability":"nonpayable"},{"type":"function","name":"setLzToken","inputs":[{"name":"","type":"address","internalType":"address"}],"outputs":[],"stateMutability":"nonpayable"},{"type":"function","name":"setReceiveLibrary","inputs":[{"name":"","type":"address","internalType":"address"},{"name":"","type":"uint32","internalType":"uint32"},{"name":"","type":"address","internalType":"address"},{"name":"","type":"uint256","internalType":"uint256"}],"outputs":[],"stateMutability":"nonpayable"},{"type":"function","name":"setReceiveLibraryTimeout","inputs":[{"name":"","type":"address","internalType":"address"},{"name":"","type":"uint32","internalType":"uint32"},{"name":"","type":"address","internalType":"address"},{"name":"","type":"uint256","internalType":"uint256"}],"outputs":[],"stateMutability":"nonpayable"},{"type":"function","name":"setSendLibrary","inputs":[{"name":"","type":"address","internalType":"address"},{"name":"","type":"uint32","internalType":"uint32"},{"name":"","type":"address","internalType":"address"}],"outputs":[],"stateMutability":"nonpayable"},{"type":"function","name":"skip","inputs":[{"name":"","type":"address","internalType":"address"},{"name":"","type":"uint32","internalType":"uint32"},{"name":"","type":"bytes32","internalType":"bytes32"},{"name":"","type":"uint64","internalType":"uint64"}],"outputs":[],"stateMutability":"nonpayable"},{"type":"function","name":"verifiable","inputs":[{"name":"_origin","type":"tuple","internalType":"struct Origin","components":[{"name":"srcEid","type":"uint32","internalType":"uint32"},{"name":"sender","type":"bytes32","internalType":"bytes32"},{"name":"nonce","type":"uint64","internalType":"uint64"}]},{"name":"_receiver","type":"address","internalType":"address"}],"outputs":[{"name":"","type":"bool","internalType":"bool"}],"stateMutability":"view"},{"type":"function","name":"verifiable","inputs":[{"name":"","type":"tuple","internalType":"struct Origin","components":[{"name":"srcEid","type":"uint32","internalType":"uint32"},{"name":"sender","type":"bytes32","internalType":"bytes32"},{"name":"nonce","type":"uint64","internalType":"uint64"}]},{"name":"","type":"address","internalType":"address"},{"name":"","type":"address","internalType":"address"},{"name":"","type":"bytes32","internalType":"bytes32"}],"outputs":[{"name":"","type":"bool","internalType":"bool"}],"stateMutability":"pure"},{"type":"function","name":"verifierFee","inputs":[],"outputs":[{"name":"","type":"uint256","internalType":"uint256"}],"stateMutability":"view"},{"type":"function","name":"verify","inputs":[{"name":"","type":"tuple","internalType":"struct Origin","components":[{"name":"srcEid","type":"uint32","internalType":"uint32"},{"name":"sender","type":"bytes32","internalType":"bytes32"},{"name":"nonce","type":"uint64","internalType":"uint64"}]},{"name":"","type":"address","internalType":"address"},{"name":"","type":"bytes32","internalType":"bytes32"}],"outputs":[],"stateMutability":"nonpayable"},{"type":"event","name":"ComposeDelivered","inputs":[{"name":"from","type":"address","indexed":false,"internalType":"address"},{"name":"to","type":"address","indexed":false,"internalType":"address"},{"name":"guid","type":"bytes32","indexed":false,"internalType":"bytes32"},{"name":"index","type":"uint16","indexed":false,"internalType":"uint16"}],"anonymous":false},{"type":"event","name":"ComposeSent","inputs":[{"name":"from","type":"address","indexed":false,"internalType":"address"},{"name":"to","type":"address","indexed":false,"internalType":"address"},{"name":"guid","type":"bytes32","indexed":false,"internalType":"bytes32"},{"name":"index","type":"uint16","indexed":false,"internalType":"uint16"},{"name":"message","type":"bytes","indexed":false,"internalType":"bytes"}],"anonymous":false},{"type":"event","name":"DefaultReceiveLibrarySet","inputs":[{"name":"eid","type":"uint32","indexed":false,"internalType":"uint32"},{"name":"newLib","type":"address","indexed":false,"internalType":"address"}],"anonymous":false},{"type":"event","name":"DefaultReceiveLibraryTimeoutSet","inputs":[{"name":"eid","type":"uint32","indexed":false,"internalType":"uint32"},{"name":"oldLib","type":"address","indexed":false,"internalType":"address"},{"name":"expiry","type":"uint256","indexed":false,"internalType":"uint256"}],"anonymous":false},{"type":"event","name":"DefaultSendLibrarySet","inputs":[{"name":"eid","type":"uint32","indexed":false,"internalType":"uint32"},{"name":"newLib","type":"address","indexed":false,"internalType":"address"}],"anonymous":false},{"type":"event","name":"DelegateSet","inputs":[{"name":"sender","type":"address","indexed":false,"internalType":"address"},{"name":"delegate","type":"address","indexed":false,"internalType":"address"}],"anonymous":false},{"type":"event","name":"InboundNonceSkipped","inputs":[{"name":"srcEid","type":"uint32","indexed":false,"internalType":"uint32"},{"name":"sender","type":"bytes32","indexed":false,"internalType":"bytes32"},{"name":"receiver","type":"address","indexed":false,"internalType":"address"},{"name":"nonce","type":"uint64","indexed":false,"internalType":"uint64"}],"anonymous":false},{"type":"event","name":"LibraryRegistered","inputs":[{"name":"newLib","type":"address","indexed":false,"internalType":"address"}],"anonymous":false},{"type":"event","name":"LzComposeAlert","inputs":[{"name":"from","type":"address","indexed":true,"internalType":"address"},{"name":"to","type":"address","indexed":true,"internalType":"address"},{"name":"executor","type":"address","indexed":true,"internalType":"address"},{"name":"guid","type":"bytes32","indexed":false,"internalType":"bytes32"},{"name":"index","type":"uint16","indexed":false,"internalType":"uint16"},{"name":"gas","type":"uint256","indexed":false,"internalType":"uint256"},{"name":"value","type":"uint256","indexed":false,"internalType":"uint256"},{"name":"message","type":"bytes","indexed":false,"internalType":"bytes"},{"name":"extraData","type":"bytes","indexed":false,"internalType":"bytes"},{"name":"reason","type":"bytes","indexed":false,"internalType":"bytes"}],"anonymous":false},{"type":"event","name":"LzReceiveAlert","inputs":[{"name":"receiver","type":"address","indexed":true,"internalType":"address"},{"name":"executor","type":"address","indexed":true,"internalType":"address"},{"name":"origin","type":"tuple","indexed":false,"internalType":"struct Origin","components":[{"name":"srcEid","type":"uint32","internalType":"uint32"},{"name":"sender","type":"bytes32","internalType":"bytes32"},{"name":"nonce","type":"uint64","internalType":"uint64"}]},{"name":"guid","type":"bytes32","indexed":false,"internalType":"bytes32"},{"name":"gas","type":"uint256","indexed":false,"internalType":"uint256"},{"name":"value","type":"uint256","indexed":false,"internalType":"uint256"},{"name":"message","type":"bytes","indexed":false,"internalType":"bytes"},{"name":"extraData","type":"bytes","indexed":false,"internalType":"bytes"},{"name":"reason","type":"bytes","indexed":false,"internalType":"bytes"}],"anonymous":false},{"type":"event","name":"LzTokenSet","inputs":[{"name":"token","type":"address","indexed":false,"internalType":"address"}],"anonymous":false},{"type":"event","name":"PacketBurnt","inputs":[{"name":"srcEid","type":"uint32","indexed":false,"internalType":"uint32"},{"name":"sender","type":"bytes32","indexed":false,"internalType":"bytes32"},{"name":"receiver","type":"address","indexed":false,"internalType":"address"},{"name":"nonce","type":"uint64","indexed":false,"internalType":"uint64"},{"name":"payloadHash","type":"bytes32","indexed":false,"internalType":"bytes32"}],"anonymous":false},{"type":"event","name":"PacketDelivered","inputs":[{"name":"origin","type":"tuple","indexed":false,"internalType":"struct Origin","components":[{"name":"srcEid","type":"uint32","internalType":"uint32"},{"name":"sender","type":"bytes32","internalType":"bytes32"},{"name":"nonce","type":"uint64","internalType":"uint64"}]},{"name":"receiver","type":"address","indexed":false,"internalType":"address"}],"anonymous":false},{"type":"event","name":"PacketNilified","inputs":[{"name":"srcEid","type":"uint32","indexed":false,"internalType":"uint32"},{"name":"sender","type":"bytes32","indexed":false,"internalType":"bytes32"},{"name":"receiver","type":"address","indexed":false,"internalType":"address"},{"name":"nonce","type":"uint64","indexed":false,"internalType":"uint64"},{"name":"payloadHash","type":"bytes32","indexed":false,"internalType":"bytes32"}],"anonymous":false},{"type":"event","name":"PacketSent","inputs":[{"name":"encodedPayload","type":"bytes","indexed":false,"internalType":"bytes"},{"name":"options","type":"bytes","indexed":false,"internalType":"bytes"},{"name":"sendLibrary","type":"address","indexed":false,"internalType":"address"}],"anonymous":false},{"type":"event","name":"PacketVerified","inputs":[{"name":"origin","type":"tuple","indexed":false,"internalType":"struct Origin","components":[{"name":"srcEid","type":"uint32","internalType":"uint32"},{"name":"sender","type":"bytes32","internalType":"bytes32"},{"name":"nonce","type":"uint64","internalType":"uint64"}]},{"name":"receiver","type":"address","indexed":false,"internalType":"address"},{"name":"payloadHash","type":"bytes32","indexed":false,"internalType":"bytes32"}],"anonymous":false},{"type":"event","name":"ReceiveLibrarySet","inputs":[{"name":"receiver","type":"address","indexed":false,"internalType":"address"},{"name":"eid","type":"uint32","indexed":false,"internalType":"uint32"},{"name":"newLib","type":"address","indexed":false,"internalType":"address"}],"anonymous":false},{"type":"event","name":"ReceiveLibraryTimeoutSet","inputs":[{"name":"receiver","type":"address","indexed":false,"internalType":"address"},{"name":"eid","type":"uint32","indexed":false,"internalType":"uint32"},{"name":"oldLib","type":"address","indexed":false,"internalType":"address"},{"name":"timeout","type":"uint256","indexed":false,"internalType":"uint256"}],"anonymous":false},{"type":"event","name":"SendLibrarySet","inputs":[{"name":"sender","type":"address","indexed":false,"internalType":"address"},{"name":"eid","type":"uint32","indexed":false,"internalType":"uint32"},{"name":"newLib","type":"address","indexed":false,"internalType":"address"}],"anonymous":false},{"type":"event","name":"ValueTransferFailed","inputs":[{"name":"to","type":"address","indexed":true,"internalType":"address"},{"name":"quantity","type":"uint256","indexed":true,"internalType":"uint256"}],"anonymous":false},{"type":"error","name":"Executor_InvalidExecutorOptions","inputs":[{"name":"cursor","type":"uint256","internalType":"uint256"}]},{"type":"error","name":"Executor_InvalidLzComposeOption","inputs":[]},{"type":"error","name":"Executor_InvalidLzReceiveOption","inputs":[]},{"type":"error","name":"Executor_InvalidNativeDropOption","inputs":[]},{"type":"error","name":"Executor_NativeAmountExceedsCap","inputs":[{"name":"amount","type":"uint256","internalType":"uint256"},{"name":"cap","type":"uint256","internalType":"uint256"}]},{"type":"error","name":"Executor_NoOptions","inputs":[]},{"type":"error","name":"Executor_UnsupportedOptionType","inputs":[{"name":"optionType","type":"uint8","internalType":"uint8"}]},{"type":"error","name":"LZ_LzTokenUnavailable","inputs":[]},{"type":"error","name":"LZ_SendReentrancy","inputs":[]},{"type":"error","name":"LZ_ULN_InvalidLegacyType1Option","inputs":[]},{"type":"error","name":"LZ_ULN_InvalidLegacyType2Option","inputs":[]},{"type":"error","name":"LZ_ULN_InvalidWorkerId","inputs":[{"name":"workerId","type":"uint8","internalType":"uint8"}]},{"type":"error","name":"LZ_ULN_InvalidWorkerOptions","inputs":[{"name":"cursor","type":"uint256","internalType":"uint256"}]},{"type":"error","name":"LZ_ULN_UnsupportedOptionType","inputs":[{"name":"optionType","type":"uint16","internalType":"uint16"}]},{"type":"error","name":"SafeCastOverflowedUintDowncast","inputs":[{"name":"bits","type":"uint8","internalType":"uint8"},{"name":"value","type":"uint256","internalType":"uint256"}]}],"bytecode":{"object":"0x60a0346200015757601f620026f038819003918201601f19168301926001600160401b03929091838511838610176200014157816020928492604097885283398101031262000157575163ffffffff8116810362000157576001600055600160ff19600a541617600a55608052815160a0810181811083821117620001415783526402540be4008082526020820152678ac7230489e80000838201526064606082015260016080909101527402540be400000000000000000000000002540be4006005557801000000000000006400000000000000008ac7230489e8000060065581518083019182118183101762000141576020918352670de0b6b3a7640000908181526103e89283910152600755600855662386f26fc100006009555161259390816200015d82396080518181816110910152818161137c015261141b0152f35b634e487b7160e01b600052604160045260246000fd5b600080fdfe608080604052600436101561001357600080fd5b6000803560e01c9182630c0c389e146117fe57826314f651a9146117a957508163183c834f14610ce15781632637a450146112575781632a56c1b0146112125781632b2dd27c146111cb5781632b3197b9146111575781632e80fbf3146110b557816335d330b0146110ed578163402f8468146110ba57816340f80683146110b5578163416ecebf146110755781634b4b2efb14611051578163511cc6b514610e565781635b17bb701461061d5781636750cd4c14610e3a57816369d9ac3914610ce65781636a14d71514610ce15781636be8e9db14610cc45781636dbd9f9014610c665781636e83f5bb14610c3b5781636f50a8031461028957816379624ca914610c1b5781637cb5901214610bd5578163861e1ca514610aad5781638e7ef0cd1461084e578163907c5e7e146107fa5781639132e5c31461078357816391d20fa1146107195781639535ff30146106ee5781639c6d7340146106a15781639d7f97751461066a578163a0dd43fc1461061d578163a718531b146103e0578163a825d747146105fc578163aafe5e07146105e0578163aafea312146105ba578163b96a277f14610381578163c08f15a11461056d578163c28e0eed146102f0578163c81b383a14610532578163c9a54a991461045f578163c9fc7bcd14610400578163ca5eb5e1146102f0578163cb5026b9146103e5578163d4b4ec8f146103e0578163d70b8902146103cb578163dc706a62146103af578163dc93c8a214610381578163ddc28c5814610342578163e1758bd8146102f5578163e1e3a7df146102fa578163e4fe1d94146102f5578163e8964e81146102f0578163ef667aa11461028e575063f64be4c71461028957600080fd5b611a5c565b346102ed5760403660031901126102ed576040906102aa61186c565b9063ffffffff836102b96118db565b9260018060a01b038095168152600c6020522091166000526020526001826000209182541691015482519182526020820152f35b80fd5b611ab5565b611b1b565b346102ed57366003190160c0811261033e576060136102ed5761031b611856565b506084356001600160a01b0381160361033957602090604051908152f35b600080fd5b5080fd5b346102ed57604061036f61035536611941565b5060006020845161036581611b7b565b8281520152611d95565b60208251918051835201516020820152f35b346102ed5760403660031901126102ed5760209061039d61186c565b506103a66118db565b50604051908152f35b346102ed5760203660031901126102ed576020906103a661186c565b346102ed576103d936611ad0565b5050505080f35b611a81565b346102ed57806003193601126102ed57602090604051908152f35b346102ed576001600160401b03604061041836611ad0565b959260018060a09493941b03168352600360205263ffffffff8484209116600052602052826000209082526020522091166000526020526020604060002054604051908152f35b346102ed5736600319016080811261033e576060136102ed576001600160a01b03610488611856565b1680825260209160028352604081209063ffffffff91826104a7611bd2565b16600052845260406000206024359081835285526001600160401b039283604084205416846104d4611caa565b16119485156104ea575b86866040519015158152f35b604094955083526003865283832090610501611bd2565b166000528552826000209082528452209061051a611caa565b166000528152604060002054151582808080806104de565b346102ed5760203660031901126102ed576020906001600160a01b03906040908261055b61186c565b16815260018452205416604051908152f35b346102ed5760403660031901126102ed5761058661186c565b61058e611882565b6001600160a01b03918216835260016020526040832080546001600160a01b0319169190921617905580f35b346102ed5760403660031901126102ed576105d36118ee565b506105dc611882565b5080f35b346102ed576020906105f136611a25565b505050604051908152f35b346102ed57366003190160a0811261033e576060136102ed576105dc611856565b346102ed576001600160401b03604060209261063836611a25565b9160018060a01b031683526002865263ffffffff84842091166000528552826000209082528452205416604051908152f35b346102ed5760603660031901126102ed5761068361186c565b5061068c6118db565b50610695611898565b50602060405160018152f35b346102ed576001600160401b0360406020926106bc36611a25565b9160018060a01b031683526004865263ffffffff84842091166000528552826000209082528452205416604051908152f35b346102ed5760603660031901126102ed5761070761186c565b506107106118db565b506105dc611898565b60c03660031901126102ed5761072d61186c565b50610736611882565b5061073f611a14565b506001600160401b0360843581811161077f576107609036906004016118ae565b505060a43590811161033e5761077a9036906004016118ae565b505080f35b8280fd5b346102ed57806003193601126102ed57604051906107a082611b7b565b60018083526020918284019383368637816107ba82611e87565b526040519380850191818652518092526040850195925b8281106107de5785870386f35b83516001600160a01b03168752958101959281019284016107d1565b346102ed57806003193601126102ed5760a06005546006546040519160018060801b0390818116845260801c6020840152811660408301526001600160401b038160801c16606083015260c01c6080820152f35b346102ed5760403660031901126102ed576001600160401b0360248035828111610aa9576108809036906004016118ae565b929093808415610a985794856006549560809487861c169283985b828410610965575050810361094e57506001600160801b039385851690818411610931576020610929896108f18a8a61091c816109218d826108f78f8f6108eb6108f19160055480971c9d611d43565b8c611d66565b90611d43565b911693849161090d6402540be400968792611d66565b04986004359760c01c90611d79565b611d79565b160416611d66565b604051908152f35b6040516242670160e11b8152600481019490945283015250604490fd5b849060405190634c83bb7560e11b82526004820152fd5b909361097460ff94848761243c565b96909216600181036109b657506109926109ae93926109a692612489565b90986001600160801b039291831690611d43565b971690611d43565b935b9061089b565b969792966002908082036109ea5750506109e492916109d4916124f4565b506001600160801b031690611d43565b946109b0565b91989792909160038103610a8157506012908181141580610a76575b610a645780831161033957808211610339576022818103610a54571161033957610a4e93610a43918a01358b1c5b6001600160801b031690611d43565b970135881c90611d43565b936109b0565b505050610a43610a4e9385610a34565b604051638b4aa70b60e01b8152600490fd5b506022811415610a06565b8b906040519063052e551560e01b82526004820152fd5b60405162575ea160e01b8152600490fd5b8380fd5b346102ed5736600319016080811261033e576060136102ed576001600160a01b03610ad6611856565b1680825260209160028352604081209063ffffffff9182610af5611bd2565b1660005284526040600020926024359384835285526001600160401b03806040842054161594851595610b2e5786866040519015158152f35b9091929394506040519463ff7bd03d60e01b86526004359081168091036103395760048601526024850152604435908116809103610339576064848693819360448301525afa918215610bc8578192610b8e575b505082808080806104de565b9091508281813d8311610bc1575b610ba68183611bb1565b8101031261033e57519081151582036102ed57508280610b82565b503d610b9c565b50604051903d90823e3d90fd5b346102ed5760803660031901126102ed57610bee61186c565b5060443561ffff811603610339576064356001600160401b03811161033e5761077a9036906004016118ae565b346102ed57806003193601126102ed576001602091541415604051908152f35b346102ed5760203660031901126102ed57610c546118ee565b50604080516000815260006020820152f35b346102ed5760603660031901126102ed57610c7f61186c565b50610c88611882565b506001600160401b0360443581811161077f573660238201121561077f57806004013591821161077f57602490369260051b0101116102ed5780f35b346102ed57806003193601126102ed576020600954604051908152f35b611901565b346102ed5760203660031901126102ed576004356001600160401b03811161033e57610d169036906004016118ae565b90918091818115610a985793845b828610610d5c5750508303610d43576040809350519182526020820152f35b604051634c83bb7560e11b815260048101849052602490fd5b9092610d6b60ff96848661243c565b9890921660018103610dae575095610d8a610da69392610d9e98612489565b976001600160801b03929091831690611d43565b961690611d43565b925b90610d24565b92959260028103610e22575090610dc4916124f4565b6001600160801b03909116906001600160a01b03168380808085855af1610de9611c7a565b5015610df7575b5050610da8565b7f2c7a964ca3de5ec1d42d9822f9bbd0eb142a59cc9f855e9d93813b773192c7a38480a38680610df0565b6024906040519063052e551560e01b82526004820152fd5b346102ed5760203660031901126102ed576020906103a66118ee565b3660031901610120811261033e576060136102ed57610e73611856565b6001600160401b039060a435828111610aa957610e949036906004016118ae565b600a54929161010435919060c4359060e43560001960ff8816016110005760ff19968716600217600a556001600160a01b03909516808952600360205260408920909789969163ffffffff610ee7611bd2565b16600052602052604060002060243588526020526040872090610f08611caa565b16600052602052608435604060002055801515600014610f9557873b15610f9157610f4c978695604051998a96879586936313137d6560e01b855260048501611cc0565b0393f19283610f7d575b505060019115600014610f7857610f6b611c7a565b505b600a541617600a5580f35b610f6d565b610f8690611b68565b61077f578284610f56565b8580fd5b508693963b15610ffc57848094610fc398604051998a96879586936313137d6560e01b855260048501611cc0565b0393f19283610fe8575b505060019115600014610f7857610fe2611c7a565b50610f6d565b610ff190611b68565b61077f578284610fcd565b8480fd5b60405162461bcd60e51b8152602060048201526024808201527f4c617965725a65726f4d6f636b3a206e6f2072656365697665207265656e7472604482015263616e637960e01b6064820152608490fd5b346102ed5736600319016080811261033e576060136102ed576020906103a6611856565b346102ed57806003193601126102ed57602060405163ffffffff7f0000000000000000000000000000000000000000000000000000000000000000168152f35b6119ce565b346102ed5760403660031901126102ed576040906110d661186c565b506110df6118db565b508151908082526020820152f35b346102ed5760803660031901126102ed57604060209161110b61186c565b611113611882565b61111b611a14565b9160018060a01b038091168452600b865284842091166000528452826000206044358352845261ffff8383209116825283522054604051908152f35b346102ed5760803660031901126102ed5761117061186c565b50611179611882565b5063ffffffff604435818116036103395760643590811603610339576111c76040516111a481611b7b565b6002815261060f60f31b60208201526040519182916020835260208301906119a9565b0390f35b346102ed5760203660031901126102ed57600435906001600160401b0382116102ed57604061120661120036600486016118ae565b906123a3565b82519182526020820152f35b346102ed5760c03660031901126102ed5761122b61186c565b5060603660231901126102ed5760a4356001600160401b03811161033e5761077a9036906004016118ae565b61126036611941565b6040519161126d83611b37565b83835283602084015260405161128281611b7b565b848152846020820152604084015261129981611be5565b60018554036117975760a01b63ffffffff60a01b163317845560808101358015158103610ffc57611785576001600160a01b036020828101358216865260019052604085205416908115611720576112f081611be5565b338652600460205263ffffffff60408720911686526020526040852060208201358652602052604085209283549360016001600160401b03861601946001600160401b038616906001600160401b03191617905561134d82611be5565b61135683611be5565b60405160208101916001600160401b0360c01b8860c01b16835263ffffffff60e01b90817f000000000000000000000000000000000000000000000000000000000000000060e01b16602884015233602c84015260e01b16604c82015260208501356050820152605081526113ca81611b96565b5190206113da6040850185611bf6565b919092604051978860e08101106001600160401b0360e08b01111761170c57611462949392916001600160401b0363ffffffff9260e08c01604052168a52817f00000000000000000000000000000000000000000000000000000000000000001660208b01523360408b01521660608901526020860135608089015260a08801523691611c43565b60c085015260a084015185526001600160401b03845116602086015261148782611d95565b8060408701525134106116b55760408501515134813403116116a1579081879493923403611638575b50506112008160606114c3930190611bf6565b91909363ffffffff6020820151169260018060a01b036040830151166001600160401b0383511690604051956114f887611b37565b86526020860152604085015260a082015160c0830151611541604080518093602082019586526115318151809260208686019101611986565b8101036020810184520182611bb1565b5190209360018060a01b036080840151169660a060c0850151940151853b15611634576115c26040956001600160401b039887519b8c9a8b998a9863511cc6b560e01b8a5263ffffffff81511660048b0152602081015160248b015201511660448801526064870152608486015261012060a48601526101248501906119a9565b9160c48401528360e484015261010483015203925af18015611629579260019160809461161a575b505560206040805192805184526001600160401b0383820151168385015201518051604084015201516060820152f35b61162390611b68565b846115ea565b6040513d85823e3d90fd5b8780fd5b93808093959281933403905af161164d611c7a565b501561165c57849186806114b0565b60405162461bcd60e51b815260206004820152601f60248201527f4c617965725a65726f4d6f636b3a206661696c656420746f20726566756e64006044820152606490fd5b634e487b7160e01b87526011600452602487fd5b60405162461bcd60e51b815260206004820152602960248201527f4c617965725a65726f4d6f636b3a206e6f7420656e6f756768206e617469766560448201526820666f72206665657360b81b6064820152608490fd5b634e487b7160e01b8b52604160045260248bfd5b60405162461bcd60e51b815260206004820152603760248201527f4c617965725a65726f4d6f636b3a2064657374696e6174696f6e204c6179657260448201527616995c9bc8115b991c1bda5b9d081b9bdd08199bdd5b99604a1b6064820152608490fd5b604051632d7b695560e11b8152600490fd5b60405163ee120b0960e01b8152600490fd5b3461033e578160031936011261033e578154604092600182146117f157506001600160a01b0381169063ffffffff9060a01c81165b1682526001600160a01b03166020820152f35b905063ffffffff816117de565b50366003190160e0811261033e576060136102ed5761181b611856565b506001600160401b0360a43581811161077f5761183c9036906004016118ae565b505060c43590811161033e5761077a9036906004016118ae565b606435906001600160a01b038216820361033957565b600435906001600160a01b038216820361033957565b602435906001600160a01b038216820361033957565b604435906001600160a01b038216820361033957565b9181601f84011215610339578235916001600160401b038311610339576020838186019501011161033957565b6024359063ffffffff8216820361033957565b6004359063ffffffff8216820361033957565b34610339576080366003190112610339576001600160a01b03600435818116036103395760243563ffffffff811603610339576044359081160361033957005b6003199060408183011261033957600435916001600160401b038311610339578260a09203011261033957600401906024356001600160a01b03811681036103395790565b60005b8381106119995750506000910152565b8181015183820152602001611989565b906020916119c281518092818552858086019101611986565b601f01601f1916010190565b346103395760a0366003190112610339576004356001600160a01b038116036103395760243563ffffffff811603610339576064356001600160401b0381160361033957005b6064359061ffff8216820361033957565b6060906003190112610339576004356001600160a01b0381168103610339579060243563ffffffff81168103610339579060443590565b3461033957602036600319011261033957611a756118ee565b50602060405160008152f35b346103395760603660031901126103395760043563ffffffff811603610339576024356001600160a01b0381160361033957005b3461033957602036600319011261033957611ace61186c565b005b6080906003190112610339576004356001600160a01b0381168103610339579060243563ffffffff811681036103395790604435906064356001600160401b03811681036103395790565b3461033957600036600319011261033957602060405160008152f35b606081019081106001600160401b03821117611b5257604052565b634e487b7160e01b600052604160045260246000fd5b6001600160401b038111611b5257604052565b604081019081106001600160401b03821117611b5257604052565b608081019081106001600160401b03821117611b5257604052565b90601f801991011681019081106001600160401b03821117611b5257604052565b60043563ffffffff811681036103395790565b3563ffffffff811681036103395790565b903590601e198136030182121561033957018035906001600160401b0382116103395760200191813603831361033957565b6001600160401b038111611b5257601f01601f191660200190565b929192611c4f82611c28565b91611c5d6040519384611bb1565b829481845281830111610339578281602093846000960137010152565b3d15611ca5573d90611c8b82611c28565b91611c996040519384611bb1565b82523d6000602084013e565b606090565b6044356001600160401b03811681036103395790565b9192909260043563ffffffff81168091036103395783526024356020840152604435916001600160401b03831680930361033957610120946000936040860152606085015260e060808501528060e085015280610100928386013782828286010152601f80199101168301928260a082015260c082828603019101528201520190565b91908201809211611d5057565b634e487b7160e01b600052601160045260246000fd5b81810292918115918404141715611d5057565b6001600160801b039182169082160290811691908203611d5057565b90604051611da281611b7b565b611e056000808352602083019080825260208496611ddb611dcf611dc96060840184611bf6565b90611eaa565b50916040810190611bf6565b90506040519586928392638e7ef0cd60e01b845260048401526040602484015260448301906119a9565b0381305afa908115611e7b578091611e44575b611e409350612710611e38611e2f60095485611d43565b60085490611d66565b049252611d43565b9052565b919290506020813d8211611e73575b81611e6060209383611bb1565b8101031261033e5751611e409291611e18565b3d9150611e53565b604051903d90823e3d90fd5b805115611e945760200190565b634e487b7160e01b600052603260045260246000fd5b90611eb491611f9d565b91825115611f3257604092835193611ecb85611b7b565b60018552600092835b602080821015611f0157835160209291611eed82611b7b565b878252606081830152828a01015201611ed4565b50509392505190611f1182611b7b565b600282526020820152611f2384611e87565b52611f2d83611e87565b509190565b604051925090602083016001600160401b03811184821017611b5257604052600083529190565b90939293848311610339578411610339578101920390565b6001600160f01b03199035818116939260028110611f8e57505050565b60020360031b82901b16169150565b9160609283926002908181106122cb578082116103395760039260f09190838135841c86810361211f5750809360009081975b85881061202f57505050828503612016578211611fef575b5050505050565b9161200a96959794939161200293611f59565b9390926122e4565b90913880808080611fe8565b60405163196499c760e21b815260048101869052602490fd5b909196600190818101996120458b838a8a611f59565b6001600160f81b031991358281169186811061210c575b5050905060f81c9081156120f35760ff8116806120c0575050995b61208e612088858401838b8b611f59565b90611f71565b851c9081156120a85750850161ffff160101969190611fd0565b6024906040519063196499c760e21b82526004820152fd5b82919c92036120d0575b50612077565b989a612002839f929c936120e7959f948b8b611f59565b9a909b809799386120ca565b604051636780cfaf60e01b8152600481018c9052602490fd5b839192508603871b1b161680388061205c565b935094919350949650600091600181146000146121a85750505060228103612196576022116103395761215391013561252a565b604051600160f81b60208201819052601160f01b6021830152602382015260809190911b6001600160801b03191660248201526014815261219381611b7b565b91565b6040516301b8ca5560e31b8152600490fd5b9194939092918082036122b35750604282118015906122a9575b6122975781602211610ffc576121da9084013561252a565b9281604211610ffc57806121f36022604293013561252a565b95500135926020604119830110612280575b604051600160f81b6020808301829052601160f01b602184015260238301829052608093841b6001600160801b031990811660248501526034840192909252603160f01b6035840152600160f91b60378401529690921b90911660388201529303604201901b1c604880830191909152815261219381611b96565b6000196020839003604201841b1b90931692612205565b6040516360493e2b60e11b8152600490fd5b50606282116121c2565b60249060405190630417051360e41b82526004820152fd5b60405163196499c760e21b815260006004820152602490fd5b90949390929160ff1660018103612347575082519260008461231257505061230e92503691611c43565b9190565b8261230e946020948761232f604051998a9789808a019101611986565b85019186830137019083820152038084520182611bb1565b9294926002810361238b575082519260008461236e57505061236b92503691611c43565b90565b8261236b946020948761232f604051998a9789808a019101611986565b60249060405190636780cfaf60e01b82526004820152fd5b6123d592916123b191611f9d565b5060409081519384916369d9ac3960e01b83526020600484015260248301906119a9565b039281816000958187305af193841561243157809281956123f8575b5050509190565b919450915083813d811161242a575b6124118183611bb1565b810103126102ed575060208251920151913880806123f1565b503d612407565b8251903d90823e3d90fd5b9092919260038401938161245861208887600185018488611f59565b60f01c951015611e945782612482926003808460049701013560f81c978401019485930191611f59565b9290929190565b9190916010831415806124da575b6124c8576124a583826124e5565b926000602082036124c25750602011610339576010013560801c90565b91505090565b604051634796aee160e01b8152600490fd5b506020831415612497565b90601011610339573560801c90565b919091603083036125185761250983826124e5565b92603011610339576010013590565b6040516361d0c2c760e11b8152600490fd5b6001600160801b039081811161253e571690565b604490604051906306dfcc6560e41b8252608060048301526024820152fdfea2646970667358221220ef9acfaccc909d1c0a9d057bbba82747dd65a091c5ded872d1890116a087512c64736f6c63430008140033","linkReferences":{}},"methodIdentifiers":{"EMPTY_PAYLOAD_HASH()":"cb5026b9","_executeNativeAirDropAndReturnLzGas(bytes)":"69d9ac39","burn(address,uint32,bytes32,uint64,bytes32)":"40f80683","clear(address,(uint32,bytes32,uint64),bytes32,bytes)":"2a56c1b0","composeQueue(address,address,bytes32,uint16)":"35d330b0","defaultReceiveLibrary(uint32)":"6f50a803","defaultReceiveLibraryTimeout(uint32)":"6e83f5bb","defaultSendLibrary(uint32)":"f64be4c7","eid()":"416ecebf","executable((uint32,bytes32,uint64),address)":"4b4b2efb","executeNativeAirDropAndReturnLzGas(bytes)":"2b2dd27c","getConfig(address,address,uint32,uint32)":"2b3197b9","getExecutorFee(uint256,bytes)":"8e7ef0cd","getReceiveLibrary(address,uint32)":"402f8468","getRegisteredLibraries()":"9132e5c3","getSendContext()":"14f651a9","getSendLibrary(address,uint32)":"b96a277f","inboundNonce(address,uint32,bytes32)":"a0dd43fc","inboundPayloadHash(address,uint32,bytes32,uint64)":"c9fc7bcd","initializable((uint32,bytes32,uint64),address)":"861e1ca5","isDefaultSendLibrary(address,uint32)":"dc93c8a2","isRegisteredLibrary(address)":"dc706a62","isSendingMessage()":"79624ca9","isSupportedEid(uint32)":"6750cd4c","isValidReceiveLibrary(address,uint32,address)":"9d7f9775","lazyInboundNonce(address,uint32,bytes32)":"5b17bb70","lzCompose(address,address,bytes32,uint16,bytes,bytes)":"91d20fa1","lzEndpointLookup(address)":"c81b383a","lzReceive((uint32,bytes32,uint64),address,bytes32,bytes,bytes)":"0c0c389e","lzToken()":"e4fe1d94","nativeToken()":"e1758bd8","nextGuid(address,uint32,bytes32)":"aafe5e07","nilify(address,uint32,bytes32,uint64,bytes32)":"2e80fbf3","outboundNonce(address,uint32,bytes32)":"9c6d7340","quote((uint32,bytes32,bytes,bytes,bool),address)":"ddc28c58","receiveLibraryTimeout(address,uint32)":"ef667aa1","receivePayload((uint32,bytes32,uint64),address,bytes32,bytes,uint256,uint256,bytes32)":"511cc6b5","registerLibrary(address)":"e8964e81","relayerFeeConfig()":"907c5e7e","send((uint32,bytes32,bytes,bytes,bool),address)":"2637a450","sendCompose(address,bytes32,uint16,bytes)":"7cb59012","setConfig(address,address,(uint32,uint32,bytes)[])":"6dbd9f90","setDefaultReceiveLibrary(uint32,address,uint256)":"a718531b","setDefaultReceiveLibraryTimeout(uint32,address,uint256)":"d4b4ec8f","setDefaultSendLibrary(uint32,address)":"aafea312","setDelegate(address)":"ca5eb5e1","setDestLzEndpoint(address,address)":"c08f15a1","setLzToken(address)":"c28e0eed","setReceiveLibrary(address,uint32,address,uint256)":"6a14d715","setReceiveLibraryTimeout(address,uint32,address,uint256)":"183c834f","setSendLibrary(address,uint32,address)":"9535ff30","skip(address,uint32,bytes32,uint64)":"d70b8902","verifiable((uint32,bytes32,uint64),address)":"c9a54a99","verifiable((uint32,bytes32,uint64),address,address,bytes32)":"e1e3a7df","verifierFee()":"6be8e9db","verify((uint32,bytes32,uint64),address,bytes32)":"a825d747"},"id":9}