{"abi":[{"type":"function","name":"SEND","inputs":[],"outputs":[{"name":"","type":"uint16","internalType":"uint16"}],"stateMutability":"view"},{"type":"function","name":"SEND_AND_CALL","inputs":[],"outputs":[{"name":"","type":"uint16","internalType":"uint16"}],"stateMutability":"view"},{"type":"function","name":"UPGRADE_INTERFACE_VERSION","inputs":[],"outputs":[{"name":"","type":"string","internalType":"string"}],"stateMutability":"view"},{"type":"function","name":"allowInitializePath","inputs":[{"name":"origin","type":"tuple","internalType":"struct Origin","components":[{"name":"srcEid","type":"uint32","internalType":"uint32"},{"name":"sender","type":"bytes32","internalType":"bytes32"},{"name":"nonce","type":"uint64","internalType":"uint64"}]}],"outputs":[{"name":"","type":"bool","internalType":"bool"}],"stateMutability":"view"},{"type":"function","name":"allowance","inputs":[{"name":"owner","type":"address","internalType":"address"},{"name":"spender","type":"address","internalType":"address"}],"outputs":[{"name":"","type":"uint256","internalType":"uint256"}],"stateMutability":"view"},{"type":"function","name":"approvalRequired","inputs":[],"outputs":[{"name":"","type":"bool","internalType":"bool"}],"stateMutability":"pure"},{"type":"function","name":"approve","inputs":[{"name":"spender","type":"address","internalType":"address"},{"name":"value","type":"uint256","internalType":"uint256"}],"outputs":[{"name":"","type":"bool","internalType":"bool"}],"stateMutability":"nonpayable"},{"type":"function","name":"balanceOf","inputs":[{"name":"account","type":"address","internalType":"address"}],"outputs":[{"name":"","type":"uint256","internalType":"uint256"}],"stateMutability":"view"},{"type":"function","name":"burn","inputs":[{"name":"value","type":"uint256","internalType":"uint256"}],"outputs":[],"stateMutability":"nonpayable"},{"type":"function","name":"burnFrom","inputs":[{"name":"account","type":"address","internalType":"address"},{"name":"value","type":"uint256","internalType":"uint256"}],"outputs":[],"stateMutability":"nonpayable"},{"type":"function","name":"burnFromUser","inputs":[{"name":"to","type":"address","internalType":"address"},{"name":"amount","type":"uint256","internalType":"uint256"}],"outputs":[{"name":"","type":"bool","internalType":"bool"}],"stateMutability":"nonpayable"},{"type":"function","name":"combineOptions","inputs":[{"name":"_eid","type":"uint32","internalType":"uint32"},{"name":"_msgType","type":"uint16","internalType":"uint16"},{"name":"_extraOptions","type":"bytes","internalType":"bytes"}],"outputs":[{"name":"","type":"bytes","internalType":"bytes"}],"stateMutability":"view"},{"type":"function","name":"decimalConversionRate","inputs":[],"outputs":[{"name":"","type":"uint256","internalType":"uint256"}],"stateMutability":"view"},{"type":"function","name":"decimals","inputs":[],"outputs":[{"name":"","type":"uint8","internalType":"uint8"}],"stateMutability":"pure"},{"type":"function","name":"endpoint","inputs":[],"outputs":[{"name":"","type":"address","internalType":"contract ILayerZeroEndpointV2"}],"stateMutability":"view"},{"type":"function","name":"enforcedOptions","inputs":[{"name":"eid","type":"uint32","internalType":"uint32"},{"name":"msgType","type":"uint16","internalType":"uint16"}],"outputs":[{"name":"enforcedOption","type":"bytes","internalType":"bytes"}],"stateMutability":"view"},{"type":"function","name":"initialize","inputs":[{"name":"_lzEndpoint","type":"address","internalType":"address"},{"name":"_delegate","type":"address","internalType":"address"}],"outputs":[],"stateMutability":"nonpayable"},{"type":"function","name":"isComposeMsgSender","inputs":[{"name":"","type":"tuple","internalType":"struct Origin","components":[{"name":"srcEid","type":"uint32","internalType":"uint32"},{"name":"sender","type":"bytes32","internalType":"bytes32"},{"name":"nonce","type":"uint64","internalType":"uint64"}]},{"name":"","type":"bytes","internalType":"bytes"},{"name":"_sender","type":"address","internalType":"address"}],"outputs":[{"name":"","type":"bool","internalType":"bool"}],"stateMutability":"view"},{"type":"function","name":"isPeer","inputs":[{"name":"_eid","type":"uint32","internalType":"uint32"},{"name":"_peer","type":"bytes32","internalType":"bytes32"}],"outputs":[{"name":"","type":"bool","internalType":"bool"}],"stateMutability":"view"},{"type":"function","name":"lzReceive","inputs":[{"name":"_origin","type":"tuple","internalType":"struct Origin","components":[{"name":"srcEid","type":"uint32","internalType":"uint32"},{"name":"sender","type":"bytes32","internalType":"bytes32"},{"name":"nonce","type":"uint64","internalType":"uint64"}]},{"name":"_guid","type":"bytes32","internalType":"bytes32"},{"name":"_message","type":"bytes","internalType":"bytes"},{"name":"_executor","type":"address","internalType":"address"},{"name":"_extraData","type":"bytes","internalType":"bytes"}],"outputs":[],"stateMutability":"payable"},{"type":"function","name":"lzReceiveAndRevert","inputs":[{"name":"_packets","type":"tuple[]","internalType":"struct InboundPacket[]","components":[{"name":"origin","type":"tuple","internalType":"struct Origin","components":[{"name":"srcEid","type":"uint32","internalType":"uint32"},{"name":"sender","type":"bytes32","internalType":"bytes32"},{"name":"nonce","type":"uint64","internalType":"uint64"}]},{"name":"dstEid","type":"uint32","internalType":"uint32"},{"name":"receiver","type":"address","internalType":"address"},{"name":"guid","type":"bytes32","internalType":"bytes32"},{"name":"value","type":"uint256","internalType":"uint256"},{"name":"executor","type":"address","internalType":"address"},{"name":"message","type":"bytes","internalType":"bytes"},{"name":"extraData","type":"bytes","internalType":"bytes"}]}],"outputs":[],"stateMutability":"payable"},{"type":"function","name":"lzReceiveSimulate","inputs":[{"name":"_origin","type":"tuple","internalType":"struct Origin","components":[{"name":"srcEid","type":"uint32","internalType":"uint32"},{"name":"sender","type":"bytes32","internalType":"bytes32"},{"name":"nonce","type":"uint64","internalType":"uint64"}]},{"name":"_guid","type":"bytes32","internalType":"bytes32"},{"name":"_message","type":"bytes","internalType":"bytes"},{"name":"_executor","type":"address","internalType":"address"},{"name":"_extraData","type":"bytes","internalType":"bytes"}],"outputs":[],"stateMutability":"payable"},{"type":"function","name":"mint","inputs":[{"name":"to","type":"address","internalType":"address"},{"name":"amount","type":"uint256","internalType":"uint256"}],"outputs":[{"name":"","type":"bool","internalType":"bool"}],"stateMutability":"nonpayable"},{"type":"function","name":"msgInspector","inputs":[],"outputs":[{"name":"","type":"address","internalType":"address"}],"stateMutability":"view"},{"type":"function","name":"name","inputs":[],"outputs":[{"name":"","type":"string","internalType":"string"}],"stateMutability":"view"},{"type":"function","name":"nextNonce","inputs":[{"name":"","type":"uint32","internalType":"uint32"},{"name":"","type":"bytes32","internalType":"bytes32"}],"outputs":[{"name":"nonce","type":"uint64","internalType":"uint64"}],"stateMutability":"view"},{"type":"function","name":"oApp","inputs":[],"outputs":[{"name":"","type":"address","internalType":"address"}],"stateMutability":"view"},{"type":"function","name":"oAppVersion","inputs":[],"outputs":[{"name":"senderVersion","type":"uint64","internalType":"uint64"},{"name":"receiverVersion","type":"uint64","internalType":"uint64"}],"stateMutability":"pure"},{"type":"function","name":"oftVersion","inputs":[],"outputs":[{"name":"interfaceId","type":"bytes4","internalType":"bytes4"},{"name":"version","type":"uint64","internalType":"uint64"}],"stateMutability":"pure"},{"type":"function","name":"owner","inputs":[],"outputs":[{"name":"","type":"address","internalType":"address"}],"stateMutability":"view"},{"type":"function","name":"pause","inputs":[],"outputs":[],"stateMutability":"nonpayable"},{"type":"function","name":"paused","inputs":[],"outputs":[{"name":"","type":"bool","internalType":"bool"}],"stateMutability":"view"},{"type":"function","name":"peers","inputs":[{"name":"eid","type":"uint32","internalType":"uint32"}],"outputs":[{"name":"peer","type":"bytes32","internalType":"bytes32"}],"stateMutability":"view"},{"type":"function","name":"preCrime","inputs":[],"outputs":[{"name":"","type":"address","internalType":"address"}],"stateMutability":"view"},{"type":"function","name":"proxiableUUID","inputs":[],"outputs":[{"name":"","type":"bytes32","internalType":"bytes32"}],"stateMutability":"view"},{"type":"function","name":"quoteOFT","inputs":[{"name":"_sendParam","type":"tuple","internalType":"struct SendParam","components":[{"name":"dstEid","type":"uint32","internalType":"uint32"},{"name":"to","type":"bytes32","internalType":"bytes32"},{"name":"amountLD","type":"uint256","internalType":"uint256"},{"name":"minAmountLD","type":"uint256","internalType":"uint256"},{"name":"extraOptions","type":"bytes","internalType":"bytes"},{"name":"composeMsg","type":"bytes","internalType":"bytes"},{"name":"oftCmd","type":"bytes","internalType":"bytes"}]}],"outputs":[{"name":"oftLimit","type":"tuple","internalType":"struct OFTLimit","components":[{"name":"minAmountLD","type":"uint256","internalType":"uint256"},{"name":"maxAmountLD","type":"uint256","internalType":"uint256"}]},{"name":"oftFeeDetails","type":"tuple[]","internalType":"struct OFTFeeDetail[]","components":[{"name":"feeAmountLD","type":"int256","internalType":"int256"},{"name":"description","type":"string","internalType":"string"}]},{"name":"oftReceipt","type":"tuple","internalType":"struct OFTReceipt","components":[{"name":"amountSentLD","type":"uint256","internalType":"uint256"},{"name":"amountReceivedLD","type":"uint256","internalType":"uint256"}]}],"stateMutability":"view"},{"type":"function","name":"quoteSend","inputs":[{"name":"_sendParam","type":"tuple","internalType":"struct SendParam","components":[{"name":"dstEid","type":"uint32","internalType":"uint32"},{"name":"to","type":"bytes32","internalType":"bytes32"},{"name":"amountLD","type":"uint256","internalType":"uint256"},{"name":"minAmountLD","type":"uint256","internalType":"uint256"},{"name":"extraOptions","type":"bytes","internalType":"bytes"},{"name":"composeMsg","type":"bytes","internalType":"bytes"},{"name":"oftCmd","type":"bytes","internalType":"bytes"}]},{"name":"_payInLzToken","type":"bool","internalType":"bool"}],"outputs":[{"name":"msgFee","type":"tuple","internalType":"struct MessagingFee","components":[{"name":"nativeFee","type":"uint256","internalType":"uint256"},{"name":"lzTokenFee","type":"uint256","internalType":"uint256"}]}],"stateMutability":"view"},{"type":"function","name":"renounceOwnership","inputs":[],"outputs":[],"stateMutability":"nonpayable"},{"type":"function","name":"send","inputs":[{"name":"_sendParam","type":"tuple","internalType":"struct SendParam","components":[{"name":"dstEid","type":"uint32","internalType":"uint32"},{"name":"to","type":"bytes32","internalType":"bytes32"},{"name":"amountLD","type":"uint256","internalType":"uint256"},{"name":"minAmountLD","type":"uint256","internalType":"uint256"},{"name":"extraOptions","type":"bytes","internalType":"bytes"},{"name":"composeMsg","type":"bytes","internalType":"bytes"},{"name":"oftCmd","type":"bytes","internalType":"bytes"}]},{"name":"_fee","type":"tuple","internalType":"struct MessagingFee","components":[{"name":"nativeFee","type":"uint256","internalType":"uint256"},{"name":"lzTokenFee","type":"uint256","internalType":"uint256"}]},{"name":"_refundAddress","type":"address","internalType":"address"}],"outputs":[{"name":"msgReceipt","type":"tuple","internalType":"struct MessagingReceipt","components":[{"name":"guid","type":"bytes32","internalType":"bytes32"},{"name":"nonce","type":"uint64","internalType":"uint64"},{"name":"fee","type":"tuple","internalType":"struct MessagingFee","components":[{"name":"nativeFee","type":"uint256","internalType":"uint256"},{"name":"lzTokenFee","type":"uint256","internalType":"uint256"}]}]},{"name":"oftReceipt","type":"tuple","internalType":"struct OFTReceipt","components":[{"name":"amountSentLD","type":"uint256","internalType":"uint256"},{"name":"amountReceivedLD","type":"uint256","internalType":"uint256"}]}],"stateMutability":"payable"},{"type":"function","name":"setDelegate","inputs":[{"name":"_delegate","type":"address","internalType":"address"}],"outputs":[],"stateMutability":"nonpayable"},{"type":"function","name":"setDstEid","inputs":[{"name":"_eid","type":"uint32","internalType":"uint32"}],"outputs":[],"stateMutability":"nonpayable"},{"type":"function","name":"setEnforcedOptions","inputs":[{"name":"_enforcedOptions","type":"tuple[]","internalType":"struct EnforcedOptionParam[]","components":[{"name":"eid","type":"uint32","internalType":"uint32"},{"name":"msgType","type":"uint16","internalType":"uint16"},{"name":"options","type":"bytes","internalType":"bytes"}]}],"outputs":[],"stateMutability":"nonpayable"},{"type":"function","name":"setMsgInspector","inputs":[{"name":"_msgInspector","type":"address","internalType":"address"}],"outputs":[],"stateMutability":"nonpayable"},{"type":"function","name":"setPeer","inputs":[{"name":"_eid","type":"uint32","internalType":"uint32"},{"name":"_peer","type":"bytes32","internalType":"bytes32"}],"outputs":[],"stateMutability":"nonpayable"},{"type":"function","name":"setPreCrime","inputs":[{"name":"_preCrime","type":"address","internalType":"address"}],"outputs":[],"stateMutability":"nonpayable"},{"type":"function","name":"sharedDecimals","inputs":[],"outputs":[{"name":"","type":"uint8","internalType":"uint8"}],"stateMutability":"view"},{"type":"function","name":"symbol","inputs":[],"outputs":[{"name":"","type":"string","internalType":"string"}],"stateMutability":"view"},{"type":"function","name":"token","inputs":[],"outputs":[{"name":"","type":"address","internalType":"address"}],"stateMutability":"view"},{"type":"function","name":"totalSupply","inputs":[],"outputs":[{"name":"","type":"uint256","internalType":"uint256"}],"stateMutability":"view"},{"type":"function","name":"transfer","inputs":[{"name":"to","type":"address","internalType":"address"},{"name":"value","type":"uint256","internalType":"uint256"}],"outputs":[{"name":"","type":"bool","internalType":"bool"}],"stateMutability":"nonpayable"},{"type":"function","name":"transferFrom","inputs":[{"name":"from","type":"address","internalType":"address"},{"name":"to","type":"address","internalType":"address"},{"name":"value","type":"uint256","internalType":"uint256"}],"outputs":[{"name":"","type":"bool","internalType":"bool"}],"stateMutability":"nonpayable"},{"type":"function","name":"transferOwnership","inputs":[{"name":"newOwner","type":"address","internalType":"address"}],"outputs":[],"stateMutability":"nonpayable"},{"type":"function","name":"unpause","inputs":[],"outputs":[],"stateMutability":"nonpayable"},{"type":"function","name":"upgradeToAndCall","inputs":[{"name":"newImplementation","type":"address","internalType":"address"},{"name":"data","type":"bytes","internalType":"bytes"}],"outputs":[],"stateMutability":"payable"},{"type":"event","name":"Approval","inputs":[{"name":"owner","type":"address","indexed":true,"internalType":"address"},{"name":"spender","type":"address","indexed":true,"internalType":"address"},{"name":"value","type":"uint256","indexed":false,"internalType":"uint256"}],"anonymous":false},{"type":"event","name":"EnforcedOptionSet","inputs":[{"name":"_enforcedOptions","type":"tuple[]","indexed":false,"internalType":"struct EnforcedOptionParam[]","components":[{"name":"eid","type":"uint32","internalType":"uint32"},{"name":"msgType","type":"uint16","internalType":"uint16"},{"name":"options","type":"bytes","internalType":"bytes"}]}],"anonymous":false},{"type":"event","name":"Initialized","inputs":[{"name":"version","type":"uint64","indexed":false,"internalType":"uint64"}],"anonymous":false},{"type":"event","name":"MsgInspectorSet","inputs":[{"name":"inspector","type":"address","indexed":false,"internalType":"address"}],"anonymous":false},{"type":"event","name":"OFTReceived","inputs":[{"name":"guid","type":"bytes32","indexed":true,"internalType":"bytes32"},{"name":"srcEid","type":"uint32","indexed":false,"internalType":"uint32"},{"name":"toAddress","type":"address","indexed":true,"internalType":"address"},{"name":"amountReceivedLD","type":"uint256","indexed":false,"internalType":"uint256"}],"anonymous":false},{"type":"event","name":"OFTSent","inputs":[{"name":"guid","type":"bytes32","indexed":true,"internalType":"bytes32"},{"name":"dstEid","type":"uint32","indexed":false,"internalType":"uint32"},{"name":"fromAddress","type":"address","indexed":true,"internalType":"address"},{"name":"amountSentLD","type":"uint256","indexed":false,"internalType":"uint256"},{"name":"amountReceivedLD","type":"uint256","indexed":false,"internalType":"uint256"}],"anonymous":false},{"type":"event","name":"OwnershipTransferred","inputs":[{"name":"previousOwner","type":"address","indexed":true,"internalType":"address"},{"name":"newOwner","type":"address","indexed":true,"internalType":"address"}],"anonymous":false},{"type":"event","name":"Paused","inputs":[{"name":"account","type":"address","indexed":false,"internalType":"address"}],"anonymous":false},{"type":"event","name":"PeerSet","inputs":[{"name":"eid","type":"uint32","indexed":false,"internalType":"uint32"},{"name":"peer","type":"bytes32","indexed":false,"internalType":"bytes32"}],"anonymous":false},{"type":"event","name":"PreCrimeSet","inputs":[{"name":"preCrimeAddress","type":"address","indexed":false,"internalType":"address"}],"anonymous":false},{"type":"event","name":"Transfer","inputs":[{"name":"from","type":"address","indexed":true,"internalType":"address"},{"name":"to","type":"address","indexed":true,"internalType":"address"},{"name":"value","type":"uint256","indexed":false,"internalType":"uint256"}],"anonymous":false},{"type":"event","name":"Unpaused","inputs":[{"name":"account","type":"address","indexed":false,"internalType":"address"}],"anonymous":false},{"type":"event","name":"Upgraded","inputs":[{"name":"implementation","type":"address","indexed":true,"internalType":"address"}],"anonymous":false},{"type":"error","name":"AddressEmptyCode","inputs":[{"name":"target","type":"address","internalType":"address"}]},{"type":"error","name":"AddressInsufficientBalance","inputs":[{"name":"account","type":"address","internalType":"address"}]},{"type":"error","name":"ERC1967InvalidImplementation","inputs":[{"name":"implementation","type":"address","internalType":"address"}]},{"type":"error","name":"ERC1967NonPayable","inputs":[]},{"type":"error","name":"ERC20InsufficientAllowance","inputs":[{"name":"spender","type":"address","internalType":"address"},{"name":"allowance","type":"uint256","internalType":"uint256"},{"name":"needed","type":"uint256","internalType":"uint256"}]},{"type":"error","name":"ERC20InsufficientBalance","inputs":[{"name":"sender","type":"address","internalType":"address"},{"name":"balance","type":"uint256","internalType":"uint256"},{"name":"needed","type":"uint256","internalType":"uint256"}]},{"type":"error","name":"ERC20InvalidApprover","inputs":[{"name":"approver","type":"address","internalType":"address"}]},{"type":"error","name":"ERC20InvalidReceiver","inputs":[{"name":"receiver","type":"address","internalType":"address"}]},{"type":"error","name":"ERC20InvalidSender","inputs":[{"name":"sender","type":"address","internalType":"address"}]},{"type":"error","name":"ERC20InvalidSpender","inputs":[{"name":"spender","type":"address","internalType":"address"}]},{"type":"error","name":"EndPointUnavailable","inputs":[]},{"type":"error","name":"EnforcedPause","inputs":[]},{"type":"error","name":"ExpectedPause","inputs":[]},{"type":"error","name":"FailedInnerCall","inputs":[]},{"type":"error","name":"InvalidDelegate","inputs":[]},{"type":"error","name":"InvalidEndpointCall","inputs":[]},{"type":"error","name":"InvalidInitialization","inputs":[]},{"type":"error","name":"InvalidLocalDecimals","inputs":[]},{"type":"error","name":"InvalidOptions","inputs":[{"name":"options","type":"bytes","internalType":"bytes"}]},{"type":"error","name":"LzTokenUnavailable","inputs":[]},{"type":"error","name":"NoPeer","inputs":[{"name":"eid","type":"uint32","internalType":"uint32"}]},{"type":"error","name":"NotEnoughNative","inputs":[{"name":"msgValue","type":"uint256","internalType":"uint256"}]},{"type":"error","name":"NotInitializing","inputs":[]},{"type":"error","name":"OnlyEndpoint","inputs":[{"name":"addr","type":"address","internalType":"address"}]},{"type":"error","name":"OnlyPeer","inputs":[{"name":"eid","type":"uint32","internalType":"uint32"},{"name":"sender","type":"bytes32","internalType":"bytes32"}]},{"type":"error","name":"OnlySelf","inputs":[]},{"type":"error","name":"OwnableInvalidOwner","inputs":[{"name":"owner","type":"address","internalType":"address"}]},{"type":"error","name":"OwnableUnauthorizedAccount","inputs":[{"name":"account","type":"address","internalType":"address"}]},{"type":"error","name":"SafeERC20FailedOperation","inputs":[{"name":"token","type":"address","internalType":"address"}]},{"type":"error","name":"SimulationResult","inputs":[{"name":"result","type":"bytes","internalType":"bytes"}]},{"type":"error","name":"SlippageExceeded","inputs":[{"name":"amountLD","type":"uint256","internalType":"uint256"},{"name":"minAmountLD","type":"uint256","internalType":"uint256"}]},{"type":"error","name":"UUPSUnauthorizedCallContext","inputs":[]},{"type":"error","name":"UUPSUnsupportedProxiableUUID","inputs":[{"name":"slot","type":"bytes32","internalType":"bytes32"}]}],"bytecode":{"object":"0x60a0806040523461002a5730608052613728908161003082396080518181816110f401526112470152f35b600080fdfe6080604052600436101561001257600080fd5b60003560e01c806306fdde031461036d578063095ea7b3146103685780630d14c92e146103635780630d35b4151461035e578063111ecdad1461035957806313137d6514610354578063134d4f251461034f578063156a0d0f1461034a57806317442b701461034557806318160ddd146103405780631f5e13341461033b57806323b872dd14610336578063313ce567146102d25780633400288b146103315780633b6f743b1461032c5780633f4ba83a1461032757806340c10f191461032257806342966c681461031d578063485cc955146103185780634f1ef2861461031357806352ae28791461027357806352d1902d1461030e5780635535d461146103095780635a0dfe4d146103045780635c975abb146102ff5780635e280f11146102fa5780636fc1b31e146102f557806370a08231146102f0578063715018a6146102eb57806379cc6790146102e65780637d25a05e146102e157806382413eac146102dc5780638456cb59146102d7578063857749b0146102d25780638da5cb5b146102cd57806395d89b41146102c8578063963efcaa146102c35780639f68b964146102be578063a9059cbb146102b9578063ad3cb1cc146102b4578063b731ea0a146102af578063b98bd070146102aa578063bb0b6a53146102a5578063bc70b354146102a0578063bd815db01461029b578063c753e12614610296578063c7c7f5b314610291578063ca5eb5e11461028c578063d045a0dc14610287578063d424388514610282578063dd62ed3e1461027d578063f2fde38b14610278578063fc0c546a146102735763ff7bd03d1461026e57600080fd5b611fd9565b611219565b611fac565b611f86565b611f16565b611dd1565b611d5a565b611c0e565b611b9d565b611a47565b6119f3565b6119b8565b6118ef565b61187a565b611834565b61180a565b6117ee565b6117d0565b61173c565b611706565b610b2f565b61169f565b611641565b61161a565b6115e6565b61157b565b61151f565b6114af565b611486565b611456565b61140e565b61138f565b611234565b6110b2565b610e4a565b610e06565b610ddd565b610d66565b610bdc565b610b4b565b610ae4565b610ac8565b610a9d565b610a7b565b610a54565b610a38565b61084d565b610782565b6106dc565b610596565b6104c2565b6103de565b600091031261037d57565b600080fd5b60005b8381106103955750506000910152565b8181015183820152602001610385565b906020916103be81518092818552858086019101610382565b601f01601f1916010190565b9060206103db9281815201906103a5565b90565b3461037d576000806003193601126104ae57604051816000805160206135d3833981519152805461040e816112bf565b808552916001918083169081156104835750600114610448575b610444856104388189038261100a565b604051918291826103ca565b0390f35b835260208084209095505b828410610470575050508161044493610438928201019338610428565b8054858501870152928501928101610453565b905061044496506104389450602092508593915060ff191682840152151560051b8201019338610428565b80fd5b6001600160a01b0381160361037d57565b3461037d57604036600319011261037d576004356104df816104b1565b602435331561056f576001600160a01b0382169182156105565761051e829161050733613155565b9060018060a01b0316600052602052604060002090565b556040519081527f8c5be1e5ebec7d5bd14f71427d1e84f3dd0314c0f7b2291e5b200ac8c7c3b92560203392a3602060405160018152f35b604051634a1406b160e11b815260006004820152602490fd5b60405163e602df0560e01b815260006004820152602490fd5b63ffffffff81160361037d57565b3461037d57602036600319011261037d576004356105b381610588565b6105bb613003565b63ffffffff8116156105ec576008805463ffffffff60a01b191660a09290921b63ffffffff60a01b16919091179055005b60405162461bcd60e51b81526020600482015260116024820152704549442063616e2774206265207a65726f60781b6044820152606490fd5b908160e091031261037d5790565b93929161064e8560a081019360208091805184520151910152565b60409160a083870152815180915260c086019160c08260051b880101936020809201936000915b84831061069d5750505050505090606061069b9294019060208091805184520151910152565b565b90919293949584806106cc6001938d60bf1990820301875285838c5180518452015191818582015201906103a5565b9801930193019194939290610675565b3461037d57602036600319011261037d576001600160401b0360043581811161037d5761070d903690600401610625565b906107166127c7565b5061071f6127c7565b506040519061072d82610f86565b6000825260208201526104446107666040519361074985610fd4565b60008552610756816121c7565b5060406060820135910135612d2c565b61076e61102b565b918252602082015260405193849384610633565b3461037d57600036600319011261037d576005546040516001600160a01b039091168152602090f35b606090600319011261037d57600490565b9181601f8401121561037d578235916001600160401b03831161037d576020838186019501011161037d57565b600319810160e0811261037d5760601361037d57600491606435916001600160401b039060843582811161037d57816108239187016107bc565b9390939260a435610833816104b1565b9260c43591821161037d576108499188016107bc565b9091565b610856366107e9565b5050600080549095939493926001600160a01b0392509082163303610a2057823561088081610588565b610889816121d1565b9060208501358092036109eb575050856108b26108a68388612e50565b6001600160a01b031690565b916108c56108c08289612e5c565b612cf7565b80976108d0876121c7565b506108db82866132a3565b6028831161092b575b50505050610925610903600080516020613653833981519152946121c7565b956040519384931696836020909392919363ffffffff60408201951681520152565b0390a380f35b90610956929161095061094060408a01612caf565b9361094a8a6121c7565b92612e6e565b92612d68565b815461096a906001600160a01b03166108a6565b90813b156109e757829161099691604051948580948193633e5ac80960e11b83528c8a60048501612cb9565b03925af180156109e2576000805160206136538339815191529461092592610903926109c9575b889196508993506108e4565b806109d66109dc92610fc1565b80610372565b386109bd565b6121bb565b8280fd5b6109f481610588565b60405163309afaf360e21b815263ffffffff9190911660048201526024810191909152604490fd5b0390fd5b6040516391ac5e4f60e01b8152336004820152602490fd5b3461037d57600036600319011261037d57602060405160028152f35b3461037d57600036600319011261037d576040805162b9270b60e21b815260016020820152f35b3461037d57600036600319011261037d57604080516001815260026020820152f35b3461037d57600036600319011261037d57602060008051602061363383398151915254604051908152f35b3461037d57600036600319011261037d57602060405160018152f35b3461037d57606036600319011261037d57610b24600435610b04816104b1565b602435610b10816104b1565b60443591610b1f8333836133a8565b6131c7565b602060405160018152f35b3461037d57600036600319011261037d57602060405160068152f35b3461037d57604036600319011261037d577f238399d427b947898edb290f5ff0f9109849b1c3ba196a42e35f00c50a54b98b600435610b8981610588565b60243590610b95613003565b63ffffffff8116600052600160205281604060002055610bcd604051928392836020909392919363ffffffff60408201951681520152565b0390a1005b8015150361037d57565b3461037d5760408060031936011261037d576004356001600160401b03811161037d57610c0d903690600401610625565b90602435610c1a81610bd2565b610c226127c7565b506060830135833593610c3485610588565b610c4c600454610c478187850135612d0c565b612ce4565b91808310610d49575091610cca610c68610ce696938695612bc1565b610c7485949294610588565b610c7c6127c7565b50600054610c92906001600160a01b03166108a6565b93610c9c866121d1565b610cb3610ca7611038565b63ffffffff9098168852565b602087015286860152606085015215156080840152565b82518080968194631bb8518b60e31b835230906004840161281c565b03915afa9081156109e25761044492600092610d1a575b505191829182815181526020918201519181019190915260400190565b81610d3b9293503d8411610d42575b610d33818361100a565b810190612808565b9038610cfd565b503d610d29565b826044918651916371c4efed60e01b835260048301526024820152fd5b3461037d57600036600319011261037d57610d7f613003565b6000805160206136b3833981519152805460ff811615610dcb5760ff191690557f5db9ee0a495bf2e6ff9c91a7834c1ba4fdd244a5e8aa4e537bd38aeae4b073aa6020604051338152a1005b604051638dfc202b60e01b8152600490fd5b3461037d57604036600319011261037d57610b24600435610dfd816104b1565b602435906132a3565b3461037d57602036600319011261037d57610e2360043533613308565b005b604090600319011261037d57600435610e3d816104b1565b906024356103db816104b1565b3461037d57610e5836610e25565b906000805160206136d383398151915254916001600160401b0360ff8460401c1615931680159081610f68575b6001149081610f5e575b159081610f55575b50610f43576000805160206136d3833981519152805467ffffffffffffffff19166001179055610ecb9183610f1e5761201f565b610ed157005b6000805160206136d3833981519152805460ff60401b19169055604051600181527fc7f505b2f371ae2175ee4913f4499e1f2633a7b5936321eed1cdaeb6115181d2908060208101610bcd565b6000805160206136d3833981519152805460ff60401b1916600160401b17905561201f565b60405163f92ee8a960e01b8152600490fd5b90501538610e97565b303b159150610e8f565b849150610e85565b634e487b7160e01b600052604160045260246000fd5b604081019081106001600160401b03821117610fa157604052565b610f70565b606081019081106001600160401b03821117610fa157604052565b6001600160401b038111610fa157604052565b602081019081106001600160401b03821117610fa157604052565b60a081019081106001600160401b03821117610fa157604052565b90601f801991011681019081106001600160401b03821117610fa157604052565b6040519061069b82610f86565b6040519061069b82610fef565b6001600160401b038111610fa157601f01601f191660200190565b92919261106c82611045565b9161107a604051938461100a565b82948184528183011161037d578281602093846000960137010152565b9080601f8301121561037d578160206103db93359101611060565b604036600319011261037d5760048035906110cc826104b1565b6024356001600160401b03811161037d576110ea9036908301611097565b6001600160a01b037f000000000000000000000000000000000000000000000000000000000000000081163081149081156111fd575b506111ec579060208392611132613003565b6040516352d1902d60e01b8152938491829088165afa600092816111bc575b5061117f575050604051634c9c8ce360e01b81526001600160a01b0390921690820190815281906020010390fd5b838360008051602061367383398151915284036111a057610e238383613481565b604051632a87526960e21b815290810184815281906020010390fd5b6111de91935060203d81116111e5575b6111d6818361100a565b81019061306b565b9138611151565b503d6111cc565b60405163703e46dd60e11b81528390fd5b9050816000805160206136738339815191525416141538611120565b3461037d57600036600319011261037d576020604051308152f35b3461037d57600036600319011261037d577f00000000000000000000000000000000000000000000000000000000000000006001600160a01b0316300361128d5760206040516000805160206136738339815191528152f35b60405163703e46dd60e11b8152600490fd5b6024359061ffff8216820361037d57565b359061ffff8216820361037d57565b90600182811c921680156112ef575b60208310146112d957565b634e487b7160e01b600052602260045260246000fd5b91607f16916112ce565b906000929180549161130a836112bf565b91828252600193848116908160001461136c575060011461132c575b50505050565b90919394506000526020928360002092846000945b838610611358575050505001019038808080611326565b805485870183015294019385908201611341565b9294505050602093945060ff191683830152151560051b01019038808080611326565b3461037d57604036600319011261037d576104446113f36113fa6113e76004356113b881610588565b63ffffffff6113c561129f565b9116600052600360205260406000209061ffff16600052602052604060002090565b604051928380926112f9565b038261100a565b6040519182916020835260208301906103a5565b3461037d57604036600319011261037d57602061144c60043561143081610588565b6024359063ffffffff1660005260016020526040600020541490565b6040519015158152f35b3461037d57600036600319011261037d57602060ff6000805160206136b383398151915254166040519015158152f35b3461037d57600036600319011261037d576000546040516001600160a01b039091168152602090f35b3461037d57602036600319011261037d577ff0be4f1e87349231d80c36b33f9e8639658eeaf474014dee15a3e6a4d441419760206004356114ef816104b1565b6114f7613003565b600580546001600160a01b0319166001600160a01b03929092169182179055604051908152a1005b3461037d57602036600319011261037d5760043561153c816104b1565b60018060a01b03166000527f52c63247e1f47db19d5ce0460030c497f067ca4cebf71ba98eeadabe20bace006020526020604060002054604051908152f35b3461037d576000806003193601126104ae57611595613003565b60008051602061361383398151915280546001600160a01b0319811690915581906001600160a01b03167f8be0079c531659141344cd1fd0a4f28419497f9722a3daafe3b4186f6b6457e08280a380f35b3461037d57604036600319011261037d57610e23600435611606816104b1565b602435906116158233836133a8565b613308565b3461037d57604036600319011261037d57611636600435610588565b602060405160008152f35b3461037d5760a036600319011261037d5761165b366107ab565b506064356001600160401b03811161037d5761167b9036906004016107bc565b5050602060843561168b816104b1565b6040516001600160a01b0390911630148152f35b3461037d57600036600319011261037d576116b8613003565b6116c0613456565b6000805160206136b3833981519152600160ff198254161790557f62e78cea01bee320cd4e420270b5ea74000d11b0c9f74754ebdbfc544b05a2586020604051338152a1005b3461037d57600036600319011261037d57600080516020613613833981519152546040516001600160a01b039091168152602090f35b3461037d576000806003193601126104ae57604051816000805160206135f3833981519152805461176c816112bf565b80855291600191808316908115610483575060011461179557610444856104388189038261100a565b835260208084209095505b8284106117bd575050508161044493610438928201019338610428565b80548585018701529285019281016117a0565b3461037d57600036600319011261037d576020600454604051908152f35b3461037d57600036600319011261037d57602060405160008152f35b3461037d57604036600319011261037d57610b2460043561182a816104b1565b60243590336131c7565b3461037d57600036600319011261037d5761044460405161185481610f86565b60058152640352e302e360dc1b60208201526040519182916020835260208301906103a5565b3461037d57600036600319011261037d576002546040516001600160a01b039091168152602090f35b90602060031983011261037d576004356001600160401b039283821161037d578060238301121561037d57816004013593841161037d5760248460051b8301011161037d576024019190565b3461037d576118fd366118a3565b90611906613003565b61190f82612209565b90604061191e8151938461100a565b8383526020938484019060051b83019236841161037d5780915b84831061194857610e23866124ba565b6001600160401b0390833582811161037d5783019060608236031261037d57855161197281610fa6565b823561197d81610588565b815261198a8a84016112b0565b8a8201528683013593841161037d576119a98a94938594369101611097565b87820152815201920191611938565b3461037d57602036600319011261037d5763ffffffff6004356119da81610588565b1660005260016020526020604060002054604051908152f35b3461037d57606036600319011261037d57600435611a1081610588565b611a1861129f565b604435906001600160401b03821161037d5761044492611a3f6113fa9336906004016107bc565b92909161260f565b611a50366118a3565b60005b818110611abd57604051638e9e709960e01b8152600081600481335afa80156109e257610a1c91600091611a9c575b50604051638351eea760e01b8152918291600483016103ca565b611ab7913d8091833e611aaf818361100a565b810190612f31565b82611a82565b611ac8818385612e8a565b90611afa611af6611ad8846121c7565b60208501359063ffffffff1660005260016020526040600020541490565b1590565b611b9357611b0c610100830183612b55565b92611b1960e08201612ead565b90611b28610120820182612b55565b959095303b1561037d57600094611b5e60c092604051998a9788968795633411683760e21b875260a08a01358a60048901612eb7565b03920135305af19182156109e257611b7b92611b80575b50612236565b611a53565b806109d6611b8d92610fc1565b38611b75565b611b7b9150612236565b3461037d57604036600319011261037d57610b24600435611606816104b1565b91608061069b929493611bfd604060c0830197805184526001600160401b0360208201511660208501520151604083019060208091805184520151910152565b019060208091805184520151910152565b608036600319011261037d576004356001600160401b03811161037d57611c39903690600401610625565b604036602319011261037d57606435611c51816104b1565b611c5961288a565b50611c626127c7565b50606082013590611c738335610588565b611c87600454610c47816040870135612d0c565b91808310611d3c5750611cc190611c9e8333613308565b611ca88385612bc1565b611cb1866121c7565b91611cbb366128b2565b9261292d565b90611cca61102b565b928184528160208501527f85496b760a4b7f8d66384b9df21b381f5d1b1e79f229a47aaf4c232edc2fe59a611d2a611d038551936121c7565b936040519181839233978460409194939263ffffffff606083019616825260208201520152565b0390a361044460405192839283611bbd565b82604491604051916371c4efed60e01b835260048301526024820152fd5b3461037d57600060203660031901126104ae57600435611d79816104b1565b611d81613003565b81546001600160a01b0390811691839190833b156109e75760249083604051958694859363ca5eb5e160e01b85521660048401525af180156109e257611dc5575080f35b611dce90610fc1565b80f35b611dda366107e9565b5050509290303303611f0457611df36108a68583612e50565b93611e016108c08284612e5c565b91611e0b846121c7565b50611e1683876132a3565b60288211611e60575b5050611e39600080516020613653833981519152926121c7565b6040805163ffffffff92909216825260208201929092526001600160a01b039490941693a3005b9082611e7f92610950611e7560408801612caf565b9361094a886121c7565b600054909290611e97906001600160a01b03166108a6565b803b1561037d57604051633e5ac80960e11b8152936000918591829084908290611ec6908b8d60048501612cb9565b03925af19081156109e25760008051602061365383398151915293611e3992611ef1575b5092611e1f565b806109d6611efe92610fc1565b38611eea565b60405163029a949d60e31b8152600490fd5b3461037d57602036600319011261037d577fd48d879cef83a1c0bdda516f27b13ddb1b3f8bbac1c9e1511bb2a659c24277606020600435611f56816104b1565b611f5e613003565b600280546001600160a01b0319166001600160a01b03929092169182179055604051908152a1005b3461037d576020611fa3610507611f9c36610e25565b9190613155565b54604051908152f35b3461037d57602036600319011261037d57610e23600435611fcc816104b1565b611fd4613003565b612f8f565b3461037d57606036600319011261037d576020611ff5366107ab565b63ffffffff813561200581610588565b166000526001825260406000205482604051920135148152f35b91906040519261202e84610f86565b601384526020937215195cdd08105d5d1bdb9bdb5a5b9d081554d1606a1b858201526040519461205d86610f86565b6005865264545553446160d81b8187015261207661303c565b61207e61303c565b8151906001600160401b038211610fa1576000805160206135d3833981519152926120b2836120ad86546112bf565b612290565b81601f841160011461211e575091806120ed94926120f2989994600092612113575b50508160011b916000199060031b1c191617905561307a565b6126ed565b6120fa61303c565b61210261342d565b61210b33612f8f565b61069b61303c565b0151905038806120d4565b6000805160206135d38339815191526000529190601f1984167f2ae08a8e29253f69ac5d979a101956ab8f8d9d7ded63fa7a83b16fc47648eab0936000905b8282106121a35750509260019285926120f29a9b966120ed98961061218a575b505050811b01905561307a565b015160001960f88460031b161c1916905538808061217d565b8060018697829497870151815501960194019061215d565b6040513d6000823e3d90fd5b356103db81610588565b63ffffffff168060005260016020526040600020549081156121f1575090565b6024906040519063f6ff4fb760e01b82526004820152fd5b6001600160401b038111610fa15760051b60200190565b634e487b7160e01b600052601160045260246000fd5b60001981146122455760010190565b612220565b634e487b7160e01b600052603260045260246000fd5b80518210156122745760209160051b010190565b61224a565b818110612284575050565b60008155600101612279565b90601f821161229d575050565b61069b916000805160206135d38339815191526000526020600020906020601f840160051c830193106122d8575b601f0160051c0190612279565b90915081906122cb565b90601f82116122ef575050565b61069b916000805160206135f38339815191526000526020600020906020601f840160051c830193106122d857601f0160051c0190612279565b9190601f811161233857505050565b61069b926000526020600020906020601f840160051c830193106122d857601f0160051c0190612279565b91909182516001600160401b038111610fa15761238a8161238484546112bf565b84612329565b602080601f83116001146123c65750819293946000926123bb575b50508160011b916000199060031b1c1916179055565b0151905038806123a5565b90601f198316956123dc85600052602060002090565b926000905b88821061241957505083600195969710612400575b505050811b019055565b015160001960f88460031b161c191690553880806123f6565b806001859682949686015181550195019301906123e1565b602080820190808352835180925260409283810182858560051b8401019601946000925b858410612466575050505050505090565b9091929394959685806124a9600193603f19868203018852868c5163ffffffff815116835261ffff858201511685840152015190606090818982015201906103a5565b990194019401929594939190612455565b90600091825b815181101561254a576125459061254060406124e8816124e08588612260565b5101516126b5565b61253b816124f68588612260565b5101519163ffffffff6125098689612260565b515116895261ffff602091600383528a2091612525878a612260565b5101511661ffff16600052602052604060002090565b612363565b612236565b6124c0565b507fbe4864a8e820971c0247f5992e2da559595f7bf076a21cb5928d443d2a13b67491925061257f9060405191829182612431565b0390a1565b909291928360021161037d57831161037d57600201916001190190565b6020908361069b9395949560405196836125c48995518092888089019101610382565b840191858301370160008382015203808552018361100a565b908060209392818452848401376000828201840152601f01601f1916010190565b9160206103db9381815201916125dd565b6113e76113f39263ffffffff612644939795969716600052600360205260406000209061ffff16600052602052604060002090565b8051156126a75783156126a1576002841015612678575050610a1c604051928392639a6d49cd60e01b8452600484016125fe565b90928061269b916103db94612696612691368484611060565b6126b5565b612584565b916125a1565b92509050565b5091906103db913691611060565b600361ffff600283015116036126c85750565b604051639a6d49cd60e01b815260206004820152908190610a1c9060248301906103a5565b6001600160a01b0390811680156127b557600080546001600160a01b0319166001600160a01b039092169190911790558116156127a357600054612739906001600160a01b03166108a6565b90813b1561037d5760405163ca5eb5e160e01b81526001600160a01b0382166004820152916000908390602490829084905af19182156109e25761278692612790575b50611fd481612f8f565b61069b6001600455565b806109d661279d92610fc1565b3861277c565b604051632d618d8160e21b8152600490fd5b604051638ad182f960e01b8152600490fd5b604051906127d482610f86565b60006020838281520152565b919082604091031261037d576040516127f881610f86565b6020808294805184520151910152565b9060408282031261037d576103db916127e0565b906020909392936040835263ffffffff8151166040840152818101516060840152608061287061285a604084015160a08488015260e08701906103a5565b6060840151868203603f190160a08801526103a5565b910151151560c08401526001600160a01b03909416910152565b6040519061289782610fa6565b81600081526000602082015260406128ad6127c7565b910152565b604090602319011261037d57604051906128cb82610f86565b60243582526044356020830152565b6001600160401b0381160361037d57565b9060808282031261037d5761292590604080519361290885610fa6565b80518552602081015161291a816128da565b6020860152016127e0565b604082015290565b60809361299f6129bb969461294061288a565b50602061294d8451612a08565b9301908151806129f9575b5060005461296e906001600160a01b03166108a6565b95612978866121d1565b9251151592612988610ca7611038565b602087015260408601526060850152151586840152565b6040518096819582946302637a4560e41b84526004840161281c565b03925af19081156109e2576000916129d1575090565b6103db915060803d81116129f2575b6129ea818361100a565b8101906128eb565b503d6129e0565b612a0290612a2a565b38612958565b803410612a125790565b6040516304fb820960e51b8152346004820152602490fd5b6000805460405163393f876560e21b81526020926001600160a01b039283169290918481600481875afa9081156109e2578391612b1f575b5016938415612b0d57612ab592829160405190868201926323b872dd60e01b84523360248401526044830152606482015260648152612aa081610fef565b519082875af1612aae613525565b908461356f565b908151918215159182612af1575b50509050612ace5750565b604051635274afe760e01b81526001600160a01b03919091166004820152602490fd5b611af6925080612b05948301019101612b87565b803880612ac3565b6040516329b99a9560e11b8152600490fd5b90508481813d8311612b4e575b612b36818361100a565b810103126109e75751612b48816104b1565b38612a62565b503d612b2c565b903590601e198136030182121561037d57018035906001600160401b03821161037d5760200191813603831361037d57565b9081602091031261037d57516103db81610bd2565b9091612bb36103db936040845260408401906103a5565b9160208184039101526103a5565b9091612c07612be5612bd9612c2e9560045490612d0c565b6001600160401b031690565b612bfc612bf560a0860186612b55565b3691611060565b906020850135612dc5565b9390928394600014612ca7576002905b611a3f612c23826121c7565b916080810190612b55565b60055490926001600160a01b03909116908382612c4a57505050565b60405163043a78eb60e01b815292602092849283918291612c6e9160048401612b9c565b03915afa80156109e257612c80575b50565b612c7d9060203d8111612ca0575b612c98818361100a565b810190612b87565b503d612c8e565b600190612c17565b356103db816128da565b6103db939260809260018060a01b0316825260208201526000604082015281606082015201906103a5565b8181029291811591840414171561224557565b6004546103db916001600160401b0316612ce4565b8115612d16570490565b634e487b7160e01b600052601260045260246000fd5b612d3d90610c476004548092612d0c565b918291808410612d4a5750565b83604491604051916371c4efed60e01b835260048301526024820152fd5b604c91936103db936040519586936001600160401b0360c01b9060c01b16602085015263ffffffff60e01b9060e01b166028840152602c830152612db58151809260208686019101610382565b810103602c81018452018261100a565b82511580159390612e2357612e209160689160405194859260208401526001600160401b0360c01b9060c01b166040830152336048830152612e108151809260208686019101610382565b810103604881018452018261100a565b91565b50906040519160208301526001600160401b0360c01b9060c01b16604082015260288152612e2081610fa6565b9060201161037d573590565b9060281161037d576020013560c01c90565b908060281161037d576103db9136916027190190602801611060565b91908110156122745760051b8101359061013e198136030182121561037d570190565b356103db816104b1565b929093612f13926001600160401b0360406103db9a98999763ffffffff8135612edf81610588565b168852602081013560208901520135612ef7816128da565b166040860152606085015260e0608085015260e08401916125dd565b6001600160a01b0390941660a082015280840360c0909101526125dd565b60208183031261037d578051906001600160401b03821161037d570181601f8201121561037d578051612f6381611045565b92612f71604051948561100a565b8184526020828401011161037d576103db9160208085019101610382565b6001600160a01b03908116908115612fea5760008051602061361383398151915280546001600160a01b031981168417909155167f8be0079c531659141344cd1fd0a4f28419497f9722a3daafe3b4186f6b6457e0600080a3565b604051631e4fbdf760e01b815260006004820152602490fd5b600080516020613613833981519152546001600160a01b0316330361302457565b60405163118cdaa760e01b8152336004820152602490fd5b60ff6000805160206136d38339815191525460401c161561305957565b604051631afcd79f60e31b8152600490fd5b9081602091031261037d575190565b9081516001600160401b038111610fa1576000805160206135f3833981519152906130ae816130a984546112bf565b6122e2565b602080601f83116001146130de5750819293946000926123bb5750508160011b916000199060031b1c1916179055565b6000805160206135f3833981519152600052601f198316959091907f46a2803e59a4de4e7a4c574b1243f25977ac4c77d5a1a4a609b5394cebb4a2aa926000905b88821061313d5750508360019596971061240057505050811b019055565b8060018596829496860151815501950193019061311f565b6001600160a01b031660009081527f52c63247e1f47db19d5ce0460030c497f067ca4cebf71ba98eeadabe20bace016020526040902090565b6001600160a01b031660009081527f52c63247e1f47db19d5ce0460030c497f067ca4cebf71ba98eeadabe20bace006020526040902090565b916001600160a01b038084169290831561328a578116938415613271576131ec613456565b6131f58161318e565b548381106132425761323d9284926132216000805160206136938339815191529661322794039161318e565b5561318e565b8054820190556040519081529081906020820190565b0390a3565b60405163391434e360e21b81526001600160a01b03929092166004830152602482015260448101839052606490fd5b60405163ec442f0560e01b815260006004820152602490fd5b604051634b637e8f60e11b815260006004820152602490fd5b6001600160a01b03811691908215613271576132bd613456565b60008051602061363383398151915291825490808201809211612245576132f9600080516020613693833981519152936020936000965561318e565b818154019055604051908152a3565b91906001600160a01b03831690811561328a57613323613456565b61332c8461318e565b549381851061337657816020916133576000805160206136938339815191529460009798039161318e565b55600080516020613633833981519152818154039055604051908152a3565b60405163391434e360e21b81526001600160a01b03919091166004820152602481018590526044810191909152606490fd5b91906133b78161050785613155565b54600181016133c65750505050565b8281106133fd576001600160a01b038481161561056f57821615610556576133f392610507910393613155565b5538808080611326565b604051637dc7a0d960e11b81526001600160a01b0392909216600483015260248201526044810191909152606490fd5b61343561303c565b61343d61303c565b6000805160206136b3833981519152805460ff19169055565b60ff6000805160206136b3833981519152541661346f57565b60405163d93c066560e01b8152600490fd5b90813b156135045760008051602061367383398151915280546001600160a01b0319166001600160a01b0384169081179091557fbc7cd75a20ee27fd9adebab32041f755214dbc6bffa90cc0225b39da2e5c2d3b600080a28051156134e957612c7d91613555565b5050346134f257565b60405163b398979f60e01b8152600490fd5b604051634c9c8ce360e01b81526001600160a01b0383166004820152602490fd5b3d15613550573d9061353682611045565b91613544604051938461100a565b82523d6000602084013e565b606090565b6000806103db93602081519101845af461356d613525565b915b90613596575080511561358457805190602001fd5b604051630a12f52160e11b8152600490fd5b815115806135c9575b6135a7575090565b604051639996b31560e01b81526001600160a01b039091166004820152602490fd5b50803b1561359f56fe52c63247e1f47db19d5ce0460030c497f067ca4cebf71ba98eeadabe20bace0352c63247e1f47db19d5ce0460030c497f067ca4cebf71ba98eeadabe20bace049016d09d72d40fdae2fd8ceac6b6234c7706214fd39c1cd1e609a0528c19930052c63247e1f47db19d5ce0460030c497f067ca4cebf71ba98eeadabe20bace02efed6d3500546b29533b128a29e3a94d70788727f0507505ac12eaf2e578fd9c360894a13ba1a3210667c828492db98dca3e2076cc3735a920a3ca505d382bbcddf252ad1be2c89b69c2b068fc378daa952ba7f163c4a11628f55a4df523b3efcd5ed15c6e187e77e9aee88184c21f4f2182ab5827cb3b7e07fbedcd63f03300f0c57e16840df040f15088dc2f81fe391c3923bec73e23a9662efc9c229c6a00a26469706673582212205a55cf0cde63b439bc94599fcbc7175c6bbeafad1dd383e5092cc251b270edb064736f6c63430008140033","linkReferences":{}},"methodIdentifiers":{"SEND()":"1f5e1334","SEND_AND_CALL()":"134d4f25","UPGRADE_INTERFACE_VERSION()":"ad3cb1cc","allowInitializePath((uint32,bytes32,uint64))":"ff7bd03d","allowance(address,address)":"dd62ed3e","approvalRequired()":"9f68b964","approve(address,uint256)":"095ea7b3","balanceOf(address)":"70a08231","burn(uint256)":"42966c68","burnFrom(address,uint256)":"79cc6790","burnFromUser(address,uint256)":"c753e126","combineOptions(uint32,uint16,bytes)":"bc70b354","decimalConversionRate()":"963efcaa","decimals()":"313ce567","endpoint()":"5e280f11","enforcedOptions(uint32,uint16)":"5535d461","initialize(address,address)":"485cc955","isComposeMsgSender((uint32,bytes32,uint64),bytes,address)":"82413eac","isPeer(uint32,bytes32)":"5a0dfe4d","lzReceive((uint32,bytes32,uint64),bytes32,bytes,address,bytes)":"13137d65","lzReceiveAndRevert(((uint32,bytes32,uint64),uint32,address,bytes32,uint256,address,bytes,bytes)[])":"bd815db0","lzReceiveSimulate((uint32,bytes32,uint64),bytes32,bytes,address,bytes)":"d045a0dc","mint(address,uint256)":"40c10f19","msgInspector()":"111ecdad","name()":"06fdde03","nextNonce(uint32,bytes32)":"7d25a05e","oApp()":"52ae2879","oAppVersion()":"17442b70","oftVersion()":"156a0d0f","owner()":"8da5cb5b","pause()":"8456cb59","paused()":"5c975abb","peers(uint32)":"bb0b6a53","preCrime()":"b731ea0a","proxiableUUID()":"52d1902d","quoteOFT((uint32,bytes32,uint256,uint256,bytes,bytes,bytes))":"0d35b415","quoteSend((uint32,bytes32,uint256,uint256,bytes,bytes,bytes),bool)":"3b6f743b","renounceOwnership()":"715018a6","send((uint32,bytes32,uint256,uint256,bytes,bytes,bytes),(uint256,uint256),address)":"c7c7f5b3","setDelegate(address)":"ca5eb5e1","setDstEid(uint32)":"0d14c92e","setEnforcedOptions((uint32,uint16,bytes)[])":"b98bd070","setMsgInspector(address)":"6fc1b31e","setPeer(uint32,bytes32)":"3400288b","setPreCrime(address)":"d4243885","sharedDecimals()":"857749b0","symbol()":"95d89b41","token()":"fc0c546a","totalSupply()":"18160ddd","transfer(address,uint256)":"a9059cbb","transferFrom(address,address,uint256)":"23b872dd","transferOwnership(address)":"f2fde38b","unpause()":"3f4ba83a","upgradeToAndCall(address,bytes)":"4f1ef286"},"id":6}