{"abi":[{"type":"function","name":"UPGRADE_INTERFACE_VERSION","inputs":[],"outputs":[{"name":"","type":"string","internalType":"string"}],"stateMutability":"view"},{"type":"function","name":"initialize","inputs":[{"name":"_borrowing","type":"address","internalType":"address"},{"name":"_cds","type":"address","internalType":"address"},{"name":"_usda","type":"address","internalType":"address"}],"outputs":[],"stateMutability":"nonpayable"},{"type":"function","name":"liquidateBorrowPosition","inputs":[{"name":"_user","type":"address","internalType":"address"},{"name":"_index","type":"uint64","internalType":"uint64"},{"name":"_currentEthPrice","type":"uint64","internalType":"uint64"},{"name":"_globalNoOfLiquidations","type":"uint128","internalType":"uint128"},{"name":"_lastCumulativeRate","type":"uint256","internalType":"uint256"},{"name":"_dstEid","type":"uint32","internalType":"uint32"}],"outputs":[],"stateMutability":"payable"},{"type":"function","name":"owner","inputs":[],"outputs":[{"name":"","type":"address","internalType":"address"}],"stateMutability":"view"},{"type":"function","name":"proxiableUUID","inputs":[],"outputs":[{"name":"","type":"bytes32","internalType":"bytes32"}],"stateMutability":"view"},{"type":"function","name":"renounceOwnership","inputs":[],"outputs":[],"stateMutability":"nonpayable"},{"type":"function","name":"setTreasury","inputs":[{"name":"_treasury","type":"address","internalType":"address"}],"outputs":[],"stateMutability":"nonpayable"},{"type":"function","name":"transferOwnership","inputs":[{"name":"newOwner","type":"address","internalType":"address"}],"outputs":[],"stateMutability":"nonpayable"},{"type":"function","name":"upgradeToAndCall","inputs":[{"name":"newImplementation","type":"address","internalType":"address"},{"name":"data","type":"bytes","internalType":"bytes"}],"outputs":[],"stateMutability":"payable"},{"type":"event","name":"Initialized","inputs":[{"name":"version","type":"uint64","indexed":false,"internalType":"uint64"}],"anonymous":false},{"type":"event","name":"Liquidate","inputs":[{"name":"index","type":"uint64","indexed":false,"internalType":"uint64"},{"name":"liquidationAmount","type":"uint128","indexed":false,"internalType":"uint128"},{"name":"profits","type":"uint128","indexed":false,"internalType":"uint128"},{"name":"ethAmount","type":"uint128","indexed":false,"internalType":"uint128"},{"name":"availableLiquidationAmount","type":"uint256","indexed":false,"internalType":"uint256"}],"anonymous":false},{"type":"event","name":"OwnershipTransferred","inputs":[{"name":"previousOwner","type":"address","indexed":true,"internalType":"address"},{"name":"newOwner","type":"address","indexed":true,"internalType":"address"}],"anonymous":false},{"type":"event","name":"Upgraded","inputs":[{"name":"implementation","type":"address","indexed":true,"internalType":"address"}],"anonymous":false},{"type":"error","name":"AddressEmptyCode","inputs":[{"name":"target","type":"address","internalType":"address"}]},{"type":"error","name":"BorrowLiquidation_LiquidateBurnFailed","inputs":[]},{"type":"error","name":"ERC1967InvalidImplementation","inputs":[{"name":"implementation","type":"address","internalType":"address"}]},{"type":"error","name":"ERC1967NonPayable","inputs":[]},{"type":"error","name":"FailedInnerCall","inputs":[]},{"type":"error","name":"InvalidInitialization","inputs":[]},{"type":"error","name":"InvalidOptionType","inputs":[{"name":"optionType","type":"uint16","internalType":"uint16"}]},{"type":"error","name":"NotInitializing","inputs":[]},{"type":"error","name":"OwnableInvalidOwner","inputs":[{"name":"owner","type":"address","internalType":"address"}]},{"type":"error","name":"OwnableUnauthorizedAccount","inputs":[{"name":"account","type":"address","internalType":"address"}]},{"type":"error","name":"ReentrancyGuardReentrantCall","inputs":[]},{"type":"error","name":"SafeCastOverflowedUintDowncast","inputs":[{"name":"bits","type":"uint8","internalType":"uint8"},{"name":"value","type":"uint256","internalType":"uint256"}]},{"type":"error","name":"UUPSUnauthorizedCallContext","inputs":[]},{"type":"error","name":"UUPSUnsupportedProxiableUUID","inputs":[{"name":"slot","type":"bytes32","internalType":"bytes32"}]}],"bytecode":{"object":"0x60a0806040523461002a573060805261229d908161003082396080518181816102650152611f9e0152f35b600080fdfe6080604052600436101561001257600080fd5b6000803560e01c9081634f1ef286146100aa5750806352d1902d146100a5578063715018a6146100a05780638da5cb5b1461009b57806391ba123114610096578063ad3cb1cc14610091578063c0c53b8b1461008c578063f0f44260146100875763f2fde38b1461008257600080fd5b6115d0565b6114ff565b6113be565b611374565b610380565b610328565b6102bd565b610252565b604036600319011261012a576100be61012d565b6024356001600160401b038111610126573660238201121561012657806004013591836100ea8461022c565b926100f860405194856101bd565b8484523660248683010111610122578461011f956024602093018387013784010152611f91565b80f35b5080fd5b8280fd5b80fd5b600435906001600160a01b038216820361014357565b600080fd5b602435906001600160a01b038216820361014357565b604435906001600160a01b038216820361014357565b634e487b7160e01b600052604160045260246000fd5b6001600160401b03811161019d57604052565b610174565b604081019081106001600160401b0382111761019d57604052565b90601f801991011681019081106001600160401b0382111761019d57604052565b60405190608082018281106001600160401b0382111761019d57604052565b6040519061020a826101a2565b565b604051906101e082018281106001600160401b0382111761019d57604052565b6001600160401b03811161019d57601f01601f191660200190565b600091031261014357565b34610143576000366003190112610143577f00000000000000000000000000000000000000000000000000000000000000006001600160a01b031630036102ab5760206040516000805160206122288339815191528152f35b60405163703e46dd60e11b8152600490fd5b346101435760008060031936011261012a576102d7611f58565b60008051602061220883398151915280546001600160a01b0319811690915581906001600160a01b03167f8be0079c531659141344cd1fd0a4f28419497f9722a3daafe3b4186f6b6457e08280a380f35b3461014357600036600319011261014357600080516020612208833981519152546040516001600160a01b039091168152602090f35b6001600160401b0381160361014357565b6001600160801b0381160361014357565b60c03660031901126101435761039461012d565b61039f60243561035e565b6103aa60443561035e565b6103b560643561036f565b63ffffffff60a4351660a43503610143576000546001600160a01b031633036112cb576001546103f5906001600160a01b03165b6001600160a01b031690565b604051634d5c56a560e01b81526001600160a01b0383166004820152602480356001600160401b03169082015261020081604481855afa8015610e8d5760209160009161129a575b5001519161045e610459610455610120860151151590565b1590565b6117de565b60208301516001600160801b03166040516340d86d7b60e01b81529290602084600481855afa918215610e8d57600494600093611278575b5060209060405195868092630d2d491360e21b82525afa938415610e8d57610522946104e0936104ce92600092611257575b50611844565b6001600160801b039091161115611856565b6080830151604051636614cc0560e01b81526001600160801b039091166004820152604480356001600160401b03166024830152909260209184918291820190565b038173__$87511a64ad1cd7dc6108642f468c9b94de$__5af48015610e8d57611f40610565916105f394600091611238575b506001600160801b031611156118ba565b600161012084015260c08301516105af9061059d9060843590610598906001600160801b03165b6001600160801b031690565b61191e565b6b033b2e3c9fd0803ce8000000900490565b6020848101516080860151604051632586399d60e21b81526001600160801b0392831660048201529082166024820152908316604482015293849081906064820190565b038173__$87511a64ad1cd7dc6108642f468c9b94de$__5af4928315610e8d57600093611217575b50600154610631906001600160a01b03166103e9565b803b15610143576040516302c235d160e31b81526001600160801b038516600482015260016024820152906000908290604490829084905af18015610e8d57611204575b506106f36106e3846106de876106de6106cd6106b861069d602085015160018060801b031690565b608094909401516001600160801b038a811695911690611931565b64e8d4a510006001600160801b039091160490565b60646001600160801b039091160490565b61194d565b936001600160801b038316611966565b60025490949061070b906001600160a01b03166103e9565b916040516329cd965b60e21b8152602081600481875afa8015610e8d57610746916000916111e5575b506001600160801b038816111561197f565b61074e6119de565b5060208201516001600160801b0316906040516329cd965b60e21b8152602081600481885afa908115610e8d576000916111c6575b506107bb61078f6101de565b6001600160801b038a168152936001600160801b03891660208601526001600160801b03166040850152565b60608301526040516315d9753160e11b8152602081600481885afa908115610e8d576000916111a7575b50604051636a7889f360e11b815294602086600481845afa958615610e8d57600096611180575b50906020600092600460405180958193636e48f3a960e11b83525af18015610e8d57600492600091611161575b50600254602090610852906001600160a01b03166103e9565b6040516329cd965b60e21b815294859182905afa928315610e8d576020938b926108c792600092611142575b5060405163ad47fc5360e01b81526001600160801b03909416600485015260248401949094526044830198909852606482019290925260848101969096528590819060a4820190565b038173__$87511a64ad1cd7dc6108642f468c9b94de$__5af4938415610e8d57600094611121575b506040516372a4428360e11b81526001600160801b03888116600483015285811660248301819052908816604483015260208260648173__$87511a64ad1cd7dc6108642f468c9b94de$__5af4908115610e8d5761096a926000926110e8575b5061095d610964918b61194d565b918961194d565b9061194d565b60025461097f906001600160a01b03166103e9565b803b15610143576000604051809263b3013d4d60e01b82528183816109aa8a60643560048401611a42565b03925af18015610e8d576110d5575b506002546109cf906001600160a01b03166103e9565b803b156101435760405163dc55b19360e01b81526001600160801b0383166004820152906000908290602490829084905af18015610e8d576110c2575b50600254610a22906001600160a01b03166103e9565b803b1561014357604051634baf580d60e01b81526001600160801b0383166004820152906000908290602490829084905af18015610e8d576110af575b50600254610a75906001600160a01b03166103e9565b803b1561014357604051634cae95d360e01b81526001600160801b039290921660048301526000908290602490829084905af18015610e8d5761109c575b50600154610ac9906001600160a01b03166103e9565b60208401516001600160801b03169190803b156101435760405163cd0220c960e01b81526001600160801b03939093166004840152600160248401526000908390604490829084905af1918215610e8d57610b4192611089575b5060a0840151610b3b906001600160801b031661058c565b90611844565b600154610b56906001600160a01b03166103e9565b803b15610143576040516308fc416760e21b815260048101929092526000908290602490829084905af18015610e8d57611076575b50600154610ba1906001600160a01b03166103e9565b803b156101435760006040518092638fabe74f60e01b8252818381610bcd896024358d60048501611a62565b03925af18015610e8d57611063575b50610bed610be8611dab565b611dc5565b600254610c02906001600160a01b03166103e9565b60408051632b4a4c0d60e21b8152939184908180610c2d87606435888d808060a43560048901611c06565b03915afa928315610e8d57600093611032575b508285610f50575b600254608092908790610c63906001600160a01b03166103e9565b91835190610c9060405197889687958694633bd50f5760e21b865260643591808060a43560048a01611cbb565b03925af18015610e8d57610f21575b50600154610cb5906001600160a01b03166103e9565b60a08301516001600160801b031690803b1561014357604051635e44fb0560e01b81523060048201526001600160801b039290921660248301526000908290604490829084905af18015610e8d57610f08575b50600354610d7c90602090610d25906001600160a01b03166103e9565b600154610d3a906001600160a01b03166103e9565b60a08601516040516363a9f09360e11b81526001600160a01b0390921660048301526001600160801b0316602482015292839190829060009082906044820190565b03925af1908115610e8d57600091610ed9575b5015610ec757610db29360209315610e92575b505001516001600160801b031690565b9160006020610dcb6103e960025460018060a01b031690565b600460405180948193636e48f3a960e11b83525af18015610e8d577f7a965b40f4fbf2d5cd719f1d8acff4dd4de67b89356211ec5a7e474d8f861db094610e5792600092610e5c575b50604080516024356001600160401b031681526001600160801b0395861660208201529585169086015290921660608401526080830191909152819060a0820190565b0390a1005b610e7f91925060203d602011610e86575b610e7781836101bd565b81019061181f565b9038610e14565b503d610e6d565b6117d2565b600080808093610ea6610ec0965134611844565b906001600160a01b03165af1610eba611d38565b50611d68565b3880610da2565b6040516331e70eb560e11b8152600490fd5b610efb915060203d602011610f01575b610ef381836101bd565b810190611d24565b38610d8f565b503d610ee9565b80610f15610f1b9261018a565b80610247565b38610d08565b610f429060803d608011610f49575b610f3a81836101bd565b810190611c69565b5038610c9f565b503d610f30565b50600154610ff89190608090610f6e906001600160a01b03166103e9565b610f79865134611844565b90610f826101fd565b6001600160a01b0382168152896020820152610f9c6101fd565b6000808252602080830191825260405163f5dee49360e01b81526002600482015284516001600160a01b0390811660248301529490910151604482015291519092166064820152905160848201529485928391829060a4820190565b03925af1908115610e8d576080928592611015575b509150610c48565b61102b90843d8611610f4957610f3a81836101bd565b503861100d565b61105591935060403d60401161105c575b61104d81836101bd565b810190611bf2565b9138610c40565b503d611043565b80610f156110709261018a565b38610bdc565b80610f156110839261018a565b38610b8b565b80610f156110969261018a565b38610b23565b80610f156110a99261018a565b38610ab3565b80610f156110bc9261018a565b38610a5f565b80610f156110cf9261018a565b38610a0c565b80610f156110e29261018a565b386109b9565b61096491925061111261095d9160203d60201161111a575b61110a81836101bd565b8101906118a2565b92915061094f565b503d611100565b61113b91945060203d602011610e8657610e7781836101bd565b92386108ef565b61115a919250863d8811610e8657610e7781836101bd565b903861087e565b61117a915060203d602011610e8657610e7781836101bd565b38610839565b60009291965061119e602091823d8411610e8657610e7781836101bd565b9691925061080c565b6111c0915060203d602011610e8657610e7781836101bd565b386107e5565b6111df915060203d602011610e8657610e7781836101bd565b38610783565b6111fe915060203d602011610e8657610e7781836101bd565b38610734565b80610f156112119261018a565b38610675565b61123191935060203d60201161111a5761110a81836101bd565b913861061b565b611251915060203d60201161111a5761110a81836101bd565b38610554565b61127191925060203d602011610e8657610e7781836101bd565b90386104c8565b602091935061129390823d8411610e8657610e7781836101bd565b9290610496565b6112be91506102003d610200116112c4575b6112b681836101bd565b810190611686565b3861043d565b503d6112ac565b60405162461bcd60e51b815260206004820152603360248201527f546869732066756e6374696f6e2063616e206f6e6c792063616c6c656420627960448201527208189bdc9c9bddda5b99c818dbdb9d1c9858dd606a1b6064820152608490fd5b60005b83811061133f5750506000910152565b818101518382015260200161132f565b906020916113688151809281855285808601910161132c565b601f01601f1916010190565b34610143576000366003190112610143576113ba604051611394816101a2565b60058152640352e302e360dc1b602082015260405191829160208352602083019061134f565b0390f35b34610143576060366003190112610143576113d761012d565b6113df610148565b906113e861015e565b60008051602061224883398151915254926001600160401b0360ff8560401c16159416801590816114f7575b60011490816114ed575b1590816114e4575b506114d257600080516020612248833981519152805467ffffffffffffffff1916600117905561145a92846114ad576115f9565b61146057005b600080516020612248833981519152805460ff60401b19169055604051600181527fc7f505b2f371ae2175ee4913f4499e1f2633a7b5936321eed1cdaeb6115181d2908060208101610e57565b600080516020612248833981519152805460ff60401b1916600160401b1790556115f9565b60405163f92ee8a960e01b8152600490fd5b90501538611426565b303b15915061141e565b859150611414565b346101435760203660031901126101435761151861012d565b611520611f58565b6001600160a01b0381169081151590816115c5575b501561155e57600180546001600160a01b0319166001600160a01b03909216919091179055005b005b60405162461bcd60e51b815260206004820152603960248201527f5472656173757279206d75737420626520636f6e7472616374206164647265736044820152787320262063616e2774206265207a65726f206164647265737360381b6064820152608490fd5b90503b151538611535565b346101435760203660031901126101435761155c6115ec61012d565b6115f4611f58565b611ee4565b9161160333611ee4565b60ff6000805160206122488339815191525460401c16156116515760018060a01b0380928160018060a01b031995168560005416176000551683600254161760025516906003541617600355565b604051631afcd79f60e31b8152600490fd5b519061020a8261035e565b519061020a8261036f565b5190811515820361014357565b8091036102008112610143576040519161169f836101a2565b80516116aa8161035e565b83526101e08092601f190112610143576117c66116c561020c565b926116d260208401611663565b84526116e06040840161166e565b60208501526116f16060840161166e565b604085015261170260808401611663565b606085015261171360a0840161166e565b608085015261172460c0840161166e565b60a085015261173560e0840161166e565b60c085015261010092611749848201611679565b60e08601526101209361175d85830161166e565b9086015261014093611770858301611679565b9086015261016093611783858301611663565b9086015261018093611796858301611663565b908601526101a0936117a985830161166e565b908601526101c0936117bc85830161166e565b908601520161166e565b90820152602082015290565b6040513d6000823e3d90fd5b156117e557565b60405162461bcd60e51b8152602060048201526012602482015271105b1c9958591e48131a5c5d5a59185d195960721b6044820152606490fd5b90816020910312610143575190565b634e487b7160e01b600052601160045260246000fd5b9190820391821161185157565b61182e565b1561185d57565b60405162461bcd60e51b815260206004820152601c60248201527f4e6f7420656e6f7567682066756e647320696e207472656173757279000000006044820152606490fd5b9081602091031261014357516118b78161036f565b90565b156118c157565b60405162461bcd60e51b815260206004820152602f60248201527f596f752063616e6e6f74206c69717569646174652c20726174696f206973206760448201526e0e4cac2e8cae440e8d0c2dc40605c7608b1b6064820152608490fd5b8181029291811591840414171561185157565b6001600160801b03918216908216029081169190820361185157565b6001600160801b03918216908216039190821161185157565b6001600160801b03918216908216019190821161185157565b1561198657565b60405162461bcd60e51b815260206004820152602a60248201527f446f6e2774206861766520656e6f756768205553446120696e2043445320746f604482015269206c697175696461746560b01b6064820152608490fd5b60405190608082018281106001600160401b0382111761019d5760405260006060838281528260208201528260408201520152565b6060809160018060801b0380825116855280602083015116602086015260408201511660408501520151910152565b6001600160801b03909116815260a08101929161020a9160200190611a13565b6001600160a01b0390911681526001600160401b039182166020820152825190911660408201526102208101929161020a91906102009060208101516001600160801b0316606084015260408101516001600160801b0316608084015260608101516001600160401b031660a084015260808101516001600160801b031660c084015260a08101516001600160801b031660e084015260c08101516001600160801b03166101008481019190915290611bba60e082015192611b2b610120948588019015159052565b8201516001600160801b0316610140868101919091529282015192611b57610160948588019015159052565b82015192611b7361018094858801906001600160401b03169052565b82015192611b8f6101a094858801906001600160401b03169052565b8201516001600160801b03166101c086810191909152928201516001600160801b03166101e0860152565b01516001600160801b0316910152565b919082604091031261014357604051611be2816101a2565b6020808294805184520151910152565b90604082820312610143576118b791611bca565b97969294611c6494610160966000989463ffffffff611c4295168c52600260208d015260408c015260608b015260808a015260a0890190611a13565b6001600160801b0316610120870152610180610140870181905286019061134f565b930152565b6080818303126101435760405191606083018381106001600160401b0382111761019d57611cb3926040918252805185526020810151611ca88161035e565b602086015201611bca565b604082015290565b9592936118b7989794611cf39363ffffffff602098941689526002888a015260408901526060880152608087015260a0860190611a13565b6001600160801b0316610120840152805161014084015201516101608201526101a06101808201819052019061134f565b90816020910312610143576118b790611679565b3d15611d63573d90611d498261022c565b91611d5760405193846101bd565b82523d6000602084013e565b606090565b15611d6f57565b60405162461bcd60e51b81526020600482015260146024820152732330b4b632b2103a379039b2b7321022ba3432b960611b6044820152606490fd5b604051600360f01b6020820152600281526118b7816101a2565b61ffff90600382611dd5836121bb565b1603611e8357604051610c3560861b60208201526010815290611df7826101a2565b600383611e03836121bb565b1603611e61578151838111611e4257831660010192831161185157611e346118b79260405194859360208501611e8f565b03601f1981018352826101bd565b604490604051906306dfcc6560e41b8252601060048301526024820152fd5b82611e6d6024926121bb565b604051633a51740d60e01b815291166004820152fd5b90611e6d6024926121bb565b602090611ea660049594938281519485920161132c565b600160f81b910181815260f09290921b6001600160f01b03191660018301526003820152815191611edf9083908584019060200161132c565b010190565b6001600160a01b03908116908115611f3f5760008051602061220883398151915280546001600160a01b031981168417909155167f8be0079c531659141344cd1fd0a4f28419497f9722a3daafe3b4186f6b6457e0600080a3565b604051631e4fbdf760e01b815260006004820152602490fd5b600080516020612208833981519152546001600160a01b03163303611f7957565b60405163118cdaa760e01b8152336004820152602490fd5b6001600160a01b039290917f0000000000000000000000000000000000000000000000000000000000000000841630811490811561207c575b506102ab576020600494611fdc611f58565b6040516352d1902d60e01b8152958691829087165afa6000948161205c575b5061202157604051634c9c8ce360e01b81526001600160a01b0384166004820152602490fd5b909160008051602061222883398151915284036120435761020a929350612098565b604051632a87526960e21b815260048101859052602490fd5b61207591955060203d8111610e8657610e7781836101bd565b9338611ffb565b9050846000805160206122288339815191525416141538611fca565b90813b1561211e5760008051602061222883398151915280546001600160a01b0319166001600160a01b0384169081179091557fbc7cd75a20ee27fd9adebab32041f755214dbc6bffa90cc0225b39da2e5c2d3b600080a2805115612103576121009161213f565b50565b50503461210c57565b60405163b398979f60e01b8152600490fd5b604051634c9c8ce360e01b81526001600160a01b0383166004820152602490fd5b6000806118b793602081519101845af4612157611d38565b919061217f575080511561216d57805190602001fd5b604051630a12f52160e11b8152600490fd5b815115806121b2575b612190575090565b604051639996b31560e01b81526001600160a01b039091166004820152602490fd5b50803b15612188565b60028151106121cb576002015190565b60405162461bcd60e51b8152602060048201526014602482015273746f55696e7431365f6f75744f66426f756e647360601b6044820152606490fdfe9016d09d72d40fdae2fd8ceac6b6234c7706214fd39c1cd1e609a0528c199300360894a13ba1a3210667c828492db98dca3e2076cc3735a920a3ca505d382bbcf0c57e16840df040f15088dc2f81fe391c3923bec73e23a9662efc9c229c6a00a2646970667358221220a3e91c2794effc91ad027b3bfd478788629f8950331b078ce87a66e7e210d3da64736f6c63430008140033","linkReferences":{"contracts/lib/BorrowLib.sol":{"BorrowLib":[{"start":1366,"length":20},{"start":1575,"length":20},{"start":2299,"length":20},{"start":2391,"length":20}]}}},"methodIdentifiers":{"UPGRADE_INTERFACE_VERSION()":"ad3cb1cc","initialize(address,address,address)":"c0c53b8b","liquidateBorrowPosition(address,uint64,uint64,uint128,uint256,uint32)":"91ba1231","owner()":"8da5cb5b","proxiableUUID()":"52d1902d","renounceOwnership()":"715018a6","setTreasury(address)":"f0f44260","transferOwnership(address)":"f2fde38b","upgradeToAndCall(address,bytes)":"4f1ef286"},"id":2}