{"abi":[{"type":"function","name":"EMPTY_PAYLOAD_HASH","inputs":[],"outputs":[{"name":"","type":"bytes32","internalType":"bytes32"}],"stateMutability":"view"},{"type":"function","name":"NIL_PAYLOAD_HASH","inputs":[],"outputs":[{"name":"","type":"bytes32","internalType":"bytes32"}],"stateMutability":"view"},{"type":"function","name":"endpoint","inputs":[],"outputs":[{"name":"","type":"address","internalType":"contract ILayerZeroEndpointV2"}],"stateMutability":"view"},{"type":"function","name":"executable","inputs":[{"name":"_origin","type":"tuple","internalType":"struct Origin","components":[{"name":"srcEid","type":"uint32","internalType":"uint32"},{"name":"sender","type":"bytes32","internalType":"bytes32"},{"name":"nonce","type":"uint64","internalType":"uint64"}]},{"name":"_receiver","type":"address","internalType":"address"}],"outputs":[{"name":"","type":"uint8","internalType":"enum ExecutionState"}],"stateMutability":"view"},{"type":"function","name":"initializable","inputs":[{"name":"_origin","type":"tuple","internalType":"struct Origin","components":[{"name":"srcEid","type":"uint32","internalType":"uint32"},{"name":"sender","type":"bytes32","internalType":"bytes32"},{"name":"nonce","type":"uint64","internalType":"uint64"}]},{"name":"_receiver","type":"address","internalType":"address"}],"outputs":[{"name":"","type":"bool","internalType":"bool"}],"stateMutability":"view"},{"type":"function","name":"verifiable","inputs":[{"name":"_origin","type":"tuple","internalType":"struct Origin","components":[{"name":"srcEid","type":"uint32","internalType":"uint32"},{"name":"sender","type":"bytes32","internalType":"bytes32"},{"name":"nonce","type":"uint64","internalType":"uint64"}]},{"name":"_receiver","type":"address","internalType":"address"},{"name":"_receiveLib","type":"address","internalType":"address"},{"name":"_payloadHash","type":"bytes32","internalType":"bytes32"}],"outputs":[{"name":"","type":"bool","internalType":"bool"}],"stateMutability":"view"},{"type":"event","name":"Initialized","inputs":[{"name":"version","type":"uint64","indexed":false,"internalType":"uint64"}],"anonymous":false},{"type":"error","name":"InvalidInitialization","inputs":[]},{"type":"error","name":"NotInitializing","inputs":[]}],"bytecode":{"object":"0x60808060405234610016576106b7908161001c8239f35b600080fdfe60806040818152600436101561001457600080fd5b600091823560e01c9081632baf0be714610181575080634b4b2efb1461012d5780635e280f1114610106578063861e1ca5146100d7578063cb5026b9146100bd5763e1e3a7df1461006457600080fd5b346100b95760c03660031901126100b95761007e366101d5565b91610087610232565b608435916001600160a01b03831683036100b65750926100ad9160209460a4359261031d565b90519015158152f35b80fd5b5080fd5b50346100b957816003193601126100b95751908152602090f35b50346100b95760803660031901126100b9576020906100ad6100f8366101d5565b610100610232565b906102a1565b50346100b957816003193601126100b957905490516001600160a01b039091168152602090f35b50346100b95760803660031901126100b95761015961014b366101d5565b610153610232565b90610441565b905190600481101561016d57602092508152f35b634e487b7160e01b83526021600452602483fd5b8390346100b957816003193601126100b9576000198152602090f35b90601f8019910116810190811067ffffffffffffffff8211176101bf57604052565b634e487b7160e01b600052604160045260246000fd5b606090600319011261022d576040519067ffffffffffffffff60608301818111848210176101bf576040528260043563ffffffff8116810361022d5781526024356020820152604435918216820361022d5760400152565b600080fd5b606435906001600160a01b038216820361022d57565b9081602091031261022d5751801515810361022d5790565b815163ffffffff1681526020808301519082015260409182015167ffffffffffffffff16918101919091526001600160a01b03909116606082015260800190565b60005460405163861e1ca560e01b81529260209284926001600160a01b031691839182916102d29160048401610260565b03915afa600091816102ed575b506102ea5750600090565b90565b61030f91925060203d8111610316575b610307818361019d565b810190610248565b90386102df565b503d6102fd565b600080548251604051639d7f977560e01b81526001600160a01b03808716600483015263ffffffff92909216602482015295811660448701529195946020949190921692918481606481875afa9081156104165787916103f9575b50156103f15760405163c9a54a9960e01b81529284928492839182916103a19160048401610260565b03915afa9182156103e65784926103c9575b5050156103c557156102ea5750600190565b5090565b6103df9250803d1061031657610307818361019d565b38806103b3565b6040513d86823e3d90fd5b505050505090565b6104109150853d871161031657610307818361019d565b38610378565b6040513d89823e3d90fd5b9081602091031261022d575167ffffffffffffffff8116810361022d5790565b60018060a01b03600092818454169263ffffffff908181511692602095868301968751926040928386019767ffffffffffffffff95868a51169186519b63c9fc7bcd60e01b8d52851660048d015260248c015260448b015260648a01528289608481845afa988915610677578b99610644575b5088159889806105c0575b6105af576000191415998a9788610505575b505050505050505090506104fd571590816104f5575b506104ef5790565b50600190565b9050386104e7565b505050600290565b866105539799508596989a511699511690519287519687948593849363283750ff60e21b85526004850163ffffffff604092959493606083019660018060a01b031683521660208201520152565b03915afa9283156105a657508792610579575b50501610158038808080808080806104d1565b6105989250803d1061059f575b610590818361019d565b810190610421565b3880610566565b503d610586565b513d89823e3d90fd5b505050505050505050505050600390565b50885187518c5187516305b17bb760e41b81526001600160a01b0387166004820152918b1663ffffffff1660248301526044820152908716908581606481875afa908115610638579088918f9161061b575b501610156104bf565b6106329150873d891161059f57610590818361019d565b38610612565b8e8851903d90823e3d90fd5b9098508281813d8311610670575b61065c818361019d565b8101031261066c575197386104b4565b8a80fd5b503d610652565b84513d8d823e3d90fdfea264697066735822122082922055a5848aafed9ec30d84ae429679a93d0d3ab2c958f1f4b6bb52114de264736f6c63430008140033","linkReferences":{}},"methodIdentifiers":{"EMPTY_PAYLOAD_HASH()":"cb5026b9","NIL_PAYLOAD_HASH()":"2baf0be7","endpoint()":"5e280f11","executable((uint32,bytes32,uint64),address)":"4b4b2efb","initializable((uint32,bytes32,uint64),address)":"861e1ca5","verifiable((uint32,bytes32,uint64),address,address,bytes32)":"e1e3a7df"},"id":75}