{"abi":[{"type":"function","name":"UPGRADE_INTERFACE_VERSION","inputs":[],"outputs":[{"name":"","type":"string","internalType":"string"}],"stateMutability":"view"},{"type":"function","name":"approveBorrowingPause","inputs":[],"outputs":[],"stateMutability":"nonpayable"},{"type":"function","name":"approveBorrowingUnPause","inputs":[],"outputs":[],"stateMutability":"nonpayable"},{"type":"function","name":"approveCDSPause","inputs":[],"outputs":[],"stateMutability":"nonpayable"},{"type":"function","name":"approveCDSUnPause","inputs":[],"outputs":[],"stateMutability":"nonpayable"},{"type":"function","name":"approvePause","inputs":[{"name":"functions","type":"uint8[]","internalType":"uint8[]"}],"outputs":[],"stateMutability":"nonpayable"},{"type":"function","name":"approveSetterFunction","inputs":[{"name":"functions","type":"uint8[]","internalType":"uint8[]"}],"outputs":[],"stateMutability":"nonpayable"},{"type":"function","name":"approveUnPause","inputs":[{"name":"functions","type":"uint8[]","internalType":"uint8[]"}],"outputs":[],"stateMutability":"nonpayable"},{"type":"function","name":"approvedToUpdate","inputs":[{"name":"","type":"uint8","internalType":"enum MultiSign.SetterFunctions"},{"name":"owner","type":"address","internalType":"address"}],"outputs":[{"name":"approved","type":"bool","internalType":"bool"}],"stateMutability":"view"},{"type":"function","name":"executeSetterFunction","inputs":[{"name":"_function","type":"uint8","internalType":"enum MultiSign.SetterFunctions"}],"outputs":[{"name":"","type":"bool","internalType":"bool"}],"stateMutability":"nonpayable"},{"type":"function","name":"functionState","inputs":[{"name":"","type":"uint8","internalType":"enum MultiSign.Functions"}],"outputs":[{"name":"paused","type":"bool","internalType":"bool"}],"stateMutability":"view"},{"type":"function","name":"initialize","inputs":[{"name":"_owners","type":"address[]","internalType":"address[]"},{"name":"_requiredApprovals","type":"uint64","internalType":"uint64"}],"outputs":[],"stateMutability":"nonpayable"},{"type":"function","name":"isOwner","inputs":[{"name":"","type":"address","internalType":"address"}],"outputs":[{"name":"","type":"bool","internalType":"bool"}],"stateMutability":"view"},{"type":"function","name":"owner","inputs":[],"outputs":[{"name":"","type":"address","internalType":"address"}],"stateMutability":"view"},{"type":"function","name":"pauseBorrowing","inputs":[],"outputs":[],"stateMutability":"nonpayable"},{"type":"function","name":"pauseCDS","inputs":[],"outputs":[],"stateMutability":"nonpayable"},{"type":"function","name":"pauseFunction","inputs":[{"name":"functions","type":"uint8[]","internalType":"uint8[]"}],"outputs":[],"stateMutability":"nonpayable"},{"type":"function","name":"proxiableUUID","inputs":[],"outputs":[{"name":"","type":"bytes32","internalType":"bytes32"}],"stateMutability":"view"},{"type":"function","name":"renounceOwnership","inputs":[],"outputs":[],"stateMutability":"nonpayable"},{"type":"function","name":"transferOwnership","inputs":[{"name":"newOwner","type":"address","internalType":"address"}],"outputs":[],"stateMutability":"nonpayable"},{"type":"function","name":"unpauseBorrowing","inputs":[],"outputs":[],"stateMutability":"nonpayable"},{"type":"function","name":"unpauseCDS","inputs":[],"outputs":[],"stateMutability":"nonpayable"},{"type":"function","name":"unpauseFunction","inputs":[{"name":"functions","type":"uint8[]","internalType":"uint8[]"}],"outputs":[],"stateMutability":"nonpayable"},{"type":"function","name":"upgradeToAndCall","inputs":[{"name":"newImplementation","type":"address","internalType":"address"},{"name":"data","type":"bytes","internalType":"bytes"}],"outputs":[],"stateMutability":"payable"},{"type":"event","name":"Initialized","inputs":[{"name":"version","type":"uint64","indexed":false,"internalType":"uint64"}],"anonymous":false},{"type":"event","name":"OwnershipTransferred","inputs":[{"name":"previousOwner","type":"address","indexed":true,"internalType":"address"},{"name":"newOwner","type":"address","indexed":true,"internalType":"address"}],"anonymous":false},{"type":"event","name":"Upgraded","inputs":[{"name":"implementation","type":"address","indexed":true,"internalType":"address"}],"anonymous":false},{"type":"error","name":"AddressEmptyCode","inputs":[{"name":"target","type":"address","internalType":"address"}]},{"type":"error","name":"ERC1967InvalidImplementation","inputs":[{"name":"implementation","type":"address","internalType":"address"}]},{"type":"error","name":"ERC1967NonPayable","inputs":[]},{"type":"error","name":"FailedInnerCall","inputs":[]},{"type":"error","name":"InvalidInitialization","inputs":[]},{"type":"error","name":"NotInitializing","inputs":[]},{"type":"error","name":"OwnableInvalidOwner","inputs":[{"name":"owner","type":"address","internalType":"address"}]},{"type":"error","name":"OwnableUnauthorizedAccount","inputs":[{"name":"account","type":"address","internalType":"address"}]},{"type":"error","name":"UUPSUnauthorizedCallContext","inputs":[]},{"type":"error","name":"UUPSUnsupportedProxiableUUID","inputs":[{"name":"slot","type":"bytes32","internalType":"bytes32"}]}],"bytecode":{"object":"0x60a0806040523461002a57306080526129419081610030823960805181818161130501526113d80152f35b600080fdfe6080604052600436101561001257600080fd5b60003560e01c8063167c631414611e315780631c44143314611d295780632f54bf6e14611cea5780633ea940e114611c975780634580a448146119a0578063475d9694146115885780634f1ef2861461135d57806352d1902d146112f25780635637e6ae146111a85780636ee4798c14611134578063715018a6146110ca5780638a127639146110725780638da5cb5b1461103c5780638f2a456c14610fc857806397d88fcb14610e415780639b4a954414610e0b578063ad3cb1cc14610d7a578063bb6484c014610a7a578063cff4ed5f146109c7578063d6011d741461081f578063d8378add14610717578063e3583d4d1461027b578063f2fde38b146102505763fb8c92781461012457600080fd5b3461024b5760208060031936011261024b5760043590600a82101561024b576001805460ff600891821c8116946000929091835b876001600160401b038216106101f55750849596506001600160401b039161018a600395848088541691161015612737565b6000865b61019d575b8887604051908152f35b828754831c1684821610156101f0576101ea906101b986612332565b6101c282612404565b905490891b1c6001600160a01b03166000908152908b5260409020805460ff191690556123ac565b8661018e565b610193565b6101fe84612332565b61020782612404565b60018060a01b0391549060031b1c1660005287528160406000205416610236575b610231906123ac565b610158565b9361024361023191612783565b949050610228565b600080fd5b3461024b57602036600319011261024b5761027961026c612241565b61027461280f565b61279b565b005b3461024b57604036600319011261024b576004356001600160401b03811161024b573660238201121561024b5780600401356102b681612293565b916102c46040519384612257565b8183526024602084019260051b8201019036821161024b57602401915b8183106106f757602435846001600160401b038216820361024b576000805160206128ec83398151915254916001600160401b038316801590816106e7575b60011490816106dd575b1590816106d4575b506106c25760016001600160401b03198416176000805160206128ec8339815191525560ff8360401c1615610695575b61036b3361279b565b60ff6000805160206128ec8339815191525460401c16156106835781519260ff84161561064c57600a60ff196001541617600155600a60ff8516116105e9576001600160401b0382161515806105d3575b156105825760005b6001600160401b03811660ff86168110156104ef576001600160a01b03906103ec90866123da565b51169081156104ba5781600052600260205260ff60406000205416610483576000828152600260205260408120805460ff191660011790555491600160401b83101561046d576104458360016104689501600055612404565b81546001600160a01b0360039290921b91821b191692901b9190911790556123ac565b6103c4565b634e487b7160e01b600052604160045260246000fd5b60405162461bcd60e51b815260206004820152600f60248201526e223ab83634b1b0ba329037bbb732b960891b6044820152606490fd5b60405162461bcd60e51b815260206004820152600d60248201526c24b73b30b634b21037bbb732b960991b6044820152606490fd5b60ff83876001600160401b0387166001600160401b0319600354161760035561ff006001549160081b169061ff0019161760015560401c161561052e57005b60ff60401b196000805160206128ec83398151915254166000805160206128ec833981519152557fc7f505b2f371ae2175ee4913f4499e1f2633a7b5936321eed1cdaeb6115181d2602060405160018152a1005b60405162461bcd60e51b8152602060048201526024808201527f496e76616c6964206e756d626572206f6620726571756972656420617070726f60448201526376616c7360e01b6064820152608490fd5b5060ff84166001600160401b03831611156103bc565b60405162461bcd60e51b815260206004820152603560248201527f4e756d626572206f66206f776e6572732073686f756c642062652062656c6f77604482015274081b585e1a5b5d5b481bdddb995c9cc81b1a5b5a5d605a1b6064820152608490fd5b60405162461bcd60e51b815260206004820152600f60248201526e13dddb995c9cc81c995c5d5a5c9959608a1b6044820152606490fd5b604051631afcd79f60e31b8152600490fd5b68ffffffffffffffffff19831668010000000000000001176000805160206128ec83398151915255610362565b60405163f92ee8a960e01b8152600490fd5b90501584610332565b303b15915061032a565b604085901c60ff16159150610320565b82356001600160a01b038116810361024b578152602092830192016102e1565b3461024b57600036600319011261024b573360005260206002815261074360ff60406000205416612431565b6004600052600690818152604060002033600052815261076b60ff6040600020541615612653565b6005600052818152604060002033600052815261079060ff604060002054161561269f565b8160005281815260406000203360005281526107b460ff60406000205416156126eb565b6004600052818152604060002033600052815260406000209160ff199260018482541617905560056000528082526040600020336000528252604060002060018482541617905580600052815260406000209033600052526001604060002091825416179055600080f35b3461024b5761082d366122aa565b3360005260206002815260ff6108498160406000205416612431565b8083511661085881151561246c565b60005b82811682811015610279578061087d8561087681948a6123da565b51166124b7565b60018054600090600890811c8616825b816001600160401b038216106109615750506001600160401b03906108bc600393838086541691161015612737565b6000845b6108f7575b5050505050506108e06108f293926108766108e5938a6123da565b612393565b805460ff191690556124a6565b61085b565b90919293949596808654841c16848316101561095a575061094d859161091c8861237a565b61092582612404565b905490881b1c6001600160a01b03166000908152908e5260409020805460ff191690556123ac565b8a979695949392916108c0565b96956108c5565b90919293949596506109728661237a565b61097b82612404565b60018060a01b0391549060031b1c166000528b5289604060002054166109b2575b6109a5906123ac565b908996959493929161088d565b926109bf6109a591612783565b93905061099c565b3461024b576109d5366122aa565b336000526020906002825260ff916109f38360406000205416612431565b8282511691610a0383151561246c565b60005b848116908482101561027957610a5a610a3887610a3185610a3d610a3884610a31610a759a8c6123da565b5116612505565b612332565b336000528952610a548360406000205416156124c6565b876123da565b3360005284526040600020600160ff198254161790556124a6565b610a06565b3461024b57600036600319011261024b573360005260206002815260ff610aa78160406000205416612431565b600180546008939192600091851c8116825b816001600160401b03821610610d1f5750506001600160401b0390610ae8600393838086541691161015612737565b846000815b610cea575b5050600080828754891c16905b8185821610610c8e575050610b1c90838086541691161015612737565b846000815b610c5a575b50506000956000828754831c16905b8185821610610bfd575050610b538697848087541691161015612737565b6000865b610ba0575b8660078760046000525260406000209060ff199181838254161790556005600052604060002081838254161790556006600052604060002091825416179055600080f35b828754831c168482161015610bf857610bf2906006600052600587526040600020610bca82612404565b905490881b1c6001600160a01b0316600090815290885260409020805460ff191690556123ac565b86610b57565b610b5c565b6006600052600587526040600020610c1482612404565b905490881b1c6001600160a01b0316600090815290885260409020548416610c45575b610c40906123ac565b610b35565b97610c52610c4091612783565b989050610c37565b828254891c168482161015610c8957610c839060058060005287526040600020610bca82612404565b81610b21565b610b26565b60058060005287526040600020610ca482612404565b905490881b1c6001600160a01b0316600090815290885260409020548416610cd5575b610cd0906123ac565b610aff565b91610ce2610cd091612783565b929050610cc7565b828254891c168482161015610d1a57610d14906004600052600587526040600020610bca82612404565b81610aed565b610af2565b6004600052600585526040600020610d3682612404565b60018060a01b0391549060031b1c1660005285528260406000205416610d65575b610d60906123ac565b610ab9565b92610d72610d6091612783565b939050610d57565b3461024b57600036600319011261024b57604051604081018181106001600160401b0382111761046d5760405260058152602090640352e302e360dc1b82820152604051828193825282519081818401526000935b828510610df2575050604092506000838284010152601f80199101168101030190f35b8481018201518686016040015293810193859350610dcf565b3461024b57602036600319011261024b57600435600781101561024b5760ff610e35602092612393565b54166040519015158152f35b3461024b57610e4f366122aa565b3360005260206002815260ff91610e6c8360406000205416612431565b8281511691610e7c83151561246c565b6000925b848416938185101561027957610e9a8661087687876123da565b6001805490918891600090600890811c8416825b816001600160401b03821610610f725750506001600160401b0390610edd600393838086541691161015612737565b6000865b610f19575b50505050506108e0610f02916108768899610f119798996123da565b9060ff198254161790556124a6565b929190610e80565b858754831c168382161015610f6d57610f678791610f3687612361565b610f3f82612404565b905490881b1c6001600160a01b03166000908152908d5260409020805460ff191690556123ac565b90610ee1565b610ee6565b610f7b85612361565b610f8482612404565b60018060a01b0391549060031b1c166000528a528560406000205416610fb3575b610fae906123ac565b610eae565b92610fc0610fae91612783565b939050610fa5565b3461024b57610fd6366122aa565b336000526020906002825260ff91610ff48360406000205416612431565b828251169161100483151561246c565b60005b848116908482101561027957610a5a6110328761087685610a3d611032846108766110379a8c6123da565b61237a565b611007565b3461024b57600036600319011261024b576000805160206128ac833981519152546040516001600160a01b039091168152602090f35b3461024b57604036600319011261024b57600435600a81101561024b576024356001600160a01b038116919082900361024b576110ae90612332565b90600052602052602060ff604060002054166040519015158152f35b3461024b57600036600319011261024b576110e361280f565b6000805160206128ac83398151915280546001600160a01b031981169091556000906001600160a01b03167f8be0079c531659141344cd1fd0a4f28419497f9722a3daafe3b4186f6b6457e08280a3005b3461024b57611142366122aa565b336000526020906002825260ff916111608360406000205416612431565b828251169161117083151561246c565b60005b848116908482101561027957610a5a61119e8761087685610a3d61119e846108766111a39a8c6123da565b612361565b611173565b3461024b57600036600319011261024b57336000526020600281526111d460ff60406000205416612431565b6000805260059081815260406000203360005281526111fb60ff6040600020541615612514565b60019081600052828152604060002033600052815261122260ff604060002054161561256a565b6002600052828152604060002033600052815261124760ff60406000205416156125c1565b6003600052828152604060002033600052815261126c60ff604060002054161561260d565b60008052828152604060002033600052815260406000209260ff19938385825416179055826000528082526040600020336000528252604060002083858254161790556002600052808252604060002033600052825260406000208385825416179055600360005281526040600020903360005252604060002091825416179055600080f35b3461024b57600036600319011261024b577f00000000000000000000000000000000000000000000000000000000000000006001600160a01b0316300361134b5760206040516000805160206128cc8339815191528152f35b60405163703e46dd60e11b8152600490fd5b604036600319011261024b57611371612241565b60249081356001600160401b03811161024b573660238201121561024b57806004013561139d81612278565b926113ab6040519485612257565b818452602091828501933687838301011161024b5781600092888693018737860101526001600160a01b037f0000000000000000000000000000000000000000000000000000000000000000811630811490811561156c575b5061134b5761141161280f565b8116936040516352d1902d60e01b81528381600481895afa6000918161153d575b5061144f57604051634c9c8ce360e01b8152600481018790528790fd5b8590876000805160206128cc833981519152918281036115285750843b15611512575080546001600160a01b03191682179055604051907fbc7cd75a20ee27fd9adebab32041f755214dbc6bffa90cc0225b39da2e5c2d3b600080a28151156114f7575060006102799481925190845af4903d156114ee573d6114d181612278565b906114df6040519283612257565b8152600081943d92013e612848565b60609250612848565b93505050503461150357005b63b398979f60e01b8152600490fd5b604051634c9c8ce360e01b815260048101849052fd5b60405190632a87526960e21b82526004820152fd5b9091508481813d8311611565575b6115558183612257565b8101031261024b57519088611432565b503d61154b565b9050816000805160206128cc8339815191525416141587611404565b3461024b57600036600319011261024b57336000526002602081815260ff906115b78260406000205416612431565b600180549092600092918491600891821c8116855b816001600160401b0382161061193c5750506001600160401b03916115fb600396848089541691161015612737565b6000845b6118fb575b50600080838654841c16905b818682161061189357505061162d90848089541691161015612737565b6000845b611852575b50600080838654841c16905b81868216106117e857505061165f90848089541691161015612737565b6000845b6117a7575b50600080838654841c16905b818682161061173d57505061169190848089541691161015612737565b6000845b6116e1575b6000808052600787526040808220805460ff19908116891790915587835281832080548216891790558b835281832080548216891790558983529120805490911686179055005b828554831c16848216101561173857611732908760005260058752604060002061170a82612404565b9054908a1b1c6001600160a01b0316600090815290885260409020805460ff191690556123ac565b84611695565b61169a565b909192939495508760005260058752604060002061175a82612404565b9054908a1b1c6001600160a01b0316600090815290885260409020548516611792575b611786906123ac565b90889594939291611674565b9161179f61178691612783565b92905061177d565b82859293949554841c1685821610156117de576117d4908960005260058752604060002061170a82612404565b8194939291611663565b9392919093611668565b909192939495508960005260058752604060002061180582612404565b9054908a1b1c6001600160a01b031660009081529088526040902054851661183d575b611831906123ac565b90889594939291611642565b9161184a61183191612783565b929050611828565b82859293949554841c1685821610156118895761187f908260005260058752604060002061170a82612404565b8194939291611631565b9392919093611636565b9091929394956000526005875260406000206118ae82612404565b9054908a1b1c6001600160a01b03166000908152908852604090205485166118e6575b6118da906123ac565b90889594939291611610565b916118f36118da91612783565b9290506118d1565b82859293949554841c16858216101561193257611928906000805260058752604060002061170a82612404565b81949392916115ff565b9392919093611604565b90919293506000805260058552604060002061195782612404565b60018060a01b0391549060031b1c166000528552826040600020541661198b575b611981906123ac565b90869392916115cc565b9461199861198191612783565b959050611978565b3461024b57600036600319011261024b573360005260206002815260ff6119cd8160406000205416612431565b60008060019283549181600893841c16905b816001600160401b03821610611c3c5750506001600160401b0391611a0e600394848087541691161015612737565b846000815b611c07575b5050600080838754841c16905b8186821610611baa575050611a4290848087541691161015612737565b846000815b611b75575b5050600080838754841c16905b8186821610611b19575050611a7690848087541691161015612737565b6000855b611abc575b600787600460005252604060002060ff19908181541690556005600052604060002081815416905560066000526040600020908154169055600080f35b828654831c168482161015611b1457611b0e869160068060005289526040600020611ae682612404565b905490891b1c6001600160a01b03166000908152908a5260409020805460ff191690556123ac565b90611a7a565b611a7f565b60068060005289526040600020611b2f82612404565b905490891b1c6001600160a01b03166000908152908a5260409020548516611b60575b611b5b906123ac565b611a59565b91611b6d611b5b91612783565b929050611b52565b838254841c168582161015611ba557611b9f906005600052600689526040600020611ae682612404565b81611a47565b611a4c565b6005600052600689526040600020611bc182612404565b905490891b1c6001600160a01b03166000908152908a5260409020548516611bf2575b611bed906123ac565b611a25565b91611bff611bed91612783565b929050611be4565b838254841c168582161015611c3757611c31906004600052600689526040600020611ae682612404565b81611a13565b611a18565b6004600052600687526040600020611c5382612404565b60018060a01b0391549060031b1c1660005287528260406000205416611c82575b611c7d906123ac565b6119df565b93611c8f611c7d91612783565b949050611c74565b3461024b57600036600319011261024b5733600052602060028152611cc360ff60406000205416612431565b6000805260069081815260406000203360005281526111fb60ff6040600020541615612514565b3461024b57602036600319011261024b576001600160a01b03611d0b612241565b166000526002602052602060ff604060002054166040519015158152f35b3461024b57600036600319011261024b5733600052602060028152611d5560ff60406000205416612431565b60046000526005908181526040600020336000528152611d7d60ff6040600020541615612653565b816000528181526040600020336000528152611da160ff604060002054161561269f565b60066000528181526040600020336000528152611dc660ff60406000205416156126eb565b6004600052818152604060002033600052815260406000209160ff199260018482541617905580600052808252604060002033600052825260406000206001848254161790556006600052815260406000209033600052526001604060002091825416179055600080f35b3461024b57600036600319011261024b57336000526002602081815260ff91611e608360406000205416612431565b600180549093600093918591600891821c8116865b816001600160401b038216106121dd5750506001600160401b0391611ea460039784808a541691161015612737565b6000845b61219c575b50600080838654841c16905b8186821610612134575050611ed69084808a541691161015612737565b6000845b6120f3575b50600080838654841c16905b8186821610612089575050611f089084808a541691161015612737565b6000845b612048575b50600080838654841c16905b8186821610611fde575050611f3a9084808a541691161015612737565b6000845b611f82575b6000808052600787526040808220805460ff199081169091558783528183208054821690558983528183208054821690558a8352912080549091169055005b828554831c168482161015611fd957611fd39088600052600687526040600020611fab82612404565b9054908b1b1c6001600160a01b0316600090815290885260409020805460ff191690556123ac565b84611f3e565b611f43565b9091929394955088600052600687526040600020611ffb82612404565b9054908b1b1c6001600160a01b0316600090815290885260409020548516612033575b612027906123ac565b90899594939291611f1d565b9161204061202791612783565b92905061201e565b82859293949554841c16858216101561207f576120759087600052600687526040600020611fab82612404565b8194939291611f0c565b9392919093611f11565b90919293949550876000526006875260406000206120a682612404565b9054908b1b1c6001600160a01b03166000908152908852604090205485166120de575b6120d2906123ac565b90899594939291611eeb565b916120eb6120d291612783565b9290506120c9565b82859293949554841c16858216101561212a576121209082600052600687526040600020611fab82612404565b8194939291611eda565b9392919093611edf565b90919293949560005260068752604060002061214f82612404565b9054908b1b1c6001600160a01b0316600090815290885260409020548516612187575b61217b906123ac565b90899594939291611eb9565b9161219461217b91612783565b929050612172565b82859293949554841c1685821610156121d3576121c99060008052600687526040600020611fab82612404565b8194939291611ea8565b9392919093611ead565b9091929350600080526006855260406000206121f882612404565b60018060a01b0391549060031b1c166000528552826040600020541661222c575b612222906123ac565b9087939291611e75565b9561223961222291612783565b969050612219565b600435906001600160a01b038216820361024b57565b90601f801991011681019081106001600160401b0382111761046d57604052565b6001600160401b03811161046d57601f01601f191660200190565b6001600160401b03811161046d5760051b60200190565b60208060031983011261024b57600435916001600160401b03831161024b578060238401121561024b5782600401356122e281612293565b936122f06040519586612257565b81855260248486019260051b82010192831161024b57602401905b828210612319575050505090565b813560ff8116810361024b57815290830190830161230b565b600a81101561234b576000526004602052604060002090565b634e487b7160e01b600052602160045260246000fd5b600781101561234b576000526005602052604060002090565b600781101561234b576000526006602052604060002090565b600781101561234b576000526007602052604060002090565b6001600160401b038091169081146123c45760010190565b634e487b7160e01b600052601160045260246000fd5b80518210156123ee5760209160051b010190565b634e487b7160e01b600052603260045260246000fd5b90600091825481101561241d5782805260208320019190565b634e487b7160e01b83526032600452602483fd5b1561243857565b60405162461bcd60e51b815260206004820152600c60248201526b2737ba1030b71037bbb732b960a11b6044820152606490fd5b1561247357565b60405162461bcd60e51b815260206004820152600b60248201526a456d70747920617272617960a81b6044820152606490fd5b60ff1660ff81146123c45760010190565b60ff16600781101561234b5790565b156124cd57565b60405162461bcd60e51b815260206004820152601060248201526f105b1c9958591e48185c1c1c9bdd995960821b6044820152606490fd5b60ff16600a81101561234b5790565b1561251b57565b60405162461bcd60e51b815260206004820152602160248201527f426f72726f77696e674465706f73697420416c726561647920617070726f76656044820152601960fa1b6064820152608490fd5b1561257157565b60405162461bcd60e51b815260206004820152602260248201527f426f72726f77696e67576974686472617720416c726561647920617070726f76604482015261195960f21b6064820152608490fd5b156125c857565b60405162461bcd60e51b815260206004820152601c60248201527f4c69717569646174696f6e20416c726561647920617070726f766564000000006044820152606490fd5b1561261457565b60405162461bcd60e51b815260206004820152601760248201527614d95d10541488105b1c9958591e48185c1c1c9bdd9959604a1b6044820152606490fd5b1561265a57565b60405162461bcd60e51b815260206004820152601b60248201527f4344534465706f73697420416c726561647920617070726f76656400000000006044820152606490fd5b156126a657565b60405162461bcd60e51b815260206004820152601c60248201527f434453576974686472617720416c726561647920617070726f766564000000006044820152606490fd5b156126f257565b60405162461bcd60e51b815260206004820152601b60248201527f52656465656d5553445420416c726561647920617070726f76656400000000006044820152606490fd5b1561273e57565b60405162461bcd60e51b815260206004820152601a60248201527f526571756972656420617070726f76616c73206e6f74206d65740000000000006044820152606490fd5b9060016001600160401b03809316019182116123c457565b6001600160a01b039081169081156127f6576000805160206128ac83398151915280546001600160a01b031981168417909155167f8be0079c531659141344cd1fd0a4f28419497f9722a3daafe3b4186f6b6457e0600080a3565b604051631e4fbdf760e01b815260006004820152602490fd5b6000805160206128ac833981519152546001600160a01b0316330361283057565b60405163118cdaa760e01b8152336004820152602490fd5b9061286f575080511561285d57805190602001fd5b604051630a12f52160e11b8152600490fd5b815115806128a2575b612880575090565b604051639996b31560e01b81526001600160a01b039091166004820152602490fd5b50803b1561287856fe9016d09d72d40fdae2fd8ceac6b6234c7706214fd39c1cd1e609a0528c199300360894a13ba1a3210667c828492db98dca3e2076cc3735a920a3ca505d382bbcf0c57e16840df040f15088dc2f81fe391c3923bec73e23a9662efc9c229c6a00a2646970667358221220a38f636a977aa176c9c0e1ac31463ab360a9d349c0d6ef514a5639cfce024aec64736f6c63430008140033","linkReferences":{}},"methodIdentifiers":{"UPGRADE_INTERFACE_VERSION()":"ad3cb1cc","approveBorrowingPause()":"5637e6ae","approveBorrowingUnPause()":"3ea940e1","approveCDSPause()":"1c441433","approveCDSUnPause()":"d8378add","approvePause(uint8[])":"6ee4798c","approveSetterFunction(uint8[])":"cff4ed5f","approveUnPause(uint8[])":"8f2a456c","approvedToUpdate(uint8,address)":"8a127639","executeSetterFunction(uint8)":"fb8c9278","functionState(uint8)":"9b4a9544","initialize(address[],uint64)":"e3583d4d","isOwner(address)":"2f54bf6e","owner()":"8da5cb5b","pauseBorrowing()":"475d9694","pauseCDS()":"bb6484c0","pauseFunction(uint8[])":"97d88fcb","proxiableUUID()":"52d1902d","renounceOwnership()":"715018a6","transferOwnership(address)":"f2fde38b","unpauseBorrowing()":"167c6314","unpauseCDS()":"4580a448","unpauseFunction(uint8[])":"d6011d74","upgradeToAndCall(address,bytes)":"4f1ef286"},"id":3}